{
	"contracts/RewardsDistributor.sol": {
		"RewardsDistributor": {
			"abi": [
				{
					"inputs": [
						{
							"internalType": "address",
							"name": "tokenAddress",
							"type": "address"
						},
						{
							"internalType": "address",
							"name": "owner_",
							"type": "address"
						}
					],
					"stateMutability": "nonpayable",
					"type": "constructor"
				},
				{
					"inputs": [
						{
							"internalType": "address",
							"name": "owner",
							"type": "address"
						}
					],
					"name": "OwnableInvalidOwner",
					"type": "error"
				},
				{
					"inputs": [
						{
							"internalType": "address",
							"name": "account",
							"type": "address"
						}
					],
					"name": "OwnableUnauthorizedAccount",
					"type": "error"
				},
				{
					"anonymous": false,
					"inputs": [
						{
							"indexed": true,
							"internalType": "address",
							"name": "previousOwner",
							"type": "address"
						},
						{
							"indexed": true,
							"internalType": "address",
							"name": "newOwner",
							"type": "address"
						}
					],
					"name": "OwnershipTransferred",
					"type": "event"
				},
				{
					"anonymous": false,
					"inputs": [
						{
							"indexed": true,
							"internalType": "address",
							"name": "player",
							"type": "address"
						},
						{
							"indexed": false,
							"internalType": "uint256",
							"name": "distanceKm",
							"type": "uint256"
						},
						{
							"indexed": false,
							"internalType": "uint256",
							"name": "amount",
							"type": "uint256"
						}
					],
					"name": "RewardSent",
					"type": "event"
				},
				{
					"anonymous": false,
					"inputs": [
						{
							"indexed": true,
							"internalType": "address",
							"name": "signer",
							"type": "address"
						},
						{
							"indexed": false,
							"internalType": "bool",
							"name": "allowed",
							"type": "bool"
						}
					],
					"name": "SignerSet",
					"type": "event"
				},
				{
					"inputs": [
						{
							"internalType": "address",
							"name": "",
							"type": "address"
						},
						{
							"internalType": "uint256",
							"name": "",
							"type": "uint256"
						}
					],
					"name": "dailyClaimed",
					"outputs": [
						{
							"internalType": "uint256",
							"name": "",
							"type": "uint256"
						}
					],
					"stateMutability": "view",
					"type": "function"
				},
				{
					"inputs": [
						{
							"internalType": "address",
							"name": "",
							"type": "address"
						}
					],
					"name": "isGameSigner",
					"outputs": [
						{
							"internalType": "bool",
							"name": "",
							"type": "bool"
						}
					],
					"stateMutability": "view",
					"type": "function"
				},
				{
					"inputs": [],
					"name": "maxDailyForAddr",
					"outputs": [
						{
							"internalType": "uint256",
							"name": "",
							"type": "uint256"
						}
					],
					"stateMutability": "view",
					"type": "function"
				},
				{
					"inputs": [],
					"name": "maxRewardPerCall",
					"outputs": [
						{
							"internalType": "uint256",
							"name": "",
							"type": "uint256"
						}
					],
					"stateMutability": "view",
					"type": "function"
				},
				{
					"inputs": [],
					"name": "owner",
					"outputs": [
						{
							"internalType": "address",
							"name": "",
							"type": "address"
						}
					],
					"stateMutability": "view",
					"type": "function"
				},
				{
					"inputs": [],
					"name": "renounceOwnership",
					"outputs": [],
					"stateMutability": "view",
					"type": "function"
				},
				{
					"inputs": [
						{
							"internalType": "address",
							"name": "to",
							"type": "address"
						},
						{
							"internalType": "uint256",
							"name": "amount",
							"type": "uint256"
						}
					],
					"name": "rescue",
					"outputs": [],
					"stateMutability": "nonpayable",
					"type": "function"
				},
				{
					"inputs": [
						{
							"internalType": "address",
							"name": "player",
							"type": "address"
						},
						{
							"internalType": "uint256",
							"name": "distanceKm",
							"type": "uint256"
						}
					],
					"name": "rewardPlayer",
					"outputs": [],
					"stateMutability": "nonpayable",
					"type": "function"
				},
				{
					"inputs": [
						{
							"internalType": "uint256",
							"name": "_maxPerCall",
							"type": "uint256"
						},
						{
							"internalType": "uint256",
							"name": "_maxDailyForAddr",
							"type": "uint256"
						}
					],
					"name": "setCaps",
					"outputs": [],
					"stateMutability": "nonpayable",
					"type": "function"
				},
				{
					"inputs": [
						{
							"internalType": "address",
							"name": "signer",
							"type": "address"
						},
						{
							"internalType": "bool",
							"name": "allowed",
							"type": "bool"
						}
					],
					"name": "setSigner",
					"outputs": [],
					"stateMutability": "nonpayable",
					"type": "function"
				},
				{
					"inputs": [],
					"name": "token",
					"outputs": [
						{
							"internalType": "contract IERC20",
							"name": "",
							"type": "address"
						}
					],
					"stateMutability": "view",
					"type": "function"
				},
				{
					"inputs": [
						{
							"internalType": "uint256",
							"name": "amount",
							"type": "uint256"
						}
					],
					"name": "topUp",
					"outputs": [],
					"stateMutability": "nonpayable",
					"type": "function"
				},
				{
					"inputs": [
						{
							"internalType": "address",
							"name": "newOwner",
							"type": "address"
						}
					],
					"name": "transferOwnership",
					"outputs": [],
					"stateMutability": "nonpayable",
					"type": "function"
				}
			],
			"devdoc": {
				"errors": {
					"OwnableInvalidOwner(address)": [
						{
							"details": "The owner is not a valid owner account. (eg. `address(0)`)"
						}
					],
					"OwnableUnauthorizedAccount(address)": [
						{
							"details": "The caller account is not authorized to perform an operation."
						}
					]
				},
				"kind": "dev",
				"methods": {
					"owner()": {
						"details": "Returns the address of the current owner."
					},
					"renounceOwnership()": {
						"details": "Leaves the contract without owner. It will not be possible to call `onlyOwner` functions. Can only be called by the current owner. NOTE: Renouncing ownership will leave the contract without an owner, thereby disabling any functionality that is only available to the owner."
					},
					"transferOwnership(address)": {
						"details": "Transfers ownership of the contract to a new account (`newOwner`). Can only be called by the current owner."
					}
				},
				"version": 1
			},
			"evm": {
				"assembly": "    /* \"contracts/RewardsDistributor.sol\":1705:8709  contract RewardsDistributor is Ownable, ReentrancyGuard {... */\n  mstore(0x40, 0xa0)\n    /* \"contracts/RewardsDistributor.sol\":2071:2080  10 * 1e18 */\n  0x8ac7230489e80000\n    /* \"contracts/RewardsDistributor.sol\":2037:2080  uint256 public maxRewardPerCall = 10 * 1e18 */\n  0x03\n  sstore\n    /* \"contracts/RewardsDistributor.sol\":2159:2169  200 * 1e18 */\n  0x0ad78ebc5ac6200000\n    /* \"contracts/RewardsDistributor.sol\":2126:2169  uint256 public maxDailyForAddr = 200 * 1e18 */\n  0x04\n  sstore\n    /* \"contracts/RewardsDistributor.sol\":3131:3242  constructor(address tokenAddress, address owner_) Ownable(owner_) {... */\n  callvalue\n  dup1\n  iszero\n  tag_1\n  jumpi\n  revert(0x00, 0x00)\ntag_1:\n  pop\n  mload(0x40)\n  sub(codesize, bytecodeSize)\n  dup1\n  bytecodeSize\n  dup4\n  codecopy\n  dup2\n  dup2\n  add\n  0x40\n  mstore\n  dup2\n  add\n  swap1\n  tag_2\n  swap2\n  swap1\n  tag_3\n  jump\t// in\ntag_2:\n    /* \"contracts/RewardsDistributor.sol\":3189:3195  owner_ */\n  dup1\n    /* \"@openzeppelin/contracts/access/Ownable.sol\":1297:1298  0 */\n  0x00\n    /* \"@openzeppelin/contracts/access/Ownable.sol\":1273:1299  initialOwner == address(0) */\n  0xffffffffffffffffffffffffffffffffffffffff\n  and\n    /* \"@openzeppelin/contracts/access/Ownable.sol\":1273:1285  initialOwner */\n  dup2\n    /* \"@openzeppelin/contracts/access/Ownable.sol\":1273:1299  initialOwner == address(0) */\n  0xffffffffffffffffffffffffffffffffffffffff\n  and\n  sub\n    /* \"@openzeppelin/contracts/access/Ownable.sol\":1269:1364  if (initialOwner == address(0)) {... */\n  tag_8\n  jumpi\n    /* \"@openzeppelin/contracts/access/Ownable.sol\":1350:1351  0 */\n  0x00\n    /* \"@openzeppelin/contracts/access/Ownable.sol\":1322:1353  OwnableInvalidOwner(address(0)) */\n  mload(0x40)\n  0x1e4fbdf700000000000000000000000000000000000000000000000000000000\n  dup2\n  mstore\n  0x04\n  add\n  tag_9\n  swap2\n  swap1\n  tag_10\n  jump\t// in\ntag_9:\n  mload(0x40)\n  dup1\n  swap2\n  sub\n  swap1\n  revert\n    /* \"@openzeppelin/contracts/access/Ownable.sol\":1269:1364  if (initialOwner == address(0)) {... */\ntag_8:\n    /* \"@openzeppelin/contracts/access/Ownable.sol\":1373:1405  _transferOwnership(initialOwner) */\n  tag_11\n    /* \"@openzeppelin/contracts/access/Ownable.sol\":1392:1404  initialOwner */\n  dup2\n    /* \"@openzeppelin/contracts/access/Ownable.sol\":1373:1391  _transferOwnership */\n  shl(0x20, tag_12)\n    /* \"@openzeppelin/contracts/access/Ownable.sol\":1373:1405  _transferOwnership(initialOwner) */\n  0x20\n  shr\n  jump\t// in\ntag_11:\n    /* \"@openzeppelin/contracts/access/Ownable.sol\":1225:1412  constructor(address initialOwner) {... */\n  pop\n    /* \"@openzeppelin/contracts/security/ReentrancyGuard.sol\":1716:1717  1 */\n  0x01\n    /* \"@openzeppelin/contracts/security/ReentrancyGuard.sol\":1821:1828  _status */\n  dup1\n    /* \"@openzeppelin/contracts/security/ReentrancyGuard.sol\":1821:1843  _status = _NOT_ENTERED */\n  dup2\n  swap1\n  sstore\n  pop\n    /* \"contracts/RewardsDistributor.sol\":3222:3234  tokenAddress */\n  dup2\n    /* \"contracts/RewardsDistributor.sol\":3207:3235  token = IERC20(tokenAddress) */\n  0xffffffffffffffffffffffffffffffffffffffff\n  and\n  0x80\n  dup2\n  0xffffffffffffffffffffffffffffffffffffffff\n  and\n  dup2\n  mstore\n  pop\n  pop\n    /* \"contracts/RewardsDistributor.sol\":3131:3242  constructor(address tokenAddress, address owner_) Ownable(owner_) {... */\n  pop\n  pop\n    /* \"contracts/RewardsDistributor.sol\":1705:8709  contract RewardsDistributor is Ownable, ReentrancyGuard {... */\n  jump(tag_15)\n    /* \"@openzeppelin/contracts/access/Ownable.sol\":2912:3099  function _transferOwnership(address newOwner) internal virtual {... */\ntag_12:\n    /* \"@openzeppelin/contracts/access/Ownable.sol\":2985:3001  address oldOwner */\n  0x00\n    /* \"@openzeppelin/contracts/access/Ownable.sol\":3004:3010  _owner */\n  0x00\n  0x00\n  swap1\n  sload\n  swap1\n  0x0100\n  exp\n  swap1\n  div\n  0xffffffffffffffffffffffffffffffffffffffff\n  and\n    /* \"@openzeppelin/contracts/access/Ownable.sol\":2985:3010  address oldOwner = _owner */\n  swap1\n  pop\n    /* \"@openzeppelin/contracts/access/Ownable.sol\":3029:3037  newOwner */\n  dup2\n    /* \"@openzeppelin/contracts/access/Ownable.sol\":3020:3026  _owner */\n  0x00\n  0x00\n    /* \"@openzeppelin/contracts/access/Ownable.sol\":3020:3037  _owner = newOwner */\n  0x0100\n  exp\n  dup2\n  sload\n  dup2\n  0xffffffffffffffffffffffffffffffffffffffff\n  mul\n  not\n  and\n  swap1\n  dup4\n  0xffffffffffffffffffffffffffffffffffffffff\n  and\n  mul\n  or\n  swap1\n  sstore\n  pop\n    /* \"@openzeppelin/contracts/access/Ownable.sol\":3083:3091  newOwner */\n  dup2\n    /* \"@openzeppelin/contracts/access/Ownable.sol\":3052:3092  OwnershipTransferred(oldOwner, newOwner) */\n  0xffffffffffffffffffffffffffffffffffffffff\n  and\n    /* \"@openzeppelin/contracts/access/Ownable.sol\":3073:3081  oldOwner */\n  dup2\n    /* \"@openzeppelin/contracts/access/Ownable.sol\":3052:3092  OwnershipTransferred(oldOwner, newOwner) */\n  0xffffffffffffffffffffffffffffffffffffffff\n  and\n  0x8be0079c531659141344cd1fd0a4f28419497f9722a3daafe3b4186f6b6457e0\n  mload(0x40)\n  mload(0x40)\n  dup1\n  swap2\n  sub\n  swap1\n  log3\n    /* \"@openzeppelin/contracts/access/Ownable.sol\":2975:3099  {... */\n  pop\n    /* \"@openzeppelin/contracts/access/Ownable.sol\":2912:3099  function _transferOwnership(address newOwner) internal virtual {... */\n  pop\n  jump\t// out\n    /* \"#utility.yul\":88:205   */\ntag_18:\n    /* \"#utility.yul\":197:198   */\n  0x00\n    /* \"#utility.yul\":194:195   */\n  0x00\n    /* \"#utility.yul\":187:199   */\n  revert\n    /* \"#utility.yul\":334:460   */\ntag_20:\n    /* \"#utility.yul\":371:378   */\n  0x00\n    /* \"#utility.yul\":411:453   */\n  0xffffffffffffffffffffffffffffffffffffffff\n    /* \"#utility.yul\":404:409   */\n  dup3\n    /* \"#utility.yul\":400:454   */\n  and\n    /* \"#utility.yul\":389:454   */\n  swap1\n  pop\n    /* \"#utility.yul\":334:460   */\n  swap2\n  swap1\n  pop\n  jump\t// out\n    /* \"#utility.yul\":466:562   */\ntag_21:\n    /* \"#utility.yul\":503:510   */\n  0x00\n    /* \"#utility.yul\":532:556   */\n  tag_31\n    /* \"#utility.yul\":550:555   */\n  dup3\n    /* \"#utility.yul\":532:556   */\n  tag_20\n  jump\t// in\ntag_31:\n    /* \"#utility.yul\":521:556   */\n  swap1\n  pop\n    /* \"#utility.yul\":466:562   */\n  swap2\n  swap1\n  pop\n  jump\t// out\n    /* \"#utility.yul\":568:690   */\ntag_22:\n    /* \"#utility.yul\":641:665   */\n  tag_33\n    /* \"#utility.yul\":659:664   */\n  dup2\n    /* \"#utility.yul\":641:665   */\n  tag_21\n  jump\t// in\ntag_33:\n    /* \"#utility.yul\":634:639   */\n  dup2\n    /* \"#utility.yul\":631:666   */\n  eq\n    /* \"#utility.yul\":621:684   */\n  tag_34\n  jumpi\n    /* \"#utility.yul\":680:681   */\n  0x00\n    /* \"#utility.yul\":677:678   */\n  0x00\n    /* \"#utility.yul\":670:682   */\n  revert\n    /* \"#utility.yul\":621:684   */\ntag_34:\n    /* \"#utility.yul\":568:690   */\n  pop\n  jump\t// out\n    /* \"#utility.yul\":696:839   */\ntag_23:\n    /* \"#utility.yul\":753:758   */\n  0x00\n    /* \"#utility.yul\":784:790   */\n  dup2\n    /* \"#utility.yul\":778:791   */\n  mload\n    /* \"#utility.yul\":769:791   */\n  swap1\n  pop\n    /* \"#utility.yul\":800:833   */\n  tag_36\n    /* \"#utility.yul\":827:832   */\n  dup2\n    /* \"#utility.yul\":800:833   */\n  tag_22\n  jump\t// in\ntag_36:\n    /* \"#utility.yul\":696:839   */\n  swap3\n  swap2\n  pop\n  pop\n  jump\t// out\n    /* \"#utility.yul\":845:1352   */\ntag_3:\n    /* \"#utility.yul\":924:930   */\n  0x00\n    /* \"#utility.yul\":932:938   */\n  0x00\n    /* \"#utility.yul\":981:983   */\n  0x40\n    /* \"#utility.yul\":969:978   */\n  dup4\n    /* \"#utility.yul\":960:967   */\n  dup6\n    /* \"#utility.yul\":956:979   */\n  sub\n    /* \"#utility.yul\":952:984   */\n  slt\n    /* \"#utility.yul\":949:1068   */\n  iszero\n  tag_38\n  jumpi\n    /* \"#utility.yul\":987:1066   */\n  tag_39\n  tag_18\n  jump\t// in\ntag_39:\n    /* \"#utility.yul\":949:1068   */\ntag_38:\n    /* \"#utility.yul\":1107:1108   */\n  0x00\n    /* \"#utility.yul\":1132:1196   */\n  tag_40\n    /* \"#utility.yul\":1188:1195   */\n  dup6\n    /* \"#utility.yul\":1179:1185   */\n  dup3\n    /* \"#utility.yul\":1168:1177   */\n  dup7\n    /* \"#utility.yul\":1164:1186   */\n  add\n    /* \"#utility.yul\":1132:1196   */\n  tag_23\n  jump\t// in\ntag_40:\n    /* \"#utility.yul\":1122:1196   */\n  swap3\n  pop\n    /* \"#utility.yul\":1078:1206   */\n  pop\n    /* \"#utility.yul\":1245:1247   */\n  0x20\n    /* \"#utility.yul\":1271:1335   */\n  tag_41\n    /* \"#utility.yul\":1327:1334   */\n  dup6\n    /* \"#utility.yul\":1318:1324   */\n  dup3\n    /* \"#utility.yul\":1307:1316   */\n  dup7\n    /* \"#utility.yul\":1303:1325   */\n  add\n    /* \"#utility.yul\":1271:1335   */\n  tag_23\n  jump\t// in\ntag_41:\n    /* \"#utility.yul\":1261:1335   */\n  swap2\n  pop\n    /* \"#utility.yul\":1216:1345   */\n  pop\n    /* \"#utility.yul\":845:1352   */\n  swap3\n  pop\n  swap3\n  swap1\n  pop\n  jump\t// out\n    /* \"#utility.yul\":1358:1476   */\ntag_24:\n    /* \"#utility.yul\":1445:1469   */\n  tag_43\n    /* \"#utility.yul\":1463:1468   */\n  dup2\n    /* \"#utility.yul\":1445:1469   */\n  tag_21\n  jump\t// in\ntag_43:\n    /* \"#utility.yul\":1440:1443   */\n  dup3\n    /* \"#utility.yul\":1433:1470   */\n  mstore\n    /* \"#utility.yul\":1358:1476   */\n  pop\n  pop\n  jump\t// out\n    /* \"#utility.yul\":1482:1704   */\ntag_10:\n    /* \"#utility.yul\":1575:1579   */\n  0x00\n    /* \"#utility.yul\":1613:1615   */\n  0x20\n    /* \"#utility.yul\":1602:1611   */\n  dup3\n    /* \"#utility.yul\":1598:1616   */\n  add\n    /* \"#utility.yul\":1590:1616   */\n  swap1\n  pop\n    /* \"#utility.yul\":1626:1697   */\n  tag_45\n    /* \"#utility.yul\":1694:1695   */\n  0x00\n    /* \"#utility.yul\":1683:1692   */\n  dup4\n    /* \"#utility.yul\":1679:1696   */\n  add\n    /* \"#utility.yul\":1670:1676   */\n  dup5\n    /* \"#utility.yul\":1626:1697   */\n  tag_24\n  jump\t// in\ntag_45:\n    /* \"#utility.yul\":1482:1704   */\n  swap3\n  swap2\n  pop\n  pop\n  jump\t// out\n    /* \"contracts/RewardsDistributor.sol\":1705:8709  contract RewardsDistributor is Ownable, ReentrancyGuard {... */\ntag_15:\n  mload(0x80)\n  codecopy(0x00, dataOffset(sub_0), dataSize(sub_0))\n  0x00\n  assignImmutable(\"0x391cad19c81a4773de6b9365ea023cc0a7fd2c96665694aa047da79f41f9a730\")\n  return(0x00, dataSize(sub_0))\nstop\n\nsub_0: assembly {\n        /* \"contracts/RewardsDistributor.sol\":1705:8709  contract RewardsDistributor is Ownable, ReentrancyGuard {... */\n      mstore(0x40, 0x80)\n      callvalue\n      dup1\n      iszero\n      tag_1\n      jumpi\n      revert(0x00, 0x00)\n    tag_1:\n      pop\n      jumpi(tag_2, lt(calldatasize, 0x04))\n      shr(0xe0, calldataload(0x00))\n      dup1\n      0x8da5cb5b\n      gt\n      tag_16\n      jumpi\n      dup1\n      0xc8e7711f\n      gt\n      tag_17\n      jumpi\n      dup1\n      0xc8e7711f\n      eq\n      tag_12\n      jumpi\n      dup1\n      0xe2f70f04\n      eq\n      tag_13\n      jumpi\n      dup1\n      0xf2fde38b\n      eq\n      tag_14\n      jumpi\n      dup1\n      0xfc0c546a\n      eq\n      tag_15\n      jumpi\n      jump(tag_2)\n    tag_17:\n      dup1\n      0x8da5cb5b\n      eq\n      tag_9\n      jumpi\n      dup1\n      0x8ea9571c\n      eq\n      tag_10\n      jumpi\n      dup1\n      0x9ea715a0\n      eq\n      tag_11\n      jumpi\n      jump(tag_2)\n    tag_16:\n      dup1\n      0x212bf316\n      eq\n      tag_3\n      jumpi\n      dup1\n      0x31cb6105\n      eq\n      tag_4\n      jumpi\n      dup1\n      0x35f6ebc1\n      eq\n      tag_5\n      jumpi\n      dup1\n      0x50017f3e\n      eq\n      tag_6\n      jumpi\n      dup1\n      0x715018a6\n      eq\n      tag_7\n      jumpi\n      dup1\n      0x7a4e4ecf\n      eq\n      tag_8\n      jumpi\n    tag_2:\n      revert(0x00, 0x00)\n        /* \"contracts/RewardsDistributor.sol\":5212:5408  function setCaps(... */\n    tag_3:\n      tag_18\n      0x04\n      dup1\n      calldatasize\n      sub\n      dup2\n      add\n      swap1\n      tag_19\n      swap2\n      swap1\n      tag_20\n      jump\t// in\n    tag_19:\n      tag_21\n      jump\t// in\n    tag_18:\n      stop\n        /* \"contracts/RewardsDistributor.sol\":4678:4834  function setSigner(address signer, bool allowed) external onlyOwner {... */\n    tag_4:\n      tag_22\n      0x04\n      dup1\n      calldatasize\n      sub\n      dup2\n      add\n      swap1\n      tag_23\n      swap2\n      swap1\n      tag_24\n      jump\t// in\n    tag_23:\n      tag_25\n      jump\t// in\n    tag_22:\n      stop\n        /* \"contracts/RewardsDistributor.sol\":6766:7661  function rewardPlayer(... */\n    tag_5:\n      tag_26\n      0x04\n      dup1\n      calldatasize\n      sub\n      dup2\n      add\n      swap1\n      tag_27\n      swap2\n      swap1\n      tag_28\n      jump\t// in\n    tag_27:\n      tag_29\n      jump\t// in\n    tag_26:\n      stop\n        /* \"contracts/RewardsDistributor.sol\":8022:8206  function topUp(uint256 amount) external onlyOwner {... */\n    tag_6:\n      tag_30\n      0x04\n      dup1\n      calldatasize\n      sub\n      dup2\n      add\n      swap1\n      tag_31\n      swap2\n      swap1\n      tag_32\n      jump\t// in\n    tag_31:\n      tag_33\n      jump\t// in\n    tag_30:\n      stop\n        /* \"contracts/RewardsDistributor.sol\":3803:3916  function renounceOwnership() public view override onlyOwner {... */\n    tag_7:\n      tag_34\n      tag_35\n      jump\t// in\n    tag_34:\n      stop\n        /* \"contracts/RewardsDistributor.sol\":8555:8707  function rescue(address to, uint256 amount) external onlyOwner {... */\n    tag_8:\n      tag_36\n      0x04\n      dup1\n      calldatasize\n      sub\n      dup2\n      add\n      swap1\n      tag_37\n      swap2\n      swap1\n      tag_28\n      jump\t// in\n    tag_37:\n      tag_38\n      jump\t// in\n    tag_36:\n      stop\n        /* \"@openzeppelin/contracts/access/Ownable.sol\":1638:1723  function owner() public view virtual returns (address) {... */\n    tag_9:\n      tag_39\n      tag_40\n      jump\t// in\n    tag_39:\n      mload(0x40)\n      tag_41\n      swap2\n      swap1\n      tag_42\n      jump\t// in\n    tag_41:\n      mload(0x40)\n      dup1\n      swap2\n      sub\n      swap1\n      return\n        /* \"contracts/RewardsDistributor.sol\":2126:2169  uint256 public maxDailyForAddr = 200 * 1e18 */\n    tag_10:\n      tag_43\n      tag_44\n      jump\t// in\n    tag_43:\n      mload(0x40)\n      tag_45\n      swap2\n      swap1\n      tag_46\n      jump\t// in\n    tag_45:\n      mload(0x40)\n      dup1\n      swap2\n      sub\n      swap1\n      return\n        /* \"contracts/RewardsDistributor.sol\":2037:2080  uint256 public maxRewardPerCall = 10 * 1e18 */\n    tag_11:\n      tag_47\n      tag_48\n      jump\t// in\n    tag_47:\n      mload(0x40)\n      tag_49\n      swap2\n      swap1\n      tag_46\n      jump\t// in\n    tag_49:\n      mload(0x40)\n      dup1\n      swap2\n      sub\n      swap1\n      return\n        /* \"contracts/RewardsDistributor.sol\":2264:2331  mapping(address => mapping(uint256 => uint256)) public dailyClaimed */\n    tag_12:\n      tag_50\n      0x04\n      dup1\n      calldatasize\n      sub\n      dup2\n      add\n      swap1\n      tag_51\n      swap2\n      swap1\n      tag_28\n      jump\t// in\n    tag_51:\n      tag_52\n      jump\t// in\n    tag_50:\n      mload(0x40)\n      tag_53\n      swap2\n      swap1\n      tag_46\n      jump\t// in\n    tag_53:\n      mload(0x40)\n      dup1\n      swap2\n      sub\n      swap1\n      return\n        /* \"contracts/RewardsDistributor.sol\":1938:1982  mapping(address => bool) public isGameSigner */\n    tag_13:\n      tag_54\n      0x04\n      dup1\n      calldatasize\n      sub\n      dup2\n      add\n      swap1\n      tag_55\n      swap2\n      swap1\n      tag_56\n      jump\t// in\n    tag_55:\n      tag_57\n      jump\t// in\n    tag_54:\n      mload(0x40)\n      tag_58\n      swap2\n      swap1\n      tag_59\n      jump\t// in\n    tag_58:\n      mload(0x40)\n      dup1\n      swap2\n      sub\n      swap1\n      return\n        /* \"@openzeppelin/contracts/access/Ownable.sol\":2543:2758  function transferOwnership(address newOwner) public virtual onlyOwner {... */\n    tag_14:\n      tag_60\n      0x04\n      dup1\n      calldatasize\n      sub\n      dup2\n      add\n      swap1\n      tag_61\n      swap2\n      swap1\n      tag_56\n      jump\t// in\n    tag_61:\n      tag_62\n      jump\t// in\n    tag_60:\n      stop\n        /* \"contracts/RewardsDistributor.sol\":1825:1854  IERC20 public immutable token */\n    tag_15:\n      tag_63\n      tag_64\n      jump\t// in\n    tag_63:\n      mload(0x40)\n      tag_65\n      swap2\n      swap1\n      tag_66\n      jump\t// in\n    tag_65:\n      mload(0x40)\n      dup1\n      swap2\n      sub\n      swap1\n      return\n        /* \"contracts/RewardsDistributor.sol\":5212:5408  function setCaps(... */\n    tag_21:\n        /* \"@openzeppelin/contracts/access/Ownable.sol\":1531:1544  _checkOwner() */\n      tag_68\n        /* \"@openzeppelin/contracts/access/Ownable.sol\":1531:1542  _checkOwner */\n      tag_69\n        /* \"@openzeppelin/contracts/access/Ownable.sol\":1531:1544  _checkOwner() */\n      jump\t// in\n    tag_68:\n        /* \"contracts/RewardsDistributor.sol\":5346:5357  _maxPerCall */\n      dup2\n        /* \"contracts/RewardsDistributor.sol\":5327:5343  maxRewardPerCall */\n      0x03\n        /* \"contracts/RewardsDistributor.sol\":5327:5357  maxRewardPerCall = _maxPerCall */\n      dup2\n      swap1\n      sstore\n      pop\n        /* \"contracts/RewardsDistributor.sol\":5385:5401  _maxDailyForAddr */\n      dup1\n        /* \"contracts/RewardsDistributor.sol\":5367:5382  maxDailyForAddr */\n      0x04\n        /* \"contracts/RewardsDistributor.sol\":5367:5401  maxDailyForAddr = _maxDailyForAddr */\n      dup2\n      swap1\n      sstore\n      pop\n        /* \"contracts/RewardsDistributor.sol\":5212:5408  function setCaps(... */\n      pop\n      pop\n      jump\t// out\n        /* \"contracts/RewardsDistributor.sol\":4678:4834  function setSigner(address signer, bool allowed) external onlyOwner {... */\n    tag_25:\n        /* \"@openzeppelin/contracts/access/Ownable.sol\":1531:1544  _checkOwner() */\n      tag_72\n        /* \"@openzeppelin/contracts/access/Ownable.sol\":1531:1542  _checkOwner */\n      tag_69\n        /* \"@openzeppelin/contracts/access/Ownable.sol\":1531:1544  _checkOwner() */\n      jump\t// in\n    tag_72:\n        /* \"contracts/RewardsDistributor.sol\":4779:4786  allowed */\n      dup1\n        /* \"contracts/RewardsDistributor.sol\":4756:4768  isGameSigner */\n      0x02\n        /* \"contracts/RewardsDistributor.sol\":4756:4776  isGameSigner[signer] */\n      0x00\n        /* \"contracts/RewardsDistributor.sol\":4769:4775  signer */\n      dup5\n        /* \"contracts/RewardsDistributor.sol\":4756:4776  isGameSigner[signer] */\n      0xffffffffffffffffffffffffffffffffffffffff\n      and\n      0xffffffffffffffffffffffffffffffffffffffff\n      and\n      dup2\n      mstore\n      0x20\n      add\n      swap1\n      dup2\n      mstore\n      0x20\n      add\n      0x00\n      keccak256\n      0x00\n        /* \"contracts/RewardsDistributor.sol\":4756:4786  isGameSigner[signer] = allowed */\n      0x0100\n      exp\n      dup2\n      sload\n      dup2\n      0xff\n      mul\n      not\n      and\n      swap1\n      dup4\n      iszero\n      iszero\n      mul\n      or\n      swap1\n      sstore\n      pop\n        /* \"contracts/RewardsDistributor.sol\":4811:4817  signer */\n      dup2\n        /* \"contracts/RewardsDistributor.sol\":4801:4827  SignerSet(signer, allowed) */\n      0xffffffffffffffffffffffffffffffffffffffff\n      and\n      0xfc4acb499491cd850a8a21ab98c7f128850c0f0e5f1a875a62b7fa055c2ecf19\n        /* \"contracts/RewardsDistributor.sol\":4819:4826  allowed */\n      dup3\n        /* \"contracts/RewardsDistributor.sol\":4801:4827  SignerSet(signer, allowed) */\n      mload(0x40)\n      tag_74\n      swap2\n      swap1\n      tag_59\n      jump\t// in\n    tag_74:\n      mload(0x40)\n      dup1\n      swap2\n      sub\n      swap1\n      log2\n        /* \"contracts/RewardsDistributor.sol\":4678:4834  function setSigner(address signer, bool allowed) external onlyOwner {... */\n      pop\n      pop\n      jump\t// out\n        /* \"contracts/RewardsDistributor.sol\":6766:7661  function rewardPlayer(... */\n    tag_29:\n        /* \"contracts/RewardsDistributor.sol\":4257:4269  isGameSigner */\n      0x02\n        /* \"contracts/RewardsDistributor.sol\":4257:4281  isGameSigner[msg.sender] */\n      0x00\n        /* \"contracts/RewardsDistributor.sol\":4270:4280  msg.sender */\n      caller\n        /* \"contracts/RewardsDistributor.sol\":4257:4281  isGameSigner[msg.sender] */\n      0xffffffffffffffffffffffffffffffffffffffff\n      and\n      0xffffffffffffffffffffffffffffffffffffffff\n      and\n      dup2\n      mstore\n      0x20\n      add\n      swap1\n      dup2\n      mstore\n      0x20\n      add\n      0x00\n      keccak256\n      0x00\n      swap1\n      sload\n      swap1\n      0x0100\n      exp\n      swap1\n      div\n      0xff\n      and\n        /* \"contracts/RewardsDistributor.sol\":4249:4294  require(isGameSigner[msg.sender], \"not game\") */\n      tag_76\n      jumpi\n      mload(0x40)\n      0x08c379a000000000000000000000000000000000000000000000000000000000\n      dup2\n      mstore\n      0x04\n      add\n      tag_77\n      swap1\n      tag_78\n      jump\t// in\n    tag_77:\n      mload(0x40)\n      dup1\n      swap2\n      sub\n      swap1\n      revert\n    tag_76:\n        /* \"@openzeppelin/contracts/security/ReentrancyGuard.sol\":2261:2282  _nonReentrantBefore() */\n      tag_80\n        /* \"@openzeppelin/contracts/security/ReentrancyGuard.sol\":2261:2280  _nonReentrantBefore */\n      tag_81\n        /* \"@openzeppelin/contracts/security/ReentrancyGuard.sol\":2261:2282  _nonReentrantBefore() */\n      jump\t// in\n    tag_80:\n        /* \"contracts/RewardsDistributor.sol\":6913:6914  0 */\n      0x00\n        /* \"contracts/RewardsDistributor.sol\":6895:6915  player != address(0) */\n      0xffffffffffffffffffffffffffffffffffffffff\n      and\n        /* \"contracts/RewardsDistributor.sol\":6895:6901  player */\n      dup3\n        /* \"contracts/RewardsDistributor.sol\":6895:6915  player != address(0) */\n      0xffffffffffffffffffffffffffffffffffffffff\n      and\n      sub\n        /* \"contracts/RewardsDistributor.sol\":6887:6931  require(player != address(0), \"zero player\") */\n      tag_83\n      jumpi\n      mload(0x40)\n      0x08c379a000000000000000000000000000000000000000000000000000000000\n      dup2\n      mstore\n      0x04\n      add\n      tag_84\n      swap1\n      tag_85\n      jump\t// in\n    tag_84:\n      mload(0x40)\n      dup1\n      swap2\n      sub\n      swap1\n      revert\n    tag_83:\n        /* \"contracts/RewardsDistributor.sol\":6995:7009  uint256 amount */\n      0x00\n        /* \"contracts/RewardsDistributor.sol\":7012:7035  _calcReward(distanceKm) */\n      tag_86\n        /* \"contracts/RewardsDistributor.sol\":7024:7034  distanceKm */\n      dup3\n        /* \"contracts/RewardsDistributor.sol\":7012:7023  _calcReward */\n      tag_87\n        /* \"contracts/RewardsDistributor.sol\":7012:7035  _calcReward(distanceKm) */\n      jump\t// in\n    tag_86:\n        /* \"contracts/RewardsDistributor.sol\":6995:7035  uint256 amount = _calcReward(distanceKm) */\n      swap1\n      pop\n        /* \"contracts/RewardsDistributor.sol\":7062:7063  0 */\n      0x00\n        /* \"contracts/RewardsDistributor.sol\":7053:7059  amount */\n      dup2\n        /* \"contracts/RewardsDistributor.sol\":7053:7063  amount > 0 */\n      gt\n        /* \"contracts/RewardsDistributor.sol\":7045:7077  require(amount > 0, \"no reward\") */\n      tag_88\n      jumpi\n      mload(0x40)\n      0x08c379a000000000000000000000000000000000000000000000000000000000\n      dup2\n      mstore\n      0x04\n      add\n      tag_89\n      swap1\n      tag_90\n      jump\t// in\n    tag_89:\n      mload(0x40)\n      dup1\n      swap2\n      sub\n      swap1\n      revert\n    tag_88:\n        /* \"contracts/RewardsDistributor.sol\":7142:7158  maxRewardPerCall */\n      sload(0x03)\n        /* \"contracts/RewardsDistributor.sol\":7132:7138  amount */\n      dup2\n        /* \"contracts/RewardsDistributor.sol\":7132:7158  amount <= maxRewardPerCall */\n      gt\n      iszero\n        /* \"contracts/RewardsDistributor.sol\":7124:7175  require(amount <= maxRewardPerCall, \"per-call cap\") */\n      tag_91\n      jumpi\n      mload(0x40)\n      0x08c379a000000000000000000000000000000000000000000000000000000000\n      dup2\n      mstore\n      0x04\n      add\n      tag_92\n      swap1\n      tag_93\n      jump\t// in\n    tag_92:\n      mload(0x40)\n      dup1\n      swap2\n      sub\n      swap1\n      revert\n    tag_91:\n        /* \"contracts/RewardsDistributor.sol\":7226:7237  uint256 day */\n      0x00\n        /* \"contracts/RewardsDistributor.sol\":7258:7264  1 days */\n      0x015180\n        /* \"contracts/RewardsDistributor.sol\":7240:7255  block.timestamp */\n      timestamp\n        /* \"contracts/RewardsDistributor.sol\":7240:7264  block.timestamp / 1 days */\n      tag_94\n      swap2\n      swap1\n      tag_95\n      jump\t// in\n    tag_94:\n        /* \"contracts/RewardsDistributor.sol\":7226:7264  uint256 day = block.timestamp / 1 days */\n      swap1\n      pop\n        /* \"contracts/RewardsDistributor.sol\":7274:7290  uint256 newDaily */\n      0x00\n        /* \"contracts/RewardsDistributor.sol\":7321:7327  amount */\n      dup3\n        /* \"contracts/RewardsDistributor.sol\":7293:7305  dailyClaimed */\n      0x05\n        /* \"contracts/RewardsDistributor.sol\":7293:7313  dailyClaimed[player] */\n      0x00\n        /* \"contracts/RewardsDistributor.sol\":7306:7312  player */\n      dup8\n        /* \"contracts/RewardsDistributor.sol\":7293:7313  dailyClaimed[player] */\n      0xffffffffffffffffffffffffffffffffffffffff\n      and\n      0xffffffffffffffffffffffffffffffffffffffff\n      and\n      dup2\n      mstore\n      0x20\n      add\n      swap1\n      dup2\n      mstore\n      0x20\n      add\n      0x00\n      keccak256\n        /* \"contracts/RewardsDistributor.sol\":7293:7318  dailyClaimed[player][day] */\n      0x00\n        /* \"contracts/RewardsDistributor.sol\":7314:7317  day */\n      dup5\n        /* \"contracts/RewardsDistributor.sol\":7293:7318  dailyClaimed[player][day] */\n      dup2\n      mstore\n      0x20\n      add\n      swap1\n      dup2\n      mstore\n      0x20\n      add\n      0x00\n      keccak256\n      sload\n        /* \"contracts/RewardsDistributor.sol\":7293:7327  dailyClaimed[player][day] + amount */\n      tag_96\n      swap2\n      swap1\n      tag_97\n      jump\t// in\n    tag_96:\n        /* \"contracts/RewardsDistributor.sol\":7274:7327  uint256 newDaily = dailyClaimed[player][day] + amount */\n      swap1\n      pop\n        /* \"contracts/RewardsDistributor.sol\":7357:7372  maxDailyForAddr */\n      sload(0x04)\n        /* \"contracts/RewardsDistributor.sol\":7345:7353  newDaily */\n      dup2\n        /* \"contracts/RewardsDistributor.sol\":7345:7372  newDaily <= maxDailyForAddr */\n      gt\n      iszero\n        /* \"contracts/RewardsDistributor.sol\":7337:7386  require(newDaily <= maxDailyForAddr, \"daily cap\") */\n      tag_98\n      jumpi\n      mload(0x40)\n      0x08c379a000000000000000000000000000000000000000000000000000000000\n      dup2\n      mstore\n      0x04\n      add\n      tag_99\n      swap1\n      tag_100\n      jump\t// in\n    tag_99:\n      mload(0x40)\n      dup1\n      swap2\n      sub\n      swap1\n      revert\n    tag_98:\n        /* \"contracts/RewardsDistributor.sol\":7424:7432  newDaily */\n      dup1\n        /* \"contracts/RewardsDistributor.sol\":7396:7408  dailyClaimed */\n      0x05\n        /* \"contracts/RewardsDistributor.sol\":7396:7416  dailyClaimed[player] */\n      0x00\n        /* \"contracts/RewardsDistributor.sol\":7409:7415  player */\n      dup8\n        /* \"contracts/RewardsDistributor.sol\":7396:7416  dailyClaimed[player] */\n      0xffffffffffffffffffffffffffffffffffffffff\n      and\n      0xffffffffffffffffffffffffffffffffffffffff\n      and\n      dup2\n      mstore\n      0x20\n      add\n      swap1\n      dup2\n      mstore\n      0x20\n      add\n      0x00\n      keccak256\n        /* \"contracts/RewardsDistributor.sol\":7396:7421  dailyClaimed[player][day] */\n      0x00\n        /* \"contracts/RewardsDistributor.sol\":7417:7420  day */\n      dup5\n        /* \"contracts/RewardsDistributor.sol\":7396:7421  dailyClaimed[player][day] */\n      dup2\n      mstore\n      0x20\n      add\n      swap1\n      dup2\n      mstore\n      0x20\n      add\n      0x00\n      keccak256\n        /* \"contracts/RewardsDistributor.sol\":7396:7432  dailyClaimed[player][day] = newDaily */\n      dup2\n      swap1\n      sstore\n      pop\n        /* \"contracts/RewardsDistributor.sol\":7532:7538  amount */\n      dup3\n        /* \"contracts/RewardsDistributor.sol\":7498:7503  token */\n      immutable(\"0x391cad19c81a4773de6b9365ea023cc0a7fd2c96665694aa047da79f41f9a730\")\n        /* \"contracts/RewardsDistributor.sol\":7498:7513  token.balanceOf */\n      0xffffffffffffffffffffffffffffffffffffffff\n      and\n      0x70a08231\n        /* \"contracts/RewardsDistributor.sol\":7522:7526  this */\n      address\n        /* \"contracts/RewardsDistributor.sol\":7498:7528  token.balanceOf(address(this)) */\n      mload(0x40)\n      dup3\n      0xffffffff\n      and\n      0xe0\n      shl\n      dup2\n      mstore\n      0x04\n      add\n      tag_101\n      swap2\n      swap1\n      tag_42\n      jump\t// in\n    tag_101:\n      0x20\n      mload(0x40)\n      dup1\n      dup4\n      sub\n      dup2\n      dup7\n      gas\n      staticcall\n      iszero\n      dup1\n      iszero\n      tag_103\n      jumpi\n      returndatacopy(0x00, 0x00, returndatasize)\n      revert(0x00, returndatasize)\n    tag_103:\n      pop\n      pop\n      pop\n      pop\n      mload(0x40)\n      returndatasize\n      not(0x1f)\n      0x1f\n      dup3\n      add\n      and\n      dup3\n      add\n      dup1\n      0x40\n      mstore\n      pop\n      dup2\n      add\n      swap1\n      tag_104\n      swap2\n      swap1\n      tag_105\n      jump\t// in\n    tag_104:\n        /* \"contracts/RewardsDistributor.sol\":7498:7538  token.balanceOf(address(this)) >= amount */\n      lt\n      iszero\n        /* \"contracts/RewardsDistributor.sol\":7490:7560  require(token.balanceOf(address(this)) >= amount, \"insufficient pool\") */\n      tag_106\n      jumpi\n      mload(0x40)\n      0x08c379a000000000000000000000000000000000000000000000000000000000\n      dup2\n      mstore\n      0x04\n      add\n      tag_107\n      swap1\n      tag_108\n      jump\t// in\n    tag_107:\n      mload(0x40)\n      dup1\n      swap2\n      sub\n      swap1\n      revert\n    tag_106:\n        /* \"contracts/RewardsDistributor.sol\":7570:7575  token */\n      immutable(\"0x391cad19c81a4773de6b9365ea023cc0a7fd2c96665694aa047da79f41f9a730\")\n        /* \"contracts/RewardsDistributor.sol\":7570:7584  token.transfer */\n      0xffffffffffffffffffffffffffffffffffffffff\n      and\n      0xa9059cbb\n        /* \"contracts/RewardsDistributor.sol\":7585:7591  player */\n      dup7\n        /* \"contracts/RewardsDistributor.sol\":7593:7599  amount */\n      dup6\n        /* \"contracts/RewardsDistributor.sol\":7570:7600  token.transfer(player, amount) */\n      mload(0x40)\n      dup4\n      0xffffffff\n      and\n      0xe0\n      shl\n      dup2\n      mstore\n      0x04\n      add\n      tag_109\n      swap3\n      swap2\n      swap1\n      tag_110\n      jump\t// in\n    tag_109:\n      0x20\n      mload(0x40)\n      dup1\n      dup4\n      sub\n      dup2\n      0x00\n      dup8\n      gas\n      call\n      iszero\n      dup1\n      iszero\n      tag_112\n      jumpi\n      returndatacopy(0x00, 0x00, returndatasize)\n      revert(0x00, returndatasize)\n    tag_112:\n      pop\n      pop\n      pop\n      pop\n      mload(0x40)\n      returndatasize\n      not(0x1f)\n      0x1f\n      dup3\n      add\n      and\n      dup3\n      add\n      dup1\n      0x40\n      mstore\n      pop\n      dup2\n      add\n      swap1\n      tag_113\n      swap2\n      swap1\n      tag_114\n      jump\t// in\n    tag_113:\n      pop\n        /* \"contracts/RewardsDistributor.sol\":7627:7633  player */\n      dup5\n        /* \"contracts/RewardsDistributor.sol\":7616:7654  RewardSent(player, distanceKm, amount) */\n      0xffffffffffffffffffffffffffffffffffffffff\n      and\n      0x6379339f0ae63e95e65fad18ca2a7ec4e7e3f05f3cc5f7079f4d8da8cec34faa\n        /* \"contracts/RewardsDistributor.sol\":7635:7645  distanceKm */\n      dup6\n        /* \"contracts/RewardsDistributor.sol\":7647:7653  amount */\n      dup6\n        /* \"contracts/RewardsDistributor.sol\":7616:7654  RewardSent(player, distanceKm, amount) */\n      mload(0x40)\n      tag_115\n      swap3\n      swap2\n      swap1\n      tag_116\n      jump\t// in\n    tag_115:\n      mload(0x40)\n      dup1\n      swap2\n      sub\n      swap1\n      log2\n        /* \"contracts/RewardsDistributor.sol\":6877:7661  {... */\n      pop\n      pop\n      pop\n        /* \"@openzeppelin/contracts/security/ReentrancyGuard.sol\":2303:2323  _nonReentrantAfter() */\n      tag_117\n        /* \"@openzeppelin/contracts/security/ReentrancyGuard.sol\":2303:2321  _nonReentrantAfter */\n      tag_118\n        /* \"@openzeppelin/contracts/security/ReentrancyGuard.sol\":2303:2323  _nonReentrantAfter() */\n      jump\t// in\n    tag_117:\n        /* \"contracts/RewardsDistributor.sol\":6766:7661  function rewardPlayer(... */\n      pop\n      pop\n      jump\t// out\n        /* \"contracts/RewardsDistributor.sol\":8022:8206  function topUp(uint256 amount) external onlyOwner {... */\n    tag_33:\n        /* \"@openzeppelin/contracts/access/Ownable.sol\":1531:1544  _checkOwner() */\n      tag_120\n        /* \"@openzeppelin/contracts/access/Ownable.sol\":1531:1542  _checkOwner */\n      tag_69\n        /* \"@openzeppelin/contracts/access/Ownable.sol\":1531:1544  _checkOwner() */\n      jump\t// in\n    tag_120:\n        /* \"contracts/RewardsDistributor.sol\":8103:8108  token */\n      immutable(\"0x391cad19c81a4773de6b9365ea023cc0a7fd2c96665694aa047da79f41f9a730\")\n        /* \"contracts/RewardsDistributor.sol\":8103:8121  token.transferFrom */\n      0xffffffffffffffffffffffffffffffffffffffff\n      and\n      0x23b872dd\n        /* \"contracts/RewardsDistributor.sol\":8122:8132  msg.sender */\n      caller\n        /* \"contracts/RewardsDistributor.sol\":8142:8146  this */\n      address\n        /* \"contracts/RewardsDistributor.sol\":8149:8155  amount */\n      dup5\n        /* \"contracts/RewardsDistributor.sol\":8103:8156  token.transferFrom(msg.sender, address(this), amount) */\n      mload(0x40)\n      dup5\n      0xffffffff\n      and\n      0xe0\n      shl\n      dup2\n      mstore\n      0x04\n      add\n      tag_122\n      swap4\n      swap3\n      swap2\n      swap1\n      tag_123\n      jump\t// in\n    tag_122:\n      0x20\n      mload(0x40)\n      dup1\n      dup4\n      sub\n      dup2\n      0x00\n      dup8\n      gas\n      call\n      iszero\n      dup1\n      iszero\n      tag_125\n      jumpi\n      returndatacopy(0x00, 0x00, returndatasize)\n      revert(0x00, returndatasize)\n    tag_125:\n      pop\n      pop\n      pop\n      pop\n      mload(0x40)\n      returndatasize\n      not(0x1f)\n      0x1f\n      dup3\n      add\n      and\n      dup3\n      add\n      dup1\n      0x40\n      mstore\n      pop\n      dup2\n      add\n      swap1\n      tag_126\n      swap2\n      swap1\n      tag_114\n      jump\t// in\n    tag_126:\n        /* \"contracts/RewardsDistributor.sol\":8082:8199  require(... */\n      tag_127\n      jumpi\n      mload(0x40)\n      0x08c379a000000000000000000000000000000000000000000000000000000000\n      dup2\n      mstore\n      0x04\n      add\n      tag_128\n      swap1\n      tag_129\n      jump\t// in\n    tag_128:\n      mload(0x40)\n      dup1\n      swap2\n      sub\n      swap1\n      revert\n    tag_127:\n        /* \"contracts/RewardsDistributor.sol\":8022:8206  function topUp(uint256 amount) external onlyOwner {... */\n      pop\n      jump\t// out\n        /* \"contracts/RewardsDistributor.sol\":3803:3916  function renounceOwnership() public view override onlyOwner {... */\n    tag_35:\n        /* \"@openzeppelin/contracts/access/Ownable.sol\":1531:1544  _checkOwner() */\n      tag_131\n        /* \"@openzeppelin/contracts/access/Ownable.sol\":1531:1542  _checkOwner */\n      tag_69\n        /* \"@openzeppelin/contracts/access/Ownable.sol\":1531:1544  _checkOwner() */\n      jump\t// in\n    tag_131:\n        /* \"contracts/RewardsDistributor.sol\":3873:3909  revert(\"renounceOwnership disabled\") */\n      mload(0x40)\n      0x08c379a000000000000000000000000000000000000000000000000000000000\n      dup2\n      mstore\n      0x04\n      add\n      tag_133\n      swap1\n      tag_134\n      jump\t// in\n    tag_133:\n      mload(0x40)\n      dup1\n      swap2\n      sub\n      swap1\n      revert\n        /* \"contracts/RewardsDistributor.sol\":8555:8707  function rescue(address to, uint256 amount) external onlyOwner {... */\n    tag_38:\n        /* \"@openzeppelin/contracts/access/Ownable.sol\":1531:1544  _checkOwner() */\n      tag_136\n        /* \"@openzeppelin/contracts/access/Ownable.sol\":1531:1542  _checkOwner */\n      tag_69\n        /* \"@openzeppelin/contracts/access/Ownable.sol\":1531:1544  _checkOwner() */\n      jump\t// in\n    tag_136:\n        /* \"contracts/RewardsDistributor.sol\":8650:8651  0 */\n      0x00\n        /* \"contracts/RewardsDistributor.sol\":8636:8652  to != address(0) */\n      0xffffffffffffffffffffffffffffffffffffffff\n      and\n        /* \"contracts/RewardsDistributor.sol\":8636:8638  to */\n      dup3\n        /* \"contracts/RewardsDistributor.sol\":8636:8652  to != address(0) */\n      0xffffffffffffffffffffffffffffffffffffffff\n      and\n      sub\n        /* \"contracts/RewardsDistributor.sol\":8628:8664  require(to != address(0), \"zero to\") */\n      tag_138\n      jumpi\n      mload(0x40)\n      0x08c379a000000000000000000000000000000000000000000000000000000000\n      dup2\n      mstore\n      0x04\n      add\n      tag_139\n      swap1\n      tag_140\n      jump\t// in\n    tag_139:\n      mload(0x40)\n      dup1\n      swap2\n      sub\n      swap1\n      revert\n    tag_138:\n        /* \"contracts/RewardsDistributor.sol\":8674:8679  token */\n      immutable(\"0x391cad19c81a4773de6b9365ea023cc0a7fd2c96665694aa047da79f41f9a730\")\n        /* \"contracts/RewardsDistributor.sol\":8674:8688  token.transfer */\n      0xffffffffffffffffffffffffffffffffffffffff\n      and\n      0xa9059cbb\n        /* \"contracts/RewardsDistributor.sol\":8689:8691  to */\n      dup4\n        /* \"contracts/RewardsDistributor.sol\":8693:8699  amount */\n      dup4\n        /* \"contracts/RewardsDistributor.sol\":8674:8700  token.transfer(to, amount) */\n      mload(0x40)\n      dup4\n      0xffffffff\n      and\n      0xe0\n      shl\n      dup2\n      mstore\n      0x04\n      add\n      tag_141\n      swap3\n      swap2\n      swap1\n      tag_110\n      jump\t// in\n    tag_141:\n      0x20\n      mload(0x40)\n      dup1\n      dup4\n      sub\n      dup2\n      0x00\n      dup8\n      gas\n      call\n      iszero\n      dup1\n      iszero\n      tag_143\n      jumpi\n      returndatacopy(0x00, 0x00, returndatasize)\n      revert(0x00, returndatasize)\n    tag_143:\n      pop\n      pop\n      pop\n      pop\n      mload(0x40)\n      returndatasize\n      not(0x1f)\n      0x1f\n      dup3\n      add\n      and\n      dup3\n      add\n      dup1\n      0x40\n      mstore\n      pop\n      dup2\n      add\n      swap1\n      tag_144\n      swap2\n      swap1\n      tag_114\n      jump\t// in\n    tag_144:\n      pop\n        /* \"contracts/RewardsDistributor.sol\":8555:8707  function rescue(address to, uint256 amount) external onlyOwner {... */\n      pop\n      pop\n      jump\t// out\n        /* \"@openzeppelin/contracts/access/Ownable.sol\":1638:1723  function owner() public view virtual returns (address) {... */\n    tag_40:\n        /* \"@openzeppelin/contracts/access/Ownable.sol\":1684:1691  address */\n      0x00\n        /* \"@openzeppelin/contracts/access/Ownable.sol\":1710:1716  _owner */\n      0x00\n      0x00\n      swap1\n      sload\n      swap1\n      0x0100\n      exp\n      swap1\n      div\n      0xffffffffffffffffffffffffffffffffffffffff\n      and\n        /* \"@openzeppelin/contracts/access/Ownable.sol\":1703:1716  return _owner */\n      swap1\n      pop\n        /* \"@openzeppelin/contracts/access/Ownable.sol\":1638:1723  function owner() public view virtual returns (address) {... */\n      swap1\n      jump\t// out\n        /* \"contracts/RewardsDistributor.sol\":2126:2169  uint256 public maxDailyForAddr = 200 * 1e18 */\n    tag_44:\n      sload(0x04)\n      dup2\n      jump\t// out\n        /* \"contracts/RewardsDistributor.sol\":2037:2080  uint256 public maxRewardPerCall = 10 * 1e18 */\n    tag_48:\n      sload(0x03)\n      dup2\n      jump\t// out\n        /* \"contracts/RewardsDistributor.sol\":2264:2331  mapping(address => mapping(uint256 => uint256)) public dailyClaimed */\n    tag_52:\n      mstore(0x20, 0x05)\n      dup2\n      0x00\n      mstore\n      mstore(0x20, keccak256(0x00, 0x40))\n      dup1\n      0x00\n      mstore\n      keccak256(0x00, 0x40)\n      0x00\n      swap2\n      pop\n      swap2\n      pop\n      pop\n      sload\n      dup2\n      jump\t// out\n        /* \"contracts/RewardsDistributor.sol\":1938:1982  mapping(address => bool) public isGameSigner */\n    tag_57:\n      mstore(0x20, 0x02)\n      dup1\n      0x00\n      mstore\n      keccak256(0x00, 0x40)\n      0x00\n      swap2\n      pop\n      sload\n      swap1\n      0x0100\n      exp\n      swap1\n      div\n      0xff\n      and\n      dup2\n      jump\t// out\n        /* \"@openzeppelin/contracts/access/Ownable.sol\":2543:2758  function transferOwnership(address newOwner) public virtual onlyOwner {... */\n    tag_62:\n        /* \"@openzeppelin/contracts/access/Ownable.sol\":1531:1544  _checkOwner() */\n      tag_147\n        /* \"@openzeppelin/contracts/access/Ownable.sol\":1531:1542  _checkOwner */\n      tag_69\n        /* \"@openzeppelin/contracts/access/Ownable.sol\":1531:1544  _checkOwner() */\n      jump\t// in\n    tag_147:\n        /* \"@openzeppelin/contracts/access/Ownable.sol\":2647:2648  0 */\n      0x00\n        /* \"@openzeppelin/contracts/access/Ownable.sol\":2627:2649  newOwner == address(0) */\n      0xffffffffffffffffffffffffffffffffffffffff\n      and\n        /* \"@openzeppelin/contracts/access/Ownable.sol\":2627:2635  newOwner */\n      dup2\n        /* \"@openzeppelin/contracts/access/Ownable.sol\":2627:2649  newOwner == address(0) */\n      0xffffffffffffffffffffffffffffffffffffffff\n      and\n      sub\n        /* \"@openzeppelin/contracts/access/Ownable.sol\":2623:2714  if (newOwner == address(0)) {... */\n      tag_149\n      jumpi\n        /* \"@openzeppelin/contracts/access/Ownable.sol\":2700:2701  0 */\n      0x00\n        /* \"@openzeppelin/contracts/access/Ownable.sol\":2672:2703  OwnableInvalidOwner(address(0)) */\n      mload(0x40)\n      0x1e4fbdf700000000000000000000000000000000000000000000000000000000\n      dup2\n      mstore\n      0x04\n      add\n      tag_150\n      swap2\n      swap1\n      tag_42\n      jump\t// in\n    tag_150:\n      mload(0x40)\n      dup1\n      swap2\n      sub\n      swap1\n      revert\n        /* \"@openzeppelin/contracts/access/Ownable.sol\":2623:2714  if (newOwner == address(0)) {... */\n    tag_149:\n        /* \"@openzeppelin/contracts/access/Ownable.sol\":2723:2751  _transferOwnership(newOwner) */\n      tag_151\n        /* \"@openzeppelin/contracts/access/Ownable.sol\":2742:2750  newOwner */\n      dup2\n        /* \"@openzeppelin/contracts/access/Ownable.sol\":2723:2741  _transferOwnership */\n      tag_152\n        /* \"@openzeppelin/contracts/access/Ownable.sol\":2723:2751  _transferOwnership(newOwner) */\n      jump\t// in\n    tag_151:\n        /* \"@openzeppelin/contracts/access/Ownable.sol\":2543:2758  function transferOwnership(address newOwner) public virtual onlyOwner {... */\n      pop\n      jump\t// out\n        /* \"contracts/RewardsDistributor.sol\":1825:1854  IERC20 public immutable token */\n    tag_64:\n      immutable(\"0x391cad19c81a4773de6b9365ea023cc0a7fd2c96665694aa047da79f41f9a730\")\n      dup2\n      jump\t// out\n        /* \"@openzeppelin/contracts/access/Ownable.sol\":1796:1958  function _checkOwner() internal view virtual {... */\n    tag_69:\n        /* \"@openzeppelin/contracts/access/Ownable.sol\":1866:1878  _msgSender() */\n      tag_154\n        /* \"@openzeppelin/contracts/access/Ownable.sol\":1866:1876  _msgSender */\n      tag_155\n        /* \"@openzeppelin/contracts/access/Ownable.sol\":1866:1878  _msgSender() */\n      jump\t// in\n    tag_154:\n        /* \"@openzeppelin/contracts/access/Ownable.sol\":1855:1878  owner() != _msgSender() */\n      0xffffffffffffffffffffffffffffffffffffffff\n      and\n        /* \"@openzeppelin/contracts/access/Ownable.sol\":1855:1862  owner() */\n      tag_156\n        /* \"@openzeppelin/contracts/access/Ownable.sol\":1855:1860  owner */\n      tag_40\n        /* \"@openzeppelin/contracts/access/Ownable.sol\":1855:1862  owner() */\n      jump\t// in\n    tag_156:\n        /* \"@openzeppelin/contracts/access/Ownable.sol\":1855:1878  owner() != _msgSender() */\n      0xffffffffffffffffffffffffffffffffffffffff\n      and\n      eq\n        /* \"@openzeppelin/contracts/access/Ownable.sol\":1851:1952  if (owner() != _msgSender()) {... */\n      tag_157\n      jumpi\n        /* \"@openzeppelin/contracts/access/Ownable.sol\":1928:1940  _msgSender() */\n      tag_158\n        /* \"@openzeppelin/contracts/access/Ownable.sol\":1928:1938  _msgSender */\n      tag_155\n        /* \"@openzeppelin/contracts/access/Ownable.sol\":1928:1940  _msgSender() */\n      jump\t// in\n    tag_158:\n        /* \"@openzeppelin/contracts/access/Ownable.sol\":1901:1941  OwnableUnauthorizedAccount(_msgSender()) */\n      mload(0x40)\n      0x118cdaa700000000000000000000000000000000000000000000000000000000\n      dup2\n      mstore\n      0x04\n      add\n      tag_159\n      swap2\n      swap1\n      tag_42\n      jump\t// in\n    tag_159:\n      mload(0x40)\n      dup1\n      swap2\n      sub\n      swap1\n      revert\n        /* \"@openzeppelin/contracts/access/Ownable.sol\":1851:1952  if (owner() != _msgSender()) {... */\n    tag_157:\n        /* \"@openzeppelin/contracts/access/Ownable.sol\":1796:1958  function _checkOwner() internal view virtual {... */\n      jump\t// out\n        /* \"@openzeppelin/contracts/security/ReentrancyGuard.sol\":2336:2623  function _nonReentrantBefore() private {... */\n    tag_81:\n        /* \"@openzeppelin/contracts/security/ReentrancyGuard.sol\":1759:1760  2 */\n      0x02\n        /* \"@openzeppelin/contracts/security/ReentrancyGuard.sol\":2468:2475  _status */\n      sload(0x01)\n        /* \"@openzeppelin/contracts/security/ReentrancyGuard.sol\":2468:2487  _status != _ENTERED */\n      sub\n        /* \"@openzeppelin/contracts/security/ReentrancyGuard.sol\":2460:2523  require(_status != _ENTERED, \"ReentrancyGuard: reentrant call\") */\n      tag_161\n      jumpi\n      mload(0x40)\n      0x08c379a000000000000000000000000000000000000000000000000000000000\n      dup2\n      mstore\n      0x04\n      add\n      tag_162\n      swap1\n      tag_163\n      jump\t// in\n    tag_162:\n      mload(0x40)\n      dup1\n      swap2\n      sub\n      swap1\n      revert\n    tag_161:\n        /* \"@openzeppelin/contracts/security/ReentrancyGuard.sol\":1759:1760  2 */\n      0x02\n        /* \"@openzeppelin/contracts/security/ReentrancyGuard.sol\":2598:2605  _status */\n      0x01\n        /* \"@openzeppelin/contracts/security/ReentrancyGuard.sol\":2598:2616  _status = _ENTERED */\n      dup2\n      swap1\n      sstore\n      pop\n        /* \"@openzeppelin/contracts/security/ReentrancyGuard.sol\":2336:2623  function _nonReentrantBefore() private {... */\n      jump\t// out\n        /* \"contracts/RewardsDistributor.sol\":5844:6085  function _calcReward(uint256 distanceKm) internal pure returns (uint256) {... */\n    tag_87:\n        /* \"contracts/RewardsDistributor.sol\":5908:5915  uint256 */\n      0x00\n        /* \"contracts/RewardsDistributor.sol\":5945:5947  10 */\n      0x0a\n        /* \"contracts/RewardsDistributor.sol\":5931:5941  distanceKm */\n      dup3\n        /* \"contracts/RewardsDistributor.sol\":5931:5947  distanceKm <= 10 */\n      gt\n        /* \"contracts/RewardsDistributor.sol\":5927:5965  if (distanceKm <= 10) return 10 * 1e18 */\n      tag_165\n      jumpi\n        /* \"contracts/RewardsDistributor.sol\":5956:5965  10 * 1e18 */\n      0x8ac7230489e80000\n        /* \"contracts/RewardsDistributor.sol\":5949:5965  return 10 * 1e18 */\n      swap1\n      pop\n      jump(tag_164)\n        /* \"contracts/RewardsDistributor.sol\":5927:5965  if (distanceKm <= 10) return 10 * 1e18 */\n    tag_165:\n        /* \"contracts/RewardsDistributor.sol\":5993:5995  50 */\n      0x32\n        /* \"contracts/RewardsDistributor.sol\":5979:5989  distanceKm */\n      dup3\n        /* \"contracts/RewardsDistributor.sol\":5979:5995  distanceKm <= 50 */\n      gt\n        /* \"contracts/RewardsDistributor.sol\":5975:6012  if (distanceKm <= 50) return 5 * 1e18 */\n      tag_166\n      jumpi\n        /* \"contracts/RewardsDistributor.sol\":6004:6012  5 * 1e18 */\n      0x4563918244f40000\n        /* \"contracts/RewardsDistributor.sol\":5997:6012  return 5 * 1e18 */\n      swap1\n      pop\n      jump(tag_164)\n        /* \"contracts/RewardsDistributor.sol\":5975:6012  if (distanceKm <= 50) return 5 * 1e18 */\n    tag_166:\n        /* \"contracts/RewardsDistributor.sol\":6040:6043  100 */\n      0x64\n        /* \"contracts/RewardsDistributor.sol\":6026:6036  distanceKm */\n      dup3\n        /* \"contracts/RewardsDistributor.sol\":6026:6043  distanceKm <= 100 */\n      gt\n        /* \"contracts/RewardsDistributor.sol\":6022:6060  if (distanceKm <= 100) return 2 * 1e18 */\n      tag_167\n      jumpi\n        /* \"contracts/RewardsDistributor.sol\":6052:6060  2 * 1e18 */\n      0x1bc16d674ec80000\n        /* \"contracts/RewardsDistributor.sol\":6045:6060  return 2 * 1e18 */\n      swap1\n      pop\n      jump(tag_164)\n        /* \"contracts/RewardsDistributor.sol\":6022:6060  if (distanceKm <= 100) return 2 * 1e18 */\n    tag_167:\n        /* \"contracts/RewardsDistributor.sol\":6077:6078  0 */\n      0x00\n        /* \"contracts/RewardsDistributor.sol\":6070:6078  return 0 */\n      swap1\n      pop\n        /* \"contracts/RewardsDistributor.sol\":5844:6085  function _calcReward(uint256 distanceKm) internal pure returns (uint256) {... */\n    tag_164:\n      swap2\n      swap1\n      pop\n      jump\t// out\n        /* \"@openzeppelin/contracts/security/ReentrancyGuard.sol\":2629:2838  function _nonReentrantAfter() private {... */\n    tag_118:\n        /* \"@openzeppelin/contracts/security/ReentrancyGuard.sol\":1716:1717  1 */\n      0x01\n        /* \"@openzeppelin/contracts/security/ReentrancyGuard.sol\":2809:2816  _status */\n      dup1\n        /* \"@openzeppelin/contracts/security/ReentrancyGuard.sol\":2809:2831  _status = _NOT_ENTERED */\n      dup2\n      swap1\n      sstore\n      pop\n        /* \"@openzeppelin/contracts/security/ReentrancyGuard.sol\":2629:2838  function _nonReentrantAfter() private {... */\n      jump\t// out\n        /* \"@openzeppelin/contracts/access/Ownable.sol\":2912:3099  function _transferOwnership(address newOwner) internal virtual {... */\n    tag_152:\n        /* \"@openzeppelin/contracts/access/Ownable.sol\":2985:3001  address oldOwner */\n      0x00\n        /* \"@openzeppelin/contracts/access/Ownable.sol\":3004:3010  _owner */\n      0x00\n      0x00\n      swap1\n      sload\n      swap1\n      0x0100\n      exp\n      swap1\n      div\n      0xffffffffffffffffffffffffffffffffffffffff\n      and\n        /* \"@openzeppelin/contracts/access/Ownable.sol\":2985:3010  address oldOwner = _owner */\n      swap1\n      pop\n        /* \"@openzeppelin/contracts/access/Ownable.sol\":3029:3037  newOwner */\n      dup2\n        /* \"@openzeppelin/contracts/access/Ownable.sol\":3020:3026  _owner */\n      0x00\n      0x00\n        /* \"@openzeppelin/contracts/access/Ownable.sol\":3020:3037  _owner = newOwner */\n      0x0100\n      exp\n      dup2\n      sload\n      dup2\n      0xffffffffffffffffffffffffffffffffffffffff\n      mul\n      not\n      and\n      swap1\n      dup4\n      0xffffffffffffffffffffffffffffffffffffffff\n      and\n      mul\n      or\n      swap1\n      sstore\n      pop\n        /* \"@openzeppelin/contracts/access/Ownable.sol\":3083:3091  newOwner */\n      dup2\n        /* \"@openzeppelin/contracts/access/Ownable.sol\":3052:3092  OwnershipTransferred(oldOwner, newOwner) */\n      0xffffffffffffffffffffffffffffffffffffffff\n      and\n        /* \"@openzeppelin/contracts/access/Ownable.sol\":3073:3081  oldOwner */\n      dup2\n        /* \"@openzeppelin/contracts/access/Ownable.sol\":3052:3092  OwnershipTransferred(oldOwner, newOwner) */\n      0xffffffffffffffffffffffffffffffffffffffff\n      and\n      0x8be0079c531659141344cd1fd0a4f28419497f9722a3daafe3b4186f6b6457e0\n      mload(0x40)\n      mload(0x40)\n      dup1\n      swap2\n      sub\n      swap1\n      log3\n        /* \"@openzeppelin/contracts/access/Ownable.sol\":2975:3099  {... */\n      pop\n        /* \"@openzeppelin/contracts/access/Ownable.sol\":2912:3099  function _transferOwnership(address newOwner) internal virtual {... */\n      pop\n      jump\t// out\n        /* \"@openzeppelin/contracts/utils/Context.sol\":656:752  function _msgSender() internal view virtual returns (address) {... */\n    tag_155:\n        /* \"@openzeppelin/contracts/utils/Context.sol\":709:716  address */\n      0x00\n        /* \"@openzeppelin/contracts/utils/Context.sol\":735:745  msg.sender */\n      caller\n        /* \"@openzeppelin/contracts/utils/Context.sol\":728:745  return msg.sender */\n      swap1\n      pop\n        /* \"@openzeppelin/contracts/utils/Context.sol\":656:752  function _msgSender() internal view virtual returns (address) {... */\n      swap1\n      jump\t// out\n        /* \"#utility.yul\":88:205   */\n    tag_172:\n        /* \"#utility.yul\":197:198   */\n      0x00\n        /* \"#utility.yul\":194:195   */\n      0x00\n        /* \"#utility.yul\":187:199   */\n      revert\n        /* \"#utility.yul\":334:411   */\n    tag_174:\n        /* \"#utility.yul\":371:378   */\n      0x00\n        /* \"#utility.yul\":400:405   */\n      dup2\n        /* \"#utility.yul\":389:405   */\n      swap1\n      pop\n        /* \"#utility.yul\":334:411   */\n      swap2\n      swap1\n      pop\n      jump\t// out\n        /* \"#utility.yul\":417:539   */\n    tag_175:\n        /* \"#utility.yul\":490:514   */\n      tag_223\n        /* \"#utility.yul\":508:513   */\n      dup2\n        /* \"#utility.yul\":490:514   */\n      tag_174\n      jump\t// in\n    tag_223:\n        /* \"#utility.yul\":483:488   */\n      dup2\n        /* \"#utility.yul\":480:515   */\n      eq\n        /* \"#utility.yul\":470:533   */\n      tag_224\n      jumpi\n        /* \"#utility.yul\":529:530   */\n      0x00\n        /* \"#utility.yul\":526:527   */\n      0x00\n        /* \"#utility.yul\":519:531   */\n      revert\n        /* \"#utility.yul\":470:533   */\n    tag_224:\n        /* \"#utility.yul\":417:539   */\n      pop\n      jump\t// out\n        /* \"#utility.yul\":545:684   */\n    tag_176:\n        /* \"#utility.yul\":591:596   */\n      0x00\n        /* \"#utility.yul\":629:635   */\n      dup2\n        /* \"#utility.yul\":616:636   */\n      calldataload\n        /* \"#utility.yul\":607:636   */\n      swap1\n      pop\n        /* \"#utility.yul\":645:678   */\n      tag_226\n        /* \"#utility.yul\":672:677   */\n      dup2\n        /* \"#utility.yul\":645:678   */\n      tag_175\n      jump\t// in\n    tag_226:\n        /* \"#utility.yul\":545:684   */\n      swap3\n      swap2\n      pop\n      pop\n      jump\t// out\n        /* \"#utility.yul\":690:1164   */\n    tag_20:\n        /* \"#utility.yul\":758:764   */\n      0x00\n        /* \"#utility.yul\":766:772   */\n      0x00\n        /* \"#utility.yul\":815:817   */\n      0x40\n        /* \"#utility.yul\":803:812   */\n      dup4\n        /* \"#utility.yul\":794:801   */\n      dup6\n        /* \"#utility.yul\":790:813   */\n      sub\n        /* \"#utility.yul\":786:818   */\n      slt\n        /* \"#utility.yul\":783:902   */\n      iszero\n      tag_228\n      jumpi\n        /* \"#utility.yul\":821:900   */\n      tag_229\n      tag_172\n      jump\t// in\n    tag_229:\n        /* \"#utility.yul\":783:902   */\n    tag_228:\n        /* \"#utility.yul\":941:942   */\n      0x00\n        /* \"#utility.yul\":966:1019   */\n      tag_230\n        /* \"#utility.yul\":1011:1018   */\n      dup6\n        /* \"#utility.yul\":1002:1008   */\n      dup3\n        /* \"#utility.yul\":991:1000   */\n      dup7\n        /* \"#utility.yul\":987:1009   */\n      add\n        /* \"#utility.yul\":966:1019   */\n      tag_176\n      jump\t// in\n    tag_230:\n        /* \"#utility.yul\":956:1019   */\n      swap3\n      pop\n        /* \"#utility.yul\":912:1029   */\n      pop\n        /* \"#utility.yul\":1068:1070   */\n      0x20\n        /* \"#utility.yul\":1094:1147   */\n      tag_231\n        /* \"#utility.yul\":1139:1146   */\n      dup6\n        /* \"#utility.yul\":1130:1136   */\n      dup3\n        /* \"#utility.yul\":1119:1128   */\n      dup7\n        /* \"#utility.yul\":1115:1137   */\n      add\n        /* \"#utility.yul\":1094:1147   */\n      tag_176\n      jump\t// in\n    tag_231:\n        /* \"#utility.yul\":1084:1147   */\n      swap2\n      pop\n        /* \"#utility.yul\":1039:1157   */\n      pop\n        /* \"#utility.yul\":690:1164   */\n      swap3\n      pop\n      swap3\n      swap1\n      pop\n      jump\t// out\n        /* \"#utility.yul\":1170:1296   */\n    tag_177:\n        /* \"#utility.yul\":1207:1214   */\n      0x00\n        /* \"#utility.yul\":1247:1289   */\n      0xffffffffffffffffffffffffffffffffffffffff\n        /* \"#utility.yul\":1240:1245   */\n      dup3\n        /* \"#utility.yul\":1236:1290   */\n      and\n        /* \"#utility.yul\":1225:1290   */\n      swap1\n      pop\n        /* \"#utility.yul\":1170:1296   */\n      swap2\n      swap1\n      pop\n      jump\t// out\n        /* \"#utility.yul\":1302:1398   */\n    tag_178:\n        /* \"#utility.yul\":1339:1346   */\n      0x00\n        /* \"#utility.yul\":1368:1392   */\n      tag_234\n        /* \"#utility.yul\":1386:1391   */\n      dup3\n        /* \"#utility.yul\":1368:1392   */\n      tag_177\n      jump\t// in\n    tag_234:\n        /* \"#utility.yul\":1357:1392   */\n      swap1\n      pop\n        /* \"#utility.yul\":1302:1398   */\n      swap2\n      swap1\n      pop\n      jump\t// out\n        /* \"#utility.yul\":1404:1526   */\n    tag_179:\n        /* \"#utility.yul\":1477:1501   */\n      tag_236\n        /* \"#utility.yul\":1495:1500   */\n      dup2\n        /* \"#utility.yul\":1477:1501   */\n      tag_178\n      jump\t// in\n    tag_236:\n        /* \"#utility.yul\":1470:1475   */\n      dup2\n        /* \"#utility.yul\":1467:1502   */\n      eq\n        /* \"#utility.yul\":1457:1520   */\n      tag_237\n      jumpi\n        /* \"#utility.yul\":1516:1517   */\n      0x00\n        /* \"#utility.yul\":1513:1514   */\n      0x00\n        /* \"#utility.yul\":1506:1518   */\n      revert\n        /* \"#utility.yul\":1457:1520   */\n    tag_237:\n        /* \"#utility.yul\":1404:1526   */\n      pop\n      jump\t// out\n        /* \"#utility.yul\":1532:1671   */\n    tag_180:\n        /* \"#utility.yul\":1578:1583   */\n      0x00\n        /* \"#utility.yul\":1616:1622   */\n      dup2\n        /* \"#utility.yul\":1603:1623   */\n      calldataload\n        /* \"#utility.yul\":1594:1623   */\n      swap1\n      pop\n        /* \"#utility.yul\":1632:1665   */\n      tag_239\n        /* \"#utility.yul\":1659:1664   */\n      dup2\n        /* \"#utility.yul\":1632:1665   */\n      tag_179\n      jump\t// in\n    tag_239:\n        /* \"#utility.yul\":1532:1671   */\n      swap3\n      swap2\n      pop\n      pop\n      jump\t// out\n        /* \"#utility.yul\":1677:1767   */\n    tag_181:\n        /* \"#utility.yul\":1711:1718   */\n      0x00\n        /* \"#utility.yul\":1754:1759   */\n      dup2\n        /* \"#utility.yul\":1747:1760   */\n      iszero\n        /* \"#utility.yul\":1740:1761   */\n      iszero\n        /* \"#utility.yul\":1729:1761   */\n      swap1\n      pop\n        /* \"#utility.yul\":1677:1767   */\n      swap2\n      swap1\n      pop\n      jump\t// out\n        /* \"#utility.yul\":1773:1889   */\n    tag_182:\n        /* \"#utility.yul\":1843:1864   */\n      tag_242\n        /* \"#utility.yul\":1858:1863   */\n      dup2\n        /* \"#utility.yul\":1843:1864   */\n      tag_181\n      jump\t// in\n    tag_242:\n        /* \"#utility.yul\":1836:1841   */\n      dup2\n        /* \"#utility.yul\":1833:1865   */\n      eq\n        /* \"#utility.yul\":1823:1883   */\n      tag_243\n      jumpi\n        /* \"#utility.yul\":1879:1880   */\n      0x00\n        /* \"#utility.yul\":1876:1877   */\n      0x00\n        /* \"#utility.yul\":1869:1881   */\n      revert\n        /* \"#utility.yul\":1823:1883   */\n    tag_243:\n        /* \"#utility.yul\":1773:1889   */\n      pop\n      jump\t// out\n        /* \"#utility.yul\":1895:2028   */\n    tag_183:\n        /* \"#utility.yul\":1938:1943   */\n      0x00\n        /* \"#utility.yul\":1976:1982   */\n      dup2\n        /* \"#utility.yul\":1963:1983   */\n      calldataload\n        /* \"#utility.yul\":1954:1983   */\n      swap1\n      pop\n        /* \"#utility.yul\":1992:2022   */\n      tag_245\n        /* \"#utility.yul\":2016:2021   */\n      dup2\n        /* \"#utility.yul\":1992:2022   */\n      tag_182\n      jump\t// in\n    tag_245:\n        /* \"#utility.yul\":1895:2028   */\n      swap3\n      swap2\n      pop\n      pop\n      jump\t// out\n        /* \"#utility.yul\":2034:2502   */\n    tag_24:\n        /* \"#utility.yul\":2099:2105   */\n      0x00\n        /* \"#utility.yul\":2107:2113   */\n      0x00\n        /* \"#utility.yul\":2156:2158   */\n      0x40\n        /* \"#utility.yul\":2144:2153   */\n      dup4\n        /* \"#utility.yul\":2135:2142   */\n      dup6\n        /* \"#utility.yul\":2131:2154   */\n      sub\n        /* \"#utility.yul\":2127:2159   */\n      slt\n        /* \"#utility.yul\":2124:2243   */\n      iszero\n      tag_247\n      jumpi\n        /* \"#utility.yul\":2162:2241   */\n      tag_248\n      tag_172\n      jump\t// in\n    tag_248:\n        /* \"#utility.yul\":2124:2243   */\n    tag_247:\n        /* \"#utility.yul\":2282:2283   */\n      0x00\n        /* \"#utility.yul\":2307:2360   */\n      tag_249\n        /* \"#utility.yul\":2352:2359   */\n      dup6\n        /* \"#utility.yul\":2343:2349   */\n      dup3\n        /* \"#utility.yul\":2332:2341   */\n      dup7\n        /* \"#utility.yul\":2328:2350   */\n      add\n        /* \"#utility.yul\":2307:2360   */\n      tag_180\n      jump\t// in\n    tag_249:\n        /* \"#utility.yul\":2297:2360   */\n      swap3\n      pop\n        /* \"#utility.yul\":2253:2370   */\n      pop\n        /* \"#utility.yul\":2409:2411   */\n      0x20\n        /* \"#utility.yul\":2435:2485   */\n      tag_250\n        /* \"#utility.yul\":2477:2484   */\n      dup6\n        /* \"#utility.yul\":2468:2474   */\n      dup3\n        /* \"#utility.yul\":2457:2466   */\n      dup7\n        /* \"#utility.yul\":2453:2475   */\n      add\n        /* \"#utility.yul\":2435:2485   */\n      tag_183\n      jump\t// in\n    tag_250:\n        /* \"#utility.yul\":2425:2485   */\n      swap2\n      pop\n        /* \"#utility.yul\":2380:2495   */\n      pop\n        /* \"#utility.yul\":2034:2502   */\n      swap3\n      pop\n      swap3\n      swap1\n      pop\n      jump\t// out\n        /* \"#utility.yul\":2508:2982   */\n    tag_28:\n        /* \"#utility.yul\":2576:2582   */\n      0x00\n        /* \"#utility.yul\":2584:2590   */\n      0x00\n        /* \"#utility.yul\":2633:2635   */\n      0x40\n        /* \"#utility.yul\":2621:2630   */\n      dup4\n        /* \"#utility.yul\":2612:2619   */\n      dup6\n        /* \"#utility.yul\":2608:2631   */\n      sub\n        /* \"#utility.yul\":2604:2636   */\n      slt\n        /* \"#utility.yul\":2601:2720   */\n      iszero\n      tag_252\n      jumpi\n        /* \"#utility.yul\":2639:2718   */\n      tag_253\n      tag_172\n      jump\t// in\n    tag_253:\n        /* \"#utility.yul\":2601:2720   */\n    tag_252:\n        /* \"#utility.yul\":2759:2760   */\n      0x00\n        /* \"#utility.yul\":2784:2837   */\n      tag_254\n        /* \"#utility.yul\":2829:2836   */\n      dup6\n        /* \"#utility.yul\":2820:2826   */\n      dup3\n        /* \"#utility.yul\":2809:2818   */\n      dup7\n        /* \"#utility.yul\":2805:2827   */\n      add\n        /* \"#utility.yul\":2784:2837   */\n      tag_180\n      jump\t// in\n    tag_254:\n        /* \"#utility.yul\":2774:2837   */\n      swap3\n      pop\n        /* \"#utility.yul\":2730:2847   */\n      pop\n        /* \"#utility.yul\":2886:2888   */\n      0x20\n        /* \"#utility.yul\":2912:2965   */\n      tag_255\n        /* \"#utility.yul\":2957:2964   */\n      dup6\n        /* \"#utility.yul\":2948:2954   */\n      dup3\n        /* \"#utility.yul\":2937:2946   */\n      dup7\n        /* \"#utility.yul\":2933:2955   */\n      add\n        /* \"#utility.yul\":2912:2965   */\n      tag_176\n      jump\t// in\n    tag_255:\n        /* \"#utility.yul\":2902:2965   */\n      swap2\n      pop\n        /* \"#utility.yul\":2857:2975   */\n      pop\n        /* \"#utility.yul\":2508:2982   */\n      swap3\n      pop\n      swap3\n      swap1\n      pop\n      jump\t// out\n        /* \"#utility.yul\":2988:3317   */\n    tag_32:\n        /* \"#utility.yul\":3047:3053   */\n      0x00\n        /* \"#utility.yul\":3096:3098   */\n      0x20\n        /* \"#utility.yul\":3084:3093   */\n      dup3\n        /* \"#utility.yul\":3075:3082   */\n      dup5\n        /* \"#utility.yul\":3071:3094   */\n      sub\n        /* \"#utility.yul\":3067:3099   */\n      slt\n        /* \"#utility.yul\":3064:3183   */\n      iszero\n      tag_257\n      jumpi\n        /* \"#utility.yul\":3102:3181   */\n      tag_258\n      tag_172\n      jump\t// in\n    tag_258:\n        /* \"#utility.yul\":3064:3183   */\n    tag_257:\n        /* \"#utility.yul\":3222:3223   */\n      0x00\n        /* \"#utility.yul\":3247:3300   */\n      tag_259\n        /* \"#utility.yul\":3292:3299   */\n      dup5\n        /* \"#utility.yul\":3283:3289   */\n      dup3\n        /* \"#utility.yul\":3272:3281   */\n      dup6\n        /* \"#utility.yul\":3268:3290   */\n      add\n        /* \"#utility.yul\":3247:3300   */\n      tag_176\n      jump\t// in\n    tag_259:\n        /* \"#utility.yul\":3237:3300   */\n      swap2\n      pop\n        /* \"#utility.yul\":3193:3310   */\n      pop\n        /* \"#utility.yul\":2988:3317   */\n      swap3\n      swap2\n      pop\n      pop\n      jump\t// out\n        /* \"#utility.yul\":3323:3441   */\n    tag_184:\n        /* \"#utility.yul\":3410:3434   */\n      tag_261\n        /* \"#utility.yul\":3428:3433   */\n      dup2\n        /* \"#utility.yul\":3410:3434   */\n      tag_178\n      jump\t// in\n    tag_261:\n        /* \"#utility.yul\":3405:3408   */\n      dup3\n        /* \"#utility.yul\":3398:3435   */\n      mstore\n        /* \"#utility.yul\":3323:3441   */\n      pop\n      pop\n      jump\t// out\n        /* \"#utility.yul\":3447:3669   */\n    tag_42:\n        /* \"#utility.yul\":3540:3544   */\n      0x00\n        /* \"#utility.yul\":3578:3580   */\n      0x20\n        /* \"#utility.yul\":3567:3576   */\n      dup3\n        /* \"#utility.yul\":3563:3581   */\n      add\n        /* \"#utility.yul\":3555:3581   */\n      swap1\n      pop\n        /* \"#utility.yul\":3591:3662   */\n      tag_263\n        /* \"#utility.yul\":3659:3660   */\n      0x00\n        /* \"#utility.yul\":3648:3657   */\n      dup4\n        /* \"#utility.yul\":3644:3661   */\n      add\n        /* \"#utility.yul\":3635:3641   */\n      dup5\n        /* \"#utility.yul\":3591:3662   */\n      tag_184\n      jump\t// in\n    tag_263:\n        /* \"#utility.yul\":3447:3669   */\n      swap3\n      swap2\n      pop\n      pop\n      jump\t// out\n        /* \"#utility.yul\":3675:3793   */\n    tag_185:\n        /* \"#utility.yul\":3762:3786   */\n      tag_265\n        /* \"#utility.yul\":3780:3785   */\n      dup2\n        /* \"#utility.yul\":3762:3786   */\n      tag_174\n      jump\t// in\n    tag_265:\n        /* \"#utility.yul\":3757:3760   */\n      dup3\n        /* \"#utility.yul\":3750:3787   */\n      mstore\n        /* \"#utility.yul\":3675:3793   */\n      pop\n      pop\n      jump\t// out\n        /* \"#utility.yul\":3799:4021   */\n    tag_46:\n        /* \"#utility.yul\":3892:3896   */\n      0x00\n        /* \"#utility.yul\":3930:3932   */\n      0x20\n        /* \"#utility.yul\":3919:3928   */\n      dup3\n        /* \"#utility.yul\":3915:3933   */\n      add\n        /* \"#utility.yul\":3907:3933   */\n      swap1\n      pop\n        /* \"#utility.yul\":3943:4014   */\n      tag_267\n        /* \"#utility.yul\":4011:4012   */\n      0x00\n        /* \"#utility.yul\":4000:4009   */\n      dup4\n        /* \"#utility.yul\":3996:4013   */\n      add\n        /* \"#utility.yul\":3987:3993   */\n      dup5\n        /* \"#utility.yul\":3943:4014   */\n      tag_185\n      jump\t// in\n    tag_267:\n        /* \"#utility.yul\":3799:4021   */\n      swap3\n      swap2\n      pop\n      pop\n      jump\t// out\n        /* \"#utility.yul\":4027:4356   */\n    tag_56:\n        /* \"#utility.yul\":4086:4092   */\n      0x00\n        /* \"#utility.yul\":4135:4137   */\n      0x20\n        /* \"#utility.yul\":4123:4132   */\n      dup3\n        /* \"#utility.yul\":4114:4121   */\n      dup5\n        /* \"#utility.yul\":4110:4133   */\n      sub\n        /* \"#utility.yul\":4106:4138   */\n      slt\n        /* \"#utility.yul\":4103:4222   */\n      iszero\n      tag_269\n      jumpi\n        /* \"#utility.yul\":4141:4220   */\n      tag_270\n      tag_172\n      jump\t// in\n    tag_270:\n        /* \"#utility.yul\":4103:4222   */\n    tag_269:\n        /* \"#utility.yul\":4261:4262   */\n      0x00\n        /* \"#utility.yul\":4286:4339   */\n      tag_271\n        /* \"#utility.yul\":4331:4338   */\n      dup5\n        /* \"#utility.yul\":4322:4328   */\n      dup3\n        /* \"#utility.yul\":4311:4320   */\n      dup6\n        /* \"#utility.yul\":4307:4329   */\n      add\n        /* \"#utility.yul\":4286:4339   */\n      tag_180\n      jump\t// in\n    tag_271:\n        /* \"#utility.yul\":4276:4339   */\n      swap2\n      pop\n        /* \"#utility.yul\":4232:4349   */\n      pop\n        /* \"#utility.yul\":4027:4356   */\n      swap3\n      swap2\n      pop\n      pop\n      jump\t// out\n        /* \"#utility.yul\":4362:4471   */\n    tag_186:\n        /* \"#utility.yul\":4443:4464   */\n      tag_273\n        /* \"#utility.yul\":4458:4463   */\n      dup2\n        /* \"#utility.yul\":4443:4464   */\n      tag_181\n      jump\t// in\n    tag_273:\n        /* \"#utility.yul\":4438:4441   */\n      dup3\n        /* \"#utility.yul\":4431:4465   */\n      mstore\n        /* \"#utility.yul\":4362:4471   */\n      pop\n      pop\n      jump\t// out\n        /* \"#utility.yul\":4477:4687   */\n    tag_59:\n        /* \"#utility.yul\":4564:4568   */\n      0x00\n        /* \"#utility.yul\":4602:4604   */\n      0x20\n        /* \"#utility.yul\":4591:4600   */\n      dup3\n        /* \"#utility.yul\":4587:4605   */\n      add\n        /* \"#utility.yul\":4579:4605   */\n      swap1\n      pop\n        /* \"#utility.yul\":4615:4680   */\n      tag_275\n        /* \"#utility.yul\":4677:4678   */\n      0x00\n        /* \"#utility.yul\":4666:4675   */\n      dup4\n        /* \"#utility.yul\":4662:4679   */\n      add\n        /* \"#utility.yul\":4653:4659   */\n      dup5\n        /* \"#utility.yul\":4615:4680   */\n      tag_186\n      jump\t// in\n    tag_275:\n        /* \"#utility.yul\":4477:4687   */\n      swap3\n      swap2\n      pop\n      pop\n      jump\t// out\n        /* \"#utility.yul\":4693:4753   */\n    tag_187:\n        /* \"#utility.yul\":4721:4724   */\n      0x00\n        /* \"#utility.yul\":4742:4747   */\n      dup2\n        /* \"#utility.yul\":4735:4747   */\n      swap1\n      pop\n        /* \"#utility.yul\":4693:4753   */\n      swap2\n      swap1\n      pop\n      jump\t// out\n        /* \"#utility.yul\":4759:4901   */\n    tag_188:\n        /* \"#utility.yul\":4809:4818   */\n      0x00\n        /* \"#utility.yul\":4842:4895   */\n      tag_278\n        /* \"#utility.yul\":4860:4894   */\n      tag_279\n        /* \"#utility.yul\":4869:4893   */\n      tag_280\n        /* \"#utility.yul\":4887:4892   */\n      dup5\n        /* \"#utility.yul\":4869:4893   */\n      tag_177\n      jump\t// in\n    tag_280:\n        /* \"#utility.yul\":4860:4894   */\n      tag_187\n      jump\t// in\n    tag_279:\n        /* \"#utility.yul\":4842:4895   */\n      tag_177\n      jump\t// in\n    tag_278:\n        /* \"#utility.yul\":4829:4895   */\n      swap1\n      pop\n        /* \"#utility.yul\":4759:4901   */\n      swap2\n      swap1\n      pop\n      jump\t// out\n        /* \"#utility.yul\":4907:5033   */\n    tag_189:\n        /* \"#utility.yul\":4957:4966   */\n      0x00\n        /* \"#utility.yul\":4990:5027   */\n      tag_282\n        /* \"#utility.yul\":5021:5026   */\n      dup3\n        /* \"#utility.yul\":4990:5027   */\n      tag_188\n      jump\t// in\n    tag_282:\n        /* \"#utility.yul\":4977:5027   */\n      swap1\n      pop\n        /* \"#utility.yul\":4907:5033   */\n      swap2\n      swap1\n      pop\n      jump\t// out\n        /* \"#utility.yul\":5039:5179   */\n    tag_190:\n        /* \"#utility.yul\":5103:5112   */\n      0x00\n        /* \"#utility.yul\":5136:5173   */\n      tag_284\n        /* \"#utility.yul\":5167:5172   */\n      dup3\n        /* \"#utility.yul\":5136:5173   */\n      tag_189\n      jump\t// in\n    tag_284:\n        /* \"#utility.yul\":5123:5173   */\n      swap1\n      pop\n        /* \"#utility.yul\":5039:5179   */\n      swap2\n      swap1\n      pop\n      jump\t// out\n        /* \"#utility.yul\":5185:5344   */\n    tag_191:\n        /* \"#utility.yul\":5286:5337   */\n      tag_286\n        /* \"#utility.yul\":5331:5336   */\n      dup2\n        /* \"#utility.yul\":5286:5337   */\n      tag_190\n      jump\t// in\n    tag_286:\n        /* \"#utility.yul\":5281:5284   */\n      dup3\n        /* \"#utility.yul\":5274:5338   */\n      mstore\n        /* \"#utility.yul\":5185:5344   */\n      pop\n      pop\n      jump\t// out\n        /* \"#utility.yul\":5350:5600   */\n    tag_66:\n        /* \"#utility.yul\":5457:5461   */\n      0x00\n        /* \"#utility.yul\":5495:5497   */\n      0x20\n        /* \"#utility.yul\":5484:5493   */\n      dup3\n        /* \"#utility.yul\":5480:5498   */\n      add\n        /* \"#utility.yul\":5472:5498   */\n      swap1\n      pop\n        /* \"#utility.yul\":5508:5593   */\n      tag_288\n        /* \"#utility.yul\":5590:5591   */\n      0x00\n        /* \"#utility.yul\":5579:5588   */\n      dup4\n        /* \"#utility.yul\":5575:5592   */\n      add\n        /* \"#utility.yul\":5566:5572   */\n      dup5\n        /* \"#utility.yul\":5508:5593   */\n      tag_191\n      jump\t// in\n    tag_288:\n        /* \"#utility.yul\":5350:5600   */\n      swap3\n      swap2\n      pop\n      pop\n      jump\t// out\n        /* \"#utility.yul\":5606:5775   */\n    tag_192:\n        /* \"#utility.yul\":5690:5701   */\n      0x00\n        /* \"#utility.yul\":5724:5730   */\n      dup3\n        /* \"#utility.yul\":5719:5722   */\n      dup3\n        /* \"#utility.yul\":5712:5731   */\n      mstore\n        /* \"#utility.yul\":5764:5768   */\n      0x20\n        /* \"#utility.yul\":5759:5762   */\n      dup3\n        /* \"#utility.yul\":5755:5769   */\n      add\n        /* \"#utility.yul\":5740:5769   */\n      swap1\n      pop\n        /* \"#utility.yul\":5606:5775   */\n      swap3\n      swap2\n      pop\n      pop\n      jump\t// out\n        /* \"#utility.yul\":5781:5939   */\n    tag_193:\n        /* \"#utility.yul\":5921:5931   */\n      0x6e6f742067616d65000000000000000000000000000000000000000000000000\n        /* \"#utility.yul\":5917:5918   */\n      0x00\n        /* \"#utility.yul\":5909:5915   */\n      dup3\n        /* \"#utility.yul\":5905:5919   */\n      add\n        /* \"#utility.yul\":5898:5932   */\n      mstore\n        /* \"#utility.yul\":5781:5939   */\n      pop\n      jump\t// out\n        /* \"#utility.yul\":5945:6310   */\n    tag_194:\n        /* \"#utility.yul\":6087:6090   */\n      0x00\n        /* \"#utility.yul\":6108:6174   */\n      tag_292\n        /* \"#utility.yul\":6172:6173   */\n      0x08\n        /* \"#utility.yul\":6167:6170   */\n      dup4\n        /* \"#utility.yul\":6108:6174   */\n      tag_192\n      jump\t// in\n    tag_292:\n        /* \"#utility.yul\":6101:6174   */\n      swap2\n      pop\n        /* \"#utility.yul\":6183:6276   */\n      tag_293\n        /* \"#utility.yul\":6272:6275   */\n      dup3\n        /* \"#utility.yul\":6183:6276   */\n      tag_193\n      jump\t// in\n    tag_293:\n        /* \"#utility.yul\":6301:6303   */\n      0x20\n        /* \"#utility.yul\":6296:6299   */\n      dup3\n        /* \"#utility.yul\":6292:6304   */\n      add\n        /* \"#utility.yul\":6285:6304   */\n      swap1\n      pop\n        /* \"#utility.yul\":5945:6310   */\n      swap2\n      swap1\n      pop\n      jump\t// out\n        /* \"#utility.yul\":6316:6735   */\n    tag_78:\n        /* \"#utility.yul\":6482:6486   */\n      0x00\n        /* \"#utility.yul\":6520:6522   */\n      0x20\n        /* \"#utility.yul\":6509:6518   */\n      dup3\n        /* \"#utility.yul\":6505:6523   */\n      add\n        /* \"#utility.yul\":6497:6523   */\n      swap1\n      pop\n        /* \"#utility.yul\":6569:6578   */\n      dup2\n        /* \"#utility.yul\":6563:6567   */\n      dup2\n        /* \"#utility.yul\":6559:6579   */\n      sub\n        /* \"#utility.yul\":6555:6556   */\n      0x00\n        /* \"#utility.yul\":6544:6553   */\n      dup4\n        /* \"#utility.yul\":6540:6557   */\n      add\n        /* \"#utility.yul\":6533:6580   */\n      mstore\n        /* \"#utility.yul\":6597:6728   */\n      tag_295\n        /* \"#utility.yul\":6723:6727   */\n      dup2\n        /* \"#utility.yul\":6597:6728   */\n      tag_194\n      jump\t// in\n    tag_295:\n        /* \"#utility.yul\":6589:6728   */\n      swap1\n      pop\n        /* \"#utility.yul\":6316:6735   */\n      swap2\n      swap1\n      pop\n      jump\t// out\n        /* \"#utility.yul\":6741:6902   */\n    tag_195:\n        /* \"#utility.yul\":6881:6894   */\n      0x7a65726f20706c61796572000000000000000000000000000000000000000000\n        /* \"#utility.yul\":6877:6878   */\n      0x00\n        /* \"#utility.yul\":6869:6875   */\n      dup3\n        /* \"#utility.yul\":6865:6879   */\n      add\n        /* \"#utility.yul\":6858:6895   */\n      mstore\n        /* \"#utility.yul\":6741:6902   */\n      pop\n      jump\t// out\n        /* \"#utility.yul\":6908:7274   */\n    tag_196:\n        /* \"#utility.yul\":7050:7053   */\n      0x00\n        /* \"#utility.yul\":7071:7138   */\n      tag_298\n        /* \"#utility.yul\":7135:7137   */\n      0x0b\n        /* \"#utility.yul\":7130:7133   */\n      dup4\n        /* \"#utility.yul\":7071:7138   */\n      tag_192\n      jump\t// in\n    tag_298:\n        /* \"#utility.yul\":7064:7138   */\n      swap2\n      pop\n        /* \"#utility.yul\":7147:7240   */\n      tag_299\n        /* \"#utility.yul\":7236:7239   */\n      dup3\n        /* \"#utility.yul\":7147:7240   */\n      tag_195\n      jump\t// in\n    tag_299:\n        /* \"#utility.yul\":7265:7267   */\n      0x20\n        /* \"#utility.yul\":7260:7263   */\n      dup3\n        /* \"#utility.yul\":7256:7268   */\n      add\n        /* \"#utility.yul\":7249:7268   */\n      swap1\n      pop\n        /* \"#utility.yul\":6908:7274   */\n      swap2\n      swap1\n      pop\n      jump\t// out\n        /* \"#utility.yul\":7280:7699   */\n    tag_85:\n        /* \"#utility.yul\":7446:7450   */\n      0x00\n        /* \"#utility.yul\":7484:7486   */\n      0x20\n        /* \"#utility.yul\":7473:7482   */\n      dup3\n        /* \"#utility.yul\":7469:7487   */\n      add\n        /* \"#utility.yul\":7461:7487   */\n      swap1\n      pop\n        /* \"#utility.yul\":7533:7542   */\n      dup2\n        /* \"#utility.yul\":7527:7531   */\n      dup2\n        /* \"#utility.yul\":7523:7543   */\n      sub\n        /* \"#utility.yul\":7519:7520   */\n      0x00\n        /* \"#utility.yul\":7508:7517   */\n      dup4\n        /* \"#utility.yul\":7504:7521   */\n      add\n        /* \"#utility.yul\":7497:7544   */\n      mstore\n        /* \"#utility.yul\":7561:7692   */\n      tag_301\n        /* \"#utility.yul\":7687:7691   */\n      dup2\n        /* \"#utility.yul\":7561:7692   */\n      tag_196\n      jump\t// in\n    tag_301:\n        /* \"#utility.yul\":7553:7692   */\n      swap1\n      pop\n        /* \"#utility.yul\":7280:7699   */\n      swap2\n      swap1\n      pop\n      jump\t// out\n        /* \"#utility.yul\":7705:7864   */\n    tag_197:\n        /* \"#utility.yul\":7845:7856   */\n      0x6e6f207265776172640000000000000000000000000000000000000000000000\n        /* \"#utility.yul\":7841:7842   */\n      0x00\n        /* \"#utility.yul\":7833:7839   */\n      dup3\n        /* \"#utility.yul\":7829:7843   */\n      add\n        /* \"#utility.yul\":7822:7857   */\n      mstore\n        /* \"#utility.yul\":7705:7864   */\n      pop\n      jump\t// out\n        /* \"#utility.yul\":7870:8235   */\n    tag_198:\n        /* \"#utility.yul\":8012:8015   */\n      0x00\n        /* \"#utility.yul\":8033:8099   */\n      tag_304\n        /* \"#utility.yul\":8097:8098   */\n      0x09\n        /* \"#utility.yul\":8092:8095   */\n      dup4\n        /* \"#utility.yul\":8033:8099   */\n      tag_192\n      jump\t// in\n    tag_304:\n        /* \"#utility.yul\":8026:8099   */\n      swap2\n      pop\n        /* \"#utility.yul\":8108:8201   */\n      tag_305\n        /* \"#utility.yul\":8197:8200   */\n      dup3\n        /* \"#utility.yul\":8108:8201   */\n      tag_197\n      jump\t// in\n    tag_305:\n        /* \"#utility.yul\":8226:8228   */\n      0x20\n        /* \"#utility.yul\":8221:8224   */\n      dup3\n        /* \"#utility.yul\":8217:8229   */\n      add\n        /* \"#utility.yul\":8210:8229   */\n      swap1\n      pop\n        /* \"#utility.yul\":7870:8235   */\n      swap2\n      swap1\n      pop\n      jump\t// out\n        /* \"#utility.yul\":8241:8660   */\n    tag_90:\n        /* \"#utility.yul\":8407:8411   */\n      0x00\n        /* \"#utility.yul\":8445:8447   */\n      0x20\n        /* \"#utility.yul\":8434:8443   */\n      dup3\n        /* \"#utility.yul\":8430:8448   */\n      add\n        /* \"#utility.yul\":8422:8448   */\n      swap1\n      pop\n        /* \"#utility.yul\":8494:8503   */\n      dup2\n        /* \"#utility.yul\":8488:8492   */\n      dup2\n        /* \"#utility.yul\":8484:8504   */\n      sub\n        /* \"#utility.yul\":8480:8481   */\n      0x00\n        /* \"#utility.yul\":8469:8478   */\n      dup4\n        /* \"#utility.yul\":8465:8482   */\n      add\n        /* \"#utility.yul\":8458:8505   */\n      mstore\n        /* \"#utility.yul\":8522:8653   */\n      tag_307\n        /* \"#utility.yul\":8648:8652   */\n      dup2\n        /* \"#utility.yul\":8522:8653   */\n      tag_198\n      jump\t// in\n    tag_307:\n        /* \"#utility.yul\":8514:8653   */\n      swap1\n      pop\n        /* \"#utility.yul\":8241:8660   */\n      swap2\n      swap1\n      pop\n      jump\t// out\n        /* \"#utility.yul\":8666:8828   */\n    tag_199:\n        /* \"#utility.yul\":8806:8820   */\n      0x7065722d63616c6c206361700000000000000000000000000000000000000000\n        /* \"#utility.yul\":8802:8803   */\n      0x00\n        /* \"#utility.yul\":8794:8800   */\n      dup3\n        /* \"#utility.yul\":8790:8804   */\n      add\n        /* \"#utility.yul\":8783:8821   */\n      mstore\n        /* \"#utility.yul\":8666:8828   */\n      pop\n      jump\t// out\n        /* \"#utility.yul\":8834:9200   */\n    tag_200:\n        /* \"#utility.yul\":8976:8979   */\n      0x00\n        /* \"#utility.yul\":8997:9064   */\n      tag_310\n        /* \"#utility.yul\":9061:9063   */\n      0x0c\n        /* \"#utility.yul\":9056:9059   */\n      dup4\n        /* \"#utility.yul\":8997:9064   */\n      tag_192\n      jump\t// in\n    tag_310:\n        /* \"#utility.yul\":8990:9064   */\n      swap2\n      pop\n        /* \"#utility.yul\":9073:9166   */\n      tag_311\n        /* \"#utility.yul\":9162:9165   */\n      dup3\n        /* \"#utility.yul\":9073:9166   */\n      tag_199\n      jump\t// in\n    tag_311:\n        /* \"#utility.yul\":9191:9193   */\n      0x20\n        /* \"#utility.yul\":9186:9189   */\n      dup3\n        /* \"#utility.yul\":9182:9194   */\n      add\n        /* \"#utility.yul\":9175:9194   */\n      swap1\n      pop\n        /* \"#utility.yul\":8834:9200   */\n      swap2\n      swap1\n      pop\n      jump\t// out\n        /* \"#utility.yul\":9206:9625   */\n    tag_93:\n        /* \"#utility.yul\":9372:9376   */\n      0x00\n        /* \"#utility.yul\":9410:9412   */\n      0x20\n        /* \"#utility.yul\":9399:9408   */\n      dup3\n        /* \"#utility.yul\":9395:9413   */\n      add\n        /* \"#utility.yul\":9387:9413   */\n      swap1\n      pop\n        /* \"#utility.yul\":9459:9468   */\n      dup2\n        /* \"#utility.yul\":9453:9457   */\n      dup2\n        /* \"#utility.yul\":9449:9469   */\n      sub\n        /* \"#utility.yul\":9445:9446   */\n      0x00\n        /* \"#utility.yul\":9434:9443   */\n      dup4\n        /* \"#utility.yul\":9430:9447   */\n      add\n        /* \"#utility.yul\":9423:9470   */\n      mstore\n        /* \"#utility.yul\":9487:9618   */\n      tag_313\n        /* \"#utility.yul\":9613:9617   */\n      dup2\n        /* \"#utility.yul\":9487:9618   */\n      tag_200\n      jump\t// in\n    tag_313:\n        /* \"#utility.yul\":9479:9618   */\n      swap1\n      pop\n        /* \"#utility.yul\":9206:9625   */\n      swap2\n      swap1\n      pop\n      jump\t// out\n        /* \"#utility.yul\":9631:9811   */\n    tag_201:\n        /* \"#utility.yul\":9679:9756   */\n      0x4e487b7100000000000000000000000000000000000000000000000000000000\n        /* \"#utility.yul\":9676:9677   */\n      0x00\n        /* \"#utility.yul\":9669:9757   */\n      mstore\n        /* \"#utility.yul\":9776:9780   */\n      0x12\n        /* \"#utility.yul\":9773:9774   */\n      0x04\n        /* \"#utility.yul\":9766:9781   */\n      mstore\n        /* \"#utility.yul\":9800:9804   */\n      0x24\n        /* \"#utility.yul\":9797:9798   */\n      0x00\n        /* \"#utility.yul\":9790:9805   */\n      revert\n        /* \"#utility.yul\":9817:9997   */\n    tag_202:\n        /* \"#utility.yul\":9865:9942   */\n      0x4e487b7100000000000000000000000000000000000000000000000000000000\n        /* \"#utility.yul\":9862:9863   */\n      0x00\n        /* \"#utility.yul\":9855:9943   */\n      mstore\n        /* \"#utility.yul\":9962:9966   */\n      0x11\n        /* \"#utility.yul\":9959:9960   */\n      0x04\n        /* \"#utility.yul\":9952:9967   */\n      mstore\n        /* \"#utility.yul\":9986:9990   */\n      0x24\n        /* \"#utility.yul\":9983:9984   */\n      0x00\n        /* \"#utility.yul\":9976:9991   */\n      revert\n        /* \"#utility.yul\":10003:10188   */\n    tag_95:\n        /* \"#utility.yul\":10043:10044   */\n      0x00\n        /* \"#utility.yul\":10060:10080   */\n      tag_317\n        /* \"#utility.yul\":10078:10079   */\n      dup3\n        /* \"#utility.yul\":10060:10080   */\n      tag_174\n      jump\t// in\n    tag_317:\n        /* \"#utility.yul\":10055:10080   */\n      swap2\n      pop\n        /* \"#utility.yul\":10094:10114   */\n      tag_318\n        /* \"#utility.yul\":10112:10113   */\n      dup4\n        /* \"#utility.yul\":10094:10114   */\n      tag_174\n      jump\t// in\n    tag_318:\n        /* \"#utility.yul\":10089:10114   */\n      swap3\n      pop\n        /* \"#utility.yul\":10133:10134   */\n      dup3\n        /* \"#utility.yul\":10123:10158   */\n      tag_319\n      jumpi\n        /* \"#utility.yul\":10138:10156   */\n      tag_320\n      tag_201\n      jump\t// in\n    tag_320:\n        /* \"#utility.yul\":10123:10158   */\n    tag_319:\n        /* \"#utility.yul\":10180:10181   */\n      dup3\n        /* \"#utility.yul\":10177:10178   */\n      dup3\n        /* \"#utility.yul\":10173:10182   */\n      div\n        /* \"#utility.yul\":10168:10182   */\n      swap1\n      pop\n        /* \"#utility.yul\":10003:10188   */\n      swap3\n      swap2\n      pop\n      pop\n      jump\t// out\n        /* \"#utility.yul\":10194:10385   */\n    tag_97:\n        /* \"#utility.yul\":10234:10237   */\n      0x00\n        /* \"#utility.yul\":10253:10273   */\n      tag_322\n        /* \"#utility.yul\":10271:10272   */\n      dup3\n        /* \"#utility.yul\":10253:10273   */\n      tag_174\n      jump\t// in\n    tag_322:\n        /* \"#utility.yul\":10248:10273   */\n      swap2\n      pop\n        /* \"#utility.yul\":10287:10307   */\n      tag_323\n        /* \"#utility.yul\":10305:10306   */\n      dup4\n        /* \"#utility.yul\":10287:10307   */\n      tag_174\n      jump\t// in\n    tag_323:\n        /* \"#utility.yul\":10282:10307   */\n      swap3\n      pop\n        /* \"#utility.yul\":10330:10331   */\n      dup3\n        /* \"#utility.yul\":10327:10328   */\n      dup3\n        /* \"#utility.yul\":10323:10332   */\n      add\n        /* \"#utility.yul\":10316:10332   */\n      swap1\n      pop\n        /* \"#utility.yul\":10351:10354   */\n      dup1\n        /* \"#utility.yul\":10348:10349   */\n      dup3\n        /* \"#utility.yul\":10345:10355   */\n      gt\n        /* \"#utility.yul\":10342:10378   */\n      iszero\n      tag_324\n      jumpi\n        /* \"#utility.yul\":10358:10376   */\n      tag_325\n      tag_202\n      jump\t// in\n    tag_325:\n        /* \"#utility.yul\":10342:10378   */\n    tag_324:\n        /* \"#utility.yul\":10194:10385   */\n      swap3\n      swap2\n      pop\n      pop\n      jump\t// out\n        /* \"#utility.yul\":10391:10550   */\n    tag_203:\n        /* \"#utility.yul\":10531:10542   */\n      0x6461696c79206361700000000000000000000000000000000000000000000000\n        /* \"#utility.yul\":10527:10528   */\n      0x00\n        /* \"#utility.yul\":10519:10525   */\n      dup3\n        /* \"#utility.yul\":10515:10529   */\n      add\n        /* \"#utility.yul\":10508:10543   */\n      mstore\n        /* \"#utility.yul\":10391:10550   */\n      pop\n      jump\t// out\n        /* \"#utility.yul\":10556:10921   */\n    tag_204:\n        /* \"#utility.yul\":10698:10701   */\n      0x00\n        /* \"#utility.yul\":10719:10785   */\n      tag_328\n        /* \"#utility.yul\":10783:10784   */\n      0x09\n        /* \"#utility.yul\":10778:10781   */\n      dup4\n        /* \"#utility.yul\":10719:10785   */\n      tag_192\n      jump\t// in\n    tag_328:\n        /* \"#utility.yul\":10712:10785   */\n      swap2\n      pop\n        /* \"#utility.yul\":10794:10887   */\n      tag_329\n        /* \"#utility.yul\":10883:10886   */\n      dup3\n        /* \"#utility.yul\":10794:10887   */\n      tag_203\n      jump\t// in\n    tag_329:\n        /* \"#utility.yul\":10912:10914   */\n      0x20\n        /* \"#utility.yul\":10907:10910   */\n      dup3\n        /* \"#utility.yul\":10903:10915   */\n      add\n        /* \"#utility.yul\":10896:10915   */\n      swap1\n      pop\n        /* \"#utility.yul\":10556:10921   */\n      swap2\n      swap1\n      pop\n      jump\t// out\n        /* \"#utility.yul\":10927:11346   */\n    tag_100:\n        /* \"#utility.yul\":11093:11097   */\n      0x00\n        /* \"#utility.yul\":11131:11133   */\n      0x20\n        /* \"#utility.yul\":11120:11129   */\n      dup3\n        /* \"#utility.yul\":11116:11134   */\n      add\n        /* \"#utility.yul\":11108:11134   */\n      swap1\n      pop\n        /* \"#utility.yul\":11180:11189   */\n      dup2\n        /* \"#utility.yul\":11174:11178   */\n      dup2\n        /* \"#utility.yul\":11170:11190   */\n      sub\n        /* \"#utility.yul\":11166:11167   */\n      0x00\n        /* \"#utility.yul\":11155:11164   */\n      dup4\n        /* \"#utility.yul\":11151:11168   */\n      add\n        /* \"#utility.yul\":11144:11191   */\n      mstore\n        /* \"#utility.yul\":11208:11339   */\n      tag_331\n        /* \"#utility.yul\":11334:11338   */\n      dup2\n        /* \"#utility.yul\":11208:11339   */\n      tag_204\n      jump\t// in\n    tag_331:\n        /* \"#utility.yul\":11200:11339   */\n      swap1\n      pop\n        /* \"#utility.yul\":10927:11346   */\n      swap2\n      swap1\n      pop\n      jump\t// out\n        /* \"#utility.yul\":11352:11495   */\n    tag_205:\n        /* \"#utility.yul\":11409:11414   */\n      0x00\n        /* \"#utility.yul\":11440:11446   */\n      dup2\n        /* \"#utility.yul\":11434:11447   */\n      mload\n        /* \"#utility.yul\":11425:11447   */\n      swap1\n      pop\n        /* \"#utility.yul\":11456:11489   */\n      tag_333\n        /* \"#utility.yul\":11483:11488   */\n      dup2\n        /* \"#utility.yul\":11456:11489   */\n      tag_175\n      jump\t// in\n    tag_333:\n        /* \"#utility.yul\":11352:11495   */\n      swap3\n      swap2\n      pop\n      pop\n      jump\t// out\n        /* \"#utility.yul\":11501:11852   */\n    tag_105:\n        /* \"#utility.yul\":11571:11577   */\n      0x00\n        /* \"#utility.yul\":11620:11622   */\n      0x20\n        /* \"#utility.yul\":11608:11617   */\n      dup3\n        /* \"#utility.yul\":11599:11606   */\n      dup5\n        /* \"#utility.yul\":11595:11618   */\n      sub\n        /* \"#utility.yul\":11591:11623   */\n      slt\n        /* \"#utility.yul\":11588:11707   */\n      iszero\n      tag_335\n      jumpi\n        /* \"#utility.yul\":11626:11705   */\n      tag_336\n      tag_172\n      jump\t// in\n    tag_336:\n        /* \"#utility.yul\":11588:11707   */\n    tag_335:\n        /* \"#utility.yul\":11746:11747   */\n      0x00\n        /* \"#utility.yul\":11771:11835   */\n      tag_337\n        /* \"#utility.yul\":11827:11834   */\n      dup5\n        /* \"#utility.yul\":11818:11824   */\n      dup3\n        /* \"#utility.yul\":11807:11816   */\n      dup6\n        /* \"#utility.yul\":11803:11825   */\n      add\n        /* \"#utility.yul\":11771:11835   */\n      tag_205\n      jump\t// in\n    tag_337:\n        /* \"#utility.yul\":11761:11835   */\n      swap2\n      pop\n        /* \"#utility.yul\":11717:11845   */\n      pop\n        /* \"#utility.yul\":11501:11852   */\n      swap3\n      swap2\n      pop\n      pop\n      jump\t// out\n        /* \"#utility.yul\":11858:12025   */\n    tag_206:\n        /* \"#utility.yul\":11998:12017   */\n      0x696e73756666696369656e7420706f6f6c000000000000000000000000000000\n        /* \"#utility.yul\":11994:11995   */\n      0x00\n        /* \"#utility.yul\":11986:11992   */\n      dup3\n        /* \"#utility.yul\":11982:11996   */\n      add\n        /* \"#utility.yul\":11975:12018   */\n      mstore\n        /* \"#utility.yul\":11858:12025   */\n      pop\n      jump\t// out\n        /* \"#utility.yul\":12031:12397   */\n    tag_207:\n        /* \"#utility.yul\":12173:12176   */\n      0x00\n        /* \"#utility.yul\":12194:12261   */\n      tag_340\n        /* \"#utility.yul\":12258:12260   */\n      0x11\n        /* \"#utility.yul\":12253:12256   */\n      dup4\n        /* \"#utility.yul\":12194:12261   */\n      tag_192\n      jump\t// in\n    tag_340:\n        /* \"#utility.yul\":12187:12261   */\n      swap2\n      pop\n        /* \"#utility.yul\":12270:12363   */\n      tag_341\n        /* \"#utility.yul\":12359:12362   */\n      dup3\n        /* \"#utility.yul\":12270:12363   */\n      tag_206\n      jump\t// in\n    tag_341:\n        /* \"#utility.yul\":12388:12390   */\n      0x20\n        /* \"#utility.yul\":12383:12386   */\n      dup3\n        /* \"#utility.yul\":12379:12391   */\n      add\n        /* \"#utility.yul\":12372:12391   */\n      swap1\n      pop\n        /* \"#utility.yul\":12031:12397   */\n      swap2\n      swap1\n      pop\n      jump\t// out\n        /* \"#utility.yul\":12403:12822   */\n    tag_108:\n        /* \"#utility.yul\":12569:12573   */\n      0x00\n        /* \"#utility.yul\":12607:12609   */\n      0x20\n        /* \"#utility.yul\":12596:12605   */\n      dup3\n        /* \"#utility.yul\":12592:12610   */\n      add\n        /* \"#utility.yul\":12584:12610   */\n      swap1\n      pop\n        /* \"#utility.yul\":12656:12665   */\n      dup2\n        /* \"#utility.yul\":12650:12654   */\n      dup2\n        /* \"#utility.yul\":12646:12666   */\n      sub\n        /* \"#utility.yul\":12642:12643   */\n      0x00\n        /* \"#utility.yul\":12631:12640   */\n      dup4\n        /* \"#utility.yul\":12627:12644   */\n      add\n        /* \"#utility.yul\":12620:12667   */\n      mstore\n        /* \"#utility.yul\":12684:12815   */\n      tag_343\n        /* \"#utility.yul\":12810:12814   */\n      dup2\n        /* \"#utility.yul\":12684:12815   */\n      tag_207\n      jump\t// in\n    tag_343:\n        /* \"#utility.yul\":12676:12815   */\n      swap1\n      pop\n        /* \"#utility.yul\":12403:12822   */\n      swap2\n      swap1\n      pop\n      jump\t// out\n        /* \"#utility.yul\":12828:13160   */\n    tag_110:\n        /* \"#utility.yul\":12949:12953   */\n      0x00\n        /* \"#utility.yul\":12987:12989   */\n      0x40\n        /* \"#utility.yul\":12976:12985   */\n      dup3\n        /* \"#utility.yul\":12972:12990   */\n      add\n        /* \"#utility.yul\":12964:12990   */\n      swap1\n      pop\n        /* \"#utility.yul\":13000:13071   */\n      tag_345\n        /* \"#utility.yul\":13068:13069   */\n      0x00\n        /* \"#utility.yul\":13057:13066   */\n      dup4\n        /* \"#utility.yul\":13053:13070   */\n      add\n        /* \"#utility.yul\":13044:13050   */\n      dup6\n        /* \"#utility.yul\":13000:13071   */\n      tag_184\n      jump\t// in\n    tag_345:\n        /* \"#utility.yul\":13081:13153   */\n      tag_346\n        /* \"#utility.yul\":13149:13151   */\n      0x20\n        /* \"#utility.yul\":13138:13147   */\n      dup4\n        /* \"#utility.yul\":13134:13152   */\n      add\n        /* \"#utility.yul\":13125:13131   */\n      dup5\n        /* \"#utility.yul\":13081:13153   */\n      tag_185\n      jump\t// in\n    tag_346:\n        /* \"#utility.yul\":12828:13160   */\n      swap4\n      swap3\n      pop\n      pop\n      pop\n      jump\t// out\n        /* \"#utility.yul\":13166:13303   */\n    tag_208:\n        /* \"#utility.yul\":13220:13225   */\n      0x00\n        /* \"#utility.yul\":13251:13257   */\n      dup2\n        /* \"#utility.yul\":13245:13258   */\n      mload\n        /* \"#utility.yul\":13236:13258   */\n      swap1\n      pop\n        /* \"#utility.yul\":13267:13297   */\n      tag_348\n        /* \"#utility.yul\":13291:13296   */\n      dup2\n        /* \"#utility.yul\":13267:13297   */\n      tag_182\n      jump\t// in\n    tag_348:\n        /* \"#utility.yul\":13166:13303   */\n      swap3\n      swap2\n      pop\n      pop\n      jump\t// out\n        /* \"#utility.yul\":13309:13654   */\n    tag_114:\n        /* \"#utility.yul\":13376:13382   */\n      0x00\n        /* \"#utility.yul\":13425:13427   */\n      0x20\n        /* \"#utility.yul\":13413:13422   */\n      dup3\n        /* \"#utility.yul\":13404:13411   */\n      dup5\n        /* \"#utility.yul\":13400:13423   */\n      sub\n        /* \"#utility.yul\":13396:13428   */\n      slt\n        /* \"#utility.yul\":13393:13512   */\n      iszero\n      tag_350\n      jumpi\n        /* \"#utility.yul\":13431:13510   */\n      tag_351\n      tag_172\n      jump\t// in\n    tag_351:\n        /* \"#utility.yul\":13393:13512   */\n    tag_350:\n        /* \"#utility.yul\":13551:13552   */\n      0x00\n        /* \"#utility.yul\":13576:13637   */\n      tag_352\n        /* \"#utility.yul\":13629:13636   */\n      dup5\n        /* \"#utility.yul\":13620:13626   */\n      dup3\n        /* \"#utility.yul\":13609:13618   */\n      dup6\n        /* \"#utility.yul\":13605:13627   */\n      add\n        /* \"#utility.yul\":13576:13637   */\n      tag_208\n      jump\t// in\n    tag_352:\n        /* \"#utility.yul\":13566:13637   */\n      swap2\n      pop\n        /* \"#utility.yul\":13522:13647   */\n      pop\n        /* \"#utility.yul\":13309:13654   */\n      swap3\n      swap2\n      pop\n      pop\n      jump\t// out\n        /* \"#utility.yul\":13660:13992   */\n    tag_116:\n        /* \"#utility.yul\":13781:13785   */\n      0x00\n        /* \"#utility.yul\":13819:13821   */\n      0x40\n        /* \"#utility.yul\":13808:13817   */\n      dup3\n        /* \"#utility.yul\":13804:13822   */\n      add\n        /* \"#utility.yul\":13796:13822   */\n      swap1\n      pop\n        /* \"#utility.yul\":13832:13903   */\n      tag_354\n        /* \"#utility.yul\":13900:13901   */\n      0x00\n        /* \"#utility.yul\":13889:13898   */\n      dup4\n        /* \"#utility.yul\":13885:13902   */\n      add\n        /* \"#utility.yul\":13876:13882   */\n      dup6\n        /* \"#utility.yul\":13832:13903   */\n      tag_185\n      jump\t// in\n    tag_354:\n        /* \"#utility.yul\":13913:13985   */\n      tag_355\n        /* \"#utility.yul\":13981:13983   */\n      0x20\n        /* \"#utility.yul\":13970:13979   */\n      dup4\n        /* \"#utility.yul\":13966:13984   */\n      add\n        /* \"#utility.yul\":13957:13963   */\n      dup5\n        /* \"#utility.yul\":13913:13985   */\n      tag_185\n      jump\t// in\n    tag_355:\n        /* \"#utility.yul\":13660:13992   */\n      swap4\n      swap3\n      pop\n      pop\n      pop\n      jump\t// out\n        /* \"#utility.yul\":13998:14440   */\n    tag_123:\n        /* \"#utility.yul\":14147:14151   */\n      0x00\n        /* \"#utility.yul\":14185:14187   */\n      0x60\n        /* \"#utility.yul\":14174:14183   */\n      dup3\n        /* \"#utility.yul\":14170:14188   */\n      add\n        /* \"#utility.yul\":14162:14188   */\n      swap1\n      pop\n        /* \"#utility.yul\":14198:14269   */\n      tag_357\n        /* \"#utility.yul\":14266:14267   */\n      0x00\n        /* \"#utility.yul\":14255:14264   */\n      dup4\n        /* \"#utility.yul\":14251:14268   */\n      add\n        /* \"#utility.yul\":14242:14248   */\n      dup7\n        /* \"#utility.yul\":14198:14269   */\n      tag_184\n      jump\t// in\n    tag_357:\n        /* \"#utility.yul\":14279:14351   */\n      tag_358\n        /* \"#utility.yul\":14347:14349   */\n      0x20\n        /* \"#utility.yul\":14336:14345   */\n      dup4\n        /* \"#utility.yul\":14332:14350   */\n      add\n        /* \"#utility.yul\":14323:14329   */\n      dup6\n        /* \"#utility.yul\":14279:14351   */\n      tag_184\n      jump\t// in\n    tag_358:\n        /* \"#utility.yul\":14361:14433   */\n      tag_359\n        /* \"#utility.yul\":14429:14431   */\n      0x40\n        /* \"#utility.yul\":14418:14427   */\n      dup4\n        /* \"#utility.yul\":14414:14432   */\n      add\n        /* \"#utility.yul\":14405:14411   */\n      dup5\n        /* \"#utility.yul\":14361:14433   */\n      tag_185\n      jump\t// in\n    tag_359:\n        /* \"#utility.yul\":13998:14440   */\n      swap5\n      swap4\n      pop\n      pop\n      pop\n      pop\n      jump\t// out\n        /* \"#utility.yul\":14446:14613   */\n    tag_209:\n        /* \"#utility.yul\":14586:14605   */\n      0x7472616e7366657246726f6d206661696c000000000000000000000000000000\n        /* \"#utility.yul\":14582:14583   */\n      0x00\n        /* \"#utility.yul\":14574:14580   */\n      dup3\n        /* \"#utility.yul\":14570:14584   */\n      add\n        /* \"#utility.yul\":14563:14606   */\n      mstore\n        /* \"#utility.yul\":14446:14613   */\n      pop\n      jump\t// out\n        /* \"#utility.yul\":14619:14985   */\n    tag_210:\n        /* \"#utility.yul\":14761:14764   */\n      0x00\n        /* \"#utility.yul\":14782:14849   */\n      tag_362\n        /* \"#utility.yul\":14846:14848   */\n      0x11\n        /* \"#utility.yul\":14841:14844   */\n      dup4\n        /* \"#utility.yul\":14782:14849   */\n      tag_192\n      jump\t// in\n    tag_362:\n        /* \"#utility.yul\":14775:14849   */\n      swap2\n      pop\n        /* \"#utility.yul\":14858:14951   */\n      tag_363\n        /* \"#utility.yul\":14947:14950   */\n      dup3\n        /* \"#utility.yul\":14858:14951   */\n      tag_209\n      jump\t// in\n    tag_363:\n        /* \"#utility.yul\":14976:14978   */\n      0x20\n        /* \"#utility.yul\":14971:14974   */\n      dup3\n        /* \"#utility.yul\":14967:14979   */\n      add\n        /* \"#utility.yul\":14960:14979   */\n      swap1\n      pop\n        /* \"#utility.yul\":14619:14985   */\n      swap2\n      swap1\n      pop\n      jump\t// out\n        /* \"#utility.yul\":14991:15410   */\n    tag_129:\n        /* \"#utility.yul\":15157:15161   */\n      0x00\n        /* \"#utility.yul\":15195:15197   */\n      0x20\n        /* \"#utility.yul\":15184:15193   */\n      dup3\n        /* \"#utility.yul\":15180:15198   */\n      add\n        /* \"#utility.yul\":15172:15198   */\n      swap1\n      pop\n        /* \"#utility.yul\":15244:15253   */\n      dup2\n        /* \"#utility.yul\":15238:15242   */\n      dup2\n        /* \"#utility.yul\":15234:15254   */\n      sub\n        /* \"#utility.yul\":15230:15231   */\n      0x00\n        /* \"#utility.yul\":15219:15228   */\n      dup4\n        /* \"#utility.yul\":15215:15232   */\n      add\n        /* \"#utility.yul\":15208:15255   */\n      mstore\n        /* \"#utility.yul\":15272:15403   */\n      tag_365\n        /* \"#utility.yul\":15398:15402   */\n      dup2\n        /* \"#utility.yul\":15272:15403   */\n      tag_210\n      jump\t// in\n    tag_365:\n        /* \"#utility.yul\":15264:15403   */\n      swap1\n      pop\n        /* \"#utility.yul\":14991:15410   */\n      swap2\n      swap1\n      pop\n      jump\t// out\n        /* \"#utility.yul\":15416:15592   */\n    tag_211:\n        /* \"#utility.yul\":15556:15584   */\n      0x72656e6f756e63654f776e6572736869702064697361626c6564000000000000\n        /* \"#utility.yul\":15552:15553   */\n      0x00\n        /* \"#utility.yul\":15544:15550   */\n      dup3\n        /* \"#utility.yul\":15540:15554   */\n      add\n        /* \"#utility.yul\":15533:15585   */\n      mstore\n        /* \"#utility.yul\":15416:15592   */\n      pop\n      jump\t// out\n        /* \"#utility.yul\":15598:15964   */\n    tag_212:\n        /* \"#utility.yul\":15740:15743   */\n      0x00\n        /* \"#utility.yul\":15761:15828   */\n      tag_368\n        /* \"#utility.yul\":15825:15827   */\n      0x1a\n        /* \"#utility.yul\":15820:15823   */\n      dup4\n        /* \"#utility.yul\":15761:15828   */\n      tag_192\n      jump\t// in\n    tag_368:\n        /* \"#utility.yul\":15754:15828   */\n      swap2\n      pop\n        /* \"#utility.yul\":15837:15930   */\n      tag_369\n        /* \"#utility.yul\":15926:15929   */\n      dup3\n        /* \"#utility.yul\":15837:15930   */\n      tag_211\n      jump\t// in\n    tag_369:\n        /* \"#utility.yul\":15955:15957   */\n      0x20\n        /* \"#utility.yul\":15950:15953   */\n      dup3\n        /* \"#utility.yul\":15946:15958   */\n      add\n        /* \"#utility.yul\":15939:15958   */\n      swap1\n      pop\n        /* \"#utility.yul\":15598:15964   */\n      swap2\n      swap1\n      pop\n      jump\t// out\n        /* \"#utility.yul\":15970:16389   */\n    tag_134:\n        /* \"#utility.yul\":16136:16140   */\n      0x00\n        /* \"#utility.yul\":16174:16176   */\n      0x20\n        /* \"#utility.yul\":16163:16172   */\n      dup3\n        /* \"#utility.yul\":16159:16177   */\n      add\n        /* \"#utility.yul\":16151:16177   */\n      swap1\n      pop\n        /* \"#utility.yul\":16223:16232   */\n      dup2\n        /* \"#utility.yul\":16217:16221   */\n      dup2\n        /* \"#utility.yul\":16213:16233   */\n      sub\n        /* \"#utility.yul\":16209:16210   */\n      0x00\n        /* \"#utility.yul\":16198:16207   */\n      dup4\n        /* \"#utility.yul\":16194:16211   */\n      add\n        /* \"#utility.yul\":16187:16234   */\n      mstore\n        /* \"#utility.yul\":16251:16382   */\n      tag_371\n        /* \"#utility.yul\":16377:16381   */\n      dup2\n        /* \"#utility.yul\":16251:16382   */\n      tag_212\n      jump\t// in\n    tag_371:\n        /* \"#utility.yul\":16243:16382   */\n      swap1\n      pop\n        /* \"#utility.yul\":15970:16389   */\n      swap2\n      swap1\n      pop\n      jump\t// out\n        /* \"#utility.yul\":16395:16552   */\n    tag_213:\n        /* \"#utility.yul\":16535:16544   */\n      0x7a65726f20746f00000000000000000000000000000000000000000000000000\n        /* \"#utility.yul\":16531:16532   */\n      0x00\n        /* \"#utility.yul\":16523:16529   */\n      dup3\n        /* \"#utility.yul\":16519:16533   */\n      add\n        /* \"#utility.yul\":16512:16545   */\n      mstore\n        /* \"#utility.yul\":16395:16552   */\n      pop\n      jump\t// out\n        /* \"#utility.yul\":16558:16923   */\n    tag_214:\n        /* \"#utility.yul\":16700:16703   */\n      0x00\n        /* \"#utility.yul\":16721:16787   */\n      tag_374\n        /* \"#utility.yul\":16785:16786   */\n      0x07\n        /* \"#utility.yul\":16780:16783   */\n      dup4\n        /* \"#utility.yul\":16721:16787   */\n      tag_192\n      jump\t// in\n    tag_374:\n        /* \"#utility.yul\":16714:16787   */\n      swap2\n      pop\n        /* \"#utility.yul\":16796:16889   */\n      tag_375\n        /* \"#utility.yul\":16885:16888   */\n      dup3\n        /* \"#utility.yul\":16796:16889   */\n      tag_213\n      jump\t// in\n    tag_375:\n        /* \"#utility.yul\":16914:16916   */\n      0x20\n        /* \"#utility.yul\":16909:16912   */\n      dup3\n        /* \"#utility.yul\":16905:16917   */\n      add\n        /* \"#utility.yul\":16898:16917   */\n      swap1\n      pop\n        /* \"#utility.yul\":16558:16923   */\n      swap2\n      swap1\n      pop\n      jump\t// out\n        /* \"#utility.yul\":16929:17348   */\n    tag_140:\n        /* \"#utility.yul\":17095:17099   */\n      0x00\n        /* \"#utility.yul\":17133:17135   */\n      0x20\n        /* \"#utility.yul\":17122:17131   */\n      dup3\n        /* \"#utility.yul\":17118:17136   */\n      add\n        /* \"#utility.yul\":17110:17136   */\n      swap1\n      pop\n        /* \"#utility.yul\":17182:17191   */\n      dup2\n        /* \"#utility.yul\":17176:17180   */\n      dup2\n        /* \"#utility.yul\":17172:17192   */\n      sub\n        /* \"#utility.yul\":17168:17169   */\n      0x00\n        /* \"#utility.yul\":17157:17166   */\n      dup4\n        /* \"#utility.yul\":17153:17170   */\n      add\n        /* \"#utility.yul\":17146:17193   */\n      mstore\n        /* \"#utility.yul\":17210:17341   */\n      tag_377\n        /* \"#utility.yul\":17336:17340   */\n      dup2\n        /* \"#utility.yul\":17210:17341   */\n      tag_214\n      jump\t// in\n    tag_377:\n        /* \"#utility.yul\":17202:17341   */\n      swap1\n      pop\n        /* \"#utility.yul\":16929:17348   */\n      swap2\n      swap1\n      pop\n      jump\t// out\n        /* \"#utility.yul\":17354:17535   */\n    tag_215:\n        /* \"#utility.yul\":17494:17527   */\n      0x5265656e7472616e637947756172643a207265656e7472616e742063616c6c00\n        /* \"#utility.yul\":17490:17491   */\n      0x00\n        /* \"#utility.yul\":17482:17488   */\n      dup3\n        /* \"#utility.yul\":17478:17492   */\n      add\n        /* \"#utility.yul\":17471:17528   */\n      mstore\n        /* \"#utility.yul\":17354:17535   */\n      pop\n      jump\t// out\n        /* \"#utility.yul\":17541:17907   */\n    tag_216:\n        /* \"#utility.yul\":17683:17686   */\n      0x00\n        /* \"#utility.yul\":17704:17771   */\n      tag_380\n        /* \"#utility.yul\":17768:17770   */\n      0x1f\n        /* \"#utility.yul\":17763:17766   */\n      dup4\n        /* \"#utility.yul\":17704:17771   */\n      tag_192\n      jump\t// in\n    tag_380:\n        /* \"#utility.yul\":17697:17771   */\n      swap2\n      pop\n        /* \"#utility.yul\":17780:17873   */\n      tag_381\n        /* \"#utility.yul\":17869:17872   */\n      dup3\n        /* \"#utility.yul\":17780:17873   */\n      tag_215\n      jump\t// in\n    tag_381:\n        /* \"#utility.yul\":17898:17900   */\n      0x20\n        /* \"#utility.yul\":17893:17896   */\n      dup3\n        /* \"#utility.yul\":17889:17901   */\n      add\n        /* \"#utility.yul\":17882:17901   */\n      swap1\n      pop\n        /* \"#utility.yul\":17541:17907   */\n      swap2\n      swap1\n      pop\n      jump\t// out\n        /* \"#utility.yul\":17913:18332   */\n    tag_163:\n        /* \"#utility.yul\":18079:18083   */\n      0x00\n        /* \"#utility.yul\":18117:18119   */\n      0x20\n        /* \"#utility.yul\":18106:18115   */\n      dup3\n        /* \"#utility.yul\":18102:18120   */\n      add\n        /* \"#utility.yul\":18094:18120   */\n      swap1\n      pop\n        /* \"#utility.yul\":18166:18175   */\n      dup2\n        /* \"#utility.yul\":18160:18164   */\n      dup2\n        /* \"#utility.yul\":18156:18176   */\n      sub\n        /* \"#utility.yul\":18152:18153   */\n      0x00\n        /* \"#utility.yul\":18141:18150   */\n      dup4\n        /* \"#utility.yul\":18137:18154   */\n      add\n        /* \"#utility.yul\":18130:18177   */\n      mstore\n        /* \"#utility.yul\":18194:18325   */\n      tag_383\n        /* \"#utility.yul\":18320:18324   */\n      dup2\n        /* \"#utility.yul\":18194:18325   */\n      tag_216\n      jump\t// in\n    tag_383:\n        /* \"#utility.yul\":18186:18325   */\n      swap1\n      pop\n        /* \"#utility.yul\":17913:18332   */\n      swap2\n      swap1\n      pop\n      jump\t// out\n\n    auxdata: 0xa2646970667358221220d6a450c356d34aa567a7e7414bd465f02f0100105da5dc4e4b59e85cfd37ccee64736f6c634300081e0033\n}\n",
				"bytecode": {
					"linkReferences": {},
					"object": "60a0604052678ac7230489e80000600355680ad78ebc5ac6200000600455348015610028575f5ffd5b5060405161187a38038061187a833981810160405281019061004a919061022c565b805f73ffffffffffffffffffffffffffffffffffffffff168173ffffffffffffffffffffffffffffffffffffffff16036100bb575f6040517f1e4fbdf70000000000000000000000000000000000000000000000000000000081526004016100b29190610279565b60405180910390fd5b6100ca8161010d60201b60201c565b50600180819055508173ffffffffffffffffffffffffffffffffffffffff1660808173ffffffffffffffffffffffffffffffffffffffff16815250505050610292565b5f5f5f9054906101000a900473ffffffffffffffffffffffffffffffffffffffff169050815f5f6101000a81548173ffffffffffffffffffffffffffffffffffffffff021916908373ffffffffffffffffffffffffffffffffffffffff1602179055508173ffffffffffffffffffffffffffffffffffffffff168173ffffffffffffffffffffffffffffffffffffffff167f8be0079c531659141344cd1fd0a4f28419497f9722a3daafe3b4186f6b6457e060405160405180910390a35050565b5f5ffd5b5f73ffffffffffffffffffffffffffffffffffffffff82169050919050565b5f6101fb826101d2565b9050919050565b61020b816101f1565b8114610215575f5ffd5b50565b5f8151905061022681610202565b92915050565b5f5f60408385031215610242576102416101ce565b5b5f61024f85828601610218565b925050602061026085828601610218565b9150509250929050565b610273816101f1565b82525050565b5f60208201905061028c5f83018461026a565b92915050565b6080516115b46102c65f395f81816105bb01528181610694015281816107970152818161092f0152610ac301526115b45ff3fe608060405234801561000f575f5ffd5b50600436106100cd575f3560e01c80638da5cb5b1161008a578063c8e7711f11610064578063c8e7711f146101c1578063e2f70f04146101f1578063f2fde38b14610221578063fc0c546a1461023d576100cd565b80638da5cb5b146101675780638ea9571c146101855780639ea715a0146101a3576100cd565b8063212bf316146100d157806331cb6105146100ed57806335f6ebc11461010957806350017f3e14610125578063715018a6146101415780637a4e4ecf1461014b575b5f5ffd5b6100eb60048036038101906100e69190610d15565b61025b565b005b61010760048036038101906101029190610de2565b610275565b005b610123600480360381019061011e9190610e20565b610323565b005b61013f600480360381019061013a9190610e5e565b61078d565b005b610149610874565b005b61016560048036038101906101609190610e20565b6108b7565b005b61016f6109cd565b60405161017c9190610e98565b60405180910390f35b61018d6109f4565b60405161019a9190610ec0565b60405180910390f35b6101ab6109fa565b6040516101b89190610ec0565b60405180910390f35b6101db60048036038101906101d69190610e20565b610a00565b6040516101e89190610ec0565b60405180910390f35b61020b60048036038101906102069190610ed9565b610a20565b6040516102189190610f13565b60405180910390f35b61023b60048036038101906102369190610ed9565b610a3d565b005b610245610ac1565b6040516102529190610f87565b60405180910390f35b610263610ae5565b81600381905550806004819055505050565b61027d610ae5565b8060025f8473ffffffffffffffffffffffffffffffffffffffff1673ffffffffffffffffffffffffffffffffffffffff1681526020019081526020015f205f6101000a81548160ff0219169083151502179055508173ffffffffffffffffffffffffffffffffffffffff167ffc4acb499491cd850a8a21ab98c7f128850c0f0e5f1a875a62b7fa055c2ecf19826040516103179190610f13565b60405180910390a25050565b60025f3373ffffffffffffffffffffffffffffffffffffffff1673ffffffffffffffffffffffffffffffffffffffff1681526020019081526020015f205f9054906101000a900460ff166103ac576040517f08c379a00000000000000000000000000000000000000000000000000000000081526004016103a390610ffa565b60405180910390fd5b6103b4610b6c565b5f73ffffffffffffffffffffffffffffffffffffffff168273ffffffffffffffffffffffffffffffffffffffff1603610422576040517f08c379a000000000000000000000000000000000000000000000000000000000815260040161041990611062565b60405180910390fd5b5f61042c82610bbb565b90505f8111610470576040517f08c379a0000000000000000000000000000000000000000000000000000000008152600401610467906110ca565b60405180910390fd5b6003548111156104b5576040517f08c379a00000000000000000000000000000000000000000000000000000000081526004016104ac90611132565b60405180910390fd5b5f62015180426104c591906111aa565b90505f8260055f8773ffffffffffffffffffffffffffffffffffffffff1673ffffffffffffffffffffffffffffffffffffffff1681526020019081526020015f205f8481526020019081526020015f205461052091906111da565b9050600454811115610567576040517f08c379a000000000000000000000000000000000000000000000000000000000815260040161055e90611257565b60405180910390fd5b8060055f8773ffffffffffffffffffffffffffffffffffffffff1673ffffffffffffffffffffffffffffffffffffffff1681526020019081526020015f205f8481526020019081526020015f2081905550827f000000000000000000000000000000000000000000000000000000000000000073ffffffffffffffffffffffffffffffffffffffff166370a08231306040518263ffffffff1660e01b81526004016106129190610e98565b602060405180830381865afa15801561062d573d5f5f3e3d5ffd5b505050506040513d601f19601f820116820180604052508101906106519190611289565b1015610692576040517f08c379a0000000000000000000000000000000000000000000000000000000008152600401610689906112fe565b60405180910390fd5b7f000000000000000000000000000000000000000000000000000000000000000073ffffffffffffffffffffffffffffffffffffffff1663a9059cbb86856040518363ffffffff1660e01b81526004016106ed92919061131c565b6020604051808303815f875af1158015610709573d5f5f3e3d5ffd5b505050506040513d601f19601f8201168201806040525081019061072d9190611357565b508473ffffffffffffffffffffffffffffffffffffffff167f6379339f0ae63e95e65fad18ca2a7ec4e7e3f05f3cc5f7079f4d8da8cec34faa8585604051610776929190611382565b60405180910390a2505050610789610c0d565b5050565b610795610ae5565b7f000000000000000000000000000000000000000000000000000000000000000073ffffffffffffffffffffffffffffffffffffffff166323b872dd3330846040518463ffffffff1660e01b81526004016107f2939291906113a9565b6020604051808303815f875af115801561080e573d5f5f3e3d5ffd5b505050506040513d601f19601f820116820180604052508101906108329190611357565b610871576040517f08c379a000000000000000000000000000000000000000000000000000000000815260040161086890611428565b60405180910390fd5b50565b61087c610ae5565b6040517f08c379a00000000000000000000000000000000000000000000000000000000081526004016108ae90611490565b60405180910390fd5b6108bf610ae5565b5f73ffffffffffffffffffffffffffffffffffffffff168273ffffffffffffffffffffffffffffffffffffffff160361092d576040517f08c379a0000000000000000000000000000000000000000000000000000000008152600401610924906114f8565b60405180910390fd5b7f000000000000000000000000000000000000000000000000000000000000000073ffffffffffffffffffffffffffffffffffffffff1663a9059cbb83836040518363ffffffff1660e01b815260040161098892919061131c565b6020604051808303815f875af11580156109a4573d5f5f3e3d5ffd5b505050506040513d601f19601f820116820180604052508101906109c89190611357565b505050565b5f5f5f9054906101000a900473ffffffffffffffffffffffffffffffffffffffff16905090565b60045481565b60035481565b6005602052815f5260405f20602052805f5260405f205f91509150505481565b6002602052805f5260405f205f915054906101000a900460ff1681565b610a45610ae5565b5f73ffffffffffffffffffffffffffffffffffffffff168173ffffffffffffffffffffffffffffffffffffffff1603610ab5575f6040517f1e4fbdf7000000000000000000000000000000000000000000000000000000008152600401610aac9190610e98565b60405180910390fd5b610abe81610c16565b50565b7f000000000000000000000000000000000000000000000000000000000000000081565b610aed610cd7565b73ffffffffffffffffffffffffffffffffffffffff16610b0b6109cd565b73ffffffffffffffffffffffffffffffffffffffff1614610b6a57610b2e610cd7565b6040517f118cdaa7000000000000000000000000000000000000000000000000000000008152600401610b619190610e98565b60405180910390fd5b565b600260015403610bb1576040517f08c379a0000000000000000000000000000000000000000000000000000000008152600401610ba890611560565b60405180910390fd5b6002600181905550565b5f600a8211610bd457678ac7230489e800009050610c08565b60328211610bec57674563918244f400009050610c08565b60648211610c0457671bc16d674ec800009050610c08565b5f90505b919050565b60018081905550565b5f5f5f9054906101000a900473ffffffffffffffffffffffffffffffffffffffff169050815f5f6101000a81548173ffffffffffffffffffffffffffffffffffffffff021916908373ffffffffffffffffffffffffffffffffffffffff1602179055508173ffffffffffffffffffffffffffffffffffffffff168173ffffffffffffffffffffffffffffffffffffffff167f8be0079c531659141344cd1fd0a4f28419497f9722a3daafe3b4186f6b6457e060405160405180910390a35050565b5f33905090565b5f5ffd5b5f819050919050565b610cf481610ce2565b8114610cfe575f5ffd5b50565b5f81359050610d0f81610ceb565b92915050565b5f5f60408385031215610d2b57610d2a610cde565b5b5f610d3885828601610d01565b9250506020610d4985828601610d01565b9150509250929050565b5f73ffffffffffffffffffffffffffffffffffffffff82169050919050565b5f610d7c82610d53565b9050919050565b610d8c81610d72565b8114610d96575f5ffd5b50565b5f81359050610da781610d83565b92915050565b5f8115159050919050565b610dc181610dad565b8114610dcb575f5ffd5b50565b5f81359050610ddc81610db8565b92915050565b5f5f60408385031215610df857610df7610cde565b5b5f610e0585828601610d99565b9250506020610e1685828601610dce565b9150509250929050565b5f5f60408385031215610e3657610e35610cde565b5b5f610e4385828601610d99565b9250506020610e5485828601610d01565b9150509250929050565b5f60208284031215610e7357610e72610cde565b5b5f610e8084828501610d01565b91505092915050565b610e9281610d72565b82525050565b5f602082019050610eab5f830184610e89565b92915050565b610eba81610ce2565b82525050565b5f602082019050610ed35f830184610eb1565b92915050565b5f60208284031215610eee57610eed610cde565b5b5f610efb84828501610d99565b91505092915050565b610f0d81610dad565b82525050565b5f602082019050610f265f830184610f04565b92915050565b5f819050919050565b5f610f4f610f4a610f4584610d53565b610f2c565b610d53565b9050919050565b5f610f6082610f35565b9050919050565b5f610f7182610f56565b9050919050565b610f8181610f67565b82525050565b5f602082019050610f9a5f830184610f78565b92915050565b5f82825260208201905092915050565b7f6e6f742067616d650000000000000000000000000000000000000000000000005f82015250565b5f610fe4600883610fa0565b9150610fef82610fb0565b602082019050919050565b5f6020820190508181035f83015261101181610fd8565b9050919050565b7f7a65726f20706c617965720000000000000000000000000000000000000000005f82015250565b5f61104c600b83610fa0565b915061105782611018565b602082019050919050565b5f6020820190508181035f83015261107981611040565b9050919050565b7f6e6f2072657761726400000000000000000000000000000000000000000000005f82015250565b5f6110b4600983610fa0565b91506110bf82611080565b602082019050919050565b5f6020820190508181035f8301526110e1816110a8565b9050919050565b7f7065722d63616c6c2063617000000000000000000000000000000000000000005f82015250565b5f61111c600c83610fa0565b9150611127826110e8565b602082019050919050565b5f6020820190508181035f83015261114981611110565b9050919050565b7f4e487b71000000000000000000000000000000000000000000000000000000005f52601260045260245ffd5b7f4e487b71000000000000000000000000000000000000000000000000000000005f52601160045260245ffd5b5f6111b482610ce2565b91506111bf83610ce2565b9250826111cf576111ce611150565b5b828204905092915050565b5f6111e482610ce2565b91506111ef83610ce2565b92508282019050808211156112075761120661117d565b5b92915050565b7f6461696c792063617000000000000000000000000000000000000000000000005f82015250565b5f611241600983610fa0565b915061124c8261120d565b602082019050919050565b5f6020820190508181035f83015261126e81611235565b9050919050565b5f8151905061128381610ceb565b92915050565b5f6020828403121561129e5761129d610cde565b5b5f6112ab84828501611275565b91505092915050565b7f696e73756666696369656e7420706f6f6c0000000000000000000000000000005f82015250565b5f6112e8601183610fa0565b91506112f3826112b4565b602082019050919050565b5f6020820190508181035f830152611315816112dc565b9050919050565b5f60408201905061132f5f830185610e89565b61133c6020830184610eb1565b9392505050565b5f8151905061135181610db8565b92915050565b5f6020828403121561136c5761136b610cde565b5b5f61137984828501611343565b91505092915050565b5f6040820190506113955f830185610eb1565b6113a26020830184610eb1565b9392505050565b5f6060820190506113bc5f830186610e89565b6113c96020830185610e89565b6113d66040830184610eb1565b949350505050565b7f7472616e7366657246726f6d206661696c0000000000000000000000000000005f82015250565b5f611412601183610fa0565b915061141d826113de565b602082019050919050565b5f6020820190508181035f83015261143f81611406565b9050919050565b7f72656e6f756e63654f776e6572736869702064697361626c65640000000000005f82015250565b5f61147a601a83610fa0565b915061148582611446565b602082019050919050565b5f6020820190508181035f8301526114a78161146e565b9050919050565b7f7a65726f20746f000000000000000000000000000000000000000000000000005f82015250565b5f6114e2600783610fa0565b91506114ed826114ae565b602082019050919050565b5f6020820190508181035f83015261150f816114d6565b9050919050565b7f5265656e7472616e637947756172643a207265656e7472616e742063616c6c005f82015250565b5f61154a601f83610fa0565b915061155582611516565b602082019050919050565b5f6020820190508181035f8301526115778161153e565b905091905056fea2646970667358221220d6a450c356d34aa567a7e7414bd465f02f0100105da5dc4e4b59e85cfd37ccee64736f6c634300081e0033",
					"opcodes": "PUSH1 0xA0 PUSH1 0x40 MSTORE PUSH8 0x8AC7230489E80000 PUSH1 0x3 SSTORE PUSH9 0xAD78EBC5AC6200000 PUSH1 0x4 SSTORE CALLVALUE DUP1 ISZERO PUSH2 0x28 JUMPI PUSH0 PUSH0 REVERT JUMPDEST POP PUSH1 0x40 MLOAD PUSH2 0x187A CODESIZE SUB DUP1 PUSH2 0x187A DUP4 CODECOPY DUP2 DUP2 ADD PUSH1 0x40 MSTORE DUP2 ADD SWAP1 PUSH2 0x4A SWAP2 SWAP1 PUSH2 0x22C JUMP JUMPDEST DUP1 PUSH0 PUSH20 0xFFFFFFFFFFFFFFFFFFFFFFFFFFFFFFFFFFFFFFFF AND DUP2 PUSH20 0xFFFFFFFFFFFFFFFFFFFFFFFFFFFFFFFFFFFFFFFF AND SUB PUSH2 0xBB JUMPI PUSH0 PUSH1 0x40 MLOAD PUSH32 0x1E4FBDF700000000000000000000000000000000000000000000000000000000 DUP2 MSTORE PUSH1 0x4 ADD PUSH2 0xB2 SWAP2 SWAP1 PUSH2 0x279 JUMP JUMPDEST PUSH1 0x40 MLOAD DUP1 SWAP2 SUB SWAP1 REVERT JUMPDEST PUSH2 0xCA DUP2 PUSH2 0x10D PUSH1 0x20 SHL PUSH1 0x20 SHR JUMP JUMPDEST POP PUSH1 0x1 DUP1 DUP2 SWAP1 SSTORE POP DUP2 PUSH20 0xFFFFFFFFFFFFFFFFFFFFFFFFFFFFFFFFFFFFFFFF AND PUSH1 0x80 DUP2 PUSH20 0xFFFFFFFFFFFFFFFFFFFFFFFFFFFFFFFFFFFFFFFF AND DUP2 MSTORE POP POP POP POP PUSH2 0x292 JUMP JUMPDEST PUSH0 PUSH0 PUSH0 SWAP1 SLOAD SWAP1 PUSH2 0x100 EXP SWAP1 DIV PUSH20 0xFFFFFFFFFFFFFFFFFFFFFFFFFFFFFFFFFFFFFFFF AND SWAP1 POP DUP2 PUSH0 PUSH0 PUSH2 0x100 EXP DUP2 SLOAD DUP2 PUSH20 0xFFFFFFFFFFFFFFFFFFFFFFFFFFFFFFFFFFFFFFFF MUL NOT AND SWAP1 DUP4 PUSH20 0xFFFFFFFFFFFFFFFFFFFFFFFFFFFFFFFFFFFFFFFF AND MUL OR SWAP1 SSTORE POP DUP2 PUSH20 0xFFFFFFFFFFFFFFFFFFFFFFFFFFFFFFFFFFFFFFFF AND DUP2 PUSH20 0xFFFFFFFFFFFFFFFFFFFFFFFFFFFFFFFFFFFFFFFF AND PUSH32 0x8BE0079C531659141344CD1FD0A4F28419497F9722A3DAAFE3B4186F6B6457E0 PUSH1 0x40 MLOAD PUSH1 0x40 MLOAD DUP1 SWAP2 SUB SWAP1 LOG3 POP POP JUMP JUMPDEST PUSH0 PUSH0 REVERT JUMPDEST PUSH0 PUSH20 0xFFFFFFFFFFFFFFFFFFFFFFFFFFFFFFFFFFFFFFFF DUP3 AND SWAP1 POP SWAP2 SWAP1 POP JUMP JUMPDEST PUSH0 PUSH2 0x1FB DUP3 PUSH2 0x1D2 JUMP JUMPDEST SWAP1 POP SWAP2 SWAP1 POP JUMP JUMPDEST PUSH2 0x20B DUP2 PUSH2 0x1F1 JUMP JUMPDEST DUP2 EQ PUSH2 0x215 JUMPI PUSH0 PUSH0 REVERT JUMPDEST POP JUMP JUMPDEST PUSH0 DUP2 MLOAD SWAP1 POP PUSH2 0x226 DUP2 PUSH2 0x202 JUMP JUMPDEST SWAP3 SWAP2 POP POP JUMP JUMPDEST PUSH0 PUSH0 PUSH1 0x40 DUP4 DUP6 SUB SLT ISZERO PUSH2 0x242 JUMPI PUSH2 0x241 PUSH2 0x1CE JUMP JUMPDEST JUMPDEST PUSH0 PUSH2 0x24F DUP6 DUP3 DUP7 ADD PUSH2 0x218 JUMP JUMPDEST SWAP3 POP POP PUSH1 0x20 PUSH2 0x260 DUP6 DUP3 DUP7 ADD PUSH2 0x218 JUMP JUMPDEST SWAP2 POP POP SWAP3 POP SWAP3 SWAP1 POP JUMP JUMPDEST PUSH2 0x273 DUP2 PUSH2 0x1F1 JUMP JUMPDEST DUP3 MSTORE POP POP JUMP JUMPDEST PUSH0 PUSH1 0x20 DUP3 ADD SWAP1 POP PUSH2 0x28C PUSH0 DUP4 ADD DUP5 PUSH2 0x26A JUMP JUMPDEST SWAP3 SWAP2 POP POP JUMP JUMPDEST PUSH1 0x80 MLOAD PUSH2 0x15B4 PUSH2 0x2C6 PUSH0 CODECOPY PUSH0 DUP2 DUP2 PUSH2 0x5BB ADD MSTORE DUP2 DUP2 PUSH2 0x694 ADD MSTORE DUP2 DUP2 PUSH2 0x797 ADD MSTORE DUP2 DUP2 PUSH2 0x92F ADD MSTORE PUSH2 0xAC3 ADD MSTORE PUSH2 0x15B4 PUSH0 RETURN INVALID PUSH1 0x80 PUSH1 0x40 MSTORE CALLVALUE DUP1 ISZERO PUSH2 0xF JUMPI PUSH0 PUSH0 REVERT JUMPDEST POP PUSH1 0x4 CALLDATASIZE LT PUSH2 0xCD JUMPI PUSH0 CALLDATALOAD PUSH1 0xE0 SHR DUP1 PUSH4 0x8DA5CB5B GT PUSH2 0x8A JUMPI DUP1 PUSH4 0xC8E7711F GT PUSH2 0x64 JUMPI DUP1 PUSH4 0xC8E7711F EQ PUSH2 0x1C1 JUMPI DUP1 PUSH4 0xE2F70F04 EQ PUSH2 0x1F1 JUMPI DUP1 PUSH4 0xF2FDE38B EQ PUSH2 0x221 JUMPI DUP1 PUSH4 0xFC0C546A EQ PUSH2 0x23D JUMPI PUSH2 0xCD JUMP JUMPDEST DUP1 PUSH4 0x8DA5CB5B EQ PUSH2 0x167 JUMPI DUP1 PUSH4 0x8EA9571C EQ PUSH2 0x185 JUMPI DUP1 PUSH4 0x9EA715A0 EQ PUSH2 0x1A3 JUMPI PUSH2 0xCD JUMP JUMPDEST DUP1 PUSH4 0x212BF316 EQ PUSH2 0xD1 JUMPI DUP1 PUSH4 0x31CB6105 EQ PUSH2 0xED JUMPI DUP1 PUSH4 0x35F6EBC1 EQ PUSH2 0x109 JUMPI DUP1 PUSH4 0x50017F3E EQ PUSH2 0x125 JUMPI DUP1 PUSH4 0x715018A6 EQ PUSH2 0x141 JUMPI DUP1 PUSH4 0x7A4E4ECF EQ PUSH2 0x14B JUMPI JUMPDEST PUSH0 PUSH0 REVERT JUMPDEST PUSH2 0xEB PUSH1 0x4 DUP1 CALLDATASIZE SUB DUP2 ADD SWAP1 PUSH2 0xE6 SWAP2 SWAP1 PUSH2 0xD15 JUMP JUMPDEST PUSH2 0x25B JUMP JUMPDEST STOP JUMPDEST PUSH2 0x107 PUSH1 0x4 DUP1 CALLDATASIZE SUB DUP2 ADD SWAP1 PUSH2 0x102 SWAP2 SWAP1 PUSH2 0xDE2 JUMP JUMPDEST PUSH2 0x275 JUMP JUMPDEST STOP JUMPDEST PUSH2 0x123 PUSH1 0x4 DUP1 CALLDATASIZE SUB DUP2 ADD SWAP1 PUSH2 0x11E SWAP2 SWAP1 PUSH2 0xE20 JUMP JUMPDEST PUSH2 0x323 JUMP JUMPDEST STOP JUMPDEST PUSH2 0x13F PUSH1 0x4 DUP1 CALLDATASIZE SUB DUP2 ADD SWAP1 PUSH2 0x13A SWAP2 SWAP1 PUSH2 0xE5E JUMP JUMPDEST PUSH2 0x78D JUMP JUMPDEST STOP JUMPDEST PUSH2 0x149 PUSH2 0x874 JUMP JUMPDEST STOP JUMPDEST PUSH2 0x165 PUSH1 0x4 DUP1 CALLDATASIZE SUB DUP2 ADD SWAP1 PUSH2 0x160 SWAP2 SWAP1 PUSH2 0xE20 JUMP JUMPDEST PUSH2 0x8B7 JUMP JUMPDEST STOP JUMPDEST PUSH2 0x16F PUSH2 0x9CD JUMP JUMPDEST PUSH1 0x40 MLOAD PUSH2 0x17C SWAP2 SWAP1 PUSH2 0xE98 JUMP JUMPDEST PUSH1 0x40 MLOAD DUP1 SWAP2 SUB SWAP1 RETURN JUMPDEST PUSH2 0x18D PUSH2 0x9F4 JUMP JUMPDEST PUSH1 0x40 MLOAD PUSH2 0x19A SWAP2 SWAP1 PUSH2 0xEC0 JUMP JUMPDEST PUSH1 0x40 MLOAD DUP1 SWAP2 SUB SWAP1 RETURN JUMPDEST PUSH2 0x1AB PUSH2 0x9FA JUMP JUMPDEST PUSH1 0x40 MLOAD PUSH2 0x1B8 SWAP2 SWAP1 PUSH2 0xEC0 JUMP JUMPDEST PUSH1 0x40 MLOAD DUP1 SWAP2 SUB SWAP1 RETURN JUMPDEST PUSH2 0x1DB PUSH1 0x4 DUP1 CALLDATASIZE SUB DUP2 ADD SWAP1 PUSH2 0x1D6 SWAP2 SWAP1 PUSH2 0xE20 JUMP JUMPDEST PUSH2 0xA00 JUMP JUMPDEST PUSH1 0x40 MLOAD PUSH2 0x1E8 SWAP2 SWAP1 PUSH2 0xEC0 JUMP JUMPDEST PUSH1 0x40 MLOAD DUP1 SWAP2 SUB SWAP1 RETURN JUMPDEST PUSH2 0x20B PUSH1 0x4 DUP1 CALLDATASIZE SUB DUP2 ADD SWAP1 PUSH2 0x206 SWAP2 SWAP1 PUSH2 0xED9 JUMP JUMPDEST PUSH2 0xA20 JUMP JUMPDEST PUSH1 0x40 MLOAD PUSH2 0x218 SWAP2 SWAP1 PUSH2 0xF13 JUMP JUMPDEST PUSH1 0x40 MLOAD DUP1 SWAP2 SUB SWAP1 RETURN JUMPDEST PUSH2 0x23B PUSH1 0x4 DUP1 CALLDATASIZE SUB DUP2 ADD SWAP1 PUSH2 0x236 SWAP2 SWAP1 PUSH2 0xED9 JUMP JUMPDEST PUSH2 0xA3D JUMP JUMPDEST STOP JUMPDEST PUSH2 0x245 PUSH2 0xAC1 JUMP JUMPDEST PUSH1 0x40 MLOAD PUSH2 0x252 SWAP2 SWAP1 PUSH2 0xF87 JUMP JUMPDEST PUSH1 0x40 MLOAD DUP1 SWAP2 SUB SWAP1 RETURN JUMPDEST PUSH2 0x263 PUSH2 0xAE5 JUMP JUMPDEST DUP2 PUSH1 0x3 DUP2 SWAP1 SSTORE POP DUP1 PUSH1 0x4 DUP2 SWAP1 SSTORE POP POP POP JUMP JUMPDEST PUSH2 0x27D PUSH2 0xAE5 JUMP JUMPDEST DUP1 PUSH1 0x2 PUSH0 DUP5 PUSH20 0xFFFFFFFFFFFFFFFFFFFFFFFFFFFFFFFFFFFFFFFF AND PUSH20 0xFFFFFFFFFFFFFFFFFFFFFFFFFFFFFFFFFFFFFFFF AND DUP2 MSTORE PUSH1 0x20 ADD SWAP1 DUP2 MSTORE PUSH1 0x20 ADD PUSH0 KECCAK256 PUSH0 PUSH2 0x100 EXP DUP2 SLOAD DUP2 PUSH1 0xFF MUL NOT AND SWAP1 DUP4 ISZERO ISZERO MUL OR SWAP1 SSTORE POP DUP2 PUSH20 0xFFFFFFFFFFFFFFFFFFFFFFFFFFFFFFFFFFFFFFFF AND PUSH32 0xFC4ACB499491CD850A8A21AB98C7F128850C0F0E5F1A875A62B7FA055C2ECF19 DUP3 PUSH1 0x40 MLOAD PUSH2 0x317 SWAP2 SWAP1 PUSH2 0xF13 JUMP JUMPDEST PUSH1 0x40 MLOAD DUP1 SWAP2 SUB SWAP1 LOG2 POP POP JUMP JUMPDEST PUSH1 0x2 PUSH0 CALLER PUSH20 0xFFFFFFFFFFFFFFFFFFFFFFFFFFFFFFFFFFFFFFFF AND PUSH20 0xFFFFFFFFFFFFFFFFFFFFFFFFFFFFFFFFFFFFFFFF AND DUP2 MSTORE PUSH1 0x20 ADD SWAP1 DUP2 MSTORE PUSH1 0x20 ADD PUSH0 KECCAK256 PUSH0 SWAP1 SLOAD SWAP1 PUSH2 0x100 EXP SWAP1 DIV PUSH1 0xFF AND PUSH2 0x3AC JUMPI PUSH1 0x40 MLOAD PUSH32 0x8C379A000000000000000000000000000000000000000000000000000000000 DUP2 MSTORE PUSH1 0x4 ADD PUSH2 0x3A3 SWAP1 PUSH2 0xFFA JUMP JUMPDEST PUSH1 0x40 MLOAD DUP1 SWAP2 SUB SWAP1 REVERT JUMPDEST PUSH2 0x3B4 PUSH2 0xB6C JUMP JUMPDEST PUSH0 PUSH20 0xFFFFFFFFFFFFFFFFFFFFFFFFFFFFFFFFFFFFFFFF AND DUP3 PUSH20 0xFFFFFFFFFFFFFFFFFFFFFFFFFFFFFFFFFFFFFFFF AND SUB PUSH2 0x422 JUMPI PUSH1 0x40 MLOAD PUSH32 0x8C379A000000000000000000000000000000000000000000000000000000000 DUP2 MSTORE PUSH1 0x4 ADD PUSH2 0x419 SWAP1 PUSH2 0x1062 JUMP JUMPDEST PUSH1 0x40 MLOAD DUP1 SWAP2 SUB SWAP1 REVERT JUMPDEST PUSH0 PUSH2 0x42C DUP3 PUSH2 0xBBB JUMP JUMPDEST SWAP1 POP PUSH0 DUP2 GT PUSH2 0x470 JUMPI PUSH1 0x40 MLOAD PUSH32 0x8C379A000000000000000000000000000000000000000000000000000000000 DUP2 MSTORE PUSH1 0x4 ADD PUSH2 0x467 SWAP1 PUSH2 0x10CA JUMP JUMPDEST PUSH1 0x40 MLOAD DUP1 SWAP2 SUB SWAP1 REVERT JUMPDEST PUSH1 0x3 SLOAD DUP2 GT ISZERO PUSH2 0x4B5 JUMPI PUSH1 0x40 MLOAD PUSH32 0x8C379A000000000000000000000000000000000000000000000000000000000 DUP2 MSTORE PUSH1 0x4 ADD PUSH2 0x4AC SWAP1 PUSH2 0x1132 JUMP JUMPDEST PUSH1 0x40 MLOAD DUP1 SWAP2 SUB SWAP1 REVERT JUMPDEST PUSH0 PUSH3 0x15180 TIMESTAMP PUSH2 0x4C5 SWAP2 SWAP1 PUSH2 0x11AA JUMP JUMPDEST SWAP1 POP PUSH0 DUP3 PUSH1 0x5 PUSH0 DUP8 PUSH20 0xFFFFFFFFFFFFFFFFFFFFFFFFFFFFFFFFFFFFFFFF AND PUSH20 0xFFFFFFFFFFFFFFFFFFFFFFFFFFFFFFFFFFFFFFFF AND DUP2 MSTORE PUSH1 0x20 ADD SWAP1 DUP2 MSTORE PUSH1 0x20 ADD PUSH0 KECCAK256 PUSH0 DUP5 DUP2 MSTORE PUSH1 0x20 ADD SWAP1 DUP2 MSTORE PUSH1 0x20 ADD PUSH0 KECCAK256 SLOAD PUSH2 0x520 SWAP2 SWAP1 PUSH2 0x11DA JUMP JUMPDEST SWAP1 POP PUSH1 0x4 SLOAD DUP2 GT ISZERO PUSH2 0x567 JUMPI PUSH1 0x40 MLOAD PUSH32 0x8C379A000000000000000000000000000000000000000000000000000000000 DUP2 MSTORE PUSH1 0x4 ADD PUSH2 0x55E SWAP1 PUSH2 0x1257 JUMP JUMPDEST PUSH1 0x40 MLOAD DUP1 SWAP2 SUB SWAP1 REVERT JUMPDEST DUP1 PUSH1 0x5 PUSH0 DUP8 PUSH20 0xFFFFFFFFFFFFFFFFFFFFFFFFFFFFFFFFFFFFFFFF AND PUSH20 0xFFFFFFFFFFFFFFFFFFFFFFFFFFFFFFFFFFFFFFFF AND DUP2 MSTORE PUSH1 0x20 ADD SWAP1 DUP2 MSTORE PUSH1 0x20 ADD PUSH0 KECCAK256 PUSH0 DUP5 DUP2 MSTORE PUSH1 0x20 ADD SWAP1 DUP2 MSTORE PUSH1 0x20 ADD PUSH0 KECCAK256 DUP2 SWAP1 SSTORE POP DUP3 PUSH32 0x0 PUSH20 0xFFFFFFFFFFFFFFFFFFFFFFFFFFFFFFFFFFFFFFFF AND PUSH4 0x70A08231 ADDRESS PUSH1 0x40 MLOAD DUP3 PUSH4 0xFFFFFFFF AND PUSH1 0xE0 SHL DUP2 MSTORE PUSH1 0x4 ADD PUSH2 0x612 SWAP2 SWAP1 PUSH2 0xE98 JUMP JUMPDEST PUSH1 0x20 PUSH1 0x40 MLOAD DUP1 DUP4 SUB DUP2 DUP7 GAS STATICCALL ISZERO DUP1 ISZERO PUSH2 0x62D JUMPI RETURNDATASIZE PUSH0 PUSH0 RETURNDATACOPY RETURNDATASIZE PUSH0 REVERT JUMPDEST POP POP POP POP PUSH1 0x40 MLOAD RETURNDATASIZE PUSH1 0x1F NOT PUSH1 0x1F DUP3 ADD AND DUP3 ADD DUP1 PUSH1 0x40 MSTORE POP DUP2 ADD SWAP1 PUSH2 0x651 SWAP2 SWAP1 PUSH2 0x1289 JUMP JUMPDEST LT ISZERO PUSH2 0x692 JUMPI PUSH1 0x40 MLOAD PUSH32 0x8C379A000000000000000000000000000000000000000000000000000000000 DUP2 MSTORE PUSH1 0x4 ADD PUSH2 0x689 SWAP1 PUSH2 0x12FE JUMP JUMPDEST PUSH1 0x40 MLOAD DUP1 SWAP2 SUB SWAP1 REVERT JUMPDEST PUSH32 0x0 PUSH20 0xFFFFFFFFFFFFFFFFFFFFFFFFFFFFFFFFFFFFFFFF AND PUSH4 0xA9059CBB DUP7 DUP6 PUSH1 0x40 MLOAD DUP4 PUSH4 0xFFFFFFFF AND PUSH1 0xE0 SHL DUP2 MSTORE PUSH1 0x4 ADD PUSH2 0x6ED SWAP3 SWAP2 SWAP1 PUSH2 0x131C JUMP JUMPDEST PUSH1 0x20 PUSH1 0x40 MLOAD DUP1 DUP4 SUB DUP2 PUSH0 DUP8 GAS CALL ISZERO DUP1 ISZERO PUSH2 0x709 JUMPI RETURNDATASIZE PUSH0 PUSH0 RETURNDATACOPY RETURNDATASIZE PUSH0 REVERT JUMPDEST POP POP POP POP PUSH1 0x40 MLOAD RETURNDATASIZE PUSH1 0x1F NOT PUSH1 0x1F DUP3 ADD AND DUP3 ADD DUP1 PUSH1 0x40 MSTORE POP DUP2 ADD SWAP1 PUSH2 0x72D SWAP2 SWAP1 PUSH2 0x1357 JUMP JUMPDEST POP DUP5 PUSH20 0xFFFFFFFFFFFFFFFFFFFFFFFFFFFFFFFFFFFFFFFF AND PUSH32 0x6379339F0AE63E95E65FAD18CA2A7EC4E7E3F05F3CC5F7079F4D8DA8CEC34FAA DUP6 DUP6 PUSH1 0x40 MLOAD PUSH2 0x776 SWAP3 SWAP2 SWAP1 PUSH2 0x1382 JUMP JUMPDEST PUSH1 0x40 MLOAD DUP1 SWAP2 SUB SWAP1 LOG2 POP POP POP PUSH2 0x789 PUSH2 0xC0D JUMP JUMPDEST POP POP JUMP JUMPDEST PUSH2 0x795 PUSH2 0xAE5 JUMP JUMPDEST PUSH32 0x0 PUSH20 0xFFFFFFFFFFFFFFFFFFFFFFFFFFFFFFFFFFFFFFFF AND PUSH4 0x23B872DD CALLER ADDRESS DUP5 PUSH1 0x40 MLOAD DUP5 PUSH4 0xFFFFFFFF AND PUSH1 0xE0 SHL DUP2 MSTORE PUSH1 0x4 ADD PUSH2 0x7F2 SWAP4 SWAP3 SWAP2 SWAP1 PUSH2 0x13A9 JUMP JUMPDEST PUSH1 0x20 PUSH1 0x40 MLOAD DUP1 DUP4 SUB DUP2 PUSH0 DUP8 GAS CALL ISZERO DUP1 ISZERO PUSH2 0x80E JUMPI RETURNDATASIZE PUSH0 PUSH0 RETURNDATACOPY RETURNDATASIZE PUSH0 REVERT JUMPDEST POP POP POP POP PUSH1 0x40 MLOAD RETURNDATASIZE PUSH1 0x1F NOT PUSH1 0x1F DUP3 ADD AND DUP3 ADD DUP1 PUSH1 0x40 MSTORE POP DUP2 ADD SWAP1 PUSH2 0x832 SWAP2 SWAP1 PUSH2 0x1357 JUMP JUMPDEST PUSH2 0x871 JUMPI PUSH1 0x40 MLOAD PUSH32 0x8C379A000000000000000000000000000000000000000000000000000000000 DUP2 MSTORE PUSH1 0x4 ADD PUSH2 0x868 SWAP1 PUSH2 0x1428 JUMP JUMPDEST PUSH1 0x40 MLOAD DUP1 SWAP2 SUB SWAP1 REVERT JUMPDEST POP JUMP JUMPDEST PUSH2 0x87C PUSH2 0xAE5 JUMP JUMPDEST PUSH1 0x40 MLOAD PUSH32 0x8C379A000000000000000000000000000000000000000000000000000000000 DUP2 MSTORE PUSH1 0x4 ADD PUSH2 0x8AE SWAP1 PUSH2 0x1490 JUMP JUMPDEST PUSH1 0x40 MLOAD DUP1 SWAP2 SUB SWAP1 REVERT JUMPDEST PUSH2 0x8BF PUSH2 0xAE5 JUMP JUMPDEST PUSH0 PUSH20 0xFFFFFFFFFFFFFFFFFFFFFFFFFFFFFFFFFFFFFFFF AND DUP3 PUSH20 0xFFFFFFFFFFFFFFFFFFFFFFFFFFFFFFFFFFFFFFFF AND SUB PUSH2 0x92D JUMPI PUSH1 0x40 MLOAD PUSH32 0x8C379A000000000000000000000000000000000000000000000000000000000 DUP2 MSTORE PUSH1 0x4 ADD PUSH2 0x924 SWAP1 PUSH2 0x14F8 JUMP JUMPDEST PUSH1 0x40 MLOAD DUP1 SWAP2 SUB SWAP1 REVERT JUMPDEST PUSH32 0x0 PUSH20 0xFFFFFFFFFFFFFFFFFFFFFFFFFFFFFFFFFFFFFFFF AND PUSH4 0xA9059CBB DUP4 DUP4 PUSH1 0x40 MLOAD DUP4 PUSH4 0xFFFFFFFF AND PUSH1 0xE0 SHL DUP2 MSTORE PUSH1 0x4 ADD PUSH2 0x988 SWAP3 SWAP2 SWAP1 PUSH2 0x131C JUMP JUMPDEST PUSH1 0x20 PUSH1 0x40 MLOAD DUP1 DUP4 SUB DUP2 PUSH0 DUP8 GAS CALL ISZERO DUP1 ISZERO PUSH2 0x9A4 JUMPI RETURNDATASIZE PUSH0 PUSH0 RETURNDATACOPY RETURNDATASIZE PUSH0 REVERT JUMPDEST POP POP POP POP PUSH1 0x40 MLOAD RETURNDATASIZE PUSH1 0x1F NOT PUSH1 0x1F DUP3 ADD AND DUP3 ADD DUP1 PUSH1 0x40 MSTORE POP DUP2 ADD SWAP1 PUSH2 0x9C8 SWAP2 SWAP1 PUSH2 0x1357 JUMP JUMPDEST POP POP POP JUMP JUMPDEST PUSH0 PUSH0 PUSH0 SWAP1 SLOAD SWAP1 PUSH2 0x100 EXP SWAP1 DIV PUSH20 0xFFFFFFFFFFFFFFFFFFFFFFFFFFFFFFFFFFFFFFFF AND SWAP1 POP SWAP1 JUMP JUMPDEST PUSH1 0x4 SLOAD DUP2 JUMP JUMPDEST PUSH1 0x3 SLOAD DUP2 JUMP JUMPDEST PUSH1 0x5 PUSH1 0x20 MSTORE DUP2 PUSH0 MSTORE PUSH1 0x40 PUSH0 KECCAK256 PUSH1 0x20 MSTORE DUP1 PUSH0 MSTORE PUSH1 0x40 PUSH0 KECCAK256 PUSH0 SWAP2 POP SWAP2 POP POP SLOAD DUP2 JUMP JUMPDEST PUSH1 0x2 PUSH1 0x20 MSTORE DUP1 PUSH0 MSTORE PUSH1 0x40 PUSH0 KECCAK256 PUSH0 SWAP2 POP SLOAD SWAP1 PUSH2 0x100 EXP SWAP1 DIV PUSH1 0xFF AND DUP2 JUMP JUMPDEST PUSH2 0xA45 PUSH2 0xAE5 JUMP JUMPDEST PUSH0 PUSH20 0xFFFFFFFFFFFFFFFFFFFFFFFFFFFFFFFFFFFFFFFF AND DUP2 PUSH20 0xFFFFFFFFFFFFFFFFFFFFFFFFFFFFFFFFFFFFFFFF AND SUB PUSH2 0xAB5 JUMPI PUSH0 PUSH1 0x40 MLOAD PUSH32 0x1E4FBDF700000000000000000000000000000000000000000000000000000000 DUP2 MSTORE PUSH1 0x4 ADD PUSH2 0xAAC SWAP2 SWAP1 PUSH2 0xE98 JUMP JUMPDEST PUSH1 0x40 MLOAD DUP1 SWAP2 SUB SWAP1 REVERT JUMPDEST PUSH2 0xABE DUP2 PUSH2 0xC16 JUMP JUMPDEST POP JUMP JUMPDEST PUSH32 0x0 DUP2 JUMP JUMPDEST PUSH2 0xAED PUSH2 0xCD7 JUMP JUMPDEST PUSH20 0xFFFFFFFFFFFFFFFFFFFFFFFFFFFFFFFFFFFFFFFF AND PUSH2 0xB0B PUSH2 0x9CD JUMP JUMPDEST PUSH20 0xFFFFFFFFFFFFFFFFFFFFFFFFFFFFFFFFFFFFFFFF AND EQ PUSH2 0xB6A JUMPI PUSH2 0xB2E PUSH2 0xCD7 JUMP JUMPDEST PUSH1 0x40 MLOAD PUSH32 0x118CDAA700000000000000000000000000000000000000000000000000000000 DUP2 MSTORE PUSH1 0x4 ADD PUSH2 0xB61 SWAP2 SWAP1 PUSH2 0xE98 JUMP JUMPDEST PUSH1 0x40 MLOAD DUP1 SWAP2 SUB SWAP1 REVERT JUMPDEST JUMP JUMPDEST PUSH1 0x2 PUSH1 0x1 SLOAD SUB PUSH2 0xBB1 JUMPI PUSH1 0x40 MLOAD PUSH32 0x8C379A000000000000000000000000000000000000000000000000000000000 DUP2 MSTORE PUSH1 0x4 ADD PUSH2 0xBA8 SWAP1 PUSH2 0x1560 JUMP JUMPDEST PUSH1 0x40 MLOAD DUP1 SWAP2 SUB SWAP1 REVERT JUMPDEST PUSH1 0x2 PUSH1 0x1 DUP2 SWAP1 SSTORE POP JUMP JUMPDEST PUSH0 PUSH1 0xA DUP3 GT PUSH2 0xBD4 JUMPI PUSH8 0x8AC7230489E80000 SWAP1 POP PUSH2 0xC08 JUMP JUMPDEST PUSH1 0x32 DUP3 GT PUSH2 0xBEC JUMPI PUSH8 0x4563918244F40000 SWAP1 POP PUSH2 0xC08 JUMP JUMPDEST PUSH1 0x64 DUP3 GT PUSH2 0xC04 JUMPI PUSH8 0x1BC16D674EC80000 SWAP1 POP PUSH2 0xC08 JUMP JUMPDEST PUSH0 SWAP1 POP JUMPDEST SWAP2 SWAP1 POP JUMP JUMPDEST PUSH1 0x1 DUP1 DUP2 SWAP1 SSTORE POP JUMP JUMPDEST PUSH0 PUSH0 PUSH0 SWAP1 SLOAD SWAP1 PUSH2 0x100 EXP SWAP1 DIV PUSH20 0xFFFFFFFFFFFFFFFFFFFFFFFFFFFFFFFFFFFFFFFF AND SWAP1 POP DUP2 PUSH0 PUSH0 PUSH2 0x100 EXP DUP2 SLOAD DUP2 PUSH20 0xFFFFFFFFFFFFFFFFFFFFFFFFFFFFFFFFFFFFFFFF MUL NOT AND SWAP1 DUP4 PUSH20 0xFFFFFFFFFFFFFFFFFFFFFFFFFFFFFFFFFFFFFFFF AND MUL OR SWAP1 SSTORE POP DUP2 PUSH20 0xFFFFFFFFFFFFFFFFFFFFFFFFFFFFFFFFFFFFFFFF AND DUP2 PUSH20 0xFFFFFFFFFFFFFFFFFFFFFFFFFFFFFFFFFFFFFFFF AND PUSH32 0x8BE0079C531659141344CD1FD0A4F28419497F9722A3DAAFE3B4186F6B6457E0 PUSH1 0x40 MLOAD PUSH1 0x40 MLOAD DUP1 SWAP2 SUB SWAP1 LOG3 POP POP JUMP JUMPDEST PUSH0 CALLER SWAP1 POP SWAP1 JUMP JUMPDEST PUSH0 PUSH0 REVERT JUMPDEST PUSH0 DUP2 SWAP1 POP SWAP2 SWAP1 POP JUMP JUMPDEST PUSH2 0xCF4 DUP2 PUSH2 0xCE2 JUMP JUMPDEST DUP2 EQ PUSH2 0xCFE JUMPI PUSH0 PUSH0 REVERT JUMPDEST POP JUMP JUMPDEST PUSH0 DUP2 CALLDATALOAD SWAP1 POP PUSH2 0xD0F DUP2 PUSH2 0xCEB JUMP JUMPDEST SWAP3 SWAP2 POP POP JUMP JUMPDEST PUSH0 PUSH0 PUSH1 0x40 DUP4 DUP6 SUB SLT ISZERO PUSH2 0xD2B JUMPI PUSH2 0xD2A PUSH2 0xCDE JUMP JUMPDEST JUMPDEST PUSH0 PUSH2 0xD38 DUP6 DUP3 DUP7 ADD PUSH2 0xD01 JUMP JUMPDEST SWAP3 POP POP PUSH1 0x20 PUSH2 0xD49 DUP6 DUP3 DUP7 ADD PUSH2 0xD01 JUMP JUMPDEST SWAP2 POP POP SWAP3 POP SWAP3 SWAP1 POP JUMP JUMPDEST PUSH0 PUSH20 0xFFFFFFFFFFFFFFFFFFFFFFFFFFFFFFFFFFFFFFFF DUP3 AND SWAP1 POP SWAP2 SWAP1 POP JUMP JUMPDEST PUSH0 PUSH2 0xD7C DUP3 PUSH2 0xD53 JUMP JUMPDEST SWAP1 POP SWAP2 SWAP1 POP JUMP JUMPDEST PUSH2 0xD8C DUP2 PUSH2 0xD72 JUMP JUMPDEST DUP2 EQ PUSH2 0xD96 JUMPI PUSH0 PUSH0 REVERT JUMPDEST POP JUMP JUMPDEST PUSH0 DUP2 CALLDATALOAD SWAP1 POP PUSH2 0xDA7 DUP2 PUSH2 0xD83 JUMP JUMPDEST SWAP3 SWAP2 POP POP JUMP JUMPDEST PUSH0 DUP2 ISZERO ISZERO SWAP1 POP SWAP2 SWAP1 POP JUMP JUMPDEST PUSH2 0xDC1 DUP2 PUSH2 0xDAD JUMP JUMPDEST DUP2 EQ PUSH2 0xDCB JUMPI PUSH0 PUSH0 REVERT JUMPDEST POP JUMP JUMPDEST PUSH0 DUP2 CALLDATALOAD SWAP1 POP PUSH2 0xDDC DUP2 PUSH2 0xDB8 JUMP JUMPDEST SWAP3 SWAP2 POP POP JUMP JUMPDEST PUSH0 PUSH0 PUSH1 0x40 DUP4 DUP6 SUB SLT ISZERO PUSH2 0xDF8 JUMPI PUSH2 0xDF7 PUSH2 0xCDE JUMP JUMPDEST JUMPDEST PUSH0 PUSH2 0xE05 DUP6 DUP3 DUP7 ADD PUSH2 0xD99 JUMP JUMPDEST SWAP3 POP POP PUSH1 0x20 PUSH2 0xE16 DUP6 DUP3 DUP7 ADD PUSH2 0xDCE JUMP JUMPDEST SWAP2 POP POP SWAP3 POP SWAP3 SWAP1 POP JUMP JUMPDEST PUSH0 PUSH0 PUSH1 0x40 DUP4 DUP6 SUB SLT ISZERO PUSH2 0xE36 JUMPI PUSH2 0xE35 PUSH2 0xCDE JUMP JUMPDEST JUMPDEST PUSH0 PUSH2 0xE43 DUP6 DUP3 DUP7 ADD PUSH2 0xD99 JUMP JUMPDEST SWAP3 POP POP PUSH1 0x20 PUSH2 0xE54 DUP6 DUP3 DUP7 ADD PUSH2 0xD01 JUMP JUMPDEST SWAP2 POP POP SWAP3 POP SWAP3 SWAP1 POP JUMP JUMPDEST PUSH0 PUSH1 0x20 DUP3 DUP5 SUB SLT ISZERO PUSH2 0xE73 JUMPI PUSH2 0xE72 PUSH2 0xCDE JUMP JUMPDEST JUMPDEST PUSH0 PUSH2 0xE80 DUP5 DUP3 DUP6 ADD PUSH2 0xD01 JUMP JUMPDEST SWAP2 POP POP SWAP3 SWAP2 POP POP JUMP JUMPDEST PUSH2 0xE92 DUP2 PUSH2 0xD72 JUMP JUMPDEST DUP3 MSTORE POP POP JUMP JUMPDEST PUSH0 PUSH1 0x20 DUP3 ADD SWAP1 POP PUSH2 0xEAB PUSH0 DUP4 ADD DUP5 PUSH2 0xE89 JUMP JUMPDEST SWAP3 SWAP2 POP POP JUMP JUMPDEST PUSH2 0xEBA DUP2 PUSH2 0xCE2 JUMP JUMPDEST DUP3 MSTORE POP POP JUMP JUMPDEST PUSH0 PUSH1 0x20 DUP3 ADD SWAP1 POP PUSH2 0xED3 PUSH0 DUP4 ADD DUP5 PUSH2 0xEB1 JUMP JUMPDEST SWAP3 SWAP2 POP POP JUMP JUMPDEST PUSH0 PUSH1 0x20 DUP3 DUP5 SUB SLT ISZERO PUSH2 0xEEE JUMPI PUSH2 0xEED PUSH2 0xCDE JUMP JUMPDEST JUMPDEST PUSH0 PUSH2 0xEFB DUP5 DUP3 DUP6 ADD PUSH2 0xD99 JUMP JUMPDEST SWAP2 POP POP SWAP3 SWAP2 POP POP JUMP JUMPDEST PUSH2 0xF0D DUP2 PUSH2 0xDAD JUMP JUMPDEST DUP3 MSTORE POP POP JUMP JUMPDEST PUSH0 PUSH1 0x20 DUP3 ADD SWAP1 POP PUSH2 0xF26 PUSH0 DUP4 ADD DUP5 PUSH2 0xF04 JUMP JUMPDEST SWAP3 SWAP2 POP POP JUMP JUMPDEST PUSH0 DUP2 SWAP1 POP SWAP2 SWAP1 POP JUMP JUMPDEST PUSH0 PUSH2 0xF4F PUSH2 0xF4A PUSH2 0xF45 DUP5 PUSH2 0xD53 JUMP JUMPDEST PUSH2 0xF2C JUMP JUMPDEST PUSH2 0xD53 JUMP JUMPDEST SWAP1 POP SWAP2 SWAP1 POP JUMP JUMPDEST PUSH0 PUSH2 0xF60 DUP3 PUSH2 0xF35 JUMP JUMPDEST SWAP1 POP SWAP2 SWAP1 POP JUMP JUMPDEST PUSH0 PUSH2 0xF71 DUP3 PUSH2 0xF56 JUMP JUMPDEST SWAP1 POP SWAP2 SWAP1 POP JUMP JUMPDEST PUSH2 0xF81 DUP2 PUSH2 0xF67 JUMP JUMPDEST DUP3 MSTORE POP POP JUMP JUMPDEST PUSH0 PUSH1 0x20 DUP3 ADD SWAP1 POP PUSH2 0xF9A PUSH0 DUP4 ADD DUP5 PUSH2 0xF78 JUMP JUMPDEST SWAP3 SWAP2 POP POP JUMP JUMPDEST PUSH0 DUP3 DUP3 MSTORE PUSH1 0x20 DUP3 ADD SWAP1 POP SWAP3 SWAP2 POP POP JUMP JUMPDEST PUSH32 0x6E6F742067616D65000000000000000000000000000000000000000000000000 PUSH0 DUP3 ADD MSTORE POP JUMP JUMPDEST PUSH0 PUSH2 0xFE4 PUSH1 0x8 DUP4 PUSH2 0xFA0 JUMP JUMPDEST SWAP2 POP PUSH2 0xFEF DUP3 PUSH2 0xFB0 JUMP JUMPDEST PUSH1 0x20 DUP3 ADD SWAP1 POP SWAP2 SWAP1 POP JUMP JUMPDEST PUSH0 PUSH1 0x20 DUP3 ADD SWAP1 POP DUP2 DUP2 SUB PUSH0 DUP4 ADD MSTORE PUSH2 0x1011 DUP2 PUSH2 0xFD8 JUMP JUMPDEST SWAP1 POP SWAP2 SWAP1 POP JUMP JUMPDEST PUSH32 0x7A65726F20706C61796572000000000000000000000000000000000000000000 PUSH0 DUP3 ADD MSTORE POP JUMP JUMPDEST PUSH0 PUSH2 0x104C PUSH1 0xB DUP4 PUSH2 0xFA0 JUMP JUMPDEST SWAP2 POP PUSH2 0x1057 DUP3 PUSH2 0x1018 JUMP JUMPDEST PUSH1 0x20 DUP3 ADD SWAP1 POP SWAP2 SWAP1 POP JUMP JUMPDEST PUSH0 PUSH1 0x20 DUP3 ADD SWAP1 POP DUP2 DUP2 SUB PUSH0 DUP4 ADD MSTORE PUSH2 0x1079 DUP2 PUSH2 0x1040 JUMP JUMPDEST SWAP1 POP SWAP2 SWAP1 POP JUMP JUMPDEST PUSH32 0x6E6F207265776172640000000000000000000000000000000000000000000000 PUSH0 DUP3 ADD MSTORE POP JUMP JUMPDEST PUSH0 PUSH2 0x10B4 PUSH1 0x9 DUP4 PUSH2 0xFA0 JUMP JUMPDEST SWAP2 POP PUSH2 0x10BF DUP3 PUSH2 0x1080 JUMP JUMPDEST PUSH1 0x20 DUP3 ADD SWAP1 POP SWAP2 SWAP1 POP JUMP JUMPDEST PUSH0 PUSH1 0x20 DUP3 ADD SWAP1 POP DUP2 DUP2 SUB PUSH0 DUP4 ADD MSTORE PUSH2 0x10E1 DUP2 PUSH2 0x10A8 JUMP JUMPDEST SWAP1 POP SWAP2 SWAP1 POP JUMP JUMPDEST PUSH32 0x7065722D63616C6C206361700000000000000000000000000000000000000000 PUSH0 DUP3 ADD MSTORE POP JUMP JUMPDEST PUSH0 PUSH2 0x111C PUSH1 0xC DUP4 PUSH2 0xFA0 JUMP JUMPDEST SWAP2 POP PUSH2 0x1127 DUP3 PUSH2 0x10E8 JUMP JUMPDEST PUSH1 0x20 DUP3 ADD SWAP1 POP SWAP2 SWAP1 POP JUMP JUMPDEST PUSH0 PUSH1 0x20 DUP3 ADD SWAP1 POP DUP2 DUP2 SUB PUSH0 DUP4 ADD MSTORE PUSH2 0x1149 DUP2 PUSH2 0x1110 JUMP JUMPDEST SWAP1 POP SWAP2 SWAP1 POP JUMP JUMPDEST PUSH32 0x4E487B7100000000000000000000000000000000000000000000000000000000 PUSH0 MSTORE PUSH1 0x12 PUSH1 0x4 MSTORE PUSH1 0x24 PUSH0 REVERT JUMPDEST PUSH32 0x4E487B7100000000000000000000000000000000000000000000000000000000 PUSH0 MSTORE PUSH1 0x11 PUSH1 0x4 MSTORE PUSH1 0x24 PUSH0 REVERT JUMPDEST PUSH0 PUSH2 0x11B4 DUP3 PUSH2 0xCE2 JUMP JUMPDEST SWAP2 POP PUSH2 0x11BF DUP4 PUSH2 0xCE2 JUMP JUMPDEST SWAP3 POP DUP3 PUSH2 0x11CF JUMPI PUSH2 0x11CE PUSH2 0x1150 JUMP JUMPDEST JUMPDEST DUP3 DUP3 DIV SWAP1 POP SWAP3 SWAP2 POP POP JUMP JUMPDEST PUSH0 PUSH2 0x11E4 DUP3 PUSH2 0xCE2 JUMP JUMPDEST SWAP2 POP PUSH2 0x11EF DUP4 PUSH2 0xCE2 JUMP JUMPDEST SWAP3 POP DUP3 DUP3 ADD SWAP1 POP DUP1 DUP3 GT ISZERO PUSH2 0x1207 JUMPI PUSH2 0x1206 PUSH2 0x117D JUMP JUMPDEST JUMPDEST SWAP3 SWAP2 POP POP JUMP JUMPDEST PUSH32 0x6461696C79206361700000000000000000000000000000000000000000000000 PUSH0 DUP3 ADD MSTORE POP JUMP JUMPDEST PUSH0 PUSH2 0x1241 PUSH1 0x9 DUP4 PUSH2 0xFA0 JUMP JUMPDEST SWAP2 POP PUSH2 0x124C DUP3 PUSH2 0x120D JUMP JUMPDEST PUSH1 0x20 DUP3 ADD SWAP1 POP SWAP2 SWAP1 POP JUMP JUMPDEST PUSH0 PUSH1 0x20 DUP3 ADD SWAP1 POP DUP2 DUP2 SUB PUSH0 DUP4 ADD MSTORE PUSH2 0x126E DUP2 PUSH2 0x1235 JUMP JUMPDEST SWAP1 POP SWAP2 SWAP1 POP JUMP JUMPDEST PUSH0 DUP2 MLOAD SWAP1 POP PUSH2 0x1283 DUP2 PUSH2 0xCEB JUMP JUMPDEST SWAP3 SWAP2 POP POP JUMP JUMPDEST PUSH0 PUSH1 0x20 DUP3 DUP5 SUB SLT ISZERO PUSH2 0x129E JUMPI PUSH2 0x129D PUSH2 0xCDE JUMP JUMPDEST JUMPDEST PUSH0 PUSH2 0x12AB DUP5 DUP3 DUP6 ADD PUSH2 0x1275 JUMP JUMPDEST SWAP2 POP POP SWAP3 SWAP2 POP POP JUMP JUMPDEST PUSH32 0x696E73756666696369656E7420706F6F6C000000000000000000000000000000 PUSH0 DUP3 ADD MSTORE POP JUMP JUMPDEST PUSH0 PUSH2 0x12E8 PUSH1 0x11 DUP4 PUSH2 0xFA0 JUMP JUMPDEST SWAP2 POP PUSH2 0x12F3 DUP3 PUSH2 0x12B4 JUMP JUMPDEST PUSH1 0x20 DUP3 ADD SWAP1 POP SWAP2 SWAP1 POP JUMP JUMPDEST PUSH0 PUSH1 0x20 DUP3 ADD SWAP1 POP DUP2 DUP2 SUB PUSH0 DUP4 ADD MSTORE PUSH2 0x1315 DUP2 PUSH2 0x12DC JUMP JUMPDEST SWAP1 POP SWAP2 SWAP1 POP JUMP JUMPDEST PUSH0 PUSH1 0x40 DUP3 ADD SWAP1 POP PUSH2 0x132F PUSH0 DUP4 ADD DUP6 PUSH2 0xE89 JUMP JUMPDEST PUSH2 0x133C PUSH1 0x20 DUP4 ADD DUP5 PUSH2 0xEB1 JUMP JUMPDEST SWAP4 SWAP3 POP POP POP JUMP JUMPDEST PUSH0 DUP2 MLOAD SWAP1 POP PUSH2 0x1351 DUP2 PUSH2 0xDB8 JUMP JUMPDEST SWAP3 SWAP2 POP POP JUMP JUMPDEST PUSH0 PUSH1 0x20 DUP3 DUP5 SUB SLT ISZERO PUSH2 0x136C JUMPI PUSH2 0x136B PUSH2 0xCDE JUMP JUMPDEST JUMPDEST PUSH0 PUSH2 0x1379 DUP5 DUP3 DUP6 ADD PUSH2 0x1343 JUMP JUMPDEST SWAP2 POP POP SWAP3 SWAP2 POP POP JUMP JUMPDEST PUSH0 PUSH1 0x40 DUP3 ADD SWAP1 POP PUSH2 0x1395 PUSH0 DUP4 ADD DUP6 PUSH2 0xEB1 JUMP JUMPDEST PUSH2 0x13A2 PUSH1 0x20 DUP4 ADD DUP5 PUSH2 0xEB1 JUMP JUMPDEST SWAP4 SWAP3 POP POP POP JUMP JUMPDEST PUSH0 PUSH1 0x60 DUP3 ADD SWAP1 POP PUSH2 0x13BC PUSH0 DUP4 ADD DUP7 PUSH2 0xE89 JUMP JUMPDEST PUSH2 0x13C9 PUSH1 0x20 DUP4 ADD DUP6 PUSH2 0xE89 JUMP JUMPDEST PUSH2 0x13D6 PUSH1 0x40 DUP4 ADD DUP5 PUSH2 0xEB1 JUMP JUMPDEST SWAP5 SWAP4 POP POP POP POP JUMP JUMPDEST PUSH32 0x7472616E7366657246726F6D206661696C000000000000000000000000000000 PUSH0 DUP3 ADD MSTORE POP JUMP JUMPDEST PUSH0 PUSH2 0x1412 PUSH1 0x11 DUP4 PUSH2 0xFA0 JUMP JUMPDEST SWAP2 POP PUSH2 0x141D DUP3 PUSH2 0x13DE JUMP JUMPDEST PUSH1 0x20 DUP3 ADD SWAP1 POP SWAP2 SWAP1 POP JUMP JUMPDEST PUSH0 PUSH1 0x20 DUP3 ADD SWAP1 POP DUP2 DUP2 SUB PUSH0 DUP4 ADD MSTORE PUSH2 0x143F DUP2 PUSH2 0x1406 JUMP JUMPDEST SWAP1 POP SWAP2 SWAP1 POP JUMP JUMPDEST PUSH32 0x72656E6F756E63654F776E6572736869702064697361626C6564000000000000 PUSH0 DUP3 ADD MSTORE POP JUMP JUMPDEST PUSH0 PUSH2 0x147A PUSH1 0x1A DUP4 PUSH2 0xFA0 JUMP JUMPDEST SWAP2 POP PUSH2 0x1485 DUP3 PUSH2 0x1446 JUMP JUMPDEST PUSH1 0x20 DUP3 ADD SWAP1 POP SWAP2 SWAP1 POP JUMP JUMPDEST PUSH0 PUSH1 0x20 DUP3 ADD SWAP1 POP DUP2 DUP2 SUB PUSH0 DUP4 ADD MSTORE PUSH2 0x14A7 DUP2 PUSH2 0x146E JUMP JUMPDEST SWAP1 POP SWAP2 SWAP1 POP JUMP JUMPDEST PUSH32 0x7A65726F20746F00000000000000000000000000000000000000000000000000 PUSH0 DUP3 ADD MSTORE POP JUMP JUMPDEST PUSH0 PUSH2 0x14E2 PUSH1 0x7 DUP4 PUSH2 0xFA0 JUMP JUMPDEST SWAP2 POP PUSH2 0x14ED DUP3 PUSH2 0x14AE JUMP JUMPDEST PUSH1 0x20 DUP3 ADD SWAP1 POP SWAP2 SWAP1 POP JUMP JUMPDEST PUSH0 PUSH1 0x20 DUP3 ADD SWAP1 POP DUP2 DUP2 SUB PUSH0 DUP4 ADD MSTORE PUSH2 0x150F DUP2 PUSH2 0x14D6 JUMP JUMPDEST SWAP1 POP SWAP2 SWAP1 POP JUMP JUMPDEST PUSH32 0x5265656E7472616E637947756172643A207265656E7472616E742063616C6C00 PUSH0 DUP3 ADD MSTORE POP JUMP JUMPDEST PUSH0 PUSH2 0x154A PUSH1 0x1F DUP4 PUSH2 0xFA0 JUMP JUMPDEST SWAP2 POP PUSH2 0x1555 DUP3 PUSH2 0x1516 JUMP JUMPDEST PUSH1 0x20 DUP3 ADD SWAP1 POP SWAP2 SWAP1 POP JUMP JUMPDEST PUSH0 PUSH1 0x20 DUP3 ADD SWAP1 POP DUP2 DUP2 SUB PUSH0 DUP4 ADD MSTORE PUSH2 0x1577 DUP2 PUSH2 0x153E JUMP JUMPDEST SWAP1 POP SWAP2 SWAP1 POP JUMP INVALID LOG2 PUSH5 0x6970667358 0x22 SLT KECCAK256 0xD6 LOG4 POP 0xC3 JUMP 0xD3 BLOBBASEFEE 0xA5 PUSH8 0xA7E7414BD465F02F ADD STOP LT TSTORE 0xA5 0xDC 0x4E 0x4B MSIZE 0xE8 TLOAD REVERT CALLDATACOPY 0xCC RETURNCONTRACT 0x64 PUSH20 0x6F6C634300081E00330000000000000000000000 "
				},
				"gasEstimates": {
					"creation": {
						"codeDepositCost": "1111200",
						"executionCost": "infinite",
						"totalCost": "infinite"
					},
					"external": {
						"dailyClaimed(address,uint256)": "infinite",
						"isGameSigner(address)": "2877",
						"maxDailyForAddr()": "2470",
						"maxRewardPerCall()": "2492",
						"owner()": "2537",
						"renounceOwnership()": "infinite",
						"rescue(address,uint256)": "infinite",
						"rewardPlayer(address,uint256)": "infinite",
						"setCaps(uint256,uint256)": "infinite",
						"setSigner(address,bool)": "infinite",
						"token()": "infinite",
						"topUp(uint256)": "infinite",
						"transferOwnership(address)": "infinite"
					},
					"internal": {
						"_calcReward(uint256)": "107"
					}
				},
				"methodIdentifiers": {
					"dailyClaimed(address,uint256)": "c8e7711f",
					"isGameSigner(address)": "e2f70f04",
					"maxDailyForAddr()": "8ea9571c",
					"maxRewardPerCall()": "9ea715a0",
					"owner()": "8da5cb5b",
					"renounceOwnership()": "715018a6",
					"rescue(address,uint256)": "7a4e4ecf",
					"rewardPlayer(address,uint256)": "35f6ebc1",
					"setCaps(uint256,uint256)": "212bf316",
					"setSigner(address,bool)": "31cb6105",
					"token()": "fc0c546a",
					"topUp(uint256)": "50017f3e",
					"transferOwnership(address)": "f2fde38b"
				}
			},
			"storageLayout": {
				"storage": [
					{
						"astId": 8,
						"contract": "contracts/RewardsDistributor.sol:RewardsDistributor",
						"label": "_owner",
						"offset": 0,
						"slot": "0",
						"type": "t_address"
					},
					{
						"astId": 158,
						"contract": "contracts/RewardsDistributor.sol:RewardsDistributor",
						"label": "_status",
						"offset": 0,
						"slot": "1",
						"type": "t_uint256"
					},
					{
						"astId": 285,
						"contract": "contracts/RewardsDistributor.sol:RewardsDistributor",
						"label": "isGameSigner",
						"offset": 0,
						"slot": "2",
						"type": "t_mapping(t_address,t_bool)"
					},
					{
						"astId": 290,
						"contract": "contracts/RewardsDistributor.sol:RewardsDistributor",
						"label": "maxRewardPerCall",
						"offset": 0,
						"slot": "3",
						"type": "t_uint256"
					},
					{
						"astId": 295,
						"contract": "contracts/RewardsDistributor.sol:RewardsDistributor",
						"label": "maxDailyForAddr",
						"offset": 0,
						"slot": "4",
						"type": "t_uint256"
					},
					{
						"astId": 301,
						"contract": "contracts/RewardsDistributor.sol:RewardsDistributor",
						"label": "dailyClaimed",
						"offset": 0,
						"slot": "5",
						"type": "t_mapping(t_address,t_mapping(t_uint256,t_uint256))"
					}
				],
				"types": {
					"t_address": {
						"encoding": "inplace",
						"label": "address",
						"numberOfBytes": "20"
					},
					"t_bool": {
						"encoding": "inplace",
						"label": "bool",
						"numberOfBytes": "1"
					},
					"t_mapping(t_address,t_bool)": {
						"encoding": "mapping",
						"key": "t_address",
						"label": "mapping(address => bool)",
						"numberOfBytes": "32",
						"value": "t_bool"
					},
					"t_mapping(t_address,t_mapping(t_uint256,t_uint256))": {
						"encoding": "mapping",
						"key": "t_address",
						"label": "mapping(address => mapping(uint256 => uint256))",
						"numberOfBytes": "32",
						"value": "t_mapping(t_uint256,t_uint256)"
					},
					"t_mapping(t_uint256,t_uint256)": {
						"encoding": "mapping",
						"key": "t_uint256",
						"label": "mapping(uint256 => uint256)",
						"numberOfBytes": "32",
						"value": "t_uint256"
					},
					"t_uint256": {
						"encoding": "inplace",
						"label": "uint256",
						"numberOfBytes": "32"
					}
				}
			},
			"userdoc": {
				"kind": "user",
				"methods": {},
				"version": 1
			}
		}
	}
}