{
	"contracts/POMToken.sol": {
		"POMToken": {
			"abi": [
				{
					"inputs": [],
					"stateMutability": "nonpayable",
					"type": "constructor"
				},
				{
					"inputs": [
						{
							"internalType": "address",
							"name": "spender",
							"type": "address"
						},
						{
							"internalType": "uint256",
							"name": "allowance",
							"type": "uint256"
						},
						{
							"internalType": "uint256",
							"name": "needed",
							"type": "uint256"
						}
					],
					"name": "ERC20InsufficientAllowance",
					"type": "error"
				},
				{
					"inputs": [
						{
							"internalType": "address",
							"name": "sender",
							"type": "address"
						},
						{
							"internalType": "uint256",
							"name": "balance",
							"type": "uint256"
						},
						{
							"internalType": "uint256",
							"name": "needed",
							"type": "uint256"
						}
					],
					"name": "ERC20InsufficientBalance",
					"type": "error"
				},
				{
					"inputs": [
						{
							"internalType": "address",
							"name": "approver",
							"type": "address"
						}
					],
					"name": "ERC20InvalidApprover",
					"type": "error"
				},
				{
					"inputs": [
						{
							"internalType": "address",
							"name": "receiver",
							"type": "address"
						}
					],
					"name": "ERC20InvalidReceiver",
					"type": "error"
				},
				{
					"inputs": [
						{
							"internalType": "address",
							"name": "sender",
							"type": "address"
						}
					],
					"name": "ERC20InvalidSender",
					"type": "error"
				},
				{
					"inputs": [
						{
							"internalType": "address",
							"name": "spender",
							"type": "address"
						}
					],
					"name": "ERC20InvalidSpender",
					"type": "error"
				},
				{
					"inputs": [
						{
							"internalType": "address",
							"name": "owner",
							"type": "address"
						}
					],
					"name": "OwnableInvalidOwner",
					"type": "error"
				},
				{
					"inputs": [
						{
							"internalType": "address",
							"name": "account",
							"type": "address"
						}
					],
					"name": "OwnableUnauthorizedAccount",
					"type": "error"
				},
				{
					"anonymous": false,
					"inputs": [
						{
							"indexed": true,
							"internalType": "address",
							"name": "owner",
							"type": "address"
						},
						{
							"indexed": true,
							"internalType": "address",
							"name": "spender",
							"type": "address"
						},
						{
							"indexed": false,
							"internalType": "uint256",
							"name": "value",
							"type": "uint256"
						}
					],
					"name": "Approval",
					"type": "event"
				},
				{
					"anonymous": false,
					"inputs": [
						{
							"indexed": false,
							"internalType": "string",
							"name": "message",
							"type": "string"
						},
						{
							"indexed": false,
							"internalType": "uint256",
							"name": "value",
							"type": "uint256"
						}
					],
					"name": "Debug",
					"type": "event"
				},
				{
					"anonymous": false,
					"inputs": [
						{
							"indexed": true,
							"internalType": "address",
							"name": "treasury",
							"type": "address"
						},
						{
							"indexed": true,
							"internalType": "address",
							"name": "rewards",
							"type": "address"
						},
						{
							"indexed": true,
							"internalType": "address",
							"name": "devTeam",
							"type": "address"
						},
						{
							"indexed": false,
							"internalType": "address",
							"name": "marketing",
							"type": "address"
						},
						{
							"indexed": false,
							"internalType": "address",
							"name": "liquidity",
							"type": "address"
						},
						{
							"indexed": false,
							"internalType": "address",
							"name": "advisors",
							"type": "address"
						},
						{
							"indexed": false,
							"internalType": "address",
							"name": "dao",
							"type": "address"
						}
					],
					"name": "Distributed",
					"type": "event"
				},
				{
					"anonymous": false,
					"inputs": [
						{
							"indexed": false,
							"internalType": "uint256",
							"name": "maxTx",
							"type": "uint256"
						},
						{
							"indexed": false,
							"internalType": "uint256",
							"name": "maxWallet",
							"type": "uint256"
						},
						{
							"indexed": false,
							"internalType": "bool",
							"name": "active",
							"type": "bool"
						}
					],
					"name": "LimitsUpdated",
					"type": "event"
				},
				{
					"anonymous": false,
					"inputs": [
						{
							"indexed": true,
							"internalType": "address",
							"name": "previousOwner",
							"type": "address"
						},
						{
							"indexed": true,
							"internalType": "address",
							"name": "newOwner",
							"type": "address"
						}
					],
					"name": "OwnershipTransferred",
					"type": "event"
				},
				{
					"anonymous": false,
					"inputs": [
						{
							"indexed": false,
							"internalType": "address",
							"name": "account",
							"type": "address"
						}
					],
					"name": "Paused",
					"type": "event"
				},
				{
					"anonymous": false,
					"inputs": [
						{
							"indexed": true,
							"internalType": "address",
							"name": "newDistributor",
							"type": "address"
						}
					],
					"name": "RewardsDistributorUpdated",
					"type": "event"
				},
				{
					"anonymous": false,
					"inputs": [],
					"name": "TradingEnabled",
					"type": "event"
				},
				{
					"anonymous": false,
					"inputs": [
						{
							"indexed": true,
							"internalType": "address",
							"name": "from",
							"type": "address"
						},
						{
							"indexed": true,
							"internalType": "address",
							"name": "to",
							"type": "address"
						},
						{
							"indexed": false,
							"internalType": "uint256",
							"name": "value",
							"type": "uint256"
						}
					],
					"name": "Transfer",
					"type": "event"
				},
				{
					"anonymous": false,
					"inputs": [
						{
							"indexed": false,
							"internalType": "address",
							"name": "account",
							"type": "address"
						}
					],
					"name": "Unpaused",
					"type": "event"
				},
				{
					"inputs": [],
					"name": "ADVISORS_WALLET",
					"outputs": [
						{
							"internalType": "address",
							"name": "",
							"type": "address"
						}
					],
					"stateMutability": "view",
					"type": "function"
				},
				{
					"inputs": [],
					"name": "DAO_WALLET",
					"outputs": [
						{
							"internalType": "address",
							"name": "",
							"type": "address"
						}
					],
					"stateMutability": "view",
					"type": "function"
				},
				{
					"inputs": [],
					"name": "DEV_WALLET",
					"outputs": [
						{
							"internalType": "address",
							"name": "",
							"type": "address"
						}
					],
					"stateMutability": "view",
					"type": "function"
				},
				{
					"inputs": [],
					"name": "LIQUIDITY_WALLET",
					"outputs": [
						{
							"internalType": "address",
							"name": "",
							"type": "address"
						}
					],
					"stateMutability": "view",
					"type": "function"
				},
				{
					"inputs": [],
					"name": "MARKETING_WALLET",
					"outputs": [
						{
							"internalType": "address",
							"name": "",
							"type": "address"
						}
					],
					"stateMutability": "view",
					"type": "function"
				},
				{
					"inputs": [],
					"name": "OWNER_WALLET",
					"outputs": [
						{
							"internalType": "address",
							"name": "",
							"type": "address"
						}
					],
					"stateMutability": "view",
					"type": "function"
				},
				{
					"inputs": [],
					"name": "REWARDS_WALLET",
					"outputs": [
						{
							"internalType": "address",
							"name": "",
							"type": "address"
						}
					],
					"stateMutability": "view",
					"type": "function"
				},
				{
					"inputs": [],
					"name": "TOTAL_SUPPLY",
					"outputs": [
						{
							"internalType": "uint256",
							"name": "",
							"type": "uint256"
						}
					],
					"stateMutability": "view",
					"type": "function"
				},
				{
					"inputs": [],
					"name": "TREASURY_WALLET",
					"outputs": [
						{
							"internalType": "address",
							"name": "",
							"type": "address"
						}
					],
					"stateMutability": "view",
					"type": "function"
				},
				{
					"inputs": [
						{
							"internalType": "address",
							"name": "owner",
							"type": "address"
						},
						{
							"internalType": "address",
							"name": "spender",
							"type": "address"
						}
					],
					"name": "allowance",
					"outputs": [
						{
							"internalType": "uint256",
							"name": "",
							"type": "uint256"
						}
					],
					"stateMutability": "view",
					"type": "function"
				},
				{
					"inputs": [
						{
							"internalType": "address",
							"name": "spender",
							"type": "address"
						},
						{
							"internalType": "uint256",
							"name": "value",
							"type": "uint256"
						}
					],
					"name": "approve",
					"outputs": [
						{
							"internalType": "bool",
							"name": "",
							"type": "bool"
						}
					],
					"stateMutability": "nonpayable",
					"type": "function"
				},
				{
					"inputs": [
						{
							"internalType": "address",
							"name": "account",
							"type": "address"
						}
					],
					"name": "balanceOf",
					"outputs": [
						{
							"internalType": "uint256",
							"name": "",
							"type": "uint256"
						}
					],
					"stateMutability": "view",
					"type": "function"
				},
				{
					"inputs": [
						{
							"internalType": "uint256",
							"name": "value",
							"type": "uint256"
						}
					],
					"name": "burn",
					"outputs": [],
					"stateMutability": "nonpayable",
					"type": "function"
				},
				{
					"inputs": [
						{
							"internalType": "address",
							"name": "account",
							"type": "address"
						},
						{
							"internalType": "uint256",
							"name": "value",
							"type": "uint256"
						}
					],
					"name": "burnFrom",
					"outputs": [],
					"stateMutability": "nonpayable",
					"type": "function"
				},
				{
					"inputs": [],
					"name": "decimals",
					"outputs": [
						{
							"internalType": "uint8",
							"name": "",
							"type": "uint8"
						}
					],
					"stateMutability": "view",
					"type": "function"
				},
				{
					"inputs": [],
					"name": "enableTrading",
					"outputs": [],
					"stateMutability": "nonpayable",
					"type": "function"
				},
				{
					"inputs": [
						{
							"internalType": "address",
							"name": "",
							"type": "address"
						}
					],
					"name": "isDexPair",
					"outputs": [
						{
							"internalType": "bool",
							"name": "",
							"type": "bool"
						}
					],
					"stateMutability": "view",
					"type": "function"
				},
				{
					"inputs": [
						{
							"internalType": "address",
							"name": "",
							"type": "address"
						}
					],
					"name": "isLimitExempt",
					"outputs": [
						{
							"internalType": "bool",
							"name": "",
							"type": "bool"
						}
					],
					"stateMutability": "view",
					"type": "function"
				},
				{
					"inputs": [],
					"name": "limitsInEffect",
					"outputs": [
						{
							"internalType": "bool",
							"name": "",
							"type": "bool"
						}
					],
					"stateMutability": "view",
					"type": "function"
				},
				{
					"inputs": [],
					"name": "maxTxAmount",
					"outputs": [
						{
							"internalType": "uint256",
							"name": "",
							"type": "uint256"
						}
					],
					"stateMutability": "view",
					"type": "function"
				},
				{
					"inputs": [],
					"name": "maxWalletAmount",
					"outputs": [
						{
							"internalType": "uint256",
							"name": "",
							"type": "uint256"
						}
					],
					"stateMutability": "view",
					"type": "function"
				},
				{
					"inputs": [],
					"name": "name",
					"outputs": [
						{
							"internalType": "string",
							"name": "",
							"type": "string"
						}
					],
					"stateMutability": "view",
					"type": "function"
				},
				{
					"inputs": [],
					"name": "owner",
					"outputs": [
						{
							"internalType": "address",
							"name": "",
							"type": "address"
						}
					],
					"stateMutability": "view",
					"type": "function"
				},
				{
					"inputs": [],
					"name": "pause",
					"outputs": [],
					"stateMutability": "nonpayable",
					"type": "function"
				},
				{
					"inputs": [],
					"name": "paused",
					"outputs": [
						{
							"internalType": "bool",
							"name": "",
							"type": "bool"
						}
					],
					"stateMutability": "view",
					"type": "function"
				},
				{
					"inputs": [],
					"name": "renounceOwnership",
					"outputs": [],
					"stateMutability": "nonpayable",
					"type": "function"
				},
				{
					"inputs": [],
					"name": "rewardsDistributor",
					"outputs": [
						{
							"internalType": "address",
							"name": "",
							"type": "address"
						}
					],
					"stateMutability": "view",
					"type": "function"
				},
				{
					"inputs": [
						{
							"internalType": "address",
							"name": "pair",
							"type": "address"
						},
						{
							"internalType": "bool",
							"name": "allowed",
							"type": "bool"
						}
					],
					"name": "setDexPair",
					"outputs": [],
					"stateMutability": "nonpayable",
					"type": "function"
				},
				{
					"inputs": [
						{
							"internalType": "address",
							"name": "account",
							"type": "address"
						},
						{
							"internalType": "bool",
							"name": "exempt",
							"type": "bool"
						}
					],
					"name": "setLimitExempt",
					"outputs": [],
					"stateMutability": "nonpayable",
					"type": "function"
				},
				{
					"inputs": [
						{
							"internalType": "uint256",
							"name": "_maxTx",
							"type": "uint256"
						},
						{
							"internalType": "uint256",
							"name": "_maxWallet",
							"type": "uint256"
						},
						{
							"internalType": "bool",
							"name": "_active",
							"type": "bool"
						}
					],
					"name": "setLimits",
					"outputs": [],
					"stateMutability": "nonpayable",
					"type": "function"
				},
				{
					"inputs": [
						{
							"internalType": "address",
							"name": "distributor",
							"type": "address"
						}
					],
					"name": "setRewardsDistributor",
					"outputs": [],
					"stateMutability": "nonpayable",
					"type": "function"
				},
				{
					"inputs": [],
					"name": "symbol",
					"outputs": [
						{
							"internalType": "string",
							"name": "",
							"type": "string"
						}
					],
					"stateMutability": "view",
					"type": "function"
				},
				{
					"inputs": [],
					"name": "totalSupply",
					"outputs": [
						{
							"internalType": "uint256",
							"name": "",
							"type": "uint256"
						}
					],
					"stateMutability": "view",
					"type": "function"
				},
				{
					"inputs": [],
					"name": "tradingEnabled",
					"outputs": [
						{
							"internalType": "bool",
							"name": "",
							"type": "bool"
						}
					],
					"stateMutability": "view",
					"type": "function"
				},
				{
					"inputs": [
						{
							"internalType": "address",
							"name": "to",
							"type": "address"
						},
						{
							"internalType": "uint256",
							"name": "value",
							"type": "uint256"
						}
					],
					"name": "transfer",
					"outputs": [
						{
							"internalType": "bool",
							"name": "",
							"type": "bool"
						}
					],
					"stateMutability": "nonpayable",
					"type": "function"
				},
				{
					"inputs": [
						{
							"internalType": "address",
							"name": "from",
							"type": "address"
						},
						{
							"internalType": "address",
							"name": "to",
							"type": "address"
						},
						{
							"internalType": "uint256",
							"name": "value",
							"type": "uint256"
						}
					],
					"name": "transferFrom",
					"outputs": [
						{
							"internalType": "bool",
							"name": "",
							"type": "bool"
						}
					],
					"stateMutability": "nonpayable",
					"type": "function"
				},
				{
					"inputs": [
						{
							"internalType": "address",
							"name": "newOwner",
							"type": "address"
						}
					],
					"name": "transferOwnership",
					"outputs": [],
					"stateMutability": "nonpayable",
					"type": "function"
				},
				{
					"inputs": [],
					"name": "unpause",
					"outputs": [],
					"stateMutability": "nonpayable",
					"type": "function"
				}
			],
			"devdoc": {
				"errors": {
					"ERC20InsufficientAllowance(address,uint256,uint256)": [
						{
							"details": "Indicates a failure with the `spender`’s `allowance`. Used in transfers.",
							"params": {
								"allowance": "Amount of tokens a `spender` is allowed to operate with.",
								"needed": "Minimum amount required to perform a transfer.",
								"spender": "Address that may be allowed to operate on tokens without being their owner."
							}
						}
					],
					"ERC20InsufficientBalance(address,uint256,uint256)": [
						{
							"details": "Indicates an error related to the current `balance` of a `sender`. Used in transfers.",
							"params": {
								"balance": "Current balance for the interacting account.",
								"needed": "Minimum amount required to perform a transfer.",
								"sender": "Address whose tokens are being transferred."
							}
						}
					],
					"ERC20InvalidApprover(address)": [
						{
							"details": "Indicates a failure with the `approver` of a token to be approved. Used in approvals.",
							"params": {
								"approver": "Address initiating an approval operation."
							}
						}
					],
					"ERC20InvalidReceiver(address)": [
						{
							"details": "Indicates a failure with the token `receiver`. Used in transfers.",
							"params": {
								"receiver": "Address to which tokens are being transferred."
							}
						}
					],
					"ERC20InvalidSender(address)": [
						{
							"details": "Indicates a failure with the token `sender`. Used in transfers.",
							"params": {
								"sender": "Address whose tokens are being transferred."
							}
						}
					],
					"ERC20InvalidSpender(address)": [
						{
							"details": "Indicates a failure with the `spender` to be approved. Used in approvals.",
							"params": {
								"spender": "Address that may be allowed to operate on tokens without being their owner."
							}
						}
					],
					"OwnableInvalidOwner(address)": [
						{
							"details": "The owner is not a valid owner account. (eg. `address(0)`)"
						}
					],
					"OwnableUnauthorizedAccount(address)": [
						{
							"details": "The caller account is not authorized to perform an operation."
						}
					]
				},
				"events": {
					"Approval(address,address,uint256)": {
						"details": "Emitted when the allowance of a `spender` for an `owner` is set by a call to {approve}. `value` is the new allowance."
					},
					"Paused(address)": {
						"details": "Emitted when the pause is triggered by `account`."
					},
					"Transfer(address,address,uint256)": {
						"details": "Emitted when `value` tokens are moved from one account (`from`) to another (`to`). Note that `value` may be zero."
					},
					"Unpaused(address)": {
						"details": "Emitted when the pause is lifted by `account`."
					}
				},
				"kind": "dev",
				"methods": {
					"allowance(address,address)": {
						"details": "Returns the remaining number of tokens that `spender` will be allowed to spend on behalf of `owner` through {transferFrom}. This is zero by default. This value changes when {approve} or {transferFrom} are called."
					},
					"approve(address,uint256)": {
						"details": "See {IERC20-approve}. NOTE: If `value` is the maximum `uint256`, the allowance is not updated on `transferFrom`. This is semantically equivalent to an infinite approval. Requirements: - `spender` cannot be the zero address."
					},
					"balanceOf(address)": {
						"details": "Returns the value of tokens owned by `account`."
					},
					"burn(uint256)": {
						"details": "Destroys a `value` amount of tokens from the caller. See {ERC20-_burn}."
					},
					"burnFrom(address,uint256)": {
						"details": "Destroys a `value` amount of tokens from `account`, deducting from the caller's allowance. See {ERC20-_burn} and {ERC20-allowance}. Requirements: - the caller must have allowance for ``accounts``'s tokens of at least `value`."
					},
					"decimals()": {
						"details": "Returns the number of decimals used to get its user representation. For example, if `decimals` equals `2`, a balance of `505` tokens should be displayed to a user as `5.05` (`505 / 10 ** 2`). Tokens usually opt for a value of 18, imitating the relationship between Ether and Wei. This is the default value returned by this function, unless it's overridden. NOTE: This information is only used for _display_ purposes: it in no way affects any of the arithmetic of the contract, including {IERC20-balanceOf} and {IERC20-transfer}."
					},
					"name()": {
						"details": "Returns the name of the token."
					},
					"owner()": {
						"details": "Returns the address of the current owner."
					},
					"paused()": {
						"details": "Returns true if the contract is paused, and false otherwise."
					},
					"renounceOwnership()": {
						"details": "Leaves the contract without owner. It will not be possible to call `onlyOwner` functions. Can only be called by the current owner. NOTE: Renouncing ownership will leave the contract without an owner, thereby disabling any functionality that is only available to the owner."
					},
					"symbol()": {
						"details": "Returns the symbol of the token, usually a shorter version of the name."
					},
					"totalSupply()": {
						"details": "Returns the value of tokens in existence."
					},
					"transfer(address,uint256)": {
						"details": "See {IERC20-transfer}. Requirements: - `to` cannot be the zero address. - the caller must have a balance of at least `value`."
					},
					"transferFrom(address,address,uint256)": {
						"details": "See {IERC20-transferFrom}. Skips emitting an {Approval} event indicating an allowance update. This is not required by the ERC. See {xref-ERC20-_approve-address-address-uint256-bool-}[_approve]. NOTE: Does not update the allowance if the current allowance is the maximum `uint256`. Requirements: - `from` and `to` cannot be the zero address. - `from` must have a balance of at least `value`. - the caller must have allowance for ``from``'s tokens of at least `value`."
					},
					"transferOwnership(address)": {
						"details": "Transfers ownership of the contract to a new account (`newOwner`). Can only be called by the current owner."
					}
				},
				"version": 1
			},
			"evm": {
				"assembly": "    /* \"contracts/POMToken.sol\":736:10148  contract POMToken is ERC20, ERC20Burnable, Ownable, Pausable {... */\n  mstore(0x40, 0x80)\n    /* \"contracts/POMToken.sol\":1024:1028  true */\n  0x01\n    /* \"contracts/POMToken.sol\":995:1028  bool public tradingEnabled = true */\n  0x05\n  exp(0x0100, 0x15)\n  dup2\n  sload\n  dup2\n  0xff\n  mul\n  not\n  and\n  swap1\n  dup4\n  iszero\n  iszero\n  mul\n  or\n  swap1\n  sstore\n  pop\n    /* \"contracts/POMToken.sol\":1131:1135  true */\n  0x01\n    /* \"contracts/POMToken.sol\":1102:1135  bool public limitsInEffect = true */\n  0x08\n  exp(0x0100, 0x00)\n  dup2\n  sload\n  dup2\n  0xff\n  mul\n  not\n  and\n  swap1\n  dup4\n  iszero\n  iszero\n  mul\n  or\n  swap1\n  sstore\n  pop\n    /* \"contracts/POMToken.sol\":2975:4317  constructor() ERC20(\"PinOnMap Token\", \"POM\") Ownable(msg.sender) {... */\n  callvalue\n  dup1\n  iszero\n  tag_1\n  jumpi\n  revert(0x00, 0x00)\ntag_1:\n  pop\n    /* \"contracts/POMToken.sol\":3028:3038  msg.sender */\n  caller\n    /* \"@openzeppelin/contracts/token/ERC20/ERC20.sol\":1582:1695  constructor(string memory name_, string memory symbol_) {... */\n  mload(0x40)\n  dup1\n  0x40\n  add\n  0x40\n  mstore\n  dup1\n  0x0e\n  dup2\n  mstore\n  0x20\n  add\n  0x50696e4f6e4d617020546f6b656e000000000000000000000000000000000000\n  dup2\n  mstore\n  pop\n  mload(0x40)\n  dup1\n  0x40\n  add\n  0x40\n  mstore\n  dup1\n  0x03\n  dup2\n  mstore\n  0x20\n  add\n  0x504f4d0000000000000000000000000000000000000000000000000000000000\n  dup2\n  mstore\n  pop\n    /* \"@openzeppelin/contracts/token/ERC20/ERC20.sol\":1656:1661  name_ */\n  dup2\n    /* \"@openzeppelin/contracts/token/ERC20/ERC20.sol\":1648:1653  _name */\n  0x03\n    /* \"@openzeppelin/contracts/token/ERC20/ERC20.sol\":1648:1661  _name = name_ */\n  swap1\n  dup2\n  tag_7\n  swap2\n  swap1\n  tag_8\n  jump\t// in\ntag_7:\n  pop\n    /* \"@openzeppelin/contracts/token/ERC20/ERC20.sol\":1681:1688  symbol_ */\n  dup1\n    /* \"@openzeppelin/contracts/token/ERC20/ERC20.sol\":1671:1678  _symbol */\n  0x04\n    /* \"@openzeppelin/contracts/token/ERC20/ERC20.sol\":1671:1688  _symbol = symbol_ */\n  swap1\n  dup2\n  tag_9\n  swap2\n  swap1\n  tag_8\n  jump\t// in\ntag_9:\n  pop\n    /* \"@openzeppelin/contracts/token/ERC20/ERC20.sol\":1582:1695  constructor(string memory name_, string memory symbol_) {... */\n  pop\n  pop\n    /* \"@openzeppelin/contracts/access/Ownable.sol\":1297:1298  0 */\n  0x00\n    /* \"@openzeppelin/contracts/access/Ownable.sol\":1273:1299  initialOwner == address(0) */\n  0xffffffffffffffffffffffffffffffffffffffff\n  and\n    /* \"@openzeppelin/contracts/access/Ownable.sol\":1273:1285  initialOwner */\n  dup2\n    /* \"@openzeppelin/contracts/access/Ownable.sol\":1273:1299  initialOwner == address(0) */\n  0xffffffffffffffffffffffffffffffffffffffff\n  and\n  sub\n    /* \"@openzeppelin/contracts/access/Ownable.sol\":1269:1364  if (initialOwner == address(0)) {... */\n  tag_11\n  jumpi\n    /* \"@openzeppelin/contracts/access/Ownable.sol\":1350:1351  0 */\n  0x00\n    /* \"@openzeppelin/contracts/access/Ownable.sol\":1322:1353  OwnableInvalidOwner(address(0)) */\n  mload(0x40)\n  0x1e4fbdf700000000000000000000000000000000000000000000000000000000\n  dup2\n  mstore\n  0x04\n  add\n  tag_12\n  swap2\n  swap1\n  tag_13\n  jump\t// in\ntag_12:\n  mload(0x40)\n  dup1\n  swap2\n  sub\n  swap1\n  revert\n    /* \"@openzeppelin/contracts/access/Ownable.sol\":1269:1364  if (initialOwner == address(0)) {... */\ntag_11:\n    /* \"@openzeppelin/contracts/access/Ownable.sol\":1373:1405  _transferOwnership(initialOwner) */\n  tag_14\n    /* \"@openzeppelin/contracts/access/Ownable.sol\":1392:1404  initialOwner */\n  dup2\n    /* \"@openzeppelin/contracts/access/Ownable.sol\":1373:1391  _transferOwnership */\n  shl(0x20, tag_15)\n    /* \"@openzeppelin/contracts/access/Ownable.sol\":1373:1405  _transferOwnership(initialOwner) */\n  0x20\n  shr\n  jump\t// in\ntag_14:\n    /* \"@openzeppelin/contracts/access/Ownable.sol\":1225:1412  constructor(address initialOwner) {... */\n  pop\n    /* \"@openzeppelin/contracts/security/Pausable.sol\":1006:1011  false */\n  0x00\n    /* \"@openzeppelin/contracts/security/Pausable.sol\":996:1003  _paused */\n  0x05\n  0x14\n    /* \"@openzeppelin/contracts/security/Pausable.sol\":996:1011  _paused = false */\n  0x0100\n  exp\n  dup2\n  sload\n  dup2\n  0xff\n  mul\n  not\n  and\n  swap1\n  dup4\n  iszero\n  iszero\n  mul\n  or\n  swap1\n  sstore\n  pop\n    /* \"contracts/POMToken.sol\":3113:3118  false */\n  0x00\n    /* \"contracts/POMToken.sol\":3096:3110  limitsInEffect */\n  0x08\n  0x00\n    /* \"contracts/POMToken.sol\":3096:3118  limitsInEffect = false */\n  0x0100\n  exp\n  dup2\n  sload\n  dup2\n  0xff\n  mul\n  not\n  and\n  swap1\n  dup4\n  iszero\n  iszero\n  mul\n  or\n  swap1\n  sstore\n  pop\n    /* \"contracts/POMToken.sol\":3145:3149  true */\n  0x01\n    /* \"contracts/POMToken.sol\":3128:3142  tradingEnabled */\n  0x05\n  0x15\n    /* \"contracts/POMToken.sol\":3128:3149  tradingEnabled = true */\n  0x0100\n  exp\n  dup2\n  sload\n  dup2\n  0xff\n  mul\n  not\n  and\n  swap1\n  dup4\n  iszero\n  iszero\n  mul\n  or\n  swap1\n  sstore\n  pop\n    /* \"contracts/POMToken.sol\":3216:3269  _mint(TREASURY_WALLET, percentOf(TOTAL_SUPPLY, 2500)) */\n  tag_18\n    /* \"contracts/POMToken.sol\":1625:1667  0x71133f5d2548Cd9B182C2DaF68D9D00a56d4343f */\n  0x71133f5d2548cd9b182c2daf68d9d00a56d4343f\n    /* \"contracts/POMToken.sol\":3239:3268  percentOf(TOTAL_SUPPLY, 2500) */\n  tag_19\n    /* \"contracts/POMToken.sol\":888:909  10_000_000_000 * 1e18 */\n  0x204fce5e3e25026110000000\n    /* \"contracts/POMToken.sol\":3263:3267  2500 */\n  0x09c4\n    /* \"contracts/POMToken.sol\":3239:3248  percentOf */\n  shl(0x20, tag_20)\n    /* \"contracts/POMToken.sol\":3239:3268  percentOf(TOTAL_SUPPLY, 2500) */\n  0x20\n  shr\n  jump\t// in\ntag_19:\n    /* \"contracts/POMToken.sol\":3216:3221  _mint */\n  shl(0x20, tag_21)\n    /* \"contracts/POMToken.sol\":3216:3269  _mint(TREASURY_WALLET, percentOf(TOTAL_SUPPLY, 2500)) */\n  0x20\n  shr\n  jump\t// in\ntag_18:\n    /* \"contracts/POMToken.sol\":3286:3338  _mint(REWARDS_WALLET, percentOf(TOTAL_SUPPLY, 3000)) */\n  tag_22\n    /* \"contracts/POMToken.sol\":1722:1764  0xAB247964F4b9A1C50e6c01e4a2A808Ce07feaf41 */\n  0xab247964f4b9a1c50e6c01e4a2a808ce07feaf41\n    /* \"contracts/POMToken.sol\":3308:3337  percentOf(TOTAL_SUPPLY, 3000) */\n  tag_23\n    /* \"contracts/POMToken.sol\":888:909  10_000_000_000 * 1e18 */\n  0x204fce5e3e25026110000000\n    /* \"contracts/POMToken.sol\":3332:3336  3000 */\n  0x0bb8\n    /* \"contracts/POMToken.sol\":3308:3317  percentOf */\n  shl(0x20, tag_20)\n    /* \"contracts/POMToken.sol\":3308:3337  percentOf(TOTAL_SUPPLY, 3000) */\n  0x20\n  shr\n  jump\t// in\ntag_23:\n    /* \"contracts/POMToken.sol\":3286:3291  _mint */\n  shl(0x20, tag_21)\n    /* \"contracts/POMToken.sol\":3286:3338  _mint(REWARDS_WALLET, percentOf(TOTAL_SUPPLY, 3000)) */\n  0x20\n  shr\n  jump\t// in\ntag_22:\n    /* \"contracts/POMToken.sol\":3355:3403  _mint(DEV_WALLET, percentOf(TOTAL_SUPPLY, 1500)) */\n  tag_24\n    /* \"contracts/POMToken.sol\":1815:1857  0x1bEc551c40d7F6B3B7b0366765Fa769A8DDb4f25 */\n  0x1bec551c40d7f6b3b7b0366765fa769a8ddb4f25\n    /* \"contracts/POMToken.sol\":3373:3402  percentOf(TOTAL_SUPPLY, 1500) */\n  tag_25\n    /* \"contracts/POMToken.sol\":888:909  10_000_000_000 * 1e18 */\n  0x204fce5e3e25026110000000\n    /* \"contracts/POMToken.sol\":3397:3401  1500 */\n  0x05dc\n    /* \"contracts/POMToken.sol\":3373:3382  percentOf */\n  shl(0x20, tag_20)\n    /* \"contracts/POMToken.sol\":3373:3402  percentOf(TOTAL_SUPPLY, 1500) */\n  0x20\n  shr\n  jump\t// in\ntag_25:\n    /* \"contracts/POMToken.sol\":3355:3360  _mint */\n  shl(0x20, tag_21)\n    /* \"contracts/POMToken.sol\":3355:3403  _mint(DEV_WALLET, percentOf(TOTAL_SUPPLY, 1500)) */\n  0x20\n  shr\n  jump\t// in\ntag_24:\n    /* \"contracts/POMToken.sol\":3420:3474  _mint(MARKETING_WALLET, percentOf(TOTAL_SUPPLY, 1000)) */\n  tag_26\n    /* \"contracts/POMToken.sol\":1914:1956  0x9A982f4EFa6F344E955D28Dba751E17B60E3F217 */\n  0x9a982f4efa6f344e955d28dba751e17b60e3f217\n    /* \"contracts/POMToken.sol\":3444:3473  percentOf(TOTAL_SUPPLY, 1000) */\n  tag_27\n    /* \"contracts/POMToken.sol\":888:909  10_000_000_000 * 1e18 */\n  0x204fce5e3e25026110000000\n    /* \"contracts/POMToken.sol\":3468:3472  1000 */\n  0x03e8\n    /* \"contracts/POMToken.sol\":3444:3453  percentOf */\n  shl(0x20, tag_20)\n    /* \"contracts/POMToken.sol\":3444:3473  percentOf(TOTAL_SUPPLY, 1000) */\n  0x20\n  shr\n  jump\t// in\ntag_27:\n    /* \"contracts/POMToken.sol\":3420:3425  _mint */\n  shl(0x20, tag_21)\n    /* \"contracts/POMToken.sol\":3420:3474  _mint(MARKETING_WALLET, percentOf(TOTAL_SUPPLY, 1000)) */\n  0x20\n  shr\n  jump\t// in\ntag_26:\n    /* \"contracts/POMToken.sol\":3491:3545  _mint(LIQUIDITY_WALLET, percentOf(TOTAL_SUPPLY, 1000)) */\n  tag_28\n    /* \"contracts/POMToken.sol\":2013:2055  0xF03Cb4af13aFDB94688607e100BEE39E4173B446 */\n  0xf03cb4af13afdb94688607e100bee39e4173b446\n    /* \"contracts/POMToken.sol\":3515:3544  percentOf(TOTAL_SUPPLY, 1000) */\n  tag_29\n    /* \"contracts/POMToken.sol\":888:909  10_000_000_000 * 1e18 */\n  0x204fce5e3e25026110000000\n    /* \"contracts/POMToken.sol\":3539:3543  1000 */\n  0x03e8\n    /* \"contracts/POMToken.sol\":3515:3524  percentOf */\n  shl(0x20, tag_20)\n    /* \"contracts/POMToken.sol\":3515:3544  percentOf(TOTAL_SUPPLY, 1000) */\n  0x20\n  shr\n  jump\t// in\ntag_29:\n    /* \"contracts/POMToken.sol\":3491:3496  _mint */\n  shl(0x20, tag_21)\n    /* \"contracts/POMToken.sol\":3491:3545  _mint(LIQUIDITY_WALLET, percentOf(TOTAL_SUPPLY, 1000)) */\n  0x20\n  shr\n  jump\t// in\ntag_28:\n    /* \"contracts/POMToken.sol\":3562:3614  _mint(ADVISORS_WALLET, percentOf(TOTAL_SUPPLY, 500)) */\n  tag_30\n    /* \"contracts/POMToken.sol\":2111:2153  0x8DCdF001b069ef0a027aa8b4DAcA12577423a90b */\n  0x8dcdf001b069ef0a027aa8b4daca12577423a90b\n    /* \"contracts/POMToken.sol\":3585:3613  percentOf(TOTAL_SUPPLY, 500) */\n  tag_31\n    /* \"contracts/POMToken.sol\":888:909  10_000_000_000 * 1e18 */\n  0x204fce5e3e25026110000000\n    /* \"contracts/POMToken.sol\":3609:3612  500 */\n  0x01f4\n    /* \"contracts/POMToken.sol\":3585:3594  percentOf */\n  shl(0x20, tag_20)\n    /* \"contracts/POMToken.sol\":3585:3613  percentOf(TOTAL_SUPPLY, 500) */\n  0x20\n  shr\n  jump\t// in\ntag_31:\n    /* \"contracts/POMToken.sol\":3562:3567  _mint */\n  shl(0x20, tag_21)\n    /* \"contracts/POMToken.sol\":3562:3614  _mint(ADVISORS_WALLET, percentOf(TOTAL_SUPPLY, 500)) */\n  0x20\n  shr\n  jump\t// in\ntag_30:\n    /* \"contracts/POMToken.sol\":3630:3677  _mint(DAO_WALLET, percentOf(TOTAL_SUPPLY, 500)) */\n  tag_32\n    /* \"contracts/POMToken.sol\":2204:2246  0xFf55e5341142eFdfD37D2E51317bBDA62DB8d8f0 */\n  0xff55e5341142efdfd37d2e51317bbda62db8d8f0\n    /* \"contracts/POMToken.sol\":3648:3676  percentOf(TOTAL_SUPPLY, 500) */\n  tag_33\n    /* \"contracts/POMToken.sol\":888:909  10_000_000_000 * 1e18 */\n  0x204fce5e3e25026110000000\n    /* \"contracts/POMToken.sol\":3672:3675  500 */\n  0x01f4\n    /* \"contracts/POMToken.sol\":3648:3657  percentOf */\n  shl(0x20, tag_20)\n    /* \"contracts/POMToken.sol\":3648:3676  percentOf(TOTAL_SUPPLY, 500) */\n  0x20\n  shr\n  jump\t// in\ntag_33:\n    /* \"contracts/POMToken.sol\":3630:3635  _mint */\n  shl(0x20, tag_21)\n    /* \"contracts/POMToken.sol\":3630:3677  _mint(DAO_WALLET, percentOf(TOTAL_SUPPLY, 500)) */\n  0x20\n  shr\n  jump\t// in\ntag_32:\n    /* \"contracts/POMToken.sol\":3755:3760  false */\n  0x00\n    /* \"contracts/POMToken.sol\":3738:3752  tradingEnabled */\n  0x05\n  0x15\n    /* \"contracts/POMToken.sol\":3738:3760  tradingEnabled = false */\n  0x0100\n  exp\n  dup2\n  sload\n  dup2\n  0xff\n  mul\n  not\n  and\n  swap1\n  dup4\n  iszero\n  iszero\n  mul\n  or\n  swap1\n  sstore\n  pop\n    /* \"contracts/POMToken.sol\":3787:3791  true */\n  0x01\n    /* \"contracts/POMToken.sol\":3770:3784  limitsInEffect */\n  0x08\n  0x00\n    /* \"contracts/POMToken.sol\":3770:3791  limitsInEffect = true */\n  0x0100\n  exp\n  dup2\n  sload\n  dup2\n  0xff\n  mul\n  not\n  and\n  swap1\n  dup4\n  iszero\n  iszero\n  mul\n  or\n  swap1\n  sstore\n  pop\n    /* \"contracts/POMToken.sol\":3861:3888  percentOf(TOTAL_SUPPLY, 25) */\n  tag_34\n    /* \"contracts/POMToken.sol\":888:909  10_000_000_000 * 1e18 */\n  0x204fce5e3e25026110000000\n    /* \"contracts/POMToken.sol\":3885:3887  25 */\n  0x19\n    /* \"contracts/POMToken.sol\":3861:3870  percentOf */\n  shl(0x20, tag_20)\n    /* \"contracts/POMToken.sol\":3861:3888  percentOf(TOTAL_SUPPLY, 25) */\n  0x20\n  shr\n  jump\t// in\ntag_34:\n    /* \"contracts/POMToken.sol\":3847:3858  maxTxAmount */\n  0x06\n    /* \"contracts/POMToken.sol\":3847:3888  maxTxAmount = percentOf(TOTAL_SUPPLY, 25) */\n  dup2\n  swap1\n  sstore\n  pop\n    /* \"contracts/POMToken.sol\":3941:3968  percentOf(TOTAL_SUPPLY, 50) */\n  tag_35\n    /* \"contracts/POMToken.sol\":888:909  10_000_000_000 * 1e18 */\n  0x204fce5e3e25026110000000\n    /* \"contracts/POMToken.sol\":3965:3967  50 */\n  0x32\n    /* \"contracts/POMToken.sol\":3941:3950  percentOf */\n  shl(0x20, tag_20)\n    /* \"contracts/POMToken.sol\":3941:3968  percentOf(TOTAL_SUPPLY, 50) */\n  0x20\n  shr\n  jump\t// in\ntag_35:\n    /* \"contracts/POMToken.sol\":3923:3938  maxWalletAmount */\n  0x07\n    /* \"contracts/POMToken.sol\":3923:3968  maxWalletAmount = percentOf(TOTAL_SUPPLY, 50) */\n  dup2\n  swap1\n  sstore\n  pop\n    /* \"contracts/POMToken.sol\":4030:4034  true */\n  0x01\n    /* \"contracts/POMToken.sol\":4000:4013  isLimitExempt */\n  0x09\n    /* \"contracts/POMToken.sol\":4000:4027  isLimitExempt[OWNER_WALLET] */\n  0x00\n    /* \"contracts/POMToken.sol\":1527:1569  0xDfb98530d77eE2d29eA7933c02Eff50310201145 */\n  0xdfb98530d77ee2d29ea7933c02eff50310201145\n    /* \"contracts/POMToken.sol\":4000:4027  isLimitExempt[OWNER_WALLET] */\n  0xffffffffffffffffffffffffffffffffffffffff\n  and\n  0xffffffffffffffffffffffffffffffffffffffff\n  and\n  dup2\n  mstore\n  0x20\n  add\n  swap1\n  dup2\n  mstore\n  0x20\n  add\n  0x00\n  keccak256\n  0x00\n    /* \"contracts/POMToken.sol\":4000:4034  isLimitExempt[OWNER_WALLET] = true */\n  0x0100\n  exp\n  dup2\n  sload\n  dup2\n  0xff\n  mul\n  not\n  and\n  swap1\n  dup4\n  iszero\n  iszero\n  mul\n  or\n  swap1\n  sstore\n  pop\n    /* \"contracts/POMToken.sol\":4075:4079  true */\n  0x01\n    /* \"contracts/POMToken.sol\":4044:4057  isLimitExempt */\n  0x09\n    /* \"contracts/POMToken.sol\":4044:4072  isLimitExempt[address(this)] */\n  0x00\n    /* \"contracts/POMToken.sol\":4066:4070  this */\n  address\n    /* \"contracts/POMToken.sol\":4044:4072  isLimitExempt[address(this)] */\n  0xffffffffffffffffffffffffffffffffffffffff\n  and\n  0xffffffffffffffffffffffffffffffffffffffff\n  and\n  dup2\n  mstore\n  0x20\n  add\n  swap1\n  dup2\n  mstore\n  0x20\n  add\n  0x00\n  keccak256\n  0x00\n    /* \"contracts/POMToken.sol\":4044:4079  isLimitExempt[address(this)] = true */\n  0x0100\n  exp\n  dup2\n  sload\n  dup2\n  0xff\n  mul\n  not\n  and\n  swap1\n  dup4\n  iszero\n  iszero\n  mul\n  or\n  swap1\n  sstore\n  pop\n    /* \"contracts/POMToken.sol\":1815:1857  0x1bEc551c40d7F6B3B7b0366765Fa769A8DDb4f25 */\n  0x1bec551c40d7f6b3b7b0366765fa769a8ddb4f25\n    /* \"contracts/POMToken.sol\":4095:4310  Distributed(... */\n  0xffffffffffffffffffffffffffffffffffffffff\n  and\n    /* \"contracts/POMToken.sol\":1722:1764  0xAB247964F4b9A1C50e6c01e4a2A808Ce07feaf41 */\n  0xab247964f4b9a1c50e6c01e4a2a808ce07feaf41\n    /* \"contracts/POMToken.sol\":4095:4310  Distributed(... */\n  0xffffffffffffffffffffffffffffffffffffffff\n  and\n    /* \"contracts/POMToken.sol\":1625:1667  0x71133f5d2548Cd9B182C2DaF68D9D00a56d4343f */\n  0x71133f5d2548cd9b182c2daf68d9d00a56d4343f\n    /* \"contracts/POMToken.sol\":4095:4310  Distributed(... */\n  0xffffffffffffffffffffffffffffffffffffffff\n  and\n  0x4c160552e2f29ed39f6d2f1ae54f5b0f9a771f971c1c4a5a5d80a816fe017d70\n    /* \"contracts/POMToken.sol\":1914:1956  0x9A982f4EFa6F344E955D28Dba751E17B60E3F217 */\n  0x9a982f4efa6f344e955d28dba751e17b60e3f217\n    /* \"contracts/POMToken.sol\":2013:2055  0xF03Cb4af13aFDB94688607e100BEE39E4173B446 */\n  0xf03cb4af13afdb94688607e100bee39e4173b446\n    /* \"contracts/POMToken.sol\":2111:2153  0x8DCdF001b069ef0a027aa8b4DAcA12577423a90b */\n  0x8dcdf001b069ef0a027aa8b4daca12577423a90b\n    /* \"contracts/POMToken.sol\":2204:2246  0xFf55e5341142eFdfD37D2E51317bBDA62DB8d8f0 */\n  0xff55e5341142efdfd37d2e51317bbda62db8d8f0\n    /* \"contracts/POMToken.sol\":4095:4310  Distributed(... */\n  mload(0x40)\n  tag_36\n  swap5\n  swap4\n  swap3\n  swap2\n  swap1\n  tag_37\n  jump\t// in\ntag_36:\n  mload(0x40)\n  dup1\n  swap2\n  sub\n  swap1\n  log4\n    /* \"contracts/POMToken.sol\":736:10148  contract POMToken is ERC20, ERC20Burnable, Ownable, Pausable {... */\n  jump(tag_38)\n    /* \"@openzeppelin/contracts/access/Ownable.sol\":2912:3099  function _transferOwnership(address newOwner) internal virtual {... */\ntag_15:\n    /* \"@openzeppelin/contracts/access/Ownable.sol\":2985:3001  address oldOwner */\n  0x00\n    /* \"@openzeppelin/contracts/access/Ownable.sol\":3004:3010  _owner */\n  0x05\n  0x00\n  swap1\n  sload\n  swap1\n  0x0100\n  exp\n  swap1\n  div\n  0xffffffffffffffffffffffffffffffffffffffff\n  and\n    /* \"@openzeppelin/contracts/access/Ownable.sol\":2985:3010  address oldOwner = _owner */\n  swap1\n  pop\n    /* \"@openzeppelin/contracts/access/Ownable.sol\":3029:3037  newOwner */\n  dup2\n    /* \"@openzeppelin/contracts/access/Ownable.sol\":3020:3026  _owner */\n  0x05\n  0x00\n    /* \"@openzeppelin/contracts/access/Ownable.sol\":3020:3037  _owner = newOwner */\n  0x0100\n  exp\n  dup2\n  sload\n  dup2\n  0xffffffffffffffffffffffffffffffffffffffff\n  mul\n  not\n  and\n  swap1\n  dup4\n  0xffffffffffffffffffffffffffffffffffffffff\n  and\n  mul\n  or\n  swap1\n  sstore\n  pop\n    /* \"@openzeppelin/contracts/access/Ownable.sol\":3083:3091  newOwner */\n  dup2\n    /* \"@openzeppelin/contracts/access/Ownable.sol\":3052:3092  OwnershipTransferred(oldOwner, newOwner) */\n  0xffffffffffffffffffffffffffffffffffffffff\n  and\n    /* \"@openzeppelin/contracts/access/Ownable.sol\":3073:3081  oldOwner */\n  dup2\n    /* \"@openzeppelin/contracts/access/Ownable.sol\":3052:3092  OwnershipTransferred(oldOwner, newOwner) */\n  0xffffffffffffffffffffffffffffffffffffffff\n  and\n  0x8be0079c531659141344cd1fd0a4f28419497f9722a3daafe3b4186f6b6457e0\n  mload(0x40)\n  mload(0x40)\n  dup1\n  swap2\n  sub\n  swap1\n  log3\n    /* \"@openzeppelin/contracts/access/Ownable.sol\":2975:3099  {... */\n  pop\n    /* \"@openzeppelin/contracts/access/Ownable.sol\":2912:3099  function _transferOwnership(address newOwner) internal virtual {... */\n  pop\n  jump\t// out\n    /* \"contracts/POMToken.sol\":5682:5915  function percentOf(... */\ntag_20:\n    /* \"contracts/POMToken.sol\":5783:5790  uint256 */\n  0x00\n    /* \"contracts/POMToken.sol\":5825:5831  10_000 */\n  0x2710\n    /* \"contracts/POMToken.sol\":5810:5821  basisPoints */\n  dup3\n    /* \"contracts/POMToken.sol\":5810:5831  basisPoints <= 10_000 */\n  gt\n  iszero\n    /* \"contracts/POMToken.sol\":5802:5860  require(basisPoints <= 10_000, \"Basis points exceed 100%\") */\n  tag_41\n  jumpi\n  mload(0x40)\n  0x08c379a000000000000000000000000000000000000000000000000000000000\n  dup2\n  mstore\n  0x04\n  add\n  tag_42\n  swap1\n  tag_43\n  jump\t// in\ntag_42:\n  mload(0x40)\n  dup1\n  swap2\n  sub\n  swap1\n  revert\ntag_41:\n    /* \"contracts/POMToken.sol\":5902:5908  10_000 */\n  0x2710\n    /* \"contracts/POMToken.sol\":5887:5898  basisPoints */\n  dup3\n    /* \"contracts/POMToken.sol\":5878:5884  amount */\n  dup5\n    /* \"contracts/POMToken.sol\":5878:5898  amount * basisPoints */\n  tag_44\n  swap2\n  swap1\n  tag_45\n  jump\t// in\ntag_44:\n    /* \"contracts/POMToken.sol\":5877:5908  (amount * basisPoints) / 10_000 */\n  tag_46\n  swap2\n  swap1\n  tag_47\n  jump\t// in\ntag_46:\n    /* \"contracts/POMToken.sol\":5870:5908  return (amount * basisPoints) / 10_000 */\n  swap1\n  pop\n    /* \"contracts/POMToken.sol\":5682:5915  function percentOf(... */\n  swap3\n  swap2\n  pop\n  pop\n  jump\t// out\n    /* \"@openzeppelin/contracts/token/ERC20/ERC20.sol\":7362:7570  function _mint(address account, uint256 value) internal {... */\ntag_21:\n    /* \"@openzeppelin/contracts/token/ERC20/ERC20.sol\":7451:7452  0 */\n  0x00\n    /* \"@openzeppelin/contracts/token/ERC20/ERC20.sol\":7432:7453  account == address(0) */\n  0xffffffffffffffffffffffffffffffffffffffff\n  and\n    /* \"@openzeppelin/contracts/token/ERC20/ERC20.sol\":7432:7439  account */\n  dup3\n    /* \"@openzeppelin/contracts/token/ERC20/ERC20.sol\":7432:7453  account == address(0) */\n  0xffffffffffffffffffffffffffffffffffffffff\n  and\n  sub\n    /* \"@openzeppelin/contracts/token/ERC20/ERC20.sol\":7428:7519  if (account == address(0)) {... */\n  tag_49\n  jumpi\n    /* \"@openzeppelin/contracts/token/ERC20/ERC20.sol\":7505:7506  0 */\n  0x00\n    /* \"@openzeppelin/contracts/token/ERC20/ERC20.sol\":7476:7508  ERC20InvalidReceiver(address(0)) */\n  mload(0x40)\n  0xec442f0500000000000000000000000000000000000000000000000000000000\n  dup2\n  mstore\n  0x04\n  add\n  tag_50\n  swap2\n  swap1\n  tag_13\n  jump\t// in\ntag_50:\n  mload(0x40)\n  dup1\n  swap2\n  sub\n  swap1\n  revert\n    /* \"@openzeppelin/contracts/token/ERC20/ERC20.sol\":7428:7519  if (account == address(0)) {... */\ntag_49:\n    /* \"@openzeppelin/contracts/token/ERC20/ERC20.sol\":7528:7563  _update(address(0), account, value) */\n  tag_51\n    /* \"@openzeppelin/contracts/token/ERC20/ERC20.sol\":7544:7545  0 */\n  0x00\n    /* \"@openzeppelin/contracts/token/ERC20/ERC20.sol\":7548:7555  account */\n  dup4\n    /* \"@openzeppelin/contracts/token/ERC20/ERC20.sol\":7557:7562  value */\n  dup4\n    /* \"@openzeppelin/contracts/token/ERC20/ERC20.sol\":7528:7535  _update */\n  shl(0x20, tag_52)\n    /* \"@openzeppelin/contracts/token/ERC20/ERC20.sol\":7528:7563  _update(address(0), account, value) */\n  0x20\n  shr\n  jump\t// in\ntag_51:\n    /* \"@openzeppelin/contracts/token/ERC20/ERC20.sol\":7362:7570  function _mint(address account, uint256 value) internal {... */\n  pop\n  pop\n  jump\t// out\n    /* \"contracts/POMToken.sol\":8579:10146  function _update(... */\ntag_52:\n    /* \"@openzeppelin/contracts/security/Pausable.sol\":1239:1258  _requireNotPaused() */\n  tag_54\n    /* \"@openzeppelin/contracts/security/Pausable.sol\":1239:1256  _requireNotPaused */\n  shl(0x20, tag_55)\n    /* \"@openzeppelin/contracts/security/Pausable.sol\":1239:1258  _requireNotPaused() */\n  0x20\n  shr\n  jump\t// in\ntag_54:\n    /* \"contracts/POMToken.sol\":8822:8823  0 */\n  0x00\n    /* \"contracts/POMToken.sol\":8806:8824  from == address(0) */\n  0xffffffffffffffffffffffffffffffffffffffff\n  and\n    /* \"contracts/POMToken.sol\":8806:8810  from */\n  dup4\n    /* \"contracts/POMToken.sol\":8806:8824  from == address(0) */\n  0xffffffffffffffffffffffffffffffffffffffff\n  and\n  eq\n    /* \"contracts/POMToken.sol\":8806:8844  from == address(0) || to == address(0) */\n  dup1\n  tag_57\n  jumpi\n  pop\n    /* \"contracts/POMToken.sol\":8842:8843  0 */\n  0x00\n    /* \"contracts/POMToken.sol\":8828:8844  to == address(0) */\n  0xffffffffffffffffffffffffffffffffffffffff\n  and\n    /* \"contracts/POMToken.sol\":8828:8830  to */\n  dup3\n    /* \"contracts/POMToken.sol\":8828:8844  to == address(0) */\n  0xffffffffffffffffffffffffffffffffffffffff\n  and\n  eq\n    /* \"contracts/POMToken.sol\":8806:8844  from == address(0) || to == address(0) */\ntag_57:\n    /* \"contracts/POMToken.sol\":8806:8869  from == address(0) || to == address(0) || from == address(this) */\n  dup1\n  tag_58\n  jumpi\n  pop\n    /* \"contracts/POMToken.sol\":8864:8868  this */\n  address\n    /* \"contracts/POMToken.sol\":8848:8869  from == address(this) */\n  0xffffffffffffffffffffffffffffffffffffffff\n  and\n    /* \"contracts/POMToken.sol\":8848:8852  from */\n  dup4\n    /* \"contracts/POMToken.sol\":8848:8869  from == address(this) */\n  0xffffffffffffffffffffffffffffffffffffffff\n  and\n  eq\n    /* \"contracts/POMToken.sol\":8806:8869  from == address(0) || to == address(0) || from == address(this) */\ntag_58:\n    /* \"contracts/POMToken.sol\":8802:8947  if (from == address(0) || to == address(0) || from == address(this)) {... */\n  iszero\n  tag_59\n  jumpi\n    /* \"contracts/POMToken.sol\":8885:8916  super._update(from, to, amount) */\n  tag_60\n    /* \"contracts/POMToken.sol\":8899:8903  from */\n  dup4\n    /* \"contracts/POMToken.sol\":8905:8907  to */\n  dup4\n    /* \"contracts/POMToken.sol\":8909:8915  amount */\n  dup4\n    /* \"contracts/POMToken.sol\":8885:8898  super._update */\n  shl(0x20, tag_61)\n    /* \"contracts/POMToken.sol\":8885:8916  super._update(from, to, amount) */\n  0x20\n  shr\n  jump\t// in\ntag_60:\n    /* \"contracts/POMToken.sol\":8930:8937  return; */\n  jump(tag_56)\n    /* \"contracts/POMToken.sol\":8802:8947  if (from == address(0) || to == address(0) || from == address(this)) {... */\ntag_59:\n    /* \"contracts/POMToken.sol\":9158:9162  this */\n  address\n    /* \"contracts/POMToken.sol\":9144:9163  to != address(this) */\n  0xffffffffffffffffffffffffffffffffffffffff\n  and\n    /* \"contracts/POMToken.sol\":9144:9146  to */\n  dup3\n    /* \"contracts/POMToken.sol\":9144:9163  to != address(this) */\n  0xffffffffffffffffffffffffffffffffffffffff\n  and\n  sub\n    /* \"contracts/POMToken.sol\":9123:9234  require(... */\n  tag_62\n  jumpi\n  mload(0x40)\n  0x08c379a000000000000000000000000000000000000000000000000000000000\n  dup2\n  mstore\n  0x04\n  add\n  tag_63\n  swap1\n  tag_64\n  jump\t// in\ntag_63:\n  mload(0x40)\n  dup1\n  swap2\n  sub\n  swap1\n  revert\ntag_62:\n    /* \"contracts/POMToken.sol\":9338:9352  tradingEnabled */\n  0x05\n  0x15\n  swap1\n  sload\n  swap1\n  0x0100\n  exp\n  swap1\n  div\n  0xff\n  and\n    /* \"contracts/POMToken.sol\":9337:9352  !tradingEnabled */\n  iszero\n    /* \"contracts/POMToken.sol\":9337:9374  !tradingEnabled && from != address(0) */\n  dup1\n  iszero\n  tag_65\n  jumpi\n  pop\n    /* \"contracts/POMToken.sol\":9372:9373  0 */\n  0x00\n    /* \"contracts/POMToken.sol\":9356:9374  from != address(0) */\n  0xffffffffffffffffffffffffffffffffffffffff\n  and\n    /* \"contracts/POMToken.sol\":9356:9360  from */\n  dup4\n    /* \"contracts/POMToken.sol\":9356:9374  from != address(0) */\n  0xffffffffffffffffffffffffffffffffffffffff\n  and\n  eq\n  iszero\n    /* \"contracts/POMToken.sol\":9337:9374  !tradingEnabled && from != address(0) */\ntag_65:\n    /* \"contracts/POMToken.sol\":9337:9394  !tradingEnabled && from != address(0) && to != address(0) */\n  dup1\n  iszero\n  tag_66\n  jumpi\n  pop\n    /* \"contracts/POMToken.sol\":9392:9393  0 */\n  0x00\n    /* \"contracts/POMToken.sol\":9378:9394  to != address(0) */\n  0xffffffffffffffffffffffffffffffffffffffff\n  and\n    /* \"contracts/POMToken.sol\":9378:9380  to */\n  dup3\n    /* \"contracts/POMToken.sol\":9378:9394  to != address(0) */\n  0xffffffffffffffffffffffffffffffffffffffff\n  and\n  eq\n  iszero\n    /* \"contracts/POMToken.sol\":9337:9394  !tradingEnabled && from != address(0) && to != address(0) */\ntag_66:\n    /* \"contracts/POMToken.sol\":9333:9543  if (!tradingEnabled && from != address(0) && to != address(0)) {... */\n  iszero\n  tag_67\n  jumpi\n    /* \"contracts/POMToken.sol\":9435:9448  isLimitExempt */\n  0x09\n    /* \"contracts/POMToken.sol\":9435:9454  isLimitExempt[from] */\n  0x00\n    /* \"contracts/POMToken.sol\":9449:9453  from */\n  dup5\n    /* \"contracts/POMToken.sol\":9435:9454  isLimitExempt[from] */\n  0xffffffffffffffffffffffffffffffffffffffff\n  and\n  0xffffffffffffffffffffffffffffffffffffffff\n  and\n  dup2\n  mstore\n  0x20\n  add\n  swap1\n  dup2\n  mstore\n  0x20\n  add\n  0x00\n  keccak256\n  0x00\n  swap1\n  sload\n  swap1\n  0x0100\n  exp\n  swap1\n  div\n  0xff\n  and\n    /* \"contracts/POMToken.sol\":9435:9475  isLimitExempt[from] || isLimitExempt[to] */\n  dup1\n  tag_68\n  jumpi\n  pop\n    /* \"contracts/POMToken.sol\":9458:9471  isLimitExempt */\n  0x09\n    /* \"contracts/POMToken.sol\":9458:9475  isLimitExempt[to] */\n  0x00\n    /* \"contracts/POMToken.sol\":9472:9474  to */\n  dup4\n    /* \"contracts/POMToken.sol\":9458:9475  isLimitExempt[to] */\n  0xffffffffffffffffffffffffffffffffffffffff\n  and\n  0xffffffffffffffffffffffffffffffffffffffff\n  and\n  dup2\n  mstore\n  0x20\n  add\n  swap1\n  dup2\n  mstore\n  0x20\n  add\n  0x00\n  keccak256\n  0x00\n  swap1\n  sload\n  swap1\n  0x0100\n  exp\n  swap1\n  div\n  0xff\n  and\n    /* \"contracts/POMToken.sol\":9435:9475  isLimitExempt[from] || isLimitExempt[to] */\ntag_68:\n    /* \"contracts/POMToken.sol\":9410:9532  require(... */\n  tag_69\n  jumpi\n  mload(0x40)\n  0x08c379a000000000000000000000000000000000000000000000000000000000\n  dup2\n  mstore\n  0x04\n  add\n  tag_70\n  swap1\n  tag_71\n  jump\t// in\ntag_70:\n  mload(0x40)\n  dup1\n  swap2\n  sub\n  swap1\n  revert\ntag_69:\n    /* \"contracts/POMToken.sol\":9333:9543  if (!tradingEnabled && from != address(0) && to != address(0)) {... */\ntag_67:\n    /* \"contracts/POMToken.sol\":9612:9626  limitsInEffect */\n  0x08\n  0x00\n  swap1\n  sload\n  swap1\n  0x0100\n  exp\n  swap1\n  div\n  0xff\n  and\n    /* \"contracts/POMToken.sol\":9612:9648  limitsInEffect && from != address(0) */\n  dup1\n  iszero\n  tag_72\n  jumpi\n  pop\n    /* \"contracts/POMToken.sol\":9646:9647  0 */\n  0x00\n    /* \"contracts/POMToken.sol\":9630:9648  from != address(0) */\n  0xffffffffffffffffffffffffffffffffffffffff\n  and\n    /* \"contracts/POMToken.sol\":9630:9634  from */\n  dup4\n    /* \"contracts/POMToken.sol\":9630:9648  from != address(0) */\n  0xffffffffffffffffffffffffffffffffffffffff\n  and\n  eq\n  iszero\n    /* \"contracts/POMToken.sol\":9612:9648  limitsInEffect && from != address(0) */\ntag_72:\n    /* \"contracts/POMToken.sol\":9612:9668  limitsInEffect && from != address(0) && to != address(0) */\n  dup1\n  iszero\n  tag_73\n  jumpi\n  pop\n    /* \"contracts/POMToken.sol\":9666:9667  0 */\n  0x00\n    /* \"contracts/POMToken.sol\":9652:9668  to != address(0) */\n  0xffffffffffffffffffffffffffffffffffffffff\n  and\n    /* \"contracts/POMToken.sol\":9652:9654  to */\n  dup3\n    /* \"contracts/POMToken.sol\":9652:9668  to != address(0) */\n  0xffffffffffffffffffffffffffffffffffffffff\n  and\n  eq\n  iszero\n    /* \"contracts/POMToken.sol\":9612:9668  limitsInEffect && from != address(0) && to != address(0) */\ntag_73:\n    /* \"contracts/POMToken.sol\":9608:10041  if (limitsInEffect && from != address(0) && to != address(0)) {... */\n  iszero\n  tag_74\n  jumpi\n    /* \"contracts/POMToken.sol\":9689:9702  isLimitExempt */\n  0x09\n    /* \"contracts/POMToken.sol\":9689:9708  isLimitExempt[from] */\n  0x00\n    /* \"contracts/POMToken.sol\":9703:9707  from */\n  dup5\n    /* \"contracts/POMToken.sol\":9689:9708  isLimitExempt[from] */\n  0xffffffffffffffffffffffffffffffffffffffff\n  and\n  0xffffffffffffffffffffffffffffffffffffffff\n  and\n  dup2\n  mstore\n  0x20\n  add\n  swap1\n  dup2\n  mstore\n  0x20\n  add\n  0x00\n  keccak256\n  0x00\n  swap1\n  sload\n  swap1\n  0x0100\n  exp\n  swap1\n  div\n  0xff\n  and\n    /* \"contracts/POMToken.sol\":9688:9708  !isLimitExempt[from] */\n  iszero\n    /* \"contracts/POMToken.sol\":9688:9730  !isLimitExempt[from] && !isLimitExempt[to] */\n  dup1\n  iszero\n  tag_75\n  jumpi\n  pop\n    /* \"contracts/POMToken.sol\":9713:9726  isLimitExempt */\n  0x09\n    /* \"contracts/POMToken.sol\":9713:9730  isLimitExempt[to] */\n  0x00\n    /* \"contracts/POMToken.sol\":9727:9729  to */\n  dup4\n    /* \"contracts/POMToken.sol\":9713:9730  isLimitExempt[to] */\n  0xffffffffffffffffffffffffffffffffffffffff\n  and\n  0xffffffffffffffffffffffffffffffffffffffff\n  and\n  dup2\n  mstore\n  0x20\n  add\n  swap1\n  dup2\n  mstore\n  0x20\n  add\n  0x00\n  keccak256\n  0x00\n  swap1\n  sload\n  swap1\n  0x0100\n  exp\n  swap1\n  div\n  0xff\n  and\n    /* \"contracts/POMToken.sol\":9712:9730  !isLimitExempt[to] */\n  iszero\n    /* \"contracts/POMToken.sol\":9688:9730  !isLimitExempt[from] && !isLimitExempt[to] */\ntag_75:\n    /* \"contracts/POMToken.sol\":9684:10031  if (!isLimitExempt[from] && !isLimitExempt[to]) {... */\n  iszero\n  tag_76\n  jumpi\n    /* \"contracts/POMToken.sol\":9768:9779  maxTxAmount */\n  sload(0x06)\n    /* \"contracts/POMToken.sol\":9758:9764  amount */\n  dup2\n    /* \"contracts/POMToken.sol\":9758:9779  amount <= maxTxAmount */\n  gt\n  iszero\n    /* \"contracts/POMToken.sol\":9750:9797  require(amount <= maxTxAmount, \"Exceeds maxTx\") */\n  tag_77\n  jumpi\n  mload(0x40)\n  0x08c379a000000000000000000000000000000000000000000000000000000000\n  dup2\n  mstore\n  0x04\n  add\n  tag_78\n  swap1\n  tag_79\n  jump\t// in\ntag_78:\n  mload(0x40)\n  dup1\n  swap2\n  sub\n  swap1\n  revert\ntag_77:\n    /* \"contracts/POMToken.sol\":9820:9829  isDexPair */\n  0x0a\n    /* \"contracts/POMToken.sol\":9820:9833  isDexPair[to] */\n  0x00\n    /* \"contracts/POMToken.sol\":9830:9832  to */\n  dup4\n    /* \"contracts/POMToken.sol\":9820:9833  isDexPair[to] */\n  0xffffffffffffffffffffffffffffffffffffffff\n  and\n  0xffffffffffffffffffffffffffffffffffffffff\n  and\n  dup2\n  mstore\n  0x20\n  add\n  swap1\n  dup2\n  mstore\n  0x20\n  add\n  0x00\n  keccak256\n  0x00\n  swap1\n  sload\n  swap1\n  0x0100\n  exp\n  swap1\n  div\n  0xff\n  and\n    /* \"contracts/POMToken.sol\":9815:10017  if (!isDexPair[to]) {... */\n  tag_80\n  jumpi\n    /* \"contracts/POMToken.sol\":9916:9931  maxWalletAmount */\n  sload(0x07)\n    /* \"contracts/POMToken.sol\":9906:9912  amount */\n  dup2\n    /* \"contracts/POMToken.sol\":9890:9903  balanceOf(to) */\n  tag_81\n    /* \"contracts/POMToken.sol\":9900:9902  to */\n  dup5\n    /* \"contracts/POMToken.sol\":9890:9899  balanceOf */\n  shl(0x20, tag_82)\n    /* \"contracts/POMToken.sol\":9890:9903  balanceOf(to) */\n  0x20\n  shr\n  jump\t// in\ntag_81:\n    /* \"contracts/POMToken.sol\":9890:9912  balanceOf(to) + amount */\n  tag_83\n  swap2\n  swap1\n  tag_84\n  jump\t// in\ntag_83:\n    /* \"contracts/POMToken.sol\":9890:9931  balanceOf(to) + amount <= maxWalletAmount */\n  gt\n  iszero\n    /* \"contracts/POMToken.sol\":9857:9998  require(... */\n  tag_85\n  jumpi\n  mload(0x40)\n  0x08c379a000000000000000000000000000000000000000000000000000000000\n  dup2\n  mstore\n  0x04\n  add\n  tag_86\n  swap1\n  tag_87\n  jump\t// in\ntag_86:\n  mload(0x40)\n  dup1\n  swap2\n  sub\n  swap1\n  revert\ntag_85:\n    /* \"contracts/POMToken.sol\":9815:10017  if (!isDexPair[to]) {... */\ntag_80:\n    /* \"contracts/POMToken.sol\":9684:10031  if (!isLimitExempt[from] && !isLimitExempt[to]) {... */\ntag_76:\n    /* \"contracts/POMToken.sol\":9608:10041  if (limitsInEffect && from != address(0) && to != address(0)) {... */\ntag_74:\n    /* \"contracts/POMToken.sol\":10108:10139  super._update(from, to, amount) */\n  tag_88\n    /* \"contracts/POMToken.sol\":10122:10126  from */\n  dup4\n    /* \"contracts/POMToken.sol\":10128:10130  to */\n  dup4\n    /* \"contracts/POMToken.sol\":10132:10138  amount */\n  dup4\n    /* \"contracts/POMToken.sol\":10108:10121  super._update */\n  shl(0x20, tag_61)\n    /* \"contracts/POMToken.sol\":10108:10139  super._update(from, to, amount) */\n  0x20\n  shr\n  jump\t// in\ntag_88:\n    /* \"@openzeppelin/contracts/security/Pausable.sol\":1268:1269  _ */\ntag_56:\n    /* \"contracts/POMToken.sol\":8579:10146  function _update(... */\n  pop\n  pop\n  pop\n  jump\t// out\n    /* \"@openzeppelin/contracts/security/Pausable.sol\":1767:1873  function _requireNotPaused() internal view virtual {... */\ntag_55:\n    /* \"@openzeppelin/contracts/security/Pausable.sol\":1837:1845  paused() */\n  tag_90\n    /* \"@openzeppelin/contracts/security/Pausable.sol\":1837:1843  paused */\n  shl(0x20, tag_91)\n    /* \"@openzeppelin/contracts/security/Pausable.sol\":1837:1845  paused() */\n  0x20\n  shr\n  jump\t// in\ntag_90:\n    /* \"@openzeppelin/contracts/security/Pausable.sol\":1836:1845  !paused() */\n  iszero\n    /* \"@openzeppelin/contracts/security/Pausable.sol\":1828:1866  require(!paused(), \"Pausable: paused\") */\n  tag_92\n  jumpi\n  mload(0x40)\n  0x08c379a000000000000000000000000000000000000000000000000000000000\n  dup2\n  mstore\n  0x04\n  add\n  tag_93\n  swap1\n  tag_94\n  jump\t// in\ntag_93:\n  mload(0x40)\n  dup1\n  swap2\n  sub\n  swap1\n  revert\ntag_92:\n    /* \"@openzeppelin/contracts/security/Pausable.sol\":1767:1873  function _requireNotPaused() internal view virtual {... */\n  jump\t// out\n    /* \"@openzeppelin/contracts/token/ERC20/ERC20.sol\":5912:7019  function _update(address from, address to, uint256 value) internal virtual {... */\ntag_61:\n    /* \"@openzeppelin/contracts/token/ERC20/ERC20.sol\":6017:6018  0 */\n  0x00\n    /* \"@openzeppelin/contracts/token/ERC20/ERC20.sol\":6001:6019  from == address(0) */\n  0xffffffffffffffffffffffffffffffffffffffff\n  and\n    /* \"@openzeppelin/contracts/token/ERC20/ERC20.sol\":6001:6005  from */\n  dup4\n    /* \"@openzeppelin/contracts/token/ERC20/ERC20.sol\":6001:6019  from == address(0) */\n  0xffffffffffffffffffffffffffffffffffffffff\n  and\n  sub\n    /* \"@openzeppelin/contracts/token/ERC20/ERC20.sol\":5997:6537  if (from == address(0)) {... */\n  tag_96\n  jumpi\n    /* \"@openzeppelin/contracts/token/ERC20/ERC20.sol\":6153:6158  value */\n  dup1\n    /* \"@openzeppelin/contracts/token/ERC20/ERC20.sol\":6137:6149  _totalSupply */\n  0x02\n  0x00\n    /* \"@openzeppelin/contracts/token/ERC20/ERC20.sol\":6137:6158  _totalSupply += value */\n  dup3\n  dup3\n  sload\n  tag_97\n  swap2\n  swap1\n  tag_84\n  jump\t// in\ntag_97:\n  swap3\n  pop\n  pop\n  dup2\n  swap1\n  sstore\n  pop\n    /* \"@openzeppelin/contracts/token/ERC20/ERC20.sol\":5997:6537  if (from == address(0)) {... */\n  jump(tag_98)\ntag_96:\n    /* \"@openzeppelin/contracts/token/ERC20/ERC20.sol\":6189:6208  uint256 fromBalance */\n  0x00\n    /* \"@openzeppelin/contracts/token/ERC20/ERC20.sol\":6211:6220  _balances */\n  0x00\n    /* \"@openzeppelin/contracts/token/ERC20/ERC20.sol\":6211:6226  _balances[from] */\n  0x00\n    /* \"@openzeppelin/contracts/token/ERC20/ERC20.sol\":6221:6225  from */\n  dup6\n    /* \"@openzeppelin/contracts/token/ERC20/ERC20.sol\":6211:6226  _balances[from] */\n  0xffffffffffffffffffffffffffffffffffffffff\n  and\n  0xffffffffffffffffffffffffffffffffffffffff\n  and\n  dup2\n  mstore\n  0x20\n  add\n  swap1\n  dup2\n  mstore\n  0x20\n  add\n  0x00\n  keccak256\n  sload\n    /* \"@openzeppelin/contracts/token/ERC20/ERC20.sol\":6189:6226  uint256 fromBalance = _balances[from] */\n  swap1\n  pop\n    /* \"@openzeppelin/contracts/token/ERC20/ERC20.sol\":6258:6263  value */\n  dup2\n    /* \"@openzeppelin/contracts/token/ERC20/ERC20.sol\":6244:6255  fromBalance */\n  dup2\n    /* \"@openzeppelin/contracts/token/ERC20/ERC20.sol\":6244:6263  fromBalance < value */\n  lt\n    /* \"@openzeppelin/contracts/token/ERC20/ERC20.sol\":6240:6355  if (fromBalance < value) {... */\n  iszero\n  tag_99\n  jumpi\n    /* \"@openzeppelin/contracts/token/ERC20/ERC20.sol\":6315:6319  from */\n  dup4\n    /* \"@openzeppelin/contracts/token/ERC20/ERC20.sol\":6321:6332  fromBalance */\n  dup2\n    /* \"@openzeppelin/contracts/token/ERC20/ERC20.sol\":6334:6339  value */\n  dup4\n    /* \"@openzeppelin/contracts/token/ERC20/ERC20.sol\":6290:6340  ERC20InsufficientBalance(from, fromBalance, value) */\n  mload(0x40)\n  0xe450d38c00000000000000000000000000000000000000000000000000000000\n  dup2\n  mstore\n  0x04\n  add\n  tag_100\n  swap4\n  swap3\n  swap2\n  swap1\n  tag_101\n  jump\t// in\ntag_100:\n  mload(0x40)\n  dup1\n  swap2\n  sub\n  swap1\n  revert\n    /* \"@openzeppelin/contracts/token/ERC20/ERC20.sol\":6240:6355  if (fromBalance < value) {... */\ntag_99:\n    /* \"@openzeppelin/contracts/token/ERC20/ERC20.sol\":6507:6512  value */\n  dup2\n    /* \"@openzeppelin/contracts/token/ERC20/ERC20.sol\":6493:6504  fromBalance */\n  dup2\n    /* \"@openzeppelin/contracts/token/ERC20/ERC20.sol\":6493:6512  fromBalance - value */\n  sub\n    /* \"@openzeppelin/contracts/token/ERC20/ERC20.sol\":6475:6484  _balances */\n  0x00\n    /* \"@openzeppelin/contracts/token/ERC20/ERC20.sol\":6475:6490  _balances[from] */\n  0x00\n    /* \"@openzeppelin/contracts/token/ERC20/ERC20.sol\":6485:6489  from */\n  dup7\n    /* \"@openzeppelin/contracts/token/ERC20/ERC20.sol\":6475:6490  _balances[from] */\n  0xffffffffffffffffffffffffffffffffffffffff\n  and\n  0xffffffffffffffffffffffffffffffffffffffff\n  and\n  dup2\n  mstore\n  0x20\n  add\n  swap1\n  dup2\n  mstore\n  0x20\n  add\n  0x00\n  keccak256\n    /* \"@openzeppelin/contracts/token/ERC20/ERC20.sol\":6475:6512  _balances[from] = fromBalance - value */\n  dup2\n  swap1\n  sstore\n  pop\n    /* \"@openzeppelin/contracts/token/ERC20/ERC20.sol\":6175:6537  {... */\n  pop\n    /* \"@openzeppelin/contracts/token/ERC20/ERC20.sol\":5997:6537  if (from == address(0)) {... */\ntag_98:\n    /* \"@openzeppelin/contracts/token/ERC20/ERC20.sol\":6565:6566  0 */\n  0x00\n    /* \"@openzeppelin/contracts/token/ERC20/ERC20.sol\":6551:6567  to == address(0) */\n  0xffffffffffffffffffffffffffffffffffffffff\n  and\n    /* \"@openzeppelin/contracts/token/ERC20/ERC20.sol\":6551:6553  to */\n  dup3\n    /* \"@openzeppelin/contracts/token/ERC20/ERC20.sol\":6551:6567  to == address(0) */\n  0xffffffffffffffffffffffffffffffffffffffff\n  and\n  sub\n    /* \"@openzeppelin/contracts/token/ERC20/ERC20.sol\":6547:6972  if (to == address(0)) {... */\n  tag_102\n  jumpi\n    /* \"@openzeppelin/contracts/token/ERC20/ERC20.sol\":6730:6735  value */\n  dup1\n    /* \"@openzeppelin/contracts/token/ERC20/ERC20.sol\":6714:6726  _totalSupply */\n  0x02\n  0x00\n    /* \"@openzeppelin/contracts/token/ERC20/ERC20.sol\":6714:6735  _totalSupply -= value */\n  dup3\n  dup3\n  sload\n  sub\n  swap3\n  pop\n  pop\n  dup2\n  swap1\n  sstore\n  pop\n    /* \"@openzeppelin/contracts/token/ERC20/ERC20.sol\":6547:6972  if (to == address(0)) {... */\n  jump(tag_103)\ntag_102:\n    /* \"@openzeppelin/contracts/token/ERC20/ERC20.sol\":6942:6947  value */\n  dup1\n    /* \"@openzeppelin/contracts/token/ERC20/ERC20.sol\":6925:6934  _balances */\n  0x00\n    /* \"@openzeppelin/contracts/token/ERC20/ERC20.sol\":6925:6938  _balances[to] */\n  0x00\n    /* \"@openzeppelin/contracts/token/ERC20/ERC20.sol\":6935:6937  to */\n  dup5\n    /* \"@openzeppelin/contracts/token/ERC20/ERC20.sol\":6925:6938  _balances[to] */\n  0xffffffffffffffffffffffffffffffffffffffff\n  and\n  0xffffffffffffffffffffffffffffffffffffffff\n  and\n  dup2\n  mstore\n  0x20\n  add\n  swap1\n  dup2\n  mstore\n  0x20\n  add\n  0x00\n  keccak256\n  0x00\n    /* \"@openzeppelin/contracts/token/ERC20/ERC20.sol\":6925:6947  _balances[to] += value */\n  dup3\n  dup3\n  sload\n  add\n  swap3\n  pop\n  pop\n  dup2\n  swap1\n  sstore\n  pop\n    /* \"@openzeppelin/contracts/token/ERC20/ERC20.sol\":6547:6972  if (to == address(0)) {... */\ntag_103:\n    /* \"@openzeppelin/contracts/token/ERC20/ERC20.sol\":7002:7004  to */\n  dup2\n    /* \"@openzeppelin/contracts/token/ERC20/ERC20.sol\":6987:7012  Transfer(from, to, value) */\n  0xffffffffffffffffffffffffffffffffffffffff\n  and\n    /* \"@openzeppelin/contracts/token/ERC20/ERC20.sol\":6996:7000  from */\n  dup4\n    /* \"@openzeppelin/contracts/token/ERC20/ERC20.sol\":6987:7012  Transfer(from, to, value) */\n  0xffffffffffffffffffffffffffffffffffffffff\n  and\n  0xddf252ad1be2c89b69c2b068fc378daa952ba7f163c4a11628f55a4df523b3ef\n    /* \"@openzeppelin/contracts/token/ERC20/ERC20.sol\":7006:7011  value */\n  dup4\n    /* \"@openzeppelin/contracts/token/ERC20/ERC20.sol\":6987:7012  Transfer(from, to, value) */\n  mload(0x40)\n  tag_104\n  swap2\n  swap1\n  tag_105\n  jump\t// in\ntag_104:\n  mload(0x40)\n  dup1\n  swap2\n  sub\n  swap1\n  log3\n    /* \"@openzeppelin/contracts/token/ERC20/ERC20.sol\":5912:7019  function _update(address from, address to, uint256 value) internal virtual {... */\n  pop\n  pop\n  pop\n  jump\t// out\n    /* \"@openzeppelin/contracts/token/ERC20/ERC20.sol\":2933:3049  function balanceOf(address account) public view virtual returns (uint256) {... */\ntag_82:\n    /* \"@openzeppelin/contracts/token/ERC20/ERC20.sol\":2998:3005  uint256 */\n  0x00\n    /* \"@openzeppelin/contracts/token/ERC20/ERC20.sol\":3024:3033  _balances */\n  0x00\n    /* \"@openzeppelin/contracts/token/ERC20/ERC20.sol\":3024:3042  _balances[account] */\n  0x00\n    /* \"@openzeppelin/contracts/token/ERC20/ERC20.sol\":3034:3041  account */\n  dup4\n    /* \"@openzeppelin/contracts/token/ERC20/ERC20.sol\":3024:3042  _balances[account] */\n  0xffffffffffffffffffffffffffffffffffffffff\n  and\n  0xffffffffffffffffffffffffffffffffffffffff\n  and\n  dup2\n  mstore\n  0x20\n  add\n  swap1\n  dup2\n  mstore\n  0x20\n  add\n  0x00\n  keccak256\n  sload\n    /* \"@openzeppelin/contracts/token/ERC20/ERC20.sol\":3017:3042  return _balances[account] */\n  swap1\n  pop\n    /* \"@openzeppelin/contracts/token/ERC20/ERC20.sol\":2933:3049  function balanceOf(address account) public view virtual returns (uint256) {... */\n  swap2\n  swap1\n  pop\n  jump\t// out\n    /* \"@openzeppelin/contracts/security/Pausable.sol\":1615:1699  function paused() public view virtual returns (bool) {... */\ntag_91:\n    /* \"@openzeppelin/contracts/security/Pausable.sol\":1662:1666  bool */\n  0x00\n    /* \"@openzeppelin/contracts/security/Pausable.sol\":1685:1692  _paused */\n  0x05\n  0x14\n  swap1\n  sload\n  swap1\n  0x0100\n  exp\n  swap1\n  div\n  0xff\n  and\n    /* \"@openzeppelin/contracts/security/Pausable.sol\":1678:1692  return _paused */\n  swap1\n  pop\n    /* \"@openzeppelin/contracts/security/Pausable.sol\":1615:1699  function paused() public view virtual returns (bool) {... */\n  swap1\n  jump\t// out\n    /* \"#utility.yul\":7:106   */\ntag_108:\n    /* \"#utility.yul\":59:65   */\n  0x00\n    /* \"#utility.yul\":93:98   */\n  dup2\n    /* \"#utility.yul\":87:99   */\n  mload\n    /* \"#utility.yul\":77:99   */\n  swap1\n  pop\n    /* \"#utility.yul\":7:106   */\n  swap2\n  swap1\n  pop\n  jump\t// out\n    /* \"#utility.yul\":112:292   */\ntag_109:\n    /* \"#utility.yul\":160:237   */\n  0x4e487b7100000000000000000000000000000000000000000000000000000000\n    /* \"#utility.yul\":157:158   */\n  0x00\n    /* \"#utility.yul\":150:238   */\n  mstore\n    /* \"#utility.yul\":257:261   */\n  0x41\n    /* \"#utility.yul\":254:255   */\n  0x04\n    /* \"#utility.yul\":247:262   */\n  mstore\n    /* \"#utility.yul\":281:285   */\n  0x24\n    /* \"#utility.yul\":278:279   */\n  0x00\n    /* \"#utility.yul\":271:286   */\n  revert\n    /* \"#utility.yul\":298:478   */\ntag_110:\n    /* \"#utility.yul\":346:423   */\n  0x4e487b7100000000000000000000000000000000000000000000000000000000\n    /* \"#utility.yul\":343:344   */\n  0x00\n    /* \"#utility.yul\":336:424   */\n  mstore\n    /* \"#utility.yul\":443:447   */\n  0x22\n    /* \"#utility.yul\":440:441   */\n  0x04\n    /* \"#utility.yul\":433:448   */\n  mstore\n    /* \"#utility.yul\":467:471   */\n  0x24\n    /* \"#utility.yul\":464:465   */\n  0x00\n    /* \"#utility.yul\":457:472   */\n  revert\n    /* \"#utility.yul\":484:804   */\ntag_111:\n    /* \"#utility.yul\":528:534   */\n  0x00\n    /* \"#utility.yul\":565:566   */\n  0x02\n    /* \"#utility.yul\":559:563   */\n  dup3\n    /* \"#utility.yul\":555:567   */\n  div\n    /* \"#utility.yul\":545:567   */\n  swap1\n  pop\n    /* \"#utility.yul\":612:613   */\n  0x01\n    /* \"#utility.yul\":606:610   */\n  dup3\n    /* \"#utility.yul\":602:614   */\n  and\n    /* \"#utility.yul\":633:651   */\n  dup1\n    /* \"#utility.yul\":623:704   */\n  tag_152\n  jumpi\n    /* \"#utility.yul\":689:693   */\n  0x7f\n    /* \"#utility.yul\":681:687   */\n  dup3\n    /* \"#utility.yul\":677:694   */\n  and\n    /* \"#utility.yul\":667:694   */\n  swap2\n  pop\n    /* \"#utility.yul\":623:704   */\ntag_152:\n    /* \"#utility.yul\":751:753   */\n  0x20\n    /* \"#utility.yul\":743:749   */\n  dup3\n    /* \"#utility.yul\":740:754   */\n  lt\n    /* \"#utility.yul\":720:738   */\n  dup2\n    /* \"#utility.yul\":717:755   */\n  sub\n    /* \"#utility.yul\":714:798   */\n  tag_153\n  jumpi\n    /* \"#utility.yul\":770:788   */\n  tag_154\n  tag_110\n  jump\t// in\ntag_154:\n    /* \"#utility.yul\":714:798   */\ntag_153:\n    /* \"#utility.yul\":535:804   */\n  pop\n    /* \"#utility.yul\":484:804   */\n  swap2\n  swap1\n  pop\n  jump\t// out\n    /* \"#utility.yul\":810:951   */\ntag_112:\n    /* \"#utility.yul\":859:863   */\n  0x00\n    /* \"#utility.yul\":882:885   */\n  dup2\n    /* \"#utility.yul\":874:885   */\n  swap1\n  pop\n    /* \"#utility.yul\":905:908   */\n  dup2\n    /* \"#utility.yul\":902:903   */\n  0x00\n    /* \"#utility.yul\":895:909   */\n  mstore\n    /* \"#utility.yul\":939:943   */\n  0x20\n    /* \"#utility.yul\":936:937   */\n  0x00\n    /* \"#utility.yul\":926:944   */\n  keccak256\n    /* \"#utility.yul\":918:944   */\n  swap1\n  pop\n    /* \"#utility.yul\":810:951   */\n  swap2\n  swap1\n  pop\n  jump\t// out\n    /* \"#utility.yul\":957:1050   */\ntag_113:\n    /* \"#utility.yul\":994:1000   */\n  0x00\n    /* \"#utility.yul\":1041:1043   */\n  0x20\n    /* \"#utility.yul\":1036:1038   */\n  0x1f\n    /* \"#utility.yul\":1029:1034   */\n  dup4\n    /* \"#utility.yul\":1025:1039   */\n  add\n    /* \"#utility.yul\":1021:1044   */\n  div\n    /* \"#utility.yul\":1011:1044   */\n  swap1\n  pop\n    /* \"#utility.yul\":957:1050   */\n  swap2\n  swap1\n  pop\n  jump\t// out\n    /* \"#utility.yul\":1056:1163   */\ntag_114:\n    /* \"#utility.yul\":1100:1108   */\n  0x00\n    /* \"#utility.yul\":1150:1155   */\n  dup3\n    /* \"#utility.yul\":1144:1148   */\n  dup3\n    /* \"#utility.yul\":1140:1156   */\n  shl\n    /* \"#utility.yul\":1119:1156   */\n  swap1\n  pop\n    /* \"#utility.yul\":1056:1163   */\n  swap3\n  swap2\n  pop\n  pop\n  jump\t// out\n    /* \"#utility.yul\":1169:1562   */\ntag_115:\n    /* \"#utility.yul\":1238:1244   */\n  0x00\n    /* \"#utility.yul\":1288:1289   */\n  0x08\n    /* \"#utility.yul\":1276:1286   */\n  dup4\n    /* \"#utility.yul\":1272:1290   */\n  mul\n    /* \"#utility.yul\":1311:1408   */\n  tag_159\n    /* \"#utility.yul\":1341:1407   */\n  0xffffffffffffffffffffffffffffffffffffffffffffffffffffffffffffffff\n    /* \"#utility.yul\":1330:1339   */\n  dup3\n    /* \"#utility.yul\":1311:1408   */\n  tag_114\n  jump\t// in\ntag_159:\n    /* \"#utility.yul\":1429:1468   */\n  tag_160\n    /* \"#utility.yul\":1459:1467   */\n  dup7\n    /* \"#utility.yul\":1448:1457   */\n  dup4\n    /* \"#utility.yul\":1429:1468   */\n  tag_114\n  jump\t// in\ntag_160:\n    /* \"#utility.yul\":1417:1468   */\n  swap6\n  pop\n    /* \"#utility.yul\":1501:1505   */\n  dup1\n    /* \"#utility.yul\":1497:1506   */\n  not\n    /* \"#utility.yul\":1490:1495   */\n  dup5\n    /* \"#utility.yul\":1486:1507   */\n  and\n    /* \"#utility.yul\":1477:1507   */\n  swap4\n  pop\n    /* \"#utility.yul\":1550:1554   */\n  dup1\n    /* \"#utility.yul\":1540:1548   */\n  dup7\n    /* \"#utility.yul\":1536:1555   */\n  and\n    /* \"#utility.yul\":1529:1534   */\n  dup5\n    /* \"#utility.yul\":1526:1556   */\n  or\n    /* \"#utility.yul\":1516:1556   */\n  swap3\n  pop\n    /* \"#utility.yul\":1245:1562   */\n  pop\n  pop\n    /* \"#utility.yul\":1169:1562   */\n  swap4\n  swap3\n  pop\n  pop\n  pop\n  jump\t// out\n    /* \"#utility.yul\":1568:1645   */\ntag_116:\n    /* \"#utility.yul\":1605:1612   */\n  0x00\n    /* \"#utility.yul\":1634:1639   */\n  dup2\n    /* \"#utility.yul\":1623:1639   */\n  swap1\n  pop\n    /* \"#utility.yul\":1568:1645   */\n  swap2\n  swap1\n  pop\n  jump\t// out\n    /* \"#utility.yul\":1651:1711   */\ntag_117:\n    /* \"#utility.yul\":1679:1682   */\n  0x00\n    /* \"#utility.yul\":1700:1705   */\n  dup2\n    /* \"#utility.yul\":1693:1705   */\n  swap1\n  pop\n    /* \"#utility.yul\":1651:1711   */\n  swap2\n  swap1\n  pop\n  jump\t// out\n    /* \"#utility.yul\":1717:1859   */\ntag_118:\n    /* \"#utility.yul\":1767:1776   */\n  0x00\n    /* \"#utility.yul\":1800:1853   */\n  tag_164\n    /* \"#utility.yul\":1818:1852   */\n  tag_165\n    /* \"#utility.yul\":1827:1851   */\n  tag_166\n    /* \"#utility.yul\":1845:1850   */\n  dup5\n    /* \"#utility.yul\":1827:1851   */\n  tag_116\n  jump\t// in\ntag_166:\n    /* \"#utility.yul\":1818:1852   */\n  tag_117\n  jump\t// in\ntag_165:\n    /* \"#utility.yul\":1800:1853   */\n  tag_116\n  jump\t// in\ntag_164:\n    /* \"#utility.yul\":1787:1853   */\n  swap1\n  pop\n    /* \"#utility.yul\":1717:1859   */\n  swap2\n  swap1\n  pop\n  jump\t// out\n    /* \"#utility.yul\":1865:1940   */\ntag_119:\n    /* \"#utility.yul\":1908:1911   */\n  0x00\n    /* \"#utility.yul\":1929:1934   */\n  dup2\n    /* \"#utility.yul\":1922:1934   */\n  swap1\n  pop\n    /* \"#utility.yul\":1865:1940   */\n  swap2\n  swap1\n  pop\n  jump\t// out\n    /* \"#utility.yul\":1946:2215   */\ntag_120:\n    /* \"#utility.yul\":2056:2095   */\n  tag_169\n    /* \"#utility.yul\":2087:2094   */\n  dup4\n    /* \"#utility.yul\":2056:2095   */\n  tag_118\n  jump\t// in\ntag_169:\n    /* \"#utility.yul\":2117:2208   */\n  tag_170\n    /* \"#utility.yul\":2166:2207   */\n  tag_171\n    /* \"#utility.yul\":2190:2206   */\n  dup3\n    /* \"#utility.yul\":2166:2207   */\n  tag_119\n  jump\t// in\ntag_171:\n    /* \"#utility.yul\":2158:2164   */\n  dup5\n    /* \"#utility.yul\":2151:2155   */\n  dup5\n    /* \"#utility.yul\":2145:2156   */\n  sload\n    /* \"#utility.yul\":2117:2208   */\n  tag_115\n  jump\t// in\ntag_170:\n    /* \"#utility.yul\":2111:2115   */\n  dup3\n    /* \"#utility.yul\":2104:2209   */\n  sstore\n    /* \"#utility.yul\":2022:2215   */\n  pop\n    /* \"#utility.yul\":1946:2215   */\n  pop\n  pop\n  pop\n  jump\t// out\n    /* \"#utility.yul\":2221:2294   */\ntag_121:\n    /* \"#utility.yul\":2266:2269   */\n  0x00\n    /* \"#utility.yul\":2287:2288   */\n  0x00\n    /* \"#utility.yul\":2280:2288   */\n  swap1\n  pop\n    /* \"#utility.yul\":2221:2294   */\n  swap1\n  jump\t// out\n    /* \"#utility.yul\":2300:2489   */\ntag_122:\n    /* \"#utility.yul\":2377:2409   */\n  tag_174\n  tag_121\n  jump\t// in\ntag_174:\n    /* \"#utility.yul\":2418:2483   */\n  tag_175\n    /* \"#utility.yul\":2476:2482   */\n  dup2\n    /* \"#utility.yul\":2468:2474   */\n  dup5\n    /* \"#utility.yul\":2462:2466   */\n  dup5\n    /* \"#utility.yul\":2418:2483   */\n  tag_120\n  jump\t// in\ntag_175:\n    /* \"#utility.yul\":2353:2489   */\n  pop\n    /* \"#utility.yul\":2300:2489   */\n  pop\n  pop\n  jump\t// out\n    /* \"#utility.yul\":2495:2681   */\ntag_123:\n    /* \"#utility.yul\":2555:2675   */\ntag_177:\n    /* \"#utility.yul\":2572:2575   */\n  dup2\n    /* \"#utility.yul\":2565:2570   */\n  dup2\n    /* \"#utility.yul\":2562:2576   */\n  lt\n    /* \"#utility.yul\":2555:2675   */\n  iszero\n  tag_179\n  jumpi\n    /* \"#utility.yul\":2626:2665   */\n  tag_180\n    /* \"#utility.yul\":2663:2664   */\n  0x00\n    /* \"#utility.yul\":2656:2661   */\n  dup3\n    /* \"#utility.yul\":2626:2665   */\n  tag_122\n  jump\t// in\ntag_180:\n    /* \"#utility.yul\":2599:2600   */\n  0x01\n    /* \"#utility.yul\":2592:2597   */\n  dup2\n    /* \"#utility.yul\":2588:2601   */\n  add\n    /* \"#utility.yul\":2579:2601   */\n  swap1\n  pop\n    /* \"#utility.yul\":2555:2675   */\n  jump(tag_177)\ntag_179:\n    /* \"#utility.yul\":2495:2681   */\n  pop\n  pop\n  jump\t// out\n    /* \"#utility.yul\":2687:3230   */\ntag_124:\n    /* \"#utility.yul\":2788:2790   */\n  0x1f\n    /* \"#utility.yul\":2783:2786   */\n  dup3\n    /* \"#utility.yul\":2780:2791   */\n  gt\n    /* \"#utility.yul\":2777:3223   */\n  iszero\n  tag_182\n  jumpi\n    /* \"#utility.yul\":2822:2860   */\n  tag_183\n    /* \"#utility.yul\":2854:2859   */\n  dup2\n    /* \"#utility.yul\":2822:2860   */\n  tag_112\n  jump\t// in\ntag_183:\n    /* \"#utility.yul\":2906:2935   */\n  tag_184\n    /* \"#utility.yul\":2924:2934   */\n  dup5\n    /* \"#utility.yul\":2906:2935   */\n  tag_113\n  jump\t// in\ntag_184:\n    /* \"#utility.yul\":2896:2904   */\n  dup2\n    /* \"#utility.yul\":2892:2936   */\n  add\n    /* \"#utility.yul\":3089:3091   */\n  0x20\n    /* \"#utility.yul\":3077:3087   */\n  dup6\n    /* \"#utility.yul\":3074:3092   */\n  lt\n    /* \"#utility.yul\":3071:3120   */\n  iszero\n  tag_185\n  jumpi\n    /* \"#utility.yul\":3110:3118   */\n  dup2\n    /* \"#utility.yul\":3095:3118   */\n  swap1\n  pop\n    /* \"#utility.yul\":3071:3120   */\ntag_185:\n    /* \"#utility.yul\":3133:3213   */\n  tag_186\n    /* \"#utility.yul\":3189:3211   */\n  tag_187\n    /* \"#utility.yul\":3207:3210   */\n  dup6\n    /* \"#utility.yul\":3189:3211   */\n  tag_113\n  jump\t// in\ntag_187:\n    /* \"#utility.yul\":3179:3187   */\n  dup4\n    /* \"#utility.yul\":3175:3212   */\n  add\n    /* \"#utility.yul\":3162:3173   */\n  dup3\n    /* \"#utility.yul\":3133:3213   */\n  tag_123\n  jump\t// in\ntag_186:\n    /* \"#utility.yul\":2792:3223   */\n  pop\n  pop\n    /* \"#utility.yul\":2777:3223   */\ntag_182:\n    /* \"#utility.yul\":2687:3230   */\n  pop\n  pop\n  pop\n  jump\t// out\n    /* \"#utility.yul\":3236:3353   */\ntag_125:\n    /* \"#utility.yul\":3290:3298   */\n  0x00\n    /* \"#utility.yul\":3340:3345   */\n  dup3\n    /* \"#utility.yul\":3334:3338   */\n  dup3\n    /* \"#utility.yul\":3330:3346   */\n  shr\n    /* \"#utility.yul\":3309:3346   */\n  swap1\n  pop\n    /* \"#utility.yul\":3236:3353   */\n  swap3\n  swap2\n  pop\n  pop\n  jump\t// out\n    /* \"#utility.yul\":3359:3528   */\ntag_126:\n    /* \"#utility.yul\":3403:3409   */\n  0x00\n    /* \"#utility.yul\":3436:3487   */\n  tag_190\n    /* \"#utility.yul\":3484:3485   */\n  0x00\n    /* \"#utility.yul\":3480:3486   */\n  not\n    /* \"#utility.yul\":3472:3477   */\n  dup5\n    /* \"#utility.yul\":3469:3470   */\n  0x08\n    /* \"#utility.yul\":3465:3478   */\n  mul\n    /* \"#utility.yul\":3436:3487   */\n  tag_125\n  jump\t// in\ntag_190:\n    /* \"#utility.yul\":3432:3488   */\n  not\n    /* \"#utility.yul\":3517:3521   */\n  dup1\n    /* \"#utility.yul\":3511:3515   */\n  dup4\n    /* \"#utility.yul\":3507:3522   */\n  and\n    /* \"#utility.yul\":3497:3522   */\n  swap2\n  pop\n    /* \"#utility.yul\":3410:3528   */\n  pop\n    /* \"#utility.yul\":3359:3528   */\n  swap3\n  swap2\n  pop\n  pop\n  jump\t// out\n    /* \"#utility.yul\":3533:3828   */\ntag_127:\n    /* \"#utility.yul\":3609:3613   */\n  0x00\n    /* \"#utility.yul\":3755:3784   */\n  tag_192\n    /* \"#utility.yul\":3780:3783   */\n  dup4\n    /* \"#utility.yul\":3774:3778   */\n  dup4\n    /* \"#utility.yul\":3755:3784   */\n  tag_126\n  jump\t// in\ntag_192:\n    /* \"#utility.yul\":3747:3784   */\n  swap2\n  pop\n    /* \"#utility.yul\":3817:3820   */\n  dup3\n    /* \"#utility.yul\":3814:3815   */\n  0x02\n    /* \"#utility.yul\":3810:3821   */\n  mul\n    /* \"#utility.yul\":3804:3808   */\n  dup3\n    /* \"#utility.yul\":3801:3822   */\n  or\n    /* \"#utility.yul\":3793:3822   */\n  swap1\n  pop\n    /* \"#utility.yul\":3533:3828   */\n  swap3\n  swap2\n  pop\n  pop\n  jump\t// out\n    /* \"#utility.yul\":3833:5228   */\ntag_8:\n    /* \"#utility.yul\":3950:3987   */\n  tag_194\n    /* \"#utility.yul\":3983:3986   */\n  dup3\n    /* \"#utility.yul\":3950:3987   */\n  tag_108\n  jump\t// in\ntag_194:\n    /* \"#utility.yul\":4052:4070   */\n  0xffffffffffffffff\n    /* \"#utility.yul\":4044:4050   */\n  dup2\n    /* \"#utility.yul\":4041:4071   */\n  gt\n    /* \"#utility.yul\":4038:4094   */\n  iszero\n  tag_195\n  jumpi\n    /* \"#utility.yul\":4074:4092   */\n  tag_196\n  tag_109\n  jump\t// in\ntag_196:\n    /* \"#utility.yul\":4038:4094   */\ntag_195:\n    /* \"#utility.yul\":4118:4156   */\n  tag_197\n    /* \"#utility.yul\":4150:4154   */\n  dup3\n    /* \"#utility.yul\":4144:4155   */\n  sload\n    /* \"#utility.yul\":4118:4156   */\n  tag_111\n  jump\t// in\ntag_197:\n    /* \"#utility.yul\":4203:4270   */\n  tag_198\n    /* \"#utility.yul\":4263:4269   */\n  dup3\n    /* \"#utility.yul\":4255:4261   */\n  dup3\n    /* \"#utility.yul\":4249:4253   */\n  dup6\n    /* \"#utility.yul\":4203:4270   */\n  tag_124\n  jump\t// in\ntag_198:\n    /* \"#utility.yul\":4297:4298   */\n  0x00\n    /* \"#utility.yul\":4321:4325   */\n  0x20\n    /* \"#utility.yul\":4308:4325   */\n  swap1\n  pop\n    /* \"#utility.yul\":4353:4355   */\n  0x1f\n    /* \"#utility.yul\":4345:4351   */\n  dup4\n    /* \"#utility.yul\":4342:4356   */\n  gt\n    /* \"#utility.yul\":4370:4371   */\n  0x01\n    /* \"#utility.yul\":4365:4983   */\n  dup2\n  eq\n  tag_200\n  jumpi\n    /* \"#utility.yul\":5027:5028   */\n  0x00\n    /* \"#utility.yul\":5044:5050   */\n  dup5\n    /* \"#utility.yul\":5041:5118   */\n  iszero\n  tag_201\n  jumpi\n    /* \"#utility.yul\":5093:5102   */\n  dup3\n    /* \"#utility.yul\":5088:5091   */\n  dup8\n    /* \"#utility.yul\":5084:5103   */\n  add\n    /* \"#utility.yul\":5078:5104   */\n  mload\n    /* \"#utility.yul\":5069:5104   */\n  swap1\n  pop\n    /* \"#utility.yul\":5041:5118   */\ntag_201:\n    /* \"#utility.yul\":5144:5211   */\n  tag_202\n    /* \"#utility.yul\":5204:5210   */\n  dup6\n    /* \"#utility.yul\":5197:5202   */\n  dup3\n    /* \"#utility.yul\":5144:5211   */\n  tag_127\n  jump\t// in\ntag_202:\n    /* \"#utility.yul\":5138:5142   */\n  dup7\n    /* \"#utility.yul\":5131:5212   */\n  sstore\n    /* \"#utility.yul\":5000:5222   */\n  pop\n    /* \"#utility.yul\":4335:5222   */\n  jump(tag_199)\n    /* \"#utility.yul\":4365:4983   */\ntag_200:\n    /* \"#utility.yul\":4417:4421   */\n  0x1f\n    /* \"#utility.yul\":4413:4422   */\n  not\n    /* \"#utility.yul\":4405:4411   */\n  dup5\n    /* \"#utility.yul\":4401:4423   */\n  and\n    /* \"#utility.yul\":4451:4488   */\n  tag_203\n    /* \"#utility.yul\":4483:4487   */\n  dup7\n    /* \"#utility.yul\":4451:4488   */\n  tag_112\n  jump\t// in\ntag_203:\n    /* \"#utility.yul\":4510:4511   */\n  0x00\n    /* \"#utility.yul\":4524:4732   */\ntag_204:\n    /* \"#utility.yul\":4538:4545   */\n  dup3\n    /* \"#utility.yul\":4535:4536   */\n  dup2\n    /* \"#utility.yul\":4532:4546   */\n  lt\n    /* \"#utility.yul\":4524:4732   */\n  iszero\n  tag_206\n  jumpi\n    /* \"#utility.yul\":4617:4626   */\n  dup5\n    /* \"#utility.yul\":4612:4615   */\n  dup10\n    /* \"#utility.yul\":4608:4627   */\n  add\n    /* \"#utility.yul\":4602:4628   */\n  mload\n    /* \"#utility.yul\":4594:4600   */\n  dup3\n    /* \"#utility.yul\":4587:4629   */\n  sstore\n    /* \"#utility.yul\":4668:4669   */\n  0x01\n    /* \"#utility.yul\":4660:4666   */\n  dup3\n    /* \"#utility.yul\":4656:4670   */\n  add\n    /* \"#utility.yul\":4646:4670   */\n  swap2\n  pop\n    /* \"#utility.yul\":4715:4717   */\n  0x20\n    /* \"#utility.yul\":4704:4713   */\n  dup6\n    /* \"#utility.yul\":4700:4718   */\n  add\n    /* \"#utility.yul\":4687:4718   */\n  swap5\n  pop\n    /* \"#utility.yul\":4561:4565   */\n  0x20\n    /* \"#utility.yul\":4558:4559   */\n  dup2\n    /* \"#utility.yul\":4554:4566   */\n  add\n    /* \"#utility.yul\":4549:4566   */\n  swap1\n  pop\n    /* \"#utility.yul\":4524:4732   */\n  jump(tag_204)\ntag_206:\n    /* \"#utility.yul\":4760:4766   */\n  dup7\n    /* \"#utility.yul\":4751:4758   */\n  dup4\n    /* \"#utility.yul\":4748:4767   */\n  lt\n    /* \"#utility.yul\":4745:4924   */\n  iszero\n  tag_207\n  jumpi\n    /* \"#utility.yul\":4818:4827   */\n  dup5\n    /* \"#utility.yul\":4813:4816   */\n  dup10\n    /* \"#utility.yul\":4809:4828   */\n  add\n    /* \"#utility.yul\":4803:4829   */\n  mload\n    /* \"#utility.yul\":4861:4909   */\n  tag_208\n    /* \"#utility.yul\":4903:4907   */\n  0x1f\n    /* \"#utility.yul\":4895:4901   */\n  dup10\n    /* \"#utility.yul\":4891:4908   */\n  and\n    /* \"#utility.yul\":4880:4889   */\n  dup3\n    /* \"#utility.yul\":4861:4909   */\n  tag_126\n  jump\t// in\ntag_208:\n    /* \"#utility.yul\":4853:4859   */\n  dup4\n    /* \"#utility.yul\":4846:4910   */\n  sstore\n    /* \"#utility.yul\":4768:4924   */\n  pop\n    /* \"#utility.yul\":4745:4924   */\ntag_207:\n    /* \"#utility.yul\":4970:4971   */\n  0x01\n    /* \"#utility.yul\":4966:4967   */\n  0x02\n    /* \"#utility.yul\":4958:4964   */\n  dup9\n    /* \"#utility.yul\":4954:4968   */\n  mul\n    /* \"#utility.yul\":4950:4972   */\n  add\n    /* \"#utility.yul\":4944:4948   */\n  dup9\n    /* \"#utility.yul\":4937:4973   */\n  sstore\n    /* \"#utility.yul\":4372:4983   */\n  pop\n  pop\n  pop\n    /* \"#utility.yul\":4335:5222   */\ntag_199:\n  pop\n    /* \"#utility.yul\":3925:5228   */\n  pop\n  pop\n  pop\n    /* \"#utility.yul\":3833:5228   */\n  pop\n  pop\n  jump\t// out\n    /* \"#utility.yul\":5234:5360   */\ntag_128:\n    /* \"#utility.yul\":5271:5278   */\n  0x00\n    /* \"#utility.yul\":5311:5353   */\n  0xffffffffffffffffffffffffffffffffffffffff\n    /* \"#utility.yul\":5304:5309   */\n  dup3\n    /* \"#utility.yul\":5300:5354   */\n  and\n    /* \"#utility.yul\":5289:5354   */\n  swap1\n  pop\n    /* \"#utility.yul\":5234:5360   */\n  swap2\n  swap1\n  pop\n  jump\t// out\n    /* \"#utility.yul\":5366:5462   */\ntag_129:\n    /* \"#utility.yul\":5403:5410   */\n  0x00\n    /* \"#utility.yul\":5432:5456   */\n  tag_211\n    /* \"#utility.yul\":5450:5455   */\n  dup3\n    /* \"#utility.yul\":5432:5456   */\n  tag_128\n  jump\t// in\ntag_211:\n    /* \"#utility.yul\":5421:5456   */\n  swap1\n  pop\n    /* \"#utility.yul\":5366:5462   */\n  swap2\n  swap1\n  pop\n  jump\t// out\n    /* \"#utility.yul\":5468:5586   */\ntag_130:\n    /* \"#utility.yul\":5555:5579   */\n  tag_213\n    /* \"#utility.yul\":5573:5578   */\n  dup2\n    /* \"#utility.yul\":5555:5579   */\n  tag_129\n  jump\t// in\ntag_213:\n    /* \"#utility.yul\":5550:5553   */\n  dup3\n    /* \"#utility.yul\":5543:5580   */\n  mstore\n    /* \"#utility.yul\":5468:5586   */\n  pop\n  pop\n  jump\t// out\n    /* \"#utility.yul\":5592:5814   */\ntag_13:\n    /* \"#utility.yul\":5685:5689   */\n  0x00\n    /* \"#utility.yul\":5723:5725   */\n  0x20\n    /* \"#utility.yul\":5712:5721   */\n  dup3\n    /* \"#utility.yul\":5708:5726   */\n  add\n    /* \"#utility.yul\":5700:5726   */\n  swap1\n  pop\n    /* \"#utility.yul\":5736:5807   */\n  tag_215\n    /* \"#utility.yul\":5804:5805   */\n  0x00\n    /* \"#utility.yul\":5793:5802   */\n  dup4\n    /* \"#utility.yul\":5789:5806   */\n  add\n    /* \"#utility.yul\":5780:5786   */\n  dup5\n    /* \"#utility.yul\":5736:5807   */\n  tag_130\n  jump\t// in\ntag_215:\n    /* \"#utility.yul\":5592:5814   */\n  swap3\n  swap2\n  pop\n  pop\n  jump\t// out\n    /* \"#utility.yul\":5820:6373   */\ntag_37:\n    /* \"#utility.yul\":5997:6001   */\n  0x00\n    /* \"#utility.yul\":6035:6038   */\n  0x80\n    /* \"#utility.yul\":6024:6033   */\n  dup3\n    /* \"#utility.yul\":6020:6039   */\n  add\n    /* \"#utility.yul\":6012:6039   */\n  swap1\n  pop\n    /* \"#utility.yul\":6049:6120   */\n  tag_217\n    /* \"#utility.yul\":6117:6118   */\n  0x00\n    /* \"#utility.yul\":6106:6115   */\n  dup4\n    /* \"#utility.yul\":6102:6119   */\n  add\n    /* \"#utility.yul\":6093:6099   */\n  dup8\n    /* \"#utility.yul\":6049:6120   */\n  tag_130\n  jump\t// in\ntag_217:\n    /* \"#utility.yul\":6130:6202   */\n  tag_218\n    /* \"#utility.yul\":6198:6200   */\n  0x20\n    /* \"#utility.yul\":6187:6196   */\n  dup4\n    /* \"#utility.yul\":6183:6201   */\n  add\n    /* \"#utility.yul\":6174:6180   */\n  dup7\n    /* \"#utility.yul\":6130:6202   */\n  tag_130\n  jump\t// in\ntag_218:\n    /* \"#utility.yul\":6212:6284   */\n  tag_219\n    /* \"#utility.yul\":6280:6282   */\n  0x40\n    /* \"#utility.yul\":6269:6278   */\n  dup4\n    /* \"#utility.yul\":6265:6283   */\n  add\n    /* \"#utility.yul\":6256:6262   */\n  dup6\n    /* \"#utility.yul\":6212:6284   */\n  tag_130\n  jump\t// in\ntag_219:\n    /* \"#utility.yul\":6294:6366   */\n  tag_220\n    /* \"#utility.yul\":6362:6364   */\n  0x60\n    /* \"#utility.yul\":6351:6360   */\n  dup4\n    /* \"#utility.yul\":6347:6365   */\n  add\n    /* \"#utility.yul\":6338:6344   */\n  dup5\n    /* \"#utility.yul\":6294:6366   */\n  tag_130\n  jump\t// in\ntag_220:\n    /* \"#utility.yul\":5820:6373   */\n  swap6\n  swap5\n  pop\n  pop\n  pop\n  pop\n  pop\n  jump\t// out\n    /* \"#utility.yul\":6379:6548   */\ntag_131:\n    /* \"#utility.yul\":6463:6474   */\n  0x00\n    /* \"#utility.yul\":6497:6503   */\n  dup3\n    /* \"#utility.yul\":6492:6495   */\n  dup3\n    /* \"#utility.yul\":6485:6504   */\n  mstore\n    /* \"#utility.yul\":6537:6541   */\n  0x20\n    /* \"#utility.yul\":6532:6535   */\n  dup3\n    /* \"#utility.yul\":6528:6542   */\n  add\n    /* \"#utility.yul\":6513:6542   */\n  swap1\n  pop\n    /* \"#utility.yul\":6379:6548   */\n  swap3\n  swap2\n  pop\n  pop\n  jump\t// out\n    /* \"#utility.yul\":6554:6728   */\ntag_132:\n    /* \"#utility.yul\":6694:6720   */\n  0x426173697320706f696e74732065786365656420313030250000000000000000\n    /* \"#utility.yul\":6690:6691   */\n  0x00\n    /* \"#utility.yul\":6682:6688   */\n  dup3\n    /* \"#utility.yul\":6678:6692   */\n  add\n    /* \"#utility.yul\":6671:6721   */\n  mstore\n    /* \"#utility.yul\":6554:6728   */\n  pop\n  jump\t// out\n    /* \"#utility.yul\":6734:7100   */\ntag_133:\n    /* \"#utility.yul\":6876:6879   */\n  0x00\n    /* \"#utility.yul\":6897:6964   */\n  tag_224\n    /* \"#utility.yul\":6961:6963   */\n  0x18\n    /* \"#utility.yul\":6956:6959   */\n  dup4\n    /* \"#utility.yul\":6897:6964   */\n  tag_131\n  jump\t// in\ntag_224:\n    /* \"#utility.yul\":6890:6964   */\n  swap2\n  pop\n    /* \"#utility.yul\":6973:7066   */\n  tag_225\n    /* \"#utility.yul\":7062:7065   */\n  dup3\n    /* \"#utility.yul\":6973:7066   */\n  tag_132\n  jump\t// in\ntag_225:\n    /* \"#utility.yul\":7091:7093   */\n  0x20\n    /* \"#utility.yul\":7086:7089   */\n  dup3\n    /* \"#utility.yul\":7082:7094   */\n  add\n    /* \"#utility.yul\":7075:7094   */\n  swap1\n  pop\n    /* \"#utility.yul\":6734:7100   */\n  swap2\n  swap1\n  pop\n  jump\t// out\n    /* \"#utility.yul\":7106:7525   */\ntag_43:\n    /* \"#utility.yul\":7272:7276   */\n  0x00\n    /* \"#utility.yul\":7310:7312   */\n  0x20\n    /* \"#utility.yul\":7299:7308   */\n  dup3\n    /* \"#utility.yul\":7295:7313   */\n  add\n    /* \"#utility.yul\":7287:7313   */\n  swap1\n  pop\n    /* \"#utility.yul\":7359:7368   */\n  dup2\n    /* \"#utility.yul\":7353:7357   */\n  dup2\n    /* \"#utility.yul\":7349:7369   */\n  sub\n    /* \"#utility.yul\":7345:7346   */\n  0x00\n    /* \"#utility.yul\":7334:7343   */\n  dup4\n    /* \"#utility.yul\":7330:7347   */\n  add\n    /* \"#utility.yul\":7323:7370   */\n  mstore\n    /* \"#utility.yul\":7387:7518   */\n  tag_227\n    /* \"#utility.yul\":7513:7517   */\n  dup2\n    /* \"#utility.yul\":7387:7518   */\n  tag_133\n  jump\t// in\ntag_227:\n    /* \"#utility.yul\":7379:7518   */\n  swap1\n  pop\n    /* \"#utility.yul\":7106:7525   */\n  swap2\n  swap1\n  pop\n  jump\t// out\n    /* \"#utility.yul\":7531:7711   */\ntag_134:\n    /* \"#utility.yul\":7579:7656   */\n  0x4e487b7100000000000000000000000000000000000000000000000000000000\n    /* \"#utility.yul\":7576:7577   */\n  0x00\n    /* \"#utility.yul\":7569:7657   */\n  mstore\n    /* \"#utility.yul\":7676:7680   */\n  0x11\n    /* \"#utility.yul\":7673:7674   */\n  0x04\n    /* \"#utility.yul\":7666:7681   */\n  mstore\n    /* \"#utility.yul\":7700:7704   */\n  0x24\n    /* \"#utility.yul\":7697:7698   */\n  0x00\n    /* \"#utility.yul\":7690:7705   */\n  revert\n    /* \"#utility.yul\":7717:8127   */\ntag_45:\n    /* \"#utility.yul\":7757:7764   */\n  0x00\n    /* \"#utility.yul\":7780:7800   */\n  tag_230\n    /* \"#utility.yul\":7798:7799   */\n  dup3\n    /* \"#utility.yul\":7780:7800   */\n  tag_116\n  jump\t// in\ntag_230:\n    /* \"#utility.yul\":7775:7800   */\n  swap2\n  pop\n    /* \"#utility.yul\":7814:7834   */\n  tag_231\n    /* \"#utility.yul\":7832:7833   */\n  dup4\n    /* \"#utility.yul\":7814:7834   */\n  tag_116\n  jump\t// in\ntag_231:\n    /* \"#utility.yul\":7809:7834   */\n  swap3\n  pop\n    /* \"#utility.yul\":7869:7870   */\n  dup3\n    /* \"#utility.yul\":7866:7867   */\n  dup3\n    /* \"#utility.yul\":7862:7871   */\n  mul\n    /* \"#utility.yul\":7891:7921   */\n  tag_232\n    /* \"#utility.yul\":7909:7920   */\n  dup2\n    /* \"#utility.yul\":7891:7921   */\n  tag_116\n  jump\t// in\ntag_232:\n    /* \"#utility.yul\":7880:7921   */\n  swap2\n  pop\n    /* \"#utility.yul\":8070:8071   */\n  dup3\n    /* \"#utility.yul\":8061:8068   */\n  dup3\n    /* \"#utility.yul\":8057:8072   */\n  div\n    /* \"#utility.yul\":8054:8055   */\n  dup5\n    /* \"#utility.yul\":8051:8073   */\n  eq\n    /* \"#utility.yul\":8031:8032   */\n  dup4\n    /* \"#utility.yul\":8024:8033   */\n  iszero\n    /* \"#utility.yul\":8004:8087   */\n  or\n    /* \"#utility.yul\":7981:8120   */\n  tag_233\n  jumpi\n    /* \"#utility.yul\":8100:8118   */\n  tag_234\n  tag_134\n  jump\t// in\ntag_234:\n    /* \"#utility.yul\":7981:8120   */\ntag_233:\n    /* \"#utility.yul\":7765:8127   */\n  pop\n    /* \"#utility.yul\":7717:8127   */\n  swap3\n  swap2\n  pop\n  pop\n  jump\t// out\n    /* \"#utility.yul\":8133:8313   */\ntag_135:\n    /* \"#utility.yul\":8181:8258   */\n  0x4e487b7100000000000000000000000000000000000000000000000000000000\n    /* \"#utility.yul\":8178:8179   */\n  0x00\n    /* \"#utility.yul\":8171:8259   */\n  mstore\n    /* \"#utility.yul\":8278:8282   */\n  0x12\n    /* \"#utility.yul\":8275:8276   */\n  0x04\n    /* \"#utility.yul\":8268:8283   */\n  mstore\n    /* \"#utility.yul\":8302:8306   */\n  0x24\n    /* \"#utility.yul\":8299:8300   */\n  0x00\n    /* \"#utility.yul\":8292:8307   */\n  revert\n    /* \"#utility.yul\":8319:8504   */\ntag_47:\n    /* \"#utility.yul\":8359:8360   */\n  0x00\n    /* \"#utility.yul\":8376:8396   */\n  tag_237\n    /* \"#utility.yul\":8394:8395   */\n  dup3\n    /* \"#utility.yul\":8376:8396   */\n  tag_116\n  jump\t// in\ntag_237:\n    /* \"#utility.yul\":8371:8396   */\n  swap2\n  pop\n    /* \"#utility.yul\":8410:8430   */\n  tag_238\n    /* \"#utility.yul\":8428:8429   */\n  dup4\n    /* \"#utility.yul\":8410:8430   */\n  tag_116\n  jump\t// in\ntag_238:\n    /* \"#utility.yul\":8405:8430   */\n  swap3\n  pop\n    /* \"#utility.yul\":8449:8450   */\n  dup3\n    /* \"#utility.yul\":8439:8474   */\n  tag_239\n  jumpi\n    /* \"#utility.yul\":8454:8472   */\n  tag_240\n  tag_135\n  jump\t// in\ntag_240:\n    /* \"#utility.yul\":8439:8474   */\ntag_239:\n    /* \"#utility.yul\":8496:8497   */\n  dup3\n    /* \"#utility.yul\":8493:8494   */\n  dup3\n    /* \"#utility.yul\":8489:8498   */\n  div\n    /* \"#utility.yul\":8484:8498   */\n  swap1\n  pop\n    /* \"#utility.yul\":8319:8504   */\n  swap3\n  swap2\n  pop\n  pop\n  jump\t// out\n    /* \"#utility.yul\":8510:8742   */\ntag_136:\n    /* \"#utility.yul\":8650:8684   */\n  0x43616e6e6f742073656e6420746f6b656e7320746f20746f6b656e20636f6e74\n    /* \"#utility.yul\":8646:8647   */\n  0x00\n    /* \"#utility.yul\":8638:8644   */\n  dup3\n    /* \"#utility.yul\":8634:8648   */\n  add\n    /* \"#utility.yul\":8627:8685   */\n  mstore\n    /* \"#utility.yul\":8719:8734   */\n  0x72616374206469726563746c7900000000000000000000000000000000000000\n    /* \"#utility.yul\":8714:8716   */\n  0x20\n    /* \"#utility.yul\":8706:8712   */\n  dup3\n    /* \"#utility.yul\":8702:8717   */\n  add\n    /* \"#utility.yul\":8695:8735   */\n  mstore\n    /* \"#utility.yul\":8510:8742   */\n  pop\n  jump\t// out\n    /* \"#utility.yul\":8748:9114   */\ntag_137:\n    /* \"#utility.yul\":8890:8893   */\n  0x00\n    /* \"#utility.yul\":8911:8978   */\n  tag_243\n    /* \"#utility.yul\":8975:8977   */\n  0x2d\n    /* \"#utility.yul\":8970:8973   */\n  dup4\n    /* \"#utility.yul\":8911:8978   */\n  tag_131\n  jump\t// in\ntag_243:\n    /* \"#utility.yul\":8904:8978   */\n  swap2\n  pop\n    /* \"#utility.yul\":8987:9080   */\n  tag_244\n    /* \"#utility.yul\":9076:9079   */\n  dup3\n    /* \"#utility.yul\":8987:9080   */\n  tag_136\n  jump\t// in\ntag_244:\n    /* \"#utility.yul\":9105:9107   */\n  0x40\n    /* \"#utility.yul\":9100:9103   */\n  dup3\n    /* \"#utility.yul\":9096:9108   */\n  add\n    /* \"#utility.yul\":9089:9108   */\n  swap1\n  pop\n    /* \"#utility.yul\":8748:9114   */\n  swap2\n  swap1\n  pop\n  jump\t// out\n    /* \"#utility.yul\":9120:9539   */\ntag_64:\n    /* \"#utility.yul\":9286:9290   */\n  0x00\n    /* \"#utility.yul\":9324:9326   */\n  0x20\n    /* \"#utility.yul\":9313:9322   */\n  dup3\n    /* \"#utility.yul\":9309:9327   */\n  add\n    /* \"#utility.yul\":9301:9327   */\n  swap1\n  pop\n    /* \"#utility.yul\":9373:9382   */\n  dup2\n    /* \"#utility.yul\":9367:9371   */\n  dup2\n    /* \"#utility.yul\":9363:9383   */\n  sub\n    /* \"#utility.yul\":9359:9360   */\n  0x00\n    /* \"#utility.yul\":9348:9357   */\n  dup4\n    /* \"#utility.yul\":9344:9361   */\n  add\n    /* \"#utility.yul\":9337:9384   */\n  mstore\n    /* \"#utility.yul\":9401:9532   */\n  tag_246\n    /* \"#utility.yul\":9527:9531   */\n  dup2\n    /* \"#utility.yul\":9401:9532   */\n  tag_137\n  jump\t// in\ntag_246:\n    /* \"#utility.yul\":9393:9532   */\n  swap1\n  pop\n    /* \"#utility.yul\":9120:9539   */\n  swap2\n  swap1\n  pop\n  jump\t// out\n    /* \"#utility.yul\":9545:9718   */\ntag_138:\n    /* \"#utility.yul\":9685:9710   */\n  0x54726164696e67206e6f742079657420656e61626c6564000000000000000000\n    /* \"#utility.yul\":9681:9682   */\n  0x00\n    /* \"#utility.yul\":9673:9679   */\n  dup3\n    /* \"#utility.yul\":9669:9683   */\n  add\n    /* \"#utility.yul\":9662:9711   */\n  mstore\n    /* \"#utility.yul\":9545:9718   */\n  pop\n  jump\t// out\n    /* \"#utility.yul\":9724:10090   */\ntag_139:\n    /* \"#utility.yul\":9866:9869   */\n  0x00\n    /* \"#utility.yul\":9887:9954   */\n  tag_249\n    /* \"#utility.yul\":9951:9953   */\n  0x17\n    /* \"#utility.yul\":9946:9949   */\n  dup4\n    /* \"#utility.yul\":9887:9954   */\n  tag_131\n  jump\t// in\ntag_249:\n    /* \"#utility.yul\":9880:9954   */\n  swap2\n  pop\n    /* \"#utility.yul\":9963:10056   */\n  tag_250\n    /* \"#utility.yul\":10052:10055   */\n  dup3\n    /* \"#utility.yul\":9963:10056   */\n  tag_138\n  jump\t// in\ntag_250:\n    /* \"#utility.yul\":10081:10083   */\n  0x20\n    /* \"#utility.yul\":10076:10079   */\n  dup3\n    /* \"#utility.yul\":10072:10084   */\n  add\n    /* \"#utility.yul\":10065:10084   */\n  swap1\n  pop\n    /* \"#utility.yul\":9724:10090   */\n  swap2\n  swap1\n  pop\n  jump\t// out\n    /* \"#utility.yul\":10096:10515   */\ntag_71:\n    /* \"#utility.yul\":10262:10266   */\n  0x00\n    /* \"#utility.yul\":10300:10302   */\n  0x20\n    /* \"#utility.yul\":10289:10298   */\n  dup3\n    /* \"#utility.yul\":10285:10303   */\n  add\n    /* \"#utility.yul\":10277:10303   */\n  swap1\n  pop\n    /* \"#utility.yul\":10349:10358   */\n  dup2\n    /* \"#utility.yul\":10343:10347   */\n  dup2\n    /* \"#utility.yul\":10339:10359   */\n  sub\n    /* \"#utility.yul\":10335:10336   */\n  0x00\n    /* \"#utility.yul\":10324:10333   */\n  dup4\n    /* \"#utility.yul\":10320:10337   */\n  add\n    /* \"#utility.yul\":10313:10360   */\n  mstore\n    /* \"#utility.yul\":10377:10508   */\n  tag_252\n    /* \"#utility.yul\":10503:10507   */\n  dup2\n    /* \"#utility.yul\":10377:10508   */\n  tag_139\n  jump\t// in\ntag_252:\n    /* \"#utility.yul\":10369:10508   */\n  swap1\n  pop\n    /* \"#utility.yul\":10096:10515   */\n  swap2\n  swap1\n  pop\n  jump\t// out\n    /* \"#utility.yul\":10521:10684   */\ntag_140:\n    /* \"#utility.yul\":10661:10676   */\n  0x45786365656473206d6178547800000000000000000000000000000000000000\n    /* \"#utility.yul\":10657:10658   */\n  0x00\n    /* \"#utility.yul\":10649:10655   */\n  dup3\n    /* \"#utility.yul\":10645:10659   */\n  add\n    /* \"#utility.yul\":10638:10677   */\n  mstore\n    /* \"#utility.yul\":10521:10684   */\n  pop\n  jump\t// out\n    /* \"#utility.yul\":10690:11056   */\ntag_141:\n    /* \"#utility.yul\":10832:10835   */\n  0x00\n    /* \"#utility.yul\":10853:10920   */\n  tag_255\n    /* \"#utility.yul\":10917:10919   */\n  0x0d\n    /* \"#utility.yul\":10912:10915   */\n  dup4\n    /* \"#utility.yul\":10853:10920   */\n  tag_131\n  jump\t// in\ntag_255:\n    /* \"#utility.yul\":10846:10920   */\n  swap2\n  pop\n    /* \"#utility.yul\":10929:11022   */\n  tag_256\n    /* \"#utility.yul\":11018:11021   */\n  dup3\n    /* \"#utility.yul\":10929:11022   */\n  tag_140\n  jump\t// in\ntag_256:\n    /* \"#utility.yul\":11047:11049   */\n  0x20\n    /* \"#utility.yul\":11042:11045   */\n  dup3\n    /* \"#utility.yul\":11038:11050   */\n  add\n    /* \"#utility.yul\":11031:11050   */\n  swap1\n  pop\n    /* \"#utility.yul\":10690:11056   */\n  swap2\n  swap1\n  pop\n  jump\t// out\n    /* \"#utility.yul\":11062:11481   */\ntag_79:\n    /* \"#utility.yul\":11228:11232   */\n  0x00\n    /* \"#utility.yul\":11266:11268   */\n  0x20\n    /* \"#utility.yul\":11255:11264   */\n  dup3\n    /* \"#utility.yul\":11251:11269   */\n  add\n    /* \"#utility.yul\":11243:11269   */\n  swap1\n  pop\n    /* \"#utility.yul\":11315:11324   */\n  dup2\n    /* \"#utility.yul\":11309:11313   */\n  dup2\n    /* \"#utility.yul\":11305:11325   */\n  sub\n    /* \"#utility.yul\":11301:11302   */\n  0x00\n    /* \"#utility.yul\":11290:11299   */\n  dup4\n    /* \"#utility.yul\":11286:11303   */\n  add\n    /* \"#utility.yul\":11279:11326   */\n  mstore\n    /* \"#utility.yul\":11343:11474   */\n  tag_258\n    /* \"#utility.yul\":11469:11473   */\n  dup2\n    /* \"#utility.yul\":11343:11474   */\n  tag_141\n  jump\t// in\ntag_258:\n    /* \"#utility.yul\":11335:11474   */\n  swap1\n  pop\n    /* \"#utility.yul\":11062:11481   */\n  swap2\n  swap1\n  pop\n  jump\t// out\n    /* \"#utility.yul\":11487:11678   */\ntag_84:\n    /* \"#utility.yul\":11527:11530   */\n  0x00\n    /* \"#utility.yul\":11546:11566   */\n  tag_260\n    /* \"#utility.yul\":11564:11565   */\n  dup3\n    /* \"#utility.yul\":11546:11566   */\n  tag_116\n  jump\t// in\ntag_260:\n    /* \"#utility.yul\":11541:11566   */\n  swap2\n  pop\n    /* \"#utility.yul\":11580:11600   */\n  tag_261\n    /* \"#utility.yul\":11598:11599   */\n  dup4\n    /* \"#utility.yul\":11580:11600   */\n  tag_116\n  jump\t// in\ntag_261:\n    /* \"#utility.yul\":11575:11600   */\n  swap3\n  pop\n    /* \"#utility.yul\":11623:11624   */\n  dup3\n    /* \"#utility.yul\":11620:11621   */\n  dup3\n    /* \"#utility.yul\":11616:11625   */\n  add\n    /* \"#utility.yul\":11609:11625   */\n  swap1\n  pop\n    /* \"#utility.yul\":11644:11647   */\n  dup1\n    /* \"#utility.yul\":11641:11642   */\n  dup3\n    /* \"#utility.yul\":11638:11648   */\n  gt\n    /* \"#utility.yul\":11635:11671   */\n  iszero\n  tag_262\n  jumpi\n    /* \"#utility.yul\":11651:11669   */\n  tag_263\n  tag_134\n  jump\t// in\ntag_263:\n    /* \"#utility.yul\":11635:11671   */\ntag_262:\n    /* \"#utility.yul\":11487:11678   */\n  swap3\n  swap2\n  pop\n  pop\n  jump\t// out\n    /* \"#utility.yul\":11684:11851   */\ntag_142:\n    /* \"#utility.yul\":11824:11843   */\n  0x45786365656473206d617857616c6c6574000000000000000000000000000000\n    /* \"#utility.yul\":11820:11821   */\n  0x00\n    /* \"#utility.yul\":11812:11818   */\n  dup3\n    /* \"#utility.yul\":11808:11822   */\n  add\n    /* \"#utility.yul\":11801:11844   */\n  mstore\n    /* \"#utility.yul\":11684:11851   */\n  pop\n  jump\t// out\n    /* \"#utility.yul\":11857:12223   */\ntag_143:\n    /* \"#utility.yul\":11999:12002   */\n  0x00\n    /* \"#utility.yul\":12020:12087   */\n  tag_266\n    /* \"#utility.yul\":12084:12086   */\n  0x11\n    /* \"#utility.yul\":12079:12082   */\n  dup4\n    /* \"#utility.yul\":12020:12087   */\n  tag_131\n  jump\t// in\ntag_266:\n    /* \"#utility.yul\":12013:12087   */\n  swap2\n  pop\n    /* \"#utility.yul\":12096:12189   */\n  tag_267\n    /* \"#utility.yul\":12185:12188   */\n  dup3\n    /* \"#utility.yul\":12096:12189   */\n  tag_142\n  jump\t// in\ntag_267:\n    /* \"#utility.yul\":12214:12216   */\n  0x20\n    /* \"#utility.yul\":12209:12212   */\n  dup3\n    /* \"#utility.yul\":12205:12217   */\n  add\n    /* \"#utility.yul\":12198:12217   */\n  swap1\n  pop\n    /* \"#utility.yul\":11857:12223   */\n  swap2\n  swap1\n  pop\n  jump\t// out\n    /* \"#utility.yul\":12229:12648   */\ntag_87:\n    /* \"#utility.yul\":12395:12399   */\n  0x00\n    /* \"#utility.yul\":12433:12435   */\n  0x20\n    /* \"#utility.yul\":12422:12431   */\n  dup3\n    /* \"#utility.yul\":12418:12436   */\n  add\n    /* \"#utility.yul\":12410:12436   */\n  swap1\n  pop\n    /* \"#utility.yul\":12482:12491   */\n  dup2\n    /* \"#utility.yul\":12476:12480   */\n  dup2\n    /* \"#utility.yul\":12472:12492   */\n  sub\n    /* \"#utility.yul\":12468:12469   */\n  0x00\n    /* \"#utility.yul\":12457:12466   */\n  dup4\n    /* \"#utility.yul\":12453:12470   */\n  add\n    /* \"#utility.yul\":12446:12493   */\n  mstore\n    /* \"#utility.yul\":12510:12641   */\n  tag_269\n    /* \"#utility.yul\":12636:12640   */\n  dup2\n    /* \"#utility.yul\":12510:12641   */\n  tag_143\n  jump\t// in\ntag_269:\n    /* \"#utility.yul\":12502:12641   */\n  swap1\n  pop\n    /* \"#utility.yul\":12229:12648   */\n  swap2\n  swap1\n  pop\n  jump\t// out\n    /* \"#utility.yul\":12654:12820   */\ntag_144:\n    /* \"#utility.yul\":12794:12812   */\n  0x5061757361626c653a2070617573656400000000000000000000000000000000\n    /* \"#utility.yul\":12790:12791   */\n  0x00\n    /* \"#utility.yul\":12782:12788   */\n  dup3\n    /* \"#utility.yul\":12778:12792   */\n  add\n    /* \"#utility.yul\":12771:12813   */\n  mstore\n    /* \"#utility.yul\":12654:12820   */\n  pop\n  jump\t// out\n    /* \"#utility.yul\":12826:13192   */\ntag_145:\n    /* \"#utility.yul\":12968:12971   */\n  0x00\n    /* \"#utility.yul\":12989:13056   */\n  tag_272\n    /* \"#utility.yul\":13053:13055   */\n  0x10\n    /* \"#utility.yul\":13048:13051   */\n  dup4\n    /* \"#utility.yul\":12989:13056   */\n  tag_131\n  jump\t// in\ntag_272:\n    /* \"#utility.yul\":12982:13056   */\n  swap2\n  pop\n    /* \"#utility.yul\":13065:13158   */\n  tag_273\n    /* \"#utility.yul\":13154:13157   */\n  dup3\n    /* \"#utility.yul\":13065:13158   */\n  tag_144\n  jump\t// in\ntag_273:\n    /* \"#utility.yul\":13183:13185   */\n  0x20\n    /* \"#utility.yul\":13178:13181   */\n  dup3\n    /* \"#utility.yul\":13174:13186   */\n  add\n    /* \"#utility.yul\":13167:13186   */\n  swap1\n  pop\n    /* \"#utility.yul\":12826:13192   */\n  swap2\n  swap1\n  pop\n  jump\t// out\n    /* \"#utility.yul\":13198:13617   */\ntag_94:\n    /* \"#utility.yul\":13364:13368   */\n  0x00\n    /* \"#utility.yul\":13402:13404   */\n  0x20\n    /* \"#utility.yul\":13391:13400   */\n  dup3\n    /* \"#utility.yul\":13387:13405   */\n  add\n    /* \"#utility.yul\":13379:13405   */\n  swap1\n  pop\n    /* \"#utility.yul\":13451:13460   */\n  dup2\n    /* \"#utility.yul\":13445:13449   */\n  dup2\n    /* \"#utility.yul\":13441:13461   */\n  sub\n    /* \"#utility.yul\":13437:13438   */\n  0x00\n    /* \"#utility.yul\":13426:13435   */\n  dup4\n    /* \"#utility.yul\":13422:13439   */\n  add\n    /* \"#utility.yul\":13415:13462   */\n  mstore\n    /* \"#utility.yul\":13479:13610   */\n  tag_275\n    /* \"#utility.yul\":13605:13609   */\n  dup2\n    /* \"#utility.yul\":13479:13610   */\n  tag_145\n  jump\t// in\ntag_275:\n    /* \"#utility.yul\":13471:13610   */\n  swap1\n  pop\n    /* \"#utility.yul\":13198:13617   */\n  swap2\n  swap1\n  pop\n  jump\t// out\n    /* \"#utility.yul\":13623:13741   */\ntag_146:\n    /* \"#utility.yul\":13710:13734   */\n  tag_277\n    /* \"#utility.yul\":13728:13733   */\n  dup2\n    /* \"#utility.yul\":13710:13734   */\n  tag_116\n  jump\t// in\ntag_277:\n    /* \"#utility.yul\":13705:13708   */\n  dup3\n    /* \"#utility.yul\":13698:13735   */\n  mstore\n    /* \"#utility.yul\":13623:13741   */\n  pop\n  pop\n  jump\t// out\n    /* \"#utility.yul\":13747:14189   */\ntag_101:\n    /* \"#utility.yul\":13896:13900   */\n  0x00\n    /* \"#utility.yul\":13934:13936   */\n  0x60\n    /* \"#utility.yul\":13923:13932   */\n  dup3\n    /* \"#utility.yul\":13919:13937   */\n  add\n    /* \"#utility.yul\":13911:13937   */\n  swap1\n  pop\n    /* \"#utility.yul\":13947:14018   */\n  tag_279\n    /* \"#utility.yul\":14015:14016   */\n  0x00\n    /* \"#utility.yul\":14004:14013   */\n  dup4\n    /* \"#utility.yul\":14000:14017   */\n  add\n    /* \"#utility.yul\":13991:13997   */\n  dup7\n    /* \"#utility.yul\":13947:14018   */\n  tag_130\n  jump\t// in\ntag_279:\n    /* \"#utility.yul\":14028:14100   */\n  tag_280\n    /* \"#utility.yul\":14096:14098   */\n  0x20\n    /* \"#utility.yul\":14085:14094   */\n  dup4\n    /* \"#utility.yul\":14081:14099   */\n  add\n    /* \"#utility.yul\":14072:14078   */\n  dup6\n    /* \"#utility.yul\":14028:14100   */\n  tag_146\n  jump\t// in\ntag_280:\n    /* \"#utility.yul\":14110:14182   */\n  tag_281\n    /* \"#utility.yul\":14178:14180   */\n  0x40\n    /* \"#utility.yul\":14167:14176   */\n  dup4\n    /* \"#utility.yul\":14163:14181   */\n  add\n    /* \"#utility.yul\":14154:14160   */\n  dup5\n    /* \"#utility.yul\":14110:14182   */\n  tag_146\n  jump\t// in\ntag_281:\n    /* \"#utility.yul\":13747:14189   */\n  swap5\n  swap4\n  pop\n  pop\n  pop\n  pop\n  jump\t// out\n    /* \"#utility.yul\":14195:14417   */\ntag_105:\n    /* \"#utility.yul\":14288:14292   */\n  0x00\n    /* \"#utility.yul\":14326:14328   */\n  0x20\n    /* \"#utility.yul\":14315:14324   */\n  dup3\n    /* \"#utility.yul\":14311:14329   */\n  add\n    /* \"#utility.yul\":14303:14329   */\n  swap1\n  pop\n    /* \"#utility.yul\":14339:14410   */\n  tag_283\n    /* \"#utility.yul\":14407:14408   */\n  0x00\n    /* \"#utility.yul\":14396:14405   */\n  dup4\n    /* \"#utility.yul\":14392:14409   */\n  add\n    /* \"#utility.yul\":14383:14389   */\n  dup5\n    /* \"#utility.yul\":14339:14410   */\n  tag_146\n  jump\t// in\ntag_283:\n    /* \"#utility.yul\":14195:14417   */\n  swap3\n  swap2\n  pop\n  pop\n  jump\t// out\n    /* \"contracts/POMToken.sol\":736:10148  contract POMToken is ERC20, ERC20Burnable, Ownable, Pausable {... */\ntag_38:\n  dataSize(sub_0)\n  dup1\n  dataOffset(sub_0)\n  0x00\n  codecopy\n  0x00\n  return\nstop\n\nsub_0: assembly {\n        /* \"contracts/POMToken.sol\":736:10148  contract POMToken is ERC20, ERC20Burnable, Ownable, Pausable {... */\n      mstore(0x40, 0x80)\n      callvalue\n      dup1\n      iszero\n      tag_1\n      jumpi\n      revert(0x00, 0x00)\n    tag_1:\n      pop\n      jumpi(tag_2, lt(calldatasize, 0x04))\n      shr(0xe0, calldataload(0x00))\n      dup1\n      0x8456cb59\n      gt\n      tag_41\n      jumpi\n      dup1\n      0xb0c150af\n      gt\n      tag_42\n      jumpi\n      dup1\n      0xe55648f4\n      gt\n      tag_43\n      jumpi\n      dup1\n      0xe55648f4\n      eq\n      tag_36\n      jumpi\n      dup1\n      0xf2fde38b\n      eq\n      tag_37\n      jumpi\n      dup1\n      0xf545d07a\n      eq\n      tag_38\n      jumpi\n      dup1\n      0xf5736d4b\n      eq\n      tag_39\n      jumpi\n      dup1\n      0xfae36afb\n      eq\n      tag_40\n      jumpi\n      jump(tag_2)\n    tag_43:\n      dup1\n      0xb0c150af\n      eq\n      tag_31\n      jumpi\n      dup1\n      0xc6859d07\n      eq\n      tag_32\n      jumpi\n      dup1\n      0xd08ddc61\n      eq\n      tag_33\n      jumpi\n      dup1\n      0xd1f5c33b\n      eq\n      tag_34\n      jumpi\n      dup1\n      0xdd62ed3e\n      eq\n      tag_35\n      jumpi\n      jump(tag_2)\n    tag_42:\n      dup1\n      0x8da5cb5b\n      gt\n      tag_44\n      jumpi\n      dup1\n      0x8da5cb5b\n      eq\n      tag_26\n      jumpi\n      dup1\n      0x902d55a5\n      eq\n      tag_27\n      jumpi\n      dup1\n      0x95d89b41\n      eq\n      tag_28\n      jumpi\n      dup1\n      0xa9059cbb\n      eq\n      tag_29\n      jumpi\n      dup1\n      0xaa4bde28\n      eq\n      tag_30\n      jumpi\n      jump(tag_2)\n    tag_44:\n      dup1\n      0x8456cb59\n      eq\n      tag_22\n      jumpi\n      dup1\n      0x86c3b461\n      eq\n      tag_23\n      jumpi\n      dup1\n      0x8a8c523c\n      eq\n      tag_24\n      jumpi\n      dup1\n      0x8c0b5e22\n      eq\n      tag_25\n      jumpi\n      jump(tag_2)\n    tag_41:\n      dup1\n      0x40a24e6c\n      gt\n      tag_45\n      jumpi\n      dup1\n      0x5c975abb\n      gt\n      tag_46\n      jumpi\n      dup1\n      0x5c975abb\n      eq\n      tag_17\n      jumpi\n      dup1\n      0x5daf3146\n      eq\n      tag_18\n      jumpi\n      dup1\n      0x70a08231\n      eq\n      tag_19\n      jumpi\n      dup1\n      0x715018a6\n      eq\n      tag_20\n      jumpi\n      dup1\n      0x79cc6790\n      eq\n      tag_21\n      jumpi\n      jump(tag_2)\n    tag_46:\n      dup1\n      0x40a24e6c\n      eq\n      tag_12\n      jumpi\n      dup1\n      0x42966c68\n      eq\n      tag_13\n      jumpi\n      dup1\n      0x4a62bb65\n      eq\n      tag_14\n      jumpi\n      dup1\n      0x4ada218b\n      eq\n      tag_15\n      jumpi\n      dup1\n      0x539ff41a\n      eq\n      tag_16\n      jumpi\n      jump(tag_2)\n    tag_45:\n      dup1\n      0x2d04f820\n      gt\n      tag_47\n      jumpi\n      dup1\n      0x2d04f820\n      eq\n      tag_7\n      jumpi\n      dup1\n      0x313ce567\n      eq\n      tag_8\n      jumpi\n      dup1\n      0x3f2a5540\n      eq\n      tag_9\n      jumpi\n      dup1\n      0x3f4ba83a\n      eq\n      tag_10\n      jumpi\n      dup1\n      0x40009927\n      eq\n      tag_11\n      jumpi\n      jump(tag_2)\n    tag_47:\n      dup1\n      0x06fdde03\n      eq\n      tag_3\n      jumpi\n      dup1\n      0x095ea7b3\n      eq\n      tag_4\n      jumpi\n      dup1\n      0x18160ddd\n      eq\n      tag_5\n      jumpi\n      dup1\n      0x23b872dd\n      eq\n      tag_6\n      jumpi\n    tag_2:\n      revert(0x00, 0x00)\n        /* \"@openzeppelin/contracts/token/ERC20/ERC20.sol\":1760:1849  function name() public view virtual returns (string memory) {... */\n    tag_3:\n      tag_48\n      tag_49\n      jump\t// in\n    tag_48:\n      mload(0x40)\n      tag_50\n      swap2\n      swap1\n      tag_51\n      jump\t// in\n    tag_50:\n      mload(0x40)\n      dup1\n      swap2\n      sub\n      swap1\n      return\n        /* \"@openzeppelin/contracts/token/ERC20/ERC20.sol\":3902:4088  function approve(address spender, uint256 value) public virtual returns (bool) {... */\n    tag_4:\n      tag_52\n      0x04\n      dup1\n      calldatasize\n      sub\n      dup2\n      add\n      swap1\n      tag_53\n      swap2\n      swap1\n      tag_54\n      jump\t// in\n    tag_53:\n      tag_55\n      jump\t// in\n    tag_52:\n      mload(0x40)\n      tag_56\n      swap2\n      swap1\n      tag_57\n      jump\t// in\n    tag_56:\n      mload(0x40)\n      dup1\n      swap2\n      sub\n      swap1\n      return\n        /* \"@openzeppelin/contracts/token/ERC20/ERC20.sol\":2803:2900  function totalSupply() public view virtual returns (uint256) {... */\n    tag_5:\n      tag_58\n      tag_59\n      jump\t// in\n    tag_58:\n      mload(0x40)\n      tag_60\n      swap2\n      swap1\n      tag_61\n      jump\t// in\n    tag_60:\n      mload(0x40)\n      dup1\n      swap2\n      sub\n      swap1\n      return\n        /* \"@openzeppelin/contracts/token/ERC20/ERC20.sol\":4680:4924  function transferFrom(address from, address to, uint256 value) public virtual returns (bool) {... */\n    tag_6:\n      tag_62\n      0x04\n      dup1\n      calldatasize\n      sub\n      dup2\n      add\n      swap1\n      tag_63\n      swap2\n      swap1\n      tag_64\n      jump\t// in\n    tag_63:\n      tag_65\n      jump\t// in\n    tag_62:\n      mload(0x40)\n      tag_66\n      swap2\n      swap1\n      tag_57\n      jump\t// in\n    tag_66:\n      mload(0x40)\n      dup1\n      swap2\n      sub\n      swap1\n      return\n        /* \"contracts/POMToken.sol\":1770:1857  address public constant DEV_WALLET =... */\n    tag_7:\n      tag_67\n      tag_68\n      jump\t// in\n    tag_67:\n      mload(0x40)\n      tag_69\n      swap2\n      swap1\n      tag_70\n      jump\t// in\n    tag_69:\n      mload(0x40)\n      dup1\n      swap2\n      sub\n      swap1\n      return\n        /* \"@openzeppelin/contracts/token/ERC20/ERC20.sol\":2688:2770  function decimals() public view virtual returns (uint8) {... */\n    tag_8:\n      tag_71\n      tag_72\n      jump\t// in\n    tag_71:\n      mload(0x40)\n      tag_73\n      swap2\n      swap1\n      tag_74\n      jump\t// in\n    tag_73:\n      mload(0x40)\n      dup1\n      swap2\n      sub\n      swap1\n      return\n        /* \"contracts/POMToken.sol\":2554:2587  address public rewardsDistributor */\n    tag_9:\n      tag_75\n      tag_76\n      jump\t// in\n    tag_75:\n      mload(0x40)\n      tag_77\n      swap2\n      swap1\n      tag_70\n      jump\t// in\n    tag_77:\n      mload(0x40)\n      dup1\n      swap2\n      sub\n      swap1\n      return\n        /* \"contracts/POMToken.sol\":6629:6694  function unpause() external onlyOwner {... */\n    tag_10:\n      tag_78\n      tag_79\n      jump\t// in\n    tag_78:\n      stop\n        /* \"contracts/POMToken.sol\":1233:1274  mapping(address => bool) public isDexPair */\n    tag_11:\n      tag_80\n      0x04\n      dup1\n      calldatasize\n      sub\n      dup2\n      add\n      swap1\n      tag_81\n      swap2\n      swap1\n      tag_82\n      jump\t// in\n    tag_81:\n      tag_83\n      jump\t// in\n    tag_80:\n      mload(0x40)\n      tag_84\n      swap2\n      swap1\n      tag_57\n      jump\t// in\n    tag_84:\n      mload(0x40)\n      dup1\n      swap2\n      sub\n      swap1\n      return\n        /* \"contracts/POMToken.sol\":7532:7653  function setLimitExempt(address account, bool exempt) external onlyOwner {... */\n    tag_12:\n      tag_85\n      0x04\n      dup1\n      calldatasize\n      sub\n      dup2\n      add\n      swap1\n      tag_86\n      swap2\n      swap1\n      tag_87\n      jump\t// in\n    tag_86:\n      tag_88\n      jump\t// in\n    tag_85:\n      stop\n        /* \"@openzeppelin/contracts/token/ERC20/extensions/ERC20Burnable.sol\":618:705  function burn(uint256 value) public virtual {... */\n    tag_13:\n      tag_89\n      0x04\n      dup1\n      calldatasize\n      sub\n      dup2\n      add\n      swap1\n      tag_90\n      swap2\n      swap1\n      tag_91\n      jump\t// in\n    tag_90:\n      tag_92\n      jump\t// in\n    tag_89:\n      stop\n        /* \"contracts/POMToken.sol\":1102:1135  bool public limitsInEffect = true */\n    tag_14:\n      tag_93\n      tag_94\n      jump\t// in\n    tag_93:\n      mload(0x40)\n      tag_95\n      swap2\n      swap1\n      tag_57\n      jump\t// in\n    tag_95:\n      mload(0x40)\n      dup1\n      swap2\n      sub\n      swap1\n      return\n        /* \"contracts/POMToken.sol\":995:1028  bool public tradingEnabled = true */\n    tag_15:\n      tag_96\n      tag_97\n      jump\t// in\n    tag_96:\n      mload(0x40)\n      tag_98\n      swap2\n      swap1\n      tag_57\n      jump\t// in\n    tag_98:\n      mload(0x40)\n      dup1\n      swap2\n      sub\n      swap1\n      return\n        /* \"contracts/POMToken.sol\":2061:2153  address public constant ADVISORS_WALLET =... */\n    tag_16:\n      tag_99\n      tag_100\n      jump\t// in\n    tag_99:\n      mload(0x40)\n      tag_101\n      swap2\n      swap1\n      tag_70\n      jump\t// in\n    tag_101:\n      mload(0x40)\n      dup1\n      swap2\n      sub\n      swap1\n      return\n        /* \"@openzeppelin/contracts/security/Pausable.sol\":1615:1699  function paused() public view virtual returns (bool) {... */\n    tag_17:\n      tag_102\n      tag_103\n      jump\t// in\n    tag_102:\n      mload(0x40)\n      tag_104\n      swap2\n      swap1\n      tag_57\n      jump\t// in\n    tag_104:\n      mload(0x40)\n      dup1\n      swap2\n      sub\n      swap1\n      return\n        /* \"contracts/POMToken.sol\":1575:1667  address public constant TREASURY_WALLET =... */\n    tag_18:\n      tag_105\n      tag_106\n      jump\t// in\n    tag_105:\n      mload(0x40)\n      tag_107\n      swap2\n      swap1\n      tag_70\n      jump\t// in\n    tag_107:\n      mload(0x40)\n      dup1\n      swap2\n      sub\n      swap1\n      return\n        /* \"@openzeppelin/contracts/token/ERC20/ERC20.sol\":2933:3049  function balanceOf(address account) public view virtual returns (uint256) {... */\n    tag_19:\n      tag_108\n      0x04\n      dup1\n      calldatasize\n      sub\n      dup2\n      add\n      swap1\n      tag_109\n      swap2\n      swap1\n      tag_82\n      jump\t// in\n    tag_109:\n      tag_110\n      jump\t// in\n    tag_108:\n      mload(0x40)\n      tag_111\n      swap2\n      swap1\n      tag_61\n      jump\t// in\n    tag_111:\n      mload(0x40)\n      dup1\n      swap2\n      sub\n      swap1\n      return\n        /* \"@openzeppelin/contracts/access/Ownable.sol\":2293:2394  function renounceOwnership() public virtual onlyOwner {... */\n    tag_20:\n      tag_112\n      tag_113\n      jump\t// in\n    tag_112:\n      stop\n        /* \"@openzeppelin/contracts/token/ERC20/extensions/ERC20Burnable.sol\":1021:1179  function burnFrom(address account, uint256 value) public virtual {... */\n    tag_21:\n      tag_114\n      0x04\n      dup1\n      calldatasize\n      sub\n      dup2\n      add\n      swap1\n      tag_115\n      swap2\n      swap1\n      tag_54\n      jump\t// in\n    tag_115:\n      tag_116\n      jump\t// in\n    tag_114:\n      stop\n        /* \"contracts/POMToken.sol\":6562:6623  function pause() external onlyOwner {... */\n    tag_22:\n      tag_117\n      tag_118\n      jump\t// in\n    tag_117:\n      stop\n        /* \"contracts/POMToken.sol\":2159:2246  address public constant DAO_WALLET =... */\n    tag_23:\n      tag_119\n      tag_120\n      jump\t// in\n    tag_119:\n      mload(0x40)\n      tag_121\n      swap2\n      swap1\n      tag_70\n      jump\t// in\n    tag_121:\n      mload(0x40)\n      dup1\n      swap2\n      sub\n      swap1\n      return\n        /* \"contracts/POMToken.sol\":6183:6296  function enableTrading() external onlyOwner {... */\n    tag_24:\n      tag_122\n      tag_123\n      jump\t// in\n    tag_122:\n      stop\n        /* \"contracts/POMToken.sol\":1034:1060  uint256 public maxTxAmount */\n    tag_25:\n      tag_124\n      tag_125\n      jump\t// in\n    tag_124:\n      mload(0x40)\n      tag_126\n      swap2\n      swap1\n      tag_61\n      jump\t// in\n    tag_126:\n      mload(0x40)\n      dup1\n      swap2\n      sub\n      swap1\n      return\n        /* \"@openzeppelin/contracts/access/Ownable.sol\":1638:1723  function owner() public view virtual returns (address) {... */\n    tag_26:\n      tag_127\n      tag_128\n      jump\t// in\n    tag_127:\n      mload(0x40)\n      tag_129\n      swap2\n      swap1\n      tag_70\n      jump\t// in\n    tag_129:\n      mload(0x40)\n      dup1\n      swap2\n      sub\n      swap1\n      return\n        /* \"contracts/POMToken.sol\":849:909  uint256 public constant TOTAL_SUPPLY = 10_000_000_000 * 1e18 */\n    tag_27:\n      tag_130\n      tag_131\n      jump\t// in\n    tag_130:\n      mload(0x40)\n      tag_132\n      swap2\n      swap1\n      tag_61\n      jump\t// in\n    tag_132:\n      mload(0x40)\n      dup1\n      swap2\n      sub\n      swap1\n      return\n        /* \"@openzeppelin/contracts/token/ERC20/ERC20.sol\":1962:2055  function symbol() public view virtual returns (string memory) {... */\n    tag_28:\n      tag_133\n      tag_134\n      jump\t// in\n    tag_133:\n      mload(0x40)\n      tag_135\n      swap2\n      swap1\n      tag_51\n      jump\t// in\n    tag_135:\n      mload(0x40)\n      dup1\n      swap2\n      sub\n      swap1\n      return\n        /* \"@openzeppelin/contracts/token/ERC20/ERC20.sol\":3244:3422  function transfer(address to, uint256 value) public virtual returns (bool) {... */\n    tag_29:\n      tag_136\n      0x04\n      dup1\n      calldatasize\n      sub\n      dup2\n      add\n      swap1\n      tag_137\n      swap2\n      swap1\n      tag_54\n      jump\t// in\n    tag_137:\n      tag_138\n      jump\t// in\n    tag_136:\n      mload(0x40)\n      tag_139\n      swap2\n      swap1\n      tag_57\n      jump\t// in\n    tag_139:\n      mload(0x40)\n      dup1\n      swap2\n      sub\n      swap1\n      return\n        /* \"contracts/POMToken.sol\":1066:1096  uint256 public maxWalletAmount */\n    tag_30:\n      tag_140\n      tag_141\n      jump\t// in\n    tag_140:\n      mload(0x40)\n      tag_142\n      swap2\n      swap1\n      tag_61\n      jump\t// in\n    tag_142:\n      mload(0x40)\n      dup1\n      swap2\n      sub\n      swap1\n      return\n        /* \"contracts/POMToken.sol\":1142:1187  mapping(address => bool) public isLimitExempt */\n    tag_31:\n      tag_143\n      0x04\n      dup1\n      calldatasize\n      sub\n      dup2\n      add\n      swap1\n      tag_144\n      swap2\n      swap1\n      tag_82\n      jump\t// in\n    tag_144:\n      tag_145\n      jump\t// in\n    tag_143:\n      mload(0x40)\n      tag_146\n      swap2\n      swap1\n      tag_57\n      jump\t// in\n    tag_146:\n      mload(0x40)\n      dup1\n      swap2\n      sub\n      swap1\n      return\n        /* \"contracts/POMToken.sol\":1863:1956  address public constant MARKETING_WALLET =... */\n    tag_32:\n      tag_147\n      tag_148\n      jump\t// in\n    tag_147:\n      mload(0x40)\n      tag_149\n      swap2\n      swap1\n      tag_70\n      jump\t// in\n    tag_149:\n      mload(0x40)\n      dup1\n      swap2\n      sub\n      swap1\n      return\n        /* \"contracts/POMToken.sol\":1673:1764  address public constant REWARDS_WALLET =... */\n    tag_33:\n      tag_150\n      tag_151\n      jump\t// in\n    tag_150:\n      mload(0x40)\n      tag_152\n      swap2\n      swap1\n      tag_70\n      jump\t// in\n    tag_152:\n      mload(0x40)\n      dup1\n      swap2\n      sub\n      swap1\n      return\n        /* \"contracts/POMToken.sol\":4845:5096  function setRewardsDistributor(address distributor) external onlyOwner {... */\n    tag_34:\n      tag_153\n      0x04\n      dup1\n      calldatasize\n      sub\n      dup2\n      add\n      swap1\n      tag_154\n      swap2\n      swap1\n      tag_82\n      jump\t// in\n    tag_154:\n      tag_155\n      jump\t// in\n    tag_153:\n      stop\n        /* \"@openzeppelin/contracts/token/ERC20/ERC20.sol\":3455:3595  function allowance(address owner, address spender) public view virtual returns (uint256) {... */\n    tag_35:\n      tag_156\n      0x04\n      dup1\n      calldatasize\n      sub\n      dup2\n      add\n      swap1\n      tag_157\n      swap2\n      swap1\n      tag_158\n      jump\t// in\n    tag_157:\n      tag_159\n      jump\t// in\n    tag_156:\n      mload(0x40)\n      tag_160\n      swap2\n      swap1\n      tag_61\n      jump\t// in\n    tag_160:\n      mload(0x40)\n      dup1\n      swap2\n      sub\n      swap1\n      return\n        /* \"contracts/POMToken.sol\":7926:8035  function setDexPair(address pair, bool allowed) external onlyOwner {... */\n    tag_36:\n      tag_161\n      0x04\n      dup1\n      calldatasize\n      sub\n      dup2\n      add\n      swap1\n      tag_162\n      swap2\n      swap1\n      tag_87\n      jump\t// in\n    tag_162:\n      tag_163\n      jump\t// in\n    tag_161:\n      stop\n        /* \"@openzeppelin/contracts/access/Ownable.sol\":2543:2758  function transferOwnership(address newOwner) public virtual onlyOwner {... */\n    tag_37:\n      tag_164\n      0x04\n      dup1\n      calldatasize\n      sub\n      dup2\n      add\n      swap1\n      tag_165\n      swap2\n      swap1\n      tag_82\n      jump\t// in\n    tag_165:\n      tag_166\n      jump\t// in\n    tag_164:\n      stop\n        /* \"contracts/POMToken.sol\":1962:2055  address public constant LIQUIDITY_WALLET =... */\n    tag_38:\n      tag_167\n      tag_168\n      jump\t// in\n    tag_167:\n      mload(0x40)\n      tag_169\n      swap2\n      swap1\n      tag_70\n      jump\t// in\n    tag_169:\n      mload(0x40)\n      dup1\n      swap2\n      sub\n      swap1\n      return\n        /* \"contracts/POMToken.sol\":6959:7243  function setLimits(... */\n    tag_39:\n      tag_170\n      0x04\n      dup1\n      calldatasize\n      sub\n      dup2\n      add\n      swap1\n      tag_171\n      swap2\n      swap1\n      tag_172\n      jump\t// in\n    tag_171:\n      tag_173\n      jump\t// in\n    tag_170:\n      stop\n        /* \"contracts/POMToken.sol\":1480:1569  address public constant OWNER_WALLET =... */\n    tag_40:\n      tag_174\n      tag_175\n      jump\t// in\n    tag_174:\n      mload(0x40)\n      tag_176\n      swap2\n      swap1\n      tag_70\n      jump\t// in\n    tag_176:\n      mload(0x40)\n      dup1\n      swap2\n      sub\n      swap1\n      return\n        /* \"@openzeppelin/contracts/token/ERC20/ERC20.sol\":1760:1849  function name() public view virtual returns (string memory) {... */\n    tag_49:\n        /* \"@openzeppelin/contracts/token/ERC20/ERC20.sol\":1805:1818  string memory */\n      0x60\n        /* \"@openzeppelin/contracts/token/ERC20/ERC20.sol\":1837:1842  _name */\n      0x03\n        /* \"@openzeppelin/contracts/token/ERC20/ERC20.sol\":1830:1842  return _name */\n      dup1\n      sload\n      tag_178\n      swap1\n      tag_179\n      jump\t// in\n    tag_178:\n      dup1\n      0x1f\n      add\n      0x20\n      dup1\n      swap2\n      div\n      mul\n      0x20\n      add\n      mload(0x40)\n      swap1\n      dup2\n      add\n      0x40\n      mstore\n      dup1\n      swap3\n      swap2\n      swap1\n      dup2\n      dup2\n      mstore\n      0x20\n      add\n      dup3\n      dup1\n      sload\n      tag_180\n      swap1\n      tag_179\n      jump\t// in\n    tag_180:\n      dup1\n      iszero\n      tag_181\n      jumpi\n      dup1\n      0x1f\n      lt\n      tag_182\n      jumpi\n      0x0100\n      dup1\n      dup4\n      sload\n      div\n      mul\n      dup4\n      mstore\n      swap2\n      0x20\n      add\n      swap2\n      jump(tag_181)\n    tag_182:\n      dup3\n      add\n      swap2\n      swap1\n      0x00\n      mstore\n      keccak256(0x00, 0x20)\n      swap1\n    tag_183:\n      dup2\n      sload\n      dup2\n      mstore\n      swap1\n      0x01\n      add\n      swap1\n      0x20\n      add\n      dup1\n      dup4\n      gt\n      tag_183\n      jumpi\n      dup3\n      swap1\n      sub\n      0x1f\n      and\n      dup3\n      add\n      swap2\n    tag_181:\n      pop\n      pop\n      pop\n      pop\n      pop\n      swap1\n      pop\n        /* \"@openzeppelin/contracts/token/ERC20/ERC20.sol\":1760:1849  function name() public view virtual returns (string memory) {... */\n      swap1\n      jump\t// out\n        /* \"@openzeppelin/contracts/token/ERC20/ERC20.sol\":3902:4088  function approve(address spender, uint256 value) public virtual returns (bool) {... */\n    tag_55:\n        /* \"@openzeppelin/contracts/token/ERC20/ERC20.sol\":3975:3979  bool */\n      0x00\n        /* \"@openzeppelin/contracts/token/ERC20/ERC20.sol\":3991:4004  address owner */\n      0x00\n        /* \"@openzeppelin/contracts/token/ERC20/ERC20.sol\":4007:4019  _msgSender() */\n      tag_185\n        /* \"@openzeppelin/contracts/token/ERC20/ERC20.sol\":4007:4017  _msgSender */\n      tag_186\n        /* \"@openzeppelin/contracts/token/ERC20/ERC20.sol\":4007:4019  _msgSender() */\n      jump\t// in\n    tag_185:\n        /* \"@openzeppelin/contracts/token/ERC20/ERC20.sol\":3991:4019  address owner = _msgSender() */\n      swap1\n      pop\n        /* \"@openzeppelin/contracts/token/ERC20/ERC20.sol\":4029:4060  _approve(owner, spender, value) */\n      tag_187\n        /* \"@openzeppelin/contracts/token/ERC20/ERC20.sol\":4038:4043  owner */\n      dup2\n        /* \"@openzeppelin/contracts/token/ERC20/ERC20.sol\":4045:4052  spender */\n      dup6\n        /* \"@openzeppelin/contracts/token/ERC20/ERC20.sol\":4054:4059  value */\n      dup6\n        /* \"@openzeppelin/contracts/token/ERC20/ERC20.sol\":4029:4037  _approve */\n      tag_188\n        /* \"@openzeppelin/contracts/token/ERC20/ERC20.sol\":4029:4060  _approve(owner, spender, value) */\n      jump\t// in\n    tag_187:\n        /* \"@openzeppelin/contracts/token/ERC20/ERC20.sol\":4077:4081  true */\n      0x01\n        /* \"@openzeppelin/contracts/token/ERC20/ERC20.sol\":4070:4081  return true */\n      swap2\n      pop\n      pop\n        /* \"@openzeppelin/contracts/token/ERC20/ERC20.sol\":3902:4088  function approve(address spender, uint256 value) public virtual returns (bool) {... */\n      swap3\n      swap2\n      pop\n      pop\n      jump\t// out\n        /* \"@openzeppelin/contracts/token/ERC20/ERC20.sol\":2803:2900  function totalSupply() public view virtual returns (uint256) {... */\n    tag_59:\n        /* \"@openzeppelin/contracts/token/ERC20/ERC20.sol\":2855:2862  uint256 */\n      0x00\n        /* \"@openzeppelin/contracts/token/ERC20/ERC20.sol\":2881:2893  _totalSupply */\n      sload(0x02)\n        /* \"@openzeppelin/contracts/token/ERC20/ERC20.sol\":2874:2893  return _totalSupply */\n      swap1\n      pop\n        /* \"@openzeppelin/contracts/token/ERC20/ERC20.sol\":2803:2900  function totalSupply() public view virtual returns (uint256) {... */\n      swap1\n      jump\t// out\n        /* \"@openzeppelin/contracts/token/ERC20/ERC20.sol\":4680:4924  function transferFrom(address from, address to, uint256 value) public virtual returns (bool) {... */\n    tag_65:\n        /* \"@openzeppelin/contracts/token/ERC20/ERC20.sol\":4767:4771  bool */\n      0x00\n        /* \"@openzeppelin/contracts/token/ERC20/ERC20.sol\":4783:4798  address spender */\n      0x00\n        /* \"@openzeppelin/contracts/token/ERC20/ERC20.sol\":4801:4813  _msgSender() */\n      tag_191\n        /* \"@openzeppelin/contracts/token/ERC20/ERC20.sol\":4801:4811  _msgSender */\n      tag_186\n        /* \"@openzeppelin/contracts/token/ERC20/ERC20.sol\":4801:4813  _msgSender() */\n      jump\t// in\n    tag_191:\n        /* \"@openzeppelin/contracts/token/ERC20/ERC20.sol\":4783:4813  address spender = _msgSender() */\n      swap1\n      pop\n        /* \"@openzeppelin/contracts/token/ERC20/ERC20.sol\":4823:4860  _spendAllowance(from, spender, value) */\n      tag_192\n        /* \"@openzeppelin/contracts/token/ERC20/ERC20.sol\":4839:4843  from */\n      dup6\n        /* \"@openzeppelin/contracts/token/ERC20/ERC20.sol\":4845:4852  spender */\n      dup3\n        /* \"@openzeppelin/contracts/token/ERC20/ERC20.sol\":4854:4859  value */\n      dup6\n        /* \"@openzeppelin/contracts/token/ERC20/ERC20.sol\":4823:4838  _spendAllowance */\n      tag_193\n        /* \"@openzeppelin/contracts/token/ERC20/ERC20.sol\":4823:4860  _spendAllowance(from, spender, value) */\n      jump\t// in\n    tag_192:\n        /* \"@openzeppelin/contracts/token/ERC20/ERC20.sol\":4870:4896  _transfer(from, to, value) */\n      tag_194\n        /* \"@openzeppelin/contracts/token/ERC20/ERC20.sol\":4880:4884  from */\n      dup6\n        /* \"@openzeppelin/contracts/token/ERC20/ERC20.sol\":4886:4888  to */\n      dup6\n        /* \"@openzeppelin/contracts/token/ERC20/ERC20.sol\":4890:4895  value */\n      dup6\n        /* \"@openzeppelin/contracts/token/ERC20/ERC20.sol\":4870:4879  _transfer */\n      tag_195\n        /* \"@openzeppelin/contracts/token/ERC20/ERC20.sol\":4870:4896  _transfer(from, to, value) */\n      jump\t// in\n    tag_194:\n        /* \"@openzeppelin/contracts/token/ERC20/ERC20.sol\":4913:4917  true */\n      0x01\n        /* \"@openzeppelin/contracts/token/ERC20/ERC20.sol\":4906:4917  return true */\n      swap2\n      pop\n      pop\n        /* \"@openzeppelin/contracts/token/ERC20/ERC20.sol\":4680:4924  function transferFrom(address from, address to, uint256 value) public virtual returns (bool) {... */\n      swap4\n      swap3\n      pop\n      pop\n      pop\n      jump\t// out\n        /* \"contracts/POMToken.sol\":1770:1857  address public constant DEV_WALLET =... */\n    tag_68:\n        /* \"contracts/POMToken.sol\":1815:1857  0x1bEc551c40d7F6B3B7b0366765Fa769A8DDb4f25 */\n      0x1bec551c40d7f6b3b7b0366765fa769a8ddb4f25\n        /* \"contracts/POMToken.sol\":1770:1857  address public constant DEV_WALLET =... */\n      dup2\n      jump\t// out\n        /* \"@openzeppelin/contracts/token/ERC20/ERC20.sol\":2688:2770  function decimals() public view virtual returns (uint8) {... */\n    tag_72:\n        /* \"@openzeppelin/contracts/token/ERC20/ERC20.sol\":2737:2742  uint8 */\n      0x00\n        /* \"@openzeppelin/contracts/token/ERC20/ERC20.sol\":2761:2763  18 */\n      0x12\n        /* \"@openzeppelin/contracts/token/ERC20/ERC20.sol\":2754:2763  return 18 */\n      swap1\n      pop\n        /* \"@openzeppelin/contracts/token/ERC20/ERC20.sol\":2688:2770  function decimals() public view virtual returns (uint8) {... */\n      swap1\n      jump\t// out\n        /* \"contracts/POMToken.sol\":2554:2587  address public rewardsDistributor */\n    tag_76:\n      0x0b\n      0x00\n      swap1\n      sload\n      swap1\n      0x0100\n      exp\n      swap1\n      div\n      0xffffffffffffffffffffffffffffffffffffffff\n      and\n      dup2\n      jump\t// out\n        /* \"contracts/POMToken.sol\":6629:6694  function unpause() external onlyOwner {... */\n    tag_79:\n        /* \"@openzeppelin/contracts/access/Ownable.sol\":1531:1544  _checkOwner() */\n      tag_198\n        /* \"@openzeppelin/contracts/access/Ownable.sol\":1531:1542  _checkOwner */\n      tag_199\n        /* \"@openzeppelin/contracts/access/Ownable.sol\":1531:1544  _checkOwner() */\n      jump\t// in\n    tag_198:\n        /* \"contracts/POMToken.sol\":6677:6687  _unpause() */\n      tag_201\n        /* \"contracts/POMToken.sol\":6677:6685  _unpause */\n      tag_202\n        /* \"contracts/POMToken.sol\":6677:6687  _unpause() */\n      jump\t// in\n    tag_201:\n        /* \"contracts/POMToken.sol\":6629:6694  function unpause() external onlyOwner {... */\n      jump\t// out\n        /* \"contracts/POMToken.sol\":1233:1274  mapping(address => bool) public isDexPair */\n    tag_83:\n      mstore(0x20, 0x0a)\n      dup1\n      0x00\n      mstore\n      keccak256(0x00, 0x40)\n      0x00\n      swap2\n      pop\n      sload\n      swap1\n      0x0100\n      exp\n      swap1\n      div\n      0xff\n      and\n      dup2\n      jump\t// out\n        /* \"contracts/POMToken.sol\":7532:7653  function setLimitExempt(address account, bool exempt) external onlyOwner {... */\n    tag_88:\n        /* \"@openzeppelin/contracts/access/Ownable.sol\":1531:1544  _checkOwner() */\n      tag_204\n        /* \"@openzeppelin/contracts/access/Ownable.sol\":1531:1542  _checkOwner */\n      tag_199\n        /* \"@openzeppelin/contracts/access/Ownable.sol\":1531:1544  _checkOwner() */\n      jump\t// in\n    tag_204:\n        /* \"contracts/POMToken.sol\":7640:7646  exempt */\n      dup1\n        /* \"contracts/POMToken.sol\":7615:7628  isLimitExempt */\n      0x09\n        /* \"contracts/POMToken.sol\":7615:7637  isLimitExempt[account] */\n      0x00\n        /* \"contracts/POMToken.sol\":7629:7636  account */\n      dup5\n        /* \"contracts/POMToken.sol\":7615:7637  isLimitExempt[account] */\n      0xffffffffffffffffffffffffffffffffffffffff\n      and\n      0xffffffffffffffffffffffffffffffffffffffff\n      and\n      dup2\n      mstore\n      0x20\n      add\n      swap1\n      dup2\n      mstore\n      0x20\n      add\n      0x00\n      keccak256\n      0x00\n        /* \"contracts/POMToken.sol\":7615:7646  isLimitExempt[account] = exempt */\n      0x0100\n      exp\n      dup2\n      sload\n      dup2\n      0xff\n      mul\n      not\n      and\n      swap1\n      dup4\n      iszero\n      iszero\n      mul\n      or\n      swap1\n      sstore\n      pop\n        /* \"contracts/POMToken.sol\":7532:7653  function setLimitExempt(address account, bool exempt) external onlyOwner {... */\n      pop\n      pop\n      jump\t// out\n        /* \"@openzeppelin/contracts/token/ERC20/extensions/ERC20Burnable.sol\":618:705  function burn(uint256 value) public virtual {... */\n    tag_92:\n        /* \"@openzeppelin/contracts/token/ERC20/extensions/ERC20Burnable.sol\":672:698  _burn(_msgSender(), value) */\n      tag_207\n        /* \"@openzeppelin/contracts/token/ERC20/extensions/ERC20Burnable.sol\":678:690  _msgSender() */\n      tag_208\n        /* \"@openzeppelin/contracts/token/ERC20/extensions/ERC20Burnable.sol\":678:688  _msgSender */\n      tag_186\n        /* \"@openzeppelin/contracts/token/ERC20/extensions/ERC20Burnable.sol\":678:690  _msgSender() */\n      jump\t// in\n    tag_208:\n        /* \"@openzeppelin/contracts/token/ERC20/extensions/ERC20Burnable.sol\":692:697  value */\n      dup3\n        /* \"@openzeppelin/contracts/token/ERC20/extensions/ERC20Burnable.sol\":672:677  _burn */\n      tag_209\n        /* \"@openzeppelin/contracts/token/ERC20/extensions/ERC20Burnable.sol\":672:698  _burn(_msgSender(), value) */\n      jump\t// in\n    tag_207:\n        /* \"@openzeppelin/contracts/token/ERC20/extensions/ERC20Burnable.sol\":618:705  function burn(uint256 value) public virtual {... */\n      pop\n      jump\t// out\n        /* \"contracts/POMToken.sol\":1102:1135  bool public limitsInEffect = true */\n    tag_94:\n      0x08\n      0x00\n      swap1\n      sload\n      swap1\n      0x0100\n      exp\n      swap1\n      div\n      0xff\n      and\n      dup2\n      jump\t// out\n        /* \"contracts/POMToken.sol\":995:1028  bool public tradingEnabled = true */\n    tag_97:\n      0x05\n      0x15\n      swap1\n      sload\n      swap1\n      0x0100\n      exp\n      swap1\n      div\n      0xff\n      and\n      dup2\n      jump\t// out\n        /* \"contracts/POMToken.sol\":2061:2153  address public constant ADVISORS_WALLET =... */\n    tag_100:\n        /* \"contracts/POMToken.sol\":2111:2153  0x8DCdF001b069ef0a027aa8b4DAcA12577423a90b */\n      0x8dcdf001b069ef0a027aa8b4daca12577423a90b\n        /* \"contracts/POMToken.sol\":2061:2153  address public constant ADVISORS_WALLET =... */\n      dup2\n      jump\t// out\n        /* \"@openzeppelin/contracts/security/Pausable.sol\":1615:1699  function paused() public view virtual returns (bool) {... */\n    tag_103:\n        /* \"@openzeppelin/contracts/security/Pausable.sol\":1662:1666  bool */\n      0x00\n        /* \"@openzeppelin/contracts/security/Pausable.sol\":1685:1692  _paused */\n      0x05\n      0x14\n      swap1\n      sload\n      swap1\n      0x0100\n      exp\n      swap1\n      div\n      0xff\n      and\n        /* \"@openzeppelin/contracts/security/Pausable.sol\":1678:1692  return _paused */\n      swap1\n      pop\n        /* \"@openzeppelin/contracts/security/Pausable.sol\":1615:1699  function paused() public view virtual returns (bool) {... */\n      swap1\n      jump\t// out\n        /* \"contracts/POMToken.sol\":1575:1667  address public constant TREASURY_WALLET =... */\n    tag_106:\n        /* \"contracts/POMToken.sol\":1625:1667  0x71133f5d2548Cd9B182C2DaF68D9D00a56d4343f */\n      0x71133f5d2548cd9b182c2daf68d9d00a56d4343f\n        /* \"contracts/POMToken.sol\":1575:1667  address public constant TREASURY_WALLET =... */\n      dup2\n      jump\t// out\n        /* \"@openzeppelin/contracts/token/ERC20/ERC20.sol\":2933:3049  function balanceOf(address account) public view virtual returns (uint256) {... */\n    tag_110:\n        /* \"@openzeppelin/contracts/token/ERC20/ERC20.sol\":2998:3005  uint256 */\n      0x00\n        /* \"@openzeppelin/contracts/token/ERC20/ERC20.sol\":3024:3033  _balances */\n      0x00\n        /* \"@openzeppelin/contracts/token/ERC20/ERC20.sol\":3024:3042  _balances[account] */\n      0x00\n        /* \"@openzeppelin/contracts/token/ERC20/ERC20.sol\":3034:3041  account */\n      dup4\n        /* \"@openzeppelin/contracts/token/ERC20/ERC20.sol\":3024:3042  _balances[account] */\n      0xffffffffffffffffffffffffffffffffffffffff\n      and\n      0xffffffffffffffffffffffffffffffffffffffff\n      and\n      dup2\n      mstore\n      0x20\n      add\n      swap1\n      dup2\n      mstore\n      0x20\n      add\n      0x00\n      keccak256\n      sload\n        /* \"@openzeppelin/contracts/token/ERC20/ERC20.sol\":3017:3042  return _balances[account] */\n      swap1\n      pop\n        /* \"@openzeppelin/contracts/token/ERC20/ERC20.sol\":2933:3049  function balanceOf(address account) public view virtual returns (uint256) {... */\n      swap2\n      swap1\n      pop\n      jump\t// out\n        /* \"@openzeppelin/contracts/access/Ownable.sol\":2293:2394  function renounceOwnership() public virtual onlyOwner {... */\n    tag_113:\n        /* \"@openzeppelin/contracts/access/Ownable.sol\":1531:1544  _checkOwner() */\n      tag_213\n        /* \"@openzeppelin/contracts/access/Ownable.sol\":1531:1542  _checkOwner */\n      tag_199\n        /* \"@openzeppelin/contracts/access/Ownable.sol\":1531:1544  _checkOwner() */\n      jump\t// in\n    tag_213:\n        /* \"@openzeppelin/contracts/access/Ownable.sol\":2357:2387  _transferOwnership(address(0)) */\n      tag_215\n        /* \"@openzeppelin/contracts/access/Ownable.sol\":2384:2385  0 */\n      0x00\n        /* \"@openzeppelin/contracts/access/Ownable.sol\":2357:2375  _transferOwnership */\n      tag_216\n        /* \"@openzeppelin/contracts/access/Ownable.sol\":2357:2387  _transferOwnership(address(0)) */\n      jump\t// in\n    tag_215:\n        /* \"@openzeppelin/contracts/access/Ownable.sol\":2293:2394  function renounceOwnership() public virtual onlyOwner {... */\n      jump\t// out\n        /* \"@openzeppelin/contracts/token/ERC20/extensions/ERC20Burnable.sol\":1021:1179  function burnFrom(address account, uint256 value) public virtual {... */\n    tag_116:\n        /* \"@openzeppelin/contracts/token/ERC20/extensions/ERC20Burnable.sol\":1096:1141  _spendAllowance(account, _msgSender(), value) */\n      tag_218\n        /* \"@openzeppelin/contracts/token/ERC20/extensions/ERC20Burnable.sol\":1112:1119  account */\n      dup3\n        /* \"@openzeppelin/contracts/token/ERC20/extensions/ERC20Burnable.sol\":1121:1133  _msgSender() */\n      tag_219\n        /* \"@openzeppelin/contracts/token/ERC20/extensions/ERC20Burnable.sol\":1121:1131  _msgSender */\n      tag_186\n        /* \"@openzeppelin/contracts/token/ERC20/extensions/ERC20Burnable.sol\":1121:1133  _msgSender() */\n      jump\t// in\n    tag_219:\n        /* \"@openzeppelin/contracts/token/ERC20/extensions/ERC20Burnable.sol\":1135:1140  value */\n      dup4\n        /* \"@openzeppelin/contracts/token/ERC20/extensions/ERC20Burnable.sol\":1096:1111  _spendAllowance */\n      tag_193\n        /* \"@openzeppelin/contracts/token/ERC20/extensions/ERC20Burnable.sol\":1096:1141  _spendAllowance(account, _msgSender(), value) */\n      jump\t// in\n    tag_218:\n        /* \"@openzeppelin/contracts/token/ERC20/extensions/ERC20Burnable.sol\":1151:1172  _burn(account, value) */\n      tag_220\n        /* \"@openzeppelin/contracts/token/ERC20/extensions/ERC20Burnable.sol\":1157:1164  account */\n      dup3\n        /* \"@openzeppelin/contracts/token/ERC20/extensions/ERC20Burnable.sol\":1166:1171  value */\n      dup3\n        /* \"@openzeppelin/contracts/token/ERC20/extensions/ERC20Burnable.sol\":1151:1156  _burn */\n      tag_209\n        /* \"@openzeppelin/contracts/token/ERC20/extensions/ERC20Burnable.sol\":1151:1172  _burn(account, value) */\n      jump\t// in\n    tag_220:\n        /* \"@openzeppelin/contracts/token/ERC20/extensions/ERC20Burnable.sol\":1021:1179  function burnFrom(address account, uint256 value) public virtual {... */\n      pop\n      pop\n      jump\t// out\n        /* \"contracts/POMToken.sol\":6562:6623  function pause() external onlyOwner {... */\n    tag_118:\n        /* \"@openzeppelin/contracts/access/Ownable.sol\":1531:1544  _checkOwner() */\n      tag_222\n        /* \"@openzeppelin/contracts/access/Ownable.sol\":1531:1542  _checkOwner */\n      tag_199\n        /* \"@openzeppelin/contracts/access/Ownable.sol\":1531:1544  _checkOwner() */\n      jump\t// in\n    tag_222:\n        /* \"contracts/POMToken.sol\":6608:6616  _pause() */\n      tag_224\n        /* \"contracts/POMToken.sol\":6608:6614  _pause */\n      tag_225\n        /* \"contracts/POMToken.sol\":6608:6616  _pause() */\n      jump\t// in\n    tag_224:\n        /* \"contracts/POMToken.sol\":6562:6623  function pause() external onlyOwner {... */\n      jump\t// out\n        /* \"contracts/POMToken.sol\":2159:2246  address public constant DAO_WALLET =... */\n    tag_120:\n        /* \"contracts/POMToken.sol\":2204:2246  0xFf55e5341142eFdfD37D2E51317bBDA62DB8d8f0 */\n      0xff55e5341142efdfd37d2e51317bbda62db8d8f0\n        /* \"contracts/POMToken.sol\":2159:2246  address public constant DAO_WALLET =... */\n      dup2\n      jump\t// out\n        /* \"contracts/POMToken.sol\":6183:6296  function enableTrading() external onlyOwner {... */\n    tag_123:\n        /* \"@openzeppelin/contracts/access/Ownable.sol\":1531:1544  _checkOwner() */\n      tag_227\n        /* \"@openzeppelin/contracts/access/Ownable.sol\":1531:1542  _checkOwner */\n      tag_199\n        /* \"@openzeppelin/contracts/access/Ownable.sol\":1531:1544  _checkOwner() */\n      jump\t// in\n    tag_227:\n        /* \"contracts/POMToken.sol\":6254:6258  true */\n      0x01\n        /* \"contracts/POMToken.sol\":6237:6251  tradingEnabled */\n      0x05\n      0x15\n        /* \"contracts/POMToken.sol\":6237:6258  tradingEnabled = true */\n      0x0100\n      exp\n      dup2\n      sload\n      dup2\n      0xff\n      mul\n      not\n      and\n      swap1\n      dup4\n      iszero\n      iszero\n      mul\n      or\n      swap1\n      sstore\n      pop\n        /* \"contracts/POMToken.sol\":6273:6289  TradingEnabled() */\n      0x799663458a5ef2936f7fa0c99b3336c69c25890f82974f04e811e5bb359186c7\n      mload(0x40)\n      mload(0x40)\n      dup1\n      swap2\n      sub\n      swap1\n      log1\n        /* \"contracts/POMToken.sol\":6183:6296  function enableTrading() external onlyOwner {... */\n      jump\t// out\n        /* \"contracts/POMToken.sol\":1034:1060  uint256 public maxTxAmount */\n    tag_125:\n      sload(0x06)\n      dup2\n      jump\t// out\n        /* \"@openzeppelin/contracts/access/Ownable.sol\":1638:1723  function owner() public view virtual returns (address) {... */\n    tag_128:\n        /* \"@openzeppelin/contracts/access/Ownable.sol\":1684:1691  address */\n      0x00\n        /* \"@openzeppelin/contracts/access/Ownable.sol\":1710:1716  _owner */\n      0x05\n      0x00\n      swap1\n      sload\n      swap1\n      0x0100\n      exp\n      swap1\n      div\n      0xffffffffffffffffffffffffffffffffffffffff\n      and\n        /* \"@openzeppelin/contracts/access/Ownable.sol\":1703:1716  return _owner */\n      swap1\n      pop\n        /* \"@openzeppelin/contracts/access/Ownable.sol\":1638:1723  function owner() public view virtual returns (address) {... */\n      swap1\n      jump\t// out\n        /* \"contracts/POMToken.sol\":849:909  uint256 public constant TOTAL_SUPPLY = 10_000_000_000 * 1e18 */\n    tag_131:\n        /* \"contracts/POMToken.sol\":888:909  10_000_000_000 * 1e18 */\n      0x204fce5e3e25026110000000\n        /* \"contracts/POMToken.sol\":849:909  uint256 public constant TOTAL_SUPPLY = 10_000_000_000 * 1e18 */\n      dup2\n      jump\t// out\n        /* \"@openzeppelin/contracts/token/ERC20/ERC20.sol\":1962:2055  function symbol() public view virtual returns (string memory) {... */\n    tag_134:\n        /* \"@openzeppelin/contracts/token/ERC20/ERC20.sol\":2009:2022  string memory */\n      0x60\n        /* \"@openzeppelin/contracts/token/ERC20/ERC20.sol\":2041:2048  _symbol */\n      0x04\n        /* \"@openzeppelin/contracts/token/ERC20/ERC20.sol\":2034:2048  return _symbol */\n      dup1\n      sload\n      tag_231\n      swap1\n      tag_179\n      jump\t// in\n    tag_231:\n      dup1\n      0x1f\n      add\n      0x20\n      dup1\n      swap2\n      div\n      mul\n      0x20\n      add\n      mload(0x40)\n      swap1\n      dup2\n      add\n      0x40\n      mstore\n      dup1\n      swap3\n      swap2\n      swap1\n      dup2\n      dup2\n      mstore\n      0x20\n      add\n      dup3\n      dup1\n      sload\n      tag_232\n      swap1\n      tag_179\n      jump\t// in\n    tag_232:\n      dup1\n      iszero\n      tag_233\n      jumpi\n      dup1\n      0x1f\n      lt\n      tag_234\n      jumpi\n      0x0100\n      dup1\n      dup4\n      sload\n      div\n      mul\n      dup4\n      mstore\n      swap2\n      0x20\n      add\n      swap2\n      jump(tag_233)\n    tag_234:\n      dup3\n      add\n      swap2\n      swap1\n      0x00\n      mstore\n      keccak256(0x00, 0x20)\n      swap1\n    tag_235:\n      dup2\n      sload\n      dup2\n      mstore\n      swap1\n      0x01\n      add\n      swap1\n      0x20\n      add\n      dup1\n      dup4\n      gt\n      tag_235\n      jumpi\n      dup3\n      swap1\n      sub\n      0x1f\n      and\n      dup3\n      add\n      swap2\n    tag_233:\n      pop\n      pop\n      pop\n      pop\n      pop\n      swap1\n      pop\n        /* \"@openzeppelin/contracts/token/ERC20/ERC20.sol\":1962:2055  function symbol() public view virtual returns (string memory) {... */\n      swap1\n      jump\t// out\n        /* \"@openzeppelin/contracts/token/ERC20/ERC20.sol\":3244:3422  function transfer(address to, uint256 value) public virtual returns (bool) {... */\n    tag_138:\n        /* \"@openzeppelin/contracts/token/ERC20/ERC20.sol\":3313:3317  bool */\n      0x00\n        /* \"@openzeppelin/contracts/token/ERC20/ERC20.sol\":3329:3342  address owner */\n      0x00\n        /* \"@openzeppelin/contracts/token/ERC20/ERC20.sol\":3345:3357  _msgSender() */\n      tag_237\n        /* \"@openzeppelin/contracts/token/ERC20/ERC20.sol\":3345:3355  _msgSender */\n      tag_186\n        /* \"@openzeppelin/contracts/token/ERC20/ERC20.sol\":3345:3357  _msgSender() */\n      jump\t// in\n    tag_237:\n        /* \"@openzeppelin/contracts/token/ERC20/ERC20.sol\":3329:3357  address owner = _msgSender() */\n      swap1\n      pop\n        /* \"@openzeppelin/contracts/token/ERC20/ERC20.sol\":3367:3394  _transfer(owner, to, value) */\n      tag_238\n        /* \"@openzeppelin/contracts/token/ERC20/ERC20.sol\":3377:3382  owner */\n      dup2\n        /* \"@openzeppelin/contracts/token/ERC20/ERC20.sol\":3384:3386  to */\n      dup6\n        /* \"@openzeppelin/contracts/token/ERC20/ERC20.sol\":3388:3393  value */\n      dup6\n        /* \"@openzeppelin/contracts/token/ERC20/ERC20.sol\":3367:3376  _transfer */\n      tag_195\n        /* \"@openzeppelin/contracts/token/ERC20/ERC20.sol\":3367:3394  _transfer(owner, to, value) */\n      jump\t// in\n    tag_238:\n        /* \"@openzeppelin/contracts/token/ERC20/ERC20.sol\":3411:3415  true */\n      0x01\n        /* \"@openzeppelin/contracts/token/ERC20/ERC20.sol\":3404:3415  return true */\n      swap2\n      pop\n      pop\n        /* \"@openzeppelin/contracts/token/ERC20/ERC20.sol\":3244:3422  function transfer(address to, uint256 value) public virtual returns (bool) {... */\n      swap3\n      swap2\n      pop\n      pop\n      jump\t// out\n        /* \"contracts/POMToken.sol\":1066:1096  uint256 public maxWalletAmount */\n    tag_141:\n      sload(0x07)\n      dup2\n      jump\t// out\n        /* \"contracts/POMToken.sol\":1142:1187  mapping(address => bool) public isLimitExempt */\n    tag_145:\n      mstore(0x20, 0x09)\n      dup1\n      0x00\n      mstore\n      keccak256(0x00, 0x40)\n      0x00\n      swap2\n      pop\n      sload\n      swap1\n      0x0100\n      exp\n      swap1\n      div\n      0xff\n      and\n      dup2\n      jump\t// out\n        /* \"contracts/POMToken.sol\":1863:1956  address public constant MARKETING_WALLET =... */\n    tag_148:\n        /* \"contracts/POMToken.sol\":1914:1956  0x9A982f4EFa6F344E955D28Dba751E17B60E3F217 */\n      0x9a982f4efa6f344e955d28dba751e17b60e3f217\n        /* \"contracts/POMToken.sol\":1863:1956  address public constant MARKETING_WALLET =... */\n      dup2\n      jump\t// out\n        /* \"contracts/POMToken.sol\":1673:1764  address public constant REWARDS_WALLET =... */\n    tag_151:\n        /* \"contracts/POMToken.sol\":1722:1764  0xAB247964F4b9A1C50e6c01e4a2A808Ce07feaf41 */\n      0xab247964f4b9a1c50e6c01e4a2a808ce07feaf41\n        /* \"contracts/POMToken.sol\":1673:1764  address public constant REWARDS_WALLET =... */\n      dup2\n      jump\t// out\n        /* \"contracts/POMToken.sol\":4845:5096  function setRewardsDistributor(address distributor) external onlyOwner {... */\n    tag_155:\n        /* \"@openzeppelin/contracts/access/Ownable.sol\":1531:1544  _checkOwner() */\n      tag_240\n        /* \"@openzeppelin/contracts/access/Ownable.sol\":1531:1542  _checkOwner */\n      tag_199\n        /* \"@openzeppelin/contracts/access/Ownable.sol\":1531:1544  _checkOwner() */\n      jump\t// in\n    tag_240:\n        /* \"contracts/POMToken.sol\":4957:4958  0 */\n      0x00\n        /* \"contracts/POMToken.sol\":4934:4959  distributor != address(0) */\n      0xffffffffffffffffffffffffffffffffffffffff\n      and\n        /* \"contracts/POMToken.sol\":4934:4945  distributor */\n      dup2\n        /* \"contracts/POMToken.sol\":4934:4959  distributor != address(0) */\n      0xffffffffffffffffffffffffffffffffffffffff\n      and\n      sub\n        /* \"contracts/POMToken.sol\":4926:4976  require(distributor != address(0), \"Zero address\") */\n      tag_242\n      jumpi\n      mload(0x40)\n      0x08c379a000000000000000000000000000000000000000000000000000000000\n      dup2\n      mstore\n      0x04\n      add\n      tag_243\n      swap1\n      tag_244\n      jump\t// in\n    tag_243:\n      mload(0x40)\n      dup1\n      swap2\n      sub\n      swap1\n      revert\n    tag_242:\n        /* \"contracts/POMToken.sol\":5007:5018  distributor */\n      dup1\n        /* \"contracts/POMToken.sol\":4986:5004  rewardsDistributor */\n      0x0b\n      0x00\n        /* \"contracts/POMToken.sol\":4986:5018  rewardsDistributor = distributor */\n      0x0100\n      exp\n      dup2\n      sload\n      dup2\n      0xffffffffffffffffffffffffffffffffffffffff\n      mul\n      not\n      and\n      swap1\n      dup4\n      0xffffffffffffffffffffffffffffffffffffffff\n      and\n      mul\n      or\n      swap1\n      sstore\n      pop\n        /* \"contracts/POMToken.sol\":5059:5070  distributor */\n      dup1\n        /* \"contracts/POMToken.sol\":5033:5071  RewardsDistributorUpdated(distributor) */\n      0xffffffffffffffffffffffffffffffffffffffff\n      and\n      0x1cc0d0fcd88df90cde5f20b27b655722f28afe56a6384c3c7a339ec18564c439\n      mload(0x40)\n      mload(0x40)\n      dup1\n      swap2\n      sub\n      swap1\n      log2\n        /* \"contracts/POMToken.sol\":4845:5096  function setRewardsDistributor(address distributor) external onlyOwner {... */\n      pop\n      jump\t// out\n        /* \"@openzeppelin/contracts/token/ERC20/ERC20.sol\":3455:3595  function allowance(address owner, address spender) public view virtual returns (uint256) {... */\n    tag_159:\n        /* \"@openzeppelin/contracts/token/ERC20/ERC20.sol\":3535:3542  uint256 */\n      0x00\n        /* \"@openzeppelin/contracts/token/ERC20/ERC20.sol\":3561:3572  _allowances */\n      0x01\n        /* \"@openzeppelin/contracts/token/ERC20/ERC20.sol\":3561:3579  _allowances[owner] */\n      0x00\n        /* \"@openzeppelin/contracts/token/ERC20/ERC20.sol\":3573:3578  owner */\n      dup5\n        /* \"@openzeppelin/contracts/token/ERC20/ERC20.sol\":3561:3579  _allowances[owner] */\n      0xffffffffffffffffffffffffffffffffffffffff\n      and\n      0xffffffffffffffffffffffffffffffffffffffff\n      and\n      dup2\n      mstore\n      0x20\n      add\n      swap1\n      dup2\n      mstore\n      0x20\n      add\n      0x00\n      keccak256\n        /* \"@openzeppelin/contracts/token/ERC20/ERC20.sol\":3561:3588  _allowances[owner][spender] */\n      0x00\n        /* \"@openzeppelin/contracts/token/ERC20/ERC20.sol\":3580:3587  spender */\n      dup4\n        /* \"@openzeppelin/contracts/token/ERC20/ERC20.sol\":3561:3588  _allowances[owner][spender] */\n      0xffffffffffffffffffffffffffffffffffffffff\n      and\n      0xffffffffffffffffffffffffffffffffffffffff\n      and\n      dup2\n      mstore\n      0x20\n      add\n      swap1\n      dup2\n      mstore\n      0x20\n      add\n      0x00\n      keccak256\n      sload\n        /* \"@openzeppelin/contracts/token/ERC20/ERC20.sol\":3554:3588  return _allowances[owner][spender] */\n      swap1\n      pop\n        /* \"@openzeppelin/contracts/token/ERC20/ERC20.sol\":3455:3595  function allowance(address owner, address spender) public view virtual returns (uint256) {... */\n      swap3\n      swap2\n      pop\n      pop\n      jump\t// out\n        /* \"contracts/POMToken.sol\":7926:8035  function setDexPair(address pair, bool allowed) external onlyOwner {... */\n    tag_163:\n        /* \"@openzeppelin/contracts/access/Ownable.sol\":1531:1544  _checkOwner() */\n      tag_247\n        /* \"@openzeppelin/contracts/access/Ownable.sol\":1531:1542  _checkOwner */\n      tag_199\n        /* \"@openzeppelin/contracts/access/Ownable.sol\":1531:1544  _checkOwner() */\n      jump\t// in\n    tag_247:\n        /* \"contracts/POMToken.sol\":8021:8028  allowed */\n      dup1\n        /* \"contracts/POMToken.sol\":8003:8012  isDexPair */\n      0x0a\n        /* \"contracts/POMToken.sol\":8003:8018  isDexPair[pair] */\n      0x00\n        /* \"contracts/POMToken.sol\":8013:8017  pair */\n      dup5\n        /* \"contracts/POMToken.sol\":8003:8018  isDexPair[pair] */\n      0xffffffffffffffffffffffffffffffffffffffff\n      and\n      0xffffffffffffffffffffffffffffffffffffffff\n      and\n      dup2\n      mstore\n      0x20\n      add\n      swap1\n      dup2\n      mstore\n      0x20\n      add\n      0x00\n      keccak256\n      0x00\n        /* \"contracts/POMToken.sol\":8003:8028  isDexPair[pair] = allowed */\n      0x0100\n      exp\n      dup2\n      sload\n      dup2\n      0xff\n      mul\n      not\n      and\n      swap1\n      dup4\n      iszero\n      iszero\n      mul\n      or\n      swap1\n      sstore\n      pop\n        /* \"contracts/POMToken.sol\":7926:8035  function setDexPair(address pair, bool allowed) external onlyOwner {... */\n      pop\n      pop\n      jump\t// out\n        /* \"@openzeppelin/contracts/access/Ownable.sol\":2543:2758  function transferOwnership(address newOwner) public virtual onlyOwner {... */\n    tag_166:\n        /* \"@openzeppelin/contracts/access/Ownable.sol\":1531:1544  _checkOwner() */\n      tag_250\n        /* \"@openzeppelin/contracts/access/Ownable.sol\":1531:1542  _checkOwner */\n      tag_199\n        /* \"@openzeppelin/contracts/access/Ownable.sol\":1531:1544  _checkOwner() */\n      jump\t// in\n    tag_250:\n        /* \"@openzeppelin/contracts/access/Ownable.sol\":2647:2648  0 */\n      0x00\n        /* \"@openzeppelin/contracts/access/Ownable.sol\":2627:2649  newOwner == address(0) */\n      0xffffffffffffffffffffffffffffffffffffffff\n      and\n        /* \"@openzeppelin/contracts/access/Ownable.sol\":2627:2635  newOwner */\n      dup2\n        /* \"@openzeppelin/contracts/access/Ownable.sol\":2627:2649  newOwner == address(0) */\n      0xffffffffffffffffffffffffffffffffffffffff\n      and\n      sub\n        /* \"@openzeppelin/contracts/access/Ownable.sol\":2623:2714  if (newOwner == address(0)) {... */\n      tag_252\n      jumpi\n        /* \"@openzeppelin/contracts/access/Ownable.sol\":2700:2701  0 */\n      0x00\n        /* \"@openzeppelin/contracts/access/Ownable.sol\":2672:2703  OwnableInvalidOwner(address(0)) */\n      mload(0x40)\n      0x1e4fbdf700000000000000000000000000000000000000000000000000000000\n      dup2\n      mstore\n      0x04\n      add\n      tag_253\n      swap2\n      swap1\n      tag_70\n      jump\t// in\n    tag_253:\n      mload(0x40)\n      dup1\n      swap2\n      sub\n      swap1\n      revert\n        /* \"@openzeppelin/contracts/access/Ownable.sol\":2623:2714  if (newOwner == address(0)) {... */\n    tag_252:\n        /* \"@openzeppelin/contracts/access/Ownable.sol\":2723:2751  _transferOwnership(newOwner) */\n      tag_254\n        /* \"@openzeppelin/contracts/access/Ownable.sol\":2742:2750  newOwner */\n      dup2\n        /* \"@openzeppelin/contracts/access/Ownable.sol\":2723:2741  _transferOwnership */\n      tag_216\n        /* \"@openzeppelin/contracts/access/Ownable.sol\":2723:2751  _transferOwnership(newOwner) */\n      jump\t// in\n    tag_254:\n        /* \"@openzeppelin/contracts/access/Ownable.sol\":2543:2758  function transferOwnership(address newOwner) public virtual onlyOwner {... */\n      pop\n      jump\t// out\n        /* \"contracts/POMToken.sol\":1962:2055  address public constant LIQUIDITY_WALLET =... */\n    tag_168:\n        /* \"contracts/POMToken.sol\":2013:2055  0xF03Cb4af13aFDB94688607e100BEE39E4173B446 */\n      0xf03cb4af13afdb94688607e100bee39e4173b446\n        /* \"contracts/POMToken.sol\":1962:2055  address public constant LIQUIDITY_WALLET =... */\n      dup2\n      jump\t// out\n        /* \"contracts/POMToken.sol\":6959:7243  function setLimits(... */\n    tag_173:\n        /* \"@openzeppelin/contracts/access/Ownable.sol\":1531:1544  _checkOwner() */\n      tag_256\n        /* \"@openzeppelin/contracts/access/Ownable.sol\":1531:1542  _checkOwner */\n      tag_199\n        /* \"@openzeppelin/contracts/access/Ownable.sol\":1531:1544  _checkOwner() */\n      jump\t// in\n    tag_256:\n        /* \"contracts/POMToken.sol\":7101:7107  _maxTx */\n      dup3\n        /* \"contracts/POMToken.sol\":7087:7098  maxTxAmount */\n      0x06\n        /* \"contracts/POMToken.sol\":7087:7107  maxTxAmount = _maxTx */\n      dup2\n      swap1\n      sstore\n      pop\n        /* \"contracts/POMToken.sol\":7135:7145  _maxWallet */\n      dup2\n        /* \"contracts/POMToken.sol\":7117:7132  maxWalletAmount */\n      0x07\n        /* \"contracts/POMToken.sol\":7117:7145  maxWalletAmount = _maxWallet */\n      dup2\n      swap1\n      sstore\n      pop\n        /* \"contracts/POMToken.sol\":7172:7179  _active */\n      dup1\n        /* \"contracts/POMToken.sol\":7155:7169  limitsInEffect */\n      0x08\n      0x00\n        /* \"contracts/POMToken.sol\":7155:7179  limitsInEffect = _active */\n      0x0100\n      exp\n      dup2\n      sload\n      dup2\n      0xff\n      mul\n      not\n      and\n      swap1\n      dup4\n      iszero\n      iszero\n      mul\n      or\n      swap1\n      sstore\n      pop\n        /* \"contracts/POMToken.sol\":7194:7236  LimitsUpdated(_maxTx, _maxWallet, _active) */\n      0xc3e35da80dd50e2a487eb09d9fd3dcfb815ed597fedfcbc93588da440b2d45a3\n        /* \"contracts/POMToken.sol\":7208:7214  _maxTx */\n      dup4\n        /* \"contracts/POMToken.sol\":7216:7226  _maxWallet */\n      dup4\n        /* \"contracts/POMToken.sol\":7228:7235  _active */\n      dup4\n        /* \"contracts/POMToken.sol\":7194:7236  LimitsUpdated(_maxTx, _maxWallet, _active) */\n      mload(0x40)\n      tag_258\n      swap4\n      swap3\n      swap2\n      swap1\n      tag_259\n      jump\t// in\n    tag_258:\n      mload(0x40)\n      dup1\n      swap2\n      sub\n      swap1\n      log1\n        /* \"contracts/POMToken.sol\":6959:7243  function setLimits(... */\n      pop\n      pop\n      pop\n      jump\t// out\n        /* \"contracts/POMToken.sol\":1480:1569  address public constant OWNER_WALLET =... */\n    tag_175:\n        /* \"contracts/POMToken.sol\":1527:1569  0xDfb98530d77eE2d29eA7933c02Eff50310201145 */\n      0xdfb98530d77ee2d29ea7933c02eff50310201145\n        /* \"contracts/POMToken.sol\":1480:1569  address public constant OWNER_WALLET =... */\n      dup2\n      jump\t// out\n        /* \"@openzeppelin/contracts/utils/Context.sol\":656:752  function _msgSender() internal view virtual returns (address) {... */\n    tag_186:\n        /* \"@openzeppelin/contracts/utils/Context.sol\":709:716  address */\n      0x00\n        /* \"@openzeppelin/contracts/utils/Context.sol\":735:745  msg.sender */\n      caller\n        /* \"@openzeppelin/contracts/utils/Context.sol\":728:745  return msg.sender */\n      swap1\n      pop\n        /* \"@openzeppelin/contracts/utils/Context.sol\":656:752  function _msgSender() internal view virtual returns (address) {... */\n      swap1\n      jump\t// out\n        /* \"@openzeppelin/contracts/token/ERC20/ERC20.sol\":8630:8758  function _approve(address owner, address spender, uint256 value) internal {... */\n    tag_188:\n        /* \"@openzeppelin/contracts/token/ERC20/ERC20.sol\":8714:8751  _approve(owner, spender, value, true) */\n      tag_262\n        /* \"@openzeppelin/contracts/token/ERC20/ERC20.sol\":8723:8728  owner */\n      dup4\n        /* \"@openzeppelin/contracts/token/ERC20/ERC20.sol\":8730:8737  spender */\n      dup4\n        /* \"@openzeppelin/contracts/token/ERC20/ERC20.sol\":8739:8744  value */\n      dup4\n        /* \"@openzeppelin/contracts/token/ERC20/ERC20.sol\":8746:8750  true */\n      0x01\n        /* \"@openzeppelin/contracts/token/ERC20/ERC20.sol\":8714:8722  _approve */\n      tag_263\n        /* \"@openzeppelin/contracts/token/ERC20/ERC20.sol\":8714:8751  _approve(owner, spender, value, true) */\n      jump\t// in\n    tag_262:\n        /* \"@openzeppelin/contracts/token/ERC20/ERC20.sol\":8630:8758  function _approve(address owner, address spender, uint256 value) internal {... */\n      pop\n      pop\n      pop\n      jump\t// out\n        /* \"@openzeppelin/contracts/token/ERC20/ERC20.sol\":10319:10795  function _spendAllowance(address owner, address spender, uint256 value) internal virtual {... */\n    tag_193:\n        /* \"@openzeppelin/contracts/token/ERC20/ERC20.sol\":10418:10442  uint256 currentAllowance */\n      0x00\n        /* \"@openzeppelin/contracts/token/ERC20/ERC20.sol\":10445:10470  allowance(owner, spender) */\n      tag_265\n        /* \"@openzeppelin/contracts/token/ERC20/ERC20.sol\":10455:10460  owner */\n      dup5\n        /* \"@openzeppelin/contracts/token/ERC20/ERC20.sol\":10462:10469  spender */\n      dup5\n        /* \"@openzeppelin/contracts/token/ERC20/ERC20.sol\":10445:10454  allowance */\n      tag_159\n        /* \"@openzeppelin/contracts/token/ERC20/ERC20.sol\":10445:10470  allowance(owner, spender) */\n      jump\t// in\n    tag_265:\n        /* \"@openzeppelin/contracts/token/ERC20/ERC20.sol\":10418:10470  uint256 currentAllowance = allowance(owner, spender) */\n      swap1\n      pop\n        /* \"@openzeppelin/contracts/token/ERC20/ERC20.sol\":10503:10520  type(uint256).max */\n      0xffffffffffffffffffffffffffffffffffffffffffffffffffffffffffffffff\n        /* \"@openzeppelin/contracts/token/ERC20/ERC20.sol\":10484:10500  currentAllowance */\n      dup2\n        /* \"@openzeppelin/contracts/token/ERC20/ERC20.sol\":10484:10520  currentAllowance < type(uint256).max */\n      lt\n        /* \"@openzeppelin/contracts/token/ERC20/ERC20.sol\":10480:10789  if (currentAllowance < type(uint256).max) {... */\n      iszero\n      tag_266\n      jumpi\n        /* \"@openzeppelin/contracts/token/ERC20/ERC20.sol\":10559:10564  value */\n      dup2\n        /* \"@openzeppelin/contracts/token/ERC20/ERC20.sol\":10540:10556  currentAllowance */\n      dup2\n        /* \"@openzeppelin/contracts/token/ERC20/ERC20.sol\":10540:10564  currentAllowance < value */\n      lt\n        /* \"@openzeppelin/contracts/token/ERC20/ERC20.sol\":10536:10666  if (currentAllowance < value) {... */\n      iszero\n      tag_267\n      jumpi\n        /* \"@openzeppelin/contracts/token/ERC20/ERC20.sol\":10618:10625  spender */\n      dup3\n        /* \"@openzeppelin/contracts/token/ERC20/ERC20.sol\":10627:10643  currentAllowance */\n      dup2\n        /* \"@openzeppelin/contracts/token/ERC20/ERC20.sol\":10645:10650  value */\n      dup4\n        /* \"@openzeppelin/contracts/token/ERC20/ERC20.sol\":10591:10651  ERC20InsufficientAllowance(spender, currentAllowance, value) */\n      mload(0x40)\n      0xfb8f41b200000000000000000000000000000000000000000000000000000000\n      dup2\n      mstore\n      0x04\n      add\n      tag_268\n      swap4\n      swap3\n      swap2\n      swap1\n      tag_269\n      jump\t// in\n    tag_268:\n      mload(0x40)\n      dup1\n      swap2\n      sub\n      swap1\n      revert\n        /* \"@openzeppelin/contracts/token/ERC20/ERC20.sol\":10536:10666  if (currentAllowance < value) {... */\n    tag_267:\n        /* \"@openzeppelin/contracts/token/ERC20/ERC20.sol\":10707:10764  _approve(owner, spender, currentAllowance - value, false) */\n      tag_270\n        /* \"@openzeppelin/contracts/token/ERC20/ERC20.sol\":10716:10721  owner */\n      dup5\n        /* \"@openzeppelin/contracts/token/ERC20/ERC20.sol\":10723:10730  spender */\n      dup5\n        /* \"@openzeppelin/contracts/token/ERC20/ERC20.sol\":10751:10756  value */\n      dup5\n        /* \"@openzeppelin/contracts/token/ERC20/ERC20.sol\":10732:10748  currentAllowance */\n      dup5\n        /* \"@openzeppelin/contracts/token/ERC20/ERC20.sol\":10732:10756  currentAllowance - value */\n      sub\n        /* \"@openzeppelin/contracts/token/ERC20/ERC20.sol\":10758:10763  false */\n      0x00\n        /* \"@openzeppelin/contracts/token/ERC20/ERC20.sol\":10707:10715  _approve */\n      tag_263\n        /* \"@openzeppelin/contracts/token/ERC20/ERC20.sol\":10707:10764  _approve(owner, spender, currentAllowance - value, false) */\n      jump\t// in\n    tag_270:\n        /* \"@openzeppelin/contracts/token/ERC20/ERC20.sol\":10480:10789  if (currentAllowance < type(uint256).max) {... */\n    tag_266:\n        /* \"@openzeppelin/contracts/token/ERC20/ERC20.sol\":10408:10795  {... */\n      pop\n        /* \"@openzeppelin/contracts/token/ERC20/ERC20.sol\":10319:10795  function _spendAllowance(address owner, address spender, uint256 value) internal virtual {... */\n      pop\n      pop\n      pop\n      jump\t// out\n        /* \"@openzeppelin/contracts/token/ERC20/ERC20.sol\":5297:5597  function _transfer(address from, address to, uint256 value) internal {... */\n    tag_195:\n        /* \"@openzeppelin/contracts/token/ERC20/ERC20.sol\":5396:5397  0 */\n      0x00\n        /* \"@openzeppelin/contracts/token/ERC20/ERC20.sol\":5380:5398  from == address(0) */\n      0xffffffffffffffffffffffffffffffffffffffff\n      and\n        /* \"@openzeppelin/contracts/token/ERC20/ERC20.sol\":5380:5384  from */\n      dup4\n        /* \"@openzeppelin/contracts/token/ERC20/ERC20.sol\":5380:5398  from == address(0) */\n      0xffffffffffffffffffffffffffffffffffffffff\n      and\n      sub\n        /* \"@openzeppelin/contracts/token/ERC20/ERC20.sol\":5376:5462  if (from == address(0)) {... */\n      tag_272\n      jumpi\n        /* \"@openzeppelin/contracts/token/ERC20/ERC20.sol\":5448:5449  0 */\n      0x00\n        /* \"@openzeppelin/contracts/token/ERC20/ERC20.sol\":5421:5451  ERC20InvalidSender(address(0)) */\n      mload(0x40)\n      0x96c6fd1e00000000000000000000000000000000000000000000000000000000\n      dup2\n      mstore\n      0x04\n      add\n      tag_273\n      swap2\n      swap1\n      tag_70\n      jump\t// in\n    tag_273:\n      mload(0x40)\n      dup1\n      swap2\n      sub\n      swap1\n      revert\n        /* \"@openzeppelin/contracts/token/ERC20/ERC20.sol\":5376:5462  if (from == address(0)) {... */\n    tag_272:\n        /* \"@openzeppelin/contracts/token/ERC20/ERC20.sol\":5489:5490  0 */\n      0x00\n        /* \"@openzeppelin/contracts/token/ERC20/ERC20.sol\":5475:5491  to == address(0) */\n      0xffffffffffffffffffffffffffffffffffffffff\n      and\n        /* \"@openzeppelin/contracts/token/ERC20/ERC20.sol\":5475:5477  to */\n      dup3\n        /* \"@openzeppelin/contracts/token/ERC20/ERC20.sol\":5475:5491  to == address(0) */\n      0xffffffffffffffffffffffffffffffffffffffff\n      and\n      sub\n        /* \"@openzeppelin/contracts/token/ERC20/ERC20.sol\":5471:5557  if (to == address(0)) {... */\n      tag_274\n      jumpi\n        /* \"@openzeppelin/contracts/token/ERC20/ERC20.sol\":5543:5544  0 */\n      0x00\n        /* \"@openzeppelin/contracts/token/ERC20/ERC20.sol\":5514:5546  ERC20InvalidReceiver(address(0)) */\n      mload(0x40)\n      0xec442f0500000000000000000000000000000000000000000000000000000000\n      dup2\n      mstore\n      0x04\n      add\n      tag_275\n      swap2\n      swap1\n      tag_70\n      jump\t// in\n    tag_275:\n      mload(0x40)\n      dup1\n      swap2\n      sub\n      swap1\n      revert\n        /* \"@openzeppelin/contracts/token/ERC20/ERC20.sol\":5471:5557  if (to == address(0)) {... */\n    tag_274:\n        /* \"@openzeppelin/contracts/token/ERC20/ERC20.sol\":5566:5590  _update(from, to, value) */\n      tag_276\n        /* \"@openzeppelin/contracts/token/ERC20/ERC20.sol\":5574:5578  from */\n      dup4\n        /* \"@openzeppelin/contracts/token/ERC20/ERC20.sol\":5580:5582  to */\n      dup4\n        /* \"@openzeppelin/contracts/token/ERC20/ERC20.sol\":5584:5589  value */\n      dup4\n        /* \"@openzeppelin/contracts/token/ERC20/ERC20.sol\":5566:5573  _update */\n      tag_277\n        /* \"@openzeppelin/contracts/token/ERC20/ERC20.sol\":5566:5590  _update(from, to, value) */\n      jump\t// in\n    tag_276:\n        /* \"@openzeppelin/contracts/token/ERC20/ERC20.sol\":5297:5597  function _transfer(address from, address to, uint256 value) internal {... */\n      pop\n      pop\n      pop\n      jump\t// out\n        /* \"@openzeppelin/contracts/access/Ownable.sol\":1796:1958  function _checkOwner() internal view virtual {... */\n    tag_199:\n        /* \"@openzeppelin/contracts/access/Ownable.sol\":1866:1878  _msgSender() */\n      tag_279\n        /* \"@openzeppelin/contracts/access/Ownable.sol\":1866:1876  _msgSender */\n      tag_186\n        /* \"@openzeppelin/contracts/access/Ownable.sol\":1866:1878  _msgSender() */\n      jump\t// in\n    tag_279:\n        /* \"@openzeppelin/contracts/access/Ownable.sol\":1855:1878  owner() != _msgSender() */\n      0xffffffffffffffffffffffffffffffffffffffff\n      and\n        /* \"@openzeppelin/contracts/access/Ownable.sol\":1855:1862  owner() */\n      tag_280\n        /* \"@openzeppelin/contracts/access/Ownable.sol\":1855:1860  owner */\n      tag_128\n        /* \"@openzeppelin/contracts/access/Ownable.sol\":1855:1862  owner() */\n      jump\t// in\n    tag_280:\n        /* \"@openzeppelin/contracts/access/Ownable.sol\":1855:1878  owner() != _msgSender() */\n      0xffffffffffffffffffffffffffffffffffffffff\n      and\n      eq\n        /* \"@openzeppelin/contracts/access/Ownable.sol\":1851:1952  if (owner() != _msgSender()) {... */\n      tag_281\n      jumpi\n        /* \"@openzeppelin/contracts/access/Ownable.sol\":1928:1940  _msgSender() */\n      tag_282\n        /* \"@openzeppelin/contracts/access/Ownable.sol\":1928:1938  _msgSender */\n      tag_186\n        /* \"@openzeppelin/contracts/access/Ownable.sol\":1928:1940  _msgSender() */\n      jump\t// in\n    tag_282:\n        /* \"@openzeppelin/contracts/access/Ownable.sol\":1901:1941  OwnableUnauthorizedAccount(_msgSender()) */\n      mload(0x40)\n      0x118cdaa700000000000000000000000000000000000000000000000000000000\n      dup2\n      mstore\n      0x04\n      add\n      tag_283\n      swap2\n      swap1\n      tag_70\n      jump\t// in\n    tag_283:\n      mload(0x40)\n      dup1\n      swap2\n      sub\n      swap1\n      revert\n        /* \"@openzeppelin/contracts/access/Ownable.sol\":1851:1952  if (owner() != _msgSender()) {... */\n    tag_281:\n        /* \"@openzeppelin/contracts/access/Ownable.sol\":1796:1958  function _checkOwner() internal view virtual {... */\n      jump\t// out\n        /* \"@openzeppelin/contracts/security/Pausable.sol\":2433:2550  function _unpause() internal virtual whenPaused {... */\n    tag_202:\n        /* \"@openzeppelin/contracts/security/Pausable.sol\":1486:1502  _requirePaused() */\n      tag_285\n        /* \"@openzeppelin/contracts/security/Pausable.sol\":1486:1500  _requirePaused */\n      tag_286\n        /* \"@openzeppelin/contracts/security/Pausable.sol\":1486:1502  _requirePaused() */\n      jump\t// in\n    tag_285:\n        /* \"@openzeppelin/contracts/security/Pausable.sol\":2501:2506  false */\n      0x00\n        /* \"@openzeppelin/contracts/security/Pausable.sol\":2491:2498  _paused */\n      0x05\n      0x14\n        /* \"@openzeppelin/contracts/security/Pausable.sol\":2491:2506  _paused = false */\n      0x0100\n      exp\n      dup2\n      sload\n      dup2\n      0xff\n      mul\n      not\n      and\n      swap1\n      dup4\n      iszero\n      iszero\n      mul\n      or\n      swap1\n      sstore\n      pop\n        /* \"@openzeppelin/contracts/security/Pausable.sol\":2521:2543  Unpaused(_msgSender()) */\n      0x5db9ee0a495bf2e6ff9c91a7834c1ba4fdd244a5e8aa4e537bd38aeae4b073aa\n        /* \"@openzeppelin/contracts/security/Pausable.sol\":2530:2542  _msgSender() */\n      tag_288\n        /* \"@openzeppelin/contracts/security/Pausable.sol\":2530:2540  _msgSender */\n      tag_186\n        /* \"@openzeppelin/contracts/security/Pausable.sol\":2530:2542  _msgSender() */\n      jump\t// in\n    tag_288:\n        /* \"@openzeppelin/contracts/security/Pausable.sol\":2521:2543  Unpaused(_msgSender()) */\n      mload(0x40)\n      tag_289\n      swap2\n      swap1\n      tag_70\n      jump\t// in\n    tag_289:\n      mload(0x40)\n      dup1\n      swap2\n      sub\n      swap1\n      log1\n        /* \"@openzeppelin/contracts/security/Pausable.sol\":2433:2550  function _unpause() internal virtual whenPaused {... */\n      jump\t// out\n        /* \"@openzeppelin/contracts/token/ERC20/ERC20.sol\":7888:8094  function _burn(address account, uint256 value) internal {... */\n    tag_209:\n        /* \"@openzeppelin/contracts/token/ERC20/ERC20.sol\":7977:7978  0 */\n      0x00\n        /* \"@openzeppelin/contracts/token/ERC20/ERC20.sol\":7958:7979  account == address(0) */\n      0xffffffffffffffffffffffffffffffffffffffff\n      and\n        /* \"@openzeppelin/contracts/token/ERC20/ERC20.sol\":7958:7965  account */\n      dup3\n        /* \"@openzeppelin/contracts/token/ERC20/ERC20.sol\":7958:7979  account == address(0) */\n      0xffffffffffffffffffffffffffffffffffffffff\n      and\n      sub\n        /* \"@openzeppelin/contracts/token/ERC20/ERC20.sol\":7954:8043  if (account == address(0)) {... */\n      tag_291\n      jumpi\n        /* \"@openzeppelin/contracts/token/ERC20/ERC20.sol\":8029:8030  0 */\n      0x00\n        /* \"@openzeppelin/contracts/token/ERC20/ERC20.sol\":8002:8032  ERC20InvalidSender(address(0)) */\n      mload(0x40)\n      0x96c6fd1e00000000000000000000000000000000000000000000000000000000\n      dup2\n      mstore\n      0x04\n      add\n      tag_292\n      swap2\n      swap1\n      tag_70\n      jump\t// in\n    tag_292:\n      mload(0x40)\n      dup1\n      swap2\n      sub\n      swap1\n      revert\n        /* \"@openzeppelin/contracts/token/ERC20/ERC20.sol\":7954:8043  if (account == address(0)) {... */\n    tag_291:\n        /* \"@openzeppelin/contracts/token/ERC20/ERC20.sol\":8052:8087  _update(account, address(0), value) */\n      tag_293\n        /* \"@openzeppelin/contracts/token/ERC20/ERC20.sol\":8060:8067  account */\n      dup3\n        /* \"@openzeppelin/contracts/token/ERC20/ERC20.sol\":8077:8078  0 */\n      0x00\n        /* \"@openzeppelin/contracts/token/ERC20/ERC20.sol\":8081:8086  value */\n      dup4\n        /* \"@openzeppelin/contracts/token/ERC20/ERC20.sol\":8052:8059  _update */\n      tag_277\n        /* \"@openzeppelin/contracts/token/ERC20/ERC20.sol\":8052:8087  _update(account, address(0), value) */\n      jump\t// in\n    tag_293:\n        /* \"@openzeppelin/contracts/token/ERC20/ERC20.sol\":7888:8094  function _burn(address account, uint256 value) internal {... */\n      pop\n      pop\n      jump\t// out\n        /* \"@openzeppelin/contracts/access/Ownable.sol\":2912:3099  function _transferOwnership(address newOwner) internal virtual {... */\n    tag_216:\n        /* \"@openzeppelin/contracts/access/Ownable.sol\":2985:3001  address oldOwner */\n      0x00\n        /* \"@openzeppelin/contracts/access/Ownable.sol\":3004:3010  _owner */\n      0x05\n      0x00\n      swap1\n      sload\n      swap1\n      0x0100\n      exp\n      swap1\n      div\n      0xffffffffffffffffffffffffffffffffffffffff\n      and\n        /* \"@openzeppelin/contracts/access/Ownable.sol\":2985:3010  address oldOwner = _owner */\n      swap1\n      pop\n        /* \"@openzeppelin/contracts/access/Ownable.sol\":3029:3037  newOwner */\n      dup2\n        /* \"@openzeppelin/contracts/access/Ownable.sol\":3020:3026  _owner */\n      0x05\n      0x00\n        /* \"@openzeppelin/contracts/access/Ownable.sol\":3020:3037  _owner = newOwner */\n      0x0100\n      exp\n      dup2\n      sload\n      dup2\n      0xffffffffffffffffffffffffffffffffffffffff\n      mul\n      not\n      and\n      swap1\n      dup4\n      0xffffffffffffffffffffffffffffffffffffffff\n      and\n      mul\n      or\n      swap1\n      sstore\n      pop\n        /* \"@openzeppelin/contracts/access/Ownable.sol\":3083:3091  newOwner */\n      dup2\n        /* \"@openzeppelin/contracts/access/Ownable.sol\":3052:3092  OwnershipTransferred(oldOwner, newOwner) */\n      0xffffffffffffffffffffffffffffffffffffffff\n      and\n        /* \"@openzeppelin/contracts/access/Ownable.sol\":3073:3081  oldOwner */\n      dup2\n        /* \"@openzeppelin/contracts/access/Ownable.sol\":3052:3092  OwnershipTransferred(oldOwner, newOwner) */\n      0xffffffffffffffffffffffffffffffffffffffff\n      and\n      0x8be0079c531659141344cd1fd0a4f28419497f9722a3daafe3b4186f6b6457e0\n      mload(0x40)\n      mload(0x40)\n      dup1\n      swap2\n      sub\n      swap1\n      log3\n        /* \"@openzeppelin/contracts/access/Ownable.sol\":2975:3099  {... */\n      pop\n        /* \"@openzeppelin/contracts/access/Ownable.sol\":2912:3099  function _transferOwnership(address newOwner) internal virtual {... */\n      pop\n      jump\t// out\n        /* \"@openzeppelin/contracts/security/Pausable.sol\":2186:2301  function _pause() internal virtual whenNotPaused {... */\n    tag_225:\n        /* \"@openzeppelin/contracts/security/Pausable.sol\":1239:1258  _requireNotPaused() */\n      tag_296\n        /* \"@openzeppelin/contracts/security/Pausable.sol\":1239:1256  _requireNotPaused */\n      tag_297\n        /* \"@openzeppelin/contracts/security/Pausable.sol\":1239:1258  _requireNotPaused() */\n      jump\t// in\n    tag_296:\n        /* \"@openzeppelin/contracts/security/Pausable.sol\":2255:2259  true */\n      0x01\n        /* \"@openzeppelin/contracts/security/Pausable.sol\":2245:2252  _paused */\n      0x05\n      0x14\n        /* \"@openzeppelin/contracts/security/Pausable.sol\":2245:2259  _paused = true */\n      0x0100\n      exp\n      dup2\n      sload\n      dup2\n      0xff\n      mul\n      not\n      and\n      swap1\n      dup4\n      iszero\n      iszero\n      mul\n      or\n      swap1\n      sstore\n      pop\n        /* \"@openzeppelin/contracts/security/Pausable.sol\":2274:2294  Paused(_msgSender()) */\n      0x62e78cea01bee320cd4e420270b5ea74000d11b0c9f74754ebdbfc544b05a258\n        /* \"@openzeppelin/contracts/security/Pausable.sol\":2281:2293  _msgSender() */\n      tag_299\n        /* \"@openzeppelin/contracts/security/Pausable.sol\":2281:2291  _msgSender */\n      tag_186\n        /* \"@openzeppelin/contracts/security/Pausable.sol\":2281:2293  _msgSender() */\n      jump\t// in\n    tag_299:\n        /* \"@openzeppelin/contracts/security/Pausable.sol\":2274:2294  Paused(_msgSender()) */\n      mload(0x40)\n      tag_300\n      swap2\n      swap1\n      tag_70\n      jump\t// in\n    tag_300:\n      mload(0x40)\n      dup1\n      swap2\n      sub\n      swap1\n      log1\n        /* \"@openzeppelin/contracts/security/Pausable.sol\":2186:2301  function _pause() internal virtual whenNotPaused {... */\n      jump\t// out\n        /* \"@openzeppelin/contracts/token/ERC20/ERC20.sol\":9605:10037  function _approve(address owner, address spender, uint256 value, bool emitEvent) internal virtual {... */\n    tag_263:\n        /* \"@openzeppelin/contracts/token/ERC20/ERC20.sol\":9734:9735  0 */\n      0x00\n        /* \"@openzeppelin/contracts/token/ERC20/ERC20.sol\":9717:9736  owner == address(0) */\n      0xffffffffffffffffffffffffffffffffffffffff\n      and\n        /* \"@openzeppelin/contracts/token/ERC20/ERC20.sol\":9717:9722  owner */\n      dup5\n        /* \"@openzeppelin/contracts/token/ERC20/ERC20.sol\":9717:9736  owner == address(0) */\n      0xffffffffffffffffffffffffffffffffffffffff\n      and\n      sub\n        /* \"@openzeppelin/contracts/token/ERC20/ERC20.sol\":9713:9802  if (owner == address(0)) {... */\n      tag_302\n      jumpi\n        /* \"@openzeppelin/contracts/token/ERC20/ERC20.sol\":9788:9789  0 */\n      0x00\n        /* \"@openzeppelin/contracts/token/ERC20/ERC20.sol\":9759:9791  ERC20InvalidApprover(address(0)) */\n      mload(0x40)\n      0xe602df0500000000000000000000000000000000000000000000000000000000\n      dup2\n      mstore\n      0x04\n      add\n      tag_303\n      swap2\n      swap1\n      tag_70\n      jump\t// in\n    tag_303:\n      mload(0x40)\n      dup1\n      swap2\n      sub\n      swap1\n      revert\n        /* \"@openzeppelin/contracts/token/ERC20/ERC20.sol\":9713:9802  if (owner == address(0)) {... */\n    tag_302:\n        /* \"@openzeppelin/contracts/token/ERC20/ERC20.sol\":9834:9835  0 */\n      0x00\n        /* \"@openzeppelin/contracts/token/ERC20/ERC20.sol\":9815:9836  spender == address(0) */\n      0xffffffffffffffffffffffffffffffffffffffff\n      and\n        /* \"@openzeppelin/contracts/token/ERC20/ERC20.sol\":9815:9822  spender */\n      dup4\n        /* \"@openzeppelin/contracts/token/ERC20/ERC20.sol\":9815:9836  spender == address(0) */\n      0xffffffffffffffffffffffffffffffffffffffff\n      and\n      sub\n        /* \"@openzeppelin/contracts/token/ERC20/ERC20.sol\":9811:9901  if (spender == address(0)) {... */\n      tag_304\n      jumpi\n        /* \"@openzeppelin/contracts/token/ERC20/ERC20.sol\":9887:9888  0 */\n      0x00\n        /* \"@openzeppelin/contracts/token/ERC20/ERC20.sol\":9859:9890  ERC20InvalidSpender(address(0)) */\n      mload(0x40)\n      0x94280d6200000000000000000000000000000000000000000000000000000000\n      dup2\n      mstore\n      0x04\n      add\n      tag_305\n      swap2\n      swap1\n      tag_70\n      jump\t// in\n    tag_305:\n      mload(0x40)\n      dup1\n      swap2\n      sub\n      swap1\n      revert\n        /* \"@openzeppelin/contracts/token/ERC20/ERC20.sol\":9811:9901  if (spender == address(0)) {... */\n    tag_304:\n        /* \"@openzeppelin/contracts/token/ERC20/ERC20.sol\":9940:9945  value */\n      dup2\n        /* \"@openzeppelin/contracts/token/ERC20/ERC20.sol\":9910:9921  _allowances */\n      0x01\n        /* \"@openzeppelin/contracts/token/ERC20/ERC20.sol\":9910:9928  _allowances[owner] */\n      0x00\n        /* \"@openzeppelin/contracts/token/ERC20/ERC20.sol\":9922:9927  owner */\n      dup7\n        /* \"@openzeppelin/contracts/token/ERC20/ERC20.sol\":9910:9928  _allowances[owner] */\n      0xffffffffffffffffffffffffffffffffffffffff\n      and\n      0xffffffffffffffffffffffffffffffffffffffff\n      and\n      dup2\n      mstore\n      0x20\n      add\n      swap1\n      dup2\n      mstore\n      0x20\n      add\n      0x00\n      keccak256\n        /* \"@openzeppelin/contracts/token/ERC20/ERC20.sol\":9910:9937  _allowances[owner][spender] */\n      0x00\n        /* \"@openzeppelin/contracts/token/ERC20/ERC20.sol\":9929:9936  spender */\n      dup6\n        /* \"@openzeppelin/contracts/token/ERC20/ERC20.sol\":9910:9937  _allowances[owner][spender] */\n      0xffffffffffffffffffffffffffffffffffffffff\n      and\n      0xffffffffffffffffffffffffffffffffffffffff\n      and\n      dup2\n      mstore\n      0x20\n      add\n      swap1\n      dup2\n      mstore\n      0x20\n      add\n      0x00\n      keccak256\n        /* \"@openzeppelin/contracts/token/ERC20/ERC20.sol\":9910:9945  _allowances[owner][spender] = value */\n      dup2\n      swap1\n      sstore\n      pop\n        /* \"@openzeppelin/contracts/token/ERC20/ERC20.sol\":9959:9968  emitEvent */\n      dup1\n        /* \"@openzeppelin/contracts/token/ERC20/ERC20.sol\":9955:10031  if (emitEvent) {... */\n      iszero\n      tag_306\n      jumpi\n        /* \"@openzeppelin/contracts/token/ERC20/ERC20.sol\":10005:10012  spender */\n      dup3\n        /* \"@openzeppelin/contracts/token/ERC20/ERC20.sol\":9989:10020  Approval(owner, spender, value) */\n      0xffffffffffffffffffffffffffffffffffffffff\n      and\n        /* \"@openzeppelin/contracts/token/ERC20/ERC20.sol\":9998:10003  owner */\n      dup5\n        /* \"@openzeppelin/contracts/token/ERC20/ERC20.sol\":9989:10020  Approval(owner, spender, value) */\n      0xffffffffffffffffffffffffffffffffffffffff\n      and\n      0x8c5be1e5ebec7d5bd14f71427d1e84f3dd0314c0f7b2291e5b200ac8c7c3b925\n        /* \"@openzeppelin/contracts/token/ERC20/ERC20.sol\":10014:10019  value */\n      dup5\n        /* \"@openzeppelin/contracts/token/ERC20/ERC20.sol\":9989:10020  Approval(owner, spender, value) */\n      mload(0x40)\n      tag_307\n      swap2\n      swap1\n      tag_61\n      jump\t// in\n    tag_307:\n      mload(0x40)\n      dup1\n      swap2\n      sub\n      swap1\n      log3\n        /* \"@openzeppelin/contracts/token/ERC20/ERC20.sol\":9955:10031  if (emitEvent) {... */\n    tag_306:\n        /* \"@openzeppelin/contracts/token/ERC20/ERC20.sol\":9605:10037  function _approve(address owner, address spender, uint256 value, bool emitEvent) internal virtual {... */\n      pop\n      pop\n      pop\n      pop\n      jump\t// out\n        /* \"contracts/POMToken.sol\":8579:10146  function _update(... */\n    tag_277:\n        /* \"@openzeppelin/contracts/security/Pausable.sol\":1239:1258  _requireNotPaused() */\n      tag_309\n        /* \"@openzeppelin/contracts/security/Pausable.sol\":1239:1256  _requireNotPaused */\n      tag_297\n        /* \"@openzeppelin/contracts/security/Pausable.sol\":1239:1258  _requireNotPaused() */\n      jump\t// in\n    tag_309:\n        /* \"contracts/POMToken.sol\":8822:8823  0 */\n      0x00\n        /* \"contracts/POMToken.sol\":8806:8824  from == address(0) */\n      0xffffffffffffffffffffffffffffffffffffffff\n      and\n        /* \"contracts/POMToken.sol\":8806:8810  from */\n      dup4\n        /* \"contracts/POMToken.sol\":8806:8824  from == address(0) */\n      0xffffffffffffffffffffffffffffffffffffffff\n      and\n      eq\n        /* \"contracts/POMToken.sol\":8806:8844  from == address(0) || to == address(0) */\n      dup1\n      tag_311\n      jumpi\n      pop\n        /* \"contracts/POMToken.sol\":8842:8843  0 */\n      0x00\n        /* \"contracts/POMToken.sol\":8828:8844  to == address(0) */\n      0xffffffffffffffffffffffffffffffffffffffff\n      and\n        /* \"contracts/POMToken.sol\":8828:8830  to */\n      dup3\n        /* \"contracts/POMToken.sol\":8828:8844  to == address(0) */\n      0xffffffffffffffffffffffffffffffffffffffff\n      and\n      eq\n        /* \"contracts/POMToken.sol\":8806:8844  from == address(0) || to == address(0) */\n    tag_311:\n        /* \"contracts/POMToken.sol\":8806:8869  from == address(0) || to == address(0) || from == address(this) */\n      dup1\n      tag_312\n      jumpi\n      pop\n        /* \"contracts/POMToken.sol\":8864:8868  this */\n      address\n        /* \"contracts/POMToken.sol\":8848:8869  from == address(this) */\n      0xffffffffffffffffffffffffffffffffffffffff\n      and\n        /* \"contracts/POMToken.sol\":8848:8852  from */\n      dup4\n        /* \"contracts/POMToken.sol\":8848:8869  from == address(this) */\n      0xffffffffffffffffffffffffffffffffffffffff\n      and\n      eq\n        /* \"contracts/POMToken.sol\":8806:8869  from == address(0) || to == address(0) || from == address(this) */\n    tag_312:\n        /* \"contracts/POMToken.sol\":8802:8947  if (from == address(0) || to == address(0) || from == address(this)) {... */\n      iszero\n      tag_313\n      jumpi\n        /* \"contracts/POMToken.sol\":8885:8916  super._update(from, to, amount) */\n      tag_314\n        /* \"contracts/POMToken.sol\":8899:8903  from */\n      dup4\n        /* \"contracts/POMToken.sol\":8905:8907  to */\n      dup4\n        /* \"contracts/POMToken.sol\":8909:8915  amount */\n      dup4\n        /* \"contracts/POMToken.sol\":8885:8898  super._update */\n      tag_315\n        /* \"contracts/POMToken.sol\":8885:8916  super._update(from, to, amount) */\n      jump\t// in\n    tag_314:\n        /* \"contracts/POMToken.sol\":8930:8937  return; */\n      jump(tag_310)\n        /* \"contracts/POMToken.sol\":8802:8947  if (from == address(0) || to == address(0) || from == address(this)) {... */\n    tag_313:\n        /* \"contracts/POMToken.sol\":9158:9162  this */\n      address\n        /* \"contracts/POMToken.sol\":9144:9163  to != address(this) */\n      0xffffffffffffffffffffffffffffffffffffffff\n      and\n        /* \"contracts/POMToken.sol\":9144:9146  to */\n      dup3\n        /* \"contracts/POMToken.sol\":9144:9163  to != address(this) */\n      0xffffffffffffffffffffffffffffffffffffffff\n      and\n      sub\n        /* \"contracts/POMToken.sol\":9123:9234  require(... */\n      tag_316\n      jumpi\n      mload(0x40)\n      0x08c379a000000000000000000000000000000000000000000000000000000000\n      dup2\n      mstore\n      0x04\n      add\n      tag_317\n      swap1\n      tag_318\n      jump\t// in\n    tag_317:\n      mload(0x40)\n      dup1\n      swap2\n      sub\n      swap1\n      revert\n    tag_316:\n        /* \"contracts/POMToken.sol\":9338:9352  tradingEnabled */\n      0x05\n      0x15\n      swap1\n      sload\n      swap1\n      0x0100\n      exp\n      swap1\n      div\n      0xff\n      and\n        /* \"contracts/POMToken.sol\":9337:9352  !tradingEnabled */\n      iszero\n        /* \"contracts/POMToken.sol\":9337:9374  !tradingEnabled && from != address(0) */\n      dup1\n      iszero\n      tag_319\n      jumpi\n      pop\n        /* \"contracts/POMToken.sol\":9372:9373  0 */\n      0x00\n        /* \"contracts/POMToken.sol\":9356:9374  from != address(0) */\n      0xffffffffffffffffffffffffffffffffffffffff\n      and\n        /* \"contracts/POMToken.sol\":9356:9360  from */\n      dup4\n        /* \"contracts/POMToken.sol\":9356:9374  from != address(0) */\n      0xffffffffffffffffffffffffffffffffffffffff\n      and\n      eq\n      iszero\n        /* \"contracts/POMToken.sol\":9337:9374  !tradingEnabled && from != address(0) */\n    tag_319:\n        /* \"contracts/POMToken.sol\":9337:9394  !tradingEnabled && from != address(0) && to != address(0) */\n      dup1\n      iszero\n      tag_320\n      jumpi\n      pop\n        /* \"contracts/POMToken.sol\":9392:9393  0 */\n      0x00\n        /* \"contracts/POMToken.sol\":9378:9394  to != address(0) */\n      0xffffffffffffffffffffffffffffffffffffffff\n      and\n        /* \"contracts/POMToken.sol\":9378:9380  to */\n      dup3\n        /* \"contracts/POMToken.sol\":9378:9394  to != address(0) */\n      0xffffffffffffffffffffffffffffffffffffffff\n      and\n      eq\n      iszero\n        /* \"contracts/POMToken.sol\":9337:9394  !tradingEnabled && from != address(0) && to != address(0) */\n    tag_320:\n        /* \"contracts/POMToken.sol\":9333:9543  if (!tradingEnabled && from != address(0) && to != address(0)) {... */\n      iszero\n      tag_321\n      jumpi\n        /* \"contracts/POMToken.sol\":9435:9448  isLimitExempt */\n      0x09\n        /* \"contracts/POMToken.sol\":9435:9454  isLimitExempt[from] */\n      0x00\n        /* \"contracts/POMToken.sol\":9449:9453  from */\n      dup5\n        /* \"contracts/POMToken.sol\":9435:9454  isLimitExempt[from] */\n      0xffffffffffffffffffffffffffffffffffffffff\n      and\n      0xffffffffffffffffffffffffffffffffffffffff\n      and\n      dup2\n      mstore\n      0x20\n      add\n      swap1\n      dup2\n      mstore\n      0x20\n      add\n      0x00\n      keccak256\n      0x00\n      swap1\n      sload\n      swap1\n      0x0100\n      exp\n      swap1\n      div\n      0xff\n      and\n        /* \"contracts/POMToken.sol\":9435:9475  isLimitExempt[from] || isLimitExempt[to] */\n      dup1\n      tag_322\n      jumpi\n      pop\n        /* \"contracts/POMToken.sol\":9458:9471  isLimitExempt */\n      0x09\n        /* \"contracts/POMToken.sol\":9458:9475  isLimitExempt[to] */\n      0x00\n        /* \"contracts/POMToken.sol\":9472:9474  to */\n      dup4\n        /* \"contracts/POMToken.sol\":9458:9475  isLimitExempt[to] */\n      0xffffffffffffffffffffffffffffffffffffffff\n      and\n      0xffffffffffffffffffffffffffffffffffffffff\n      and\n      dup2\n      mstore\n      0x20\n      add\n      swap1\n      dup2\n      mstore\n      0x20\n      add\n      0x00\n      keccak256\n      0x00\n      swap1\n      sload\n      swap1\n      0x0100\n      exp\n      swap1\n      div\n      0xff\n      and\n        /* \"contracts/POMToken.sol\":9435:9475  isLimitExempt[from] || isLimitExempt[to] */\n    tag_322:\n        /* \"contracts/POMToken.sol\":9410:9532  require(... */\n      tag_323\n      jumpi\n      mload(0x40)\n      0x08c379a000000000000000000000000000000000000000000000000000000000\n      dup2\n      mstore\n      0x04\n      add\n      tag_324\n      swap1\n      tag_325\n      jump\t// in\n    tag_324:\n      mload(0x40)\n      dup1\n      swap2\n      sub\n      swap1\n      revert\n    tag_323:\n        /* \"contracts/POMToken.sol\":9333:9543  if (!tradingEnabled && from != address(0) && to != address(0)) {... */\n    tag_321:\n        /* \"contracts/POMToken.sol\":9612:9626  limitsInEffect */\n      0x08\n      0x00\n      swap1\n      sload\n      swap1\n      0x0100\n      exp\n      swap1\n      div\n      0xff\n      and\n        /* \"contracts/POMToken.sol\":9612:9648  limitsInEffect && from != address(0) */\n      dup1\n      iszero\n      tag_326\n      jumpi\n      pop\n        /* \"contracts/POMToken.sol\":9646:9647  0 */\n      0x00\n        /* \"contracts/POMToken.sol\":9630:9648  from != address(0) */\n      0xffffffffffffffffffffffffffffffffffffffff\n      and\n        /* \"contracts/POMToken.sol\":9630:9634  from */\n      dup4\n        /* \"contracts/POMToken.sol\":9630:9648  from != address(0) */\n      0xffffffffffffffffffffffffffffffffffffffff\n      and\n      eq\n      iszero\n        /* \"contracts/POMToken.sol\":9612:9648  limitsInEffect && from != address(0) */\n    tag_326:\n        /* \"contracts/POMToken.sol\":9612:9668  limitsInEffect && from != address(0) && to != address(0) */\n      dup1\n      iszero\n      tag_327\n      jumpi\n      pop\n        /* \"contracts/POMToken.sol\":9666:9667  0 */\n      0x00\n        /* \"contracts/POMToken.sol\":9652:9668  to != address(0) */\n      0xffffffffffffffffffffffffffffffffffffffff\n      and\n        /* \"contracts/POMToken.sol\":9652:9654  to */\n      dup3\n        /* \"contracts/POMToken.sol\":9652:9668  to != address(0) */\n      0xffffffffffffffffffffffffffffffffffffffff\n      and\n      eq\n      iszero\n        /* \"contracts/POMToken.sol\":9612:9668  limitsInEffect && from != address(0) && to != address(0) */\n    tag_327:\n        /* \"contracts/POMToken.sol\":9608:10041  if (limitsInEffect && from != address(0) && to != address(0)) {... */\n      iszero\n      tag_328\n      jumpi\n        /* \"contracts/POMToken.sol\":9689:9702  isLimitExempt */\n      0x09\n        /* \"contracts/POMToken.sol\":9689:9708  isLimitExempt[from] */\n      0x00\n        /* \"contracts/POMToken.sol\":9703:9707  from */\n      dup5\n        /* \"contracts/POMToken.sol\":9689:9708  isLimitExempt[from] */\n      0xffffffffffffffffffffffffffffffffffffffff\n      and\n      0xffffffffffffffffffffffffffffffffffffffff\n      and\n      dup2\n      mstore\n      0x20\n      add\n      swap1\n      dup2\n      mstore\n      0x20\n      add\n      0x00\n      keccak256\n      0x00\n      swap1\n      sload\n      swap1\n      0x0100\n      exp\n      swap1\n      div\n      0xff\n      and\n        /* \"contracts/POMToken.sol\":9688:9708  !isLimitExempt[from] */\n      iszero\n        /* \"contracts/POMToken.sol\":9688:9730  !isLimitExempt[from] && !isLimitExempt[to] */\n      dup1\n      iszero\n      tag_329\n      jumpi\n      pop\n        /* \"contracts/POMToken.sol\":9713:9726  isLimitExempt */\n      0x09\n        /* \"contracts/POMToken.sol\":9713:9730  isLimitExempt[to] */\n      0x00\n        /* \"contracts/POMToken.sol\":9727:9729  to */\n      dup4\n        /* \"contracts/POMToken.sol\":9713:9730  isLimitExempt[to] */\n      0xffffffffffffffffffffffffffffffffffffffff\n      and\n      0xffffffffffffffffffffffffffffffffffffffff\n      and\n      dup2\n      mstore\n      0x20\n      add\n      swap1\n      dup2\n      mstore\n      0x20\n      add\n      0x00\n      keccak256\n      0x00\n      swap1\n      sload\n      swap1\n      0x0100\n      exp\n      swap1\n      div\n      0xff\n      and\n        /* \"contracts/POMToken.sol\":9712:9730  !isLimitExempt[to] */\n      iszero\n        /* \"contracts/POMToken.sol\":9688:9730  !isLimitExempt[from] && !isLimitExempt[to] */\n    tag_329:\n        /* \"contracts/POMToken.sol\":9684:10031  if (!isLimitExempt[from] && !isLimitExempt[to]) {... */\n      iszero\n      tag_330\n      jumpi\n        /* \"contracts/POMToken.sol\":9768:9779  maxTxAmount */\n      sload(0x06)\n        /* \"contracts/POMToken.sol\":9758:9764  amount */\n      dup2\n        /* \"contracts/POMToken.sol\":9758:9779  amount <= maxTxAmount */\n      gt\n      iszero\n        /* \"contracts/POMToken.sol\":9750:9797  require(amount <= maxTxAmount, \"Exceeds maxTx\") */\n      tag_331\n      jumpi\n      mload(0x40)\n      0x08c379a000000000000000000000000000000000000000000000000000000000\n      dup2\n      mstore\n      0x04\n      add\n      tag_332\n      swap1\n      tag_333\n      jump\t// in\n    tag_332:\n      mload(0x40)\n      dup1\n      swap2\n      sub\n      swap1\n      revert\n    tag_331:\n        /* \"contracts/POMToken.sol\":9820:9829  isDexPair */\n      0x0a\n        /* \"contracts/POMToken.sol\":9820:9833  isDexPair[to] */\n      0x00\n        /* \"contracts/POMToken.sol\":9830:9832  to */\n      dup4\n        /* \"contracts/POMToken.sol\":9820:9833  isDexPair[to] */\n      0xffffffffffffffffffffffffffffffffffffffff\n      and\n      0xffffffffffffffffffffffffffffffffffffffff\n      and\n      dup2\n      mstore\n      0x20\n      add\n      swap1\n      dup2\n      mstore\n      0x20\n      add\n      0x00\n      keccak256\n      0x00\n      swap1\n      sload\n      swap1\n      0x0100\n      exp\n      swap1\n      div\n      0xff\n      and\n        /* \"contracts/POMToken.sol\":9815:10017  if (!isDexPair[to]) {... */\n      tag_334\n      jumpi\n        /* \"contracts/POMToken.sol\":9916:9931  maxWalletAmount */\n      sload(0x07)\n        /* \"contracts/POMToken.sol\":9906:9912  amount */\n      dup2\n        /* \"contracts/POMToken.sol\":9890:9903  balanceOf(to) */\n      tag_335\n        /* \"contracts/POMToken.sol\":9900:9902  to */\n      dup5\n        /* \"contracts/POMToken.sol\":9890:9899  balanceOf */\n      tag_110\n        /* \"contracts/POMToken.sol\":9890:9903  balanceOf(to) */\n      jump\t// in\n    tag_335:\n        /* \"contracts/POMToken.sol\":9890:9912  balanceOf(to) + amount */\n      tag_336\n      swap2\n      swap1\n      tag_337\n      jump\t// in\n    tag_336:\n        /* \"contracts/POMToken.sol\":9890:9931  balanceOf(to) + amount <= maxWalletAmount */\n      gt\n      iszero\n        /* \"contracts/POMToken.sol\":9857:9998  require(... */\n      tag_338\n      jumpi\n      mload(0x40)\n      0x08c379a000000000000000000000000000000000000000000000000000000000\n      dup2\n      mstore\n      0x04\n      add\n      tag_339\n      swap1\n      tag_340\n      jump\t// in\n    tag_339:\n      mload(0x40)\n      dup1\n      swap2\n      sub\n      swap1\n      revert\n    tag_338:\n        /* \"contracts/POMToken.sol\":9815:10017  if (!isDexPair[to]) {... */\n    tag_334:\n        /* \"contracts/POMToken.sol\":9684:10031  if (!isLimitExempt[from] && !isLimitExempt[to]) {... */\n    tag_330:\n        /* \"contracts/POMToken.sol\":9608:10041  if (limitsInEffect && from != address(0) && to != address(0)) {... */\n    tag_328:\n        /* \"contracts/POMToken.sol\":10108:10139  super._update(from, to, amount) */\n      tag_341\n        /* \"contracts/POMToken.sol\":10122:10126  from */\n      dup4\n        /* \"contracts/POMToken.sol\":10128:10130  to */\n      dup4\n        /* \"contracts/POMToken.sol\":10132:10138  amount */\n      dup4\n        /* \"contracts/POMToken.sol\":10108:10121  super._update */\n      tag_315\n        /* \"contracts/POMToken.sol\":10108:10139  super._update(from, to, amount) */\n      jump\t// in\n    tag_341:\n        /* \"@openzeppelin/contracts/security/Pausable.sol\":1268:1269  _ */\n    tag_310:\n        /* \"contracts/POMToken.sol\":8579:10146  function _update(... */\n      pop\n      pop\n      pop\n      jump\t// out\n        /* \"@openzeppelin/contracts/security/Pausable.sol\":1945:2051  function _requirePaused() internal view virtual {... */\n    tag_286:\n        /* \"@openzeppelin/contracts/security/Pausable.sol\":2011:2019  paused() */\n      tag_343\n        /* \"@openzeppelin/contracts/security/Pausable.sol\":2011:2017  paused */\n      tag_103\n        /* \"@openzeppelin/contracts/security/Pausable.sol\":2011:2019  paused() */\n      jump\t// in\n    tag_343:\n        /* \"@openzeppelin/contracts/security/Pausable.sol\":2003:2044  require(paused(), \"Pausable: not paused\") */\n      tag_344\n      jumpi\n      mload(0x40)\n      0x08c379a000000000000000000000000000000000000000000000000000000000\n      dup2\n      mstore\n      0x04\n      add\n      tag_345\n      swap1\n      tag_346\n      jump\t// in\n    tag_345:\n      mload(0x40)\n      dup1\n      swap2\n      sub\n      swap1\n      revert\n    tag_344:\n        /* \"@openzeppelin/contracts/security/Pausable.sol\":1945:2051  function _requirePaused() internal view virtual {... */\n      jump\t// out\n        /* \"@openzeppelin/contracts/security/Pausable.sol\":1767:1873  function _requireNotPaused() internal view virtual {... */\n    tag_297:\n        /* \"@openzeppelin/contracts/security/Pausable.sol\":1837:1845  paused() */\n      tag_348\n        /* \"@openzeppelin/contracts/security/Pausable.sol\":1837:1843  paused */\n      tag_103\n        /* \"@openzeppelin/contracts/security/Pausable.sol\":1837:1845  paused() */\n      jump\t// in\n    tag_348:\n        /* \"@openzeppelin/contracts/security/Pausable.sol\":1836:1845  !paused() */\n      iszero\n        /* \"@openzeppelin/contracts/security/Pausable.sol\":1828:1866  require(!paused(), \"Pausable: paused\") */\n      tag_349\n      jumpi\n      mload(0x40)\n      0x08c379a000000000000000000000000000000000000000000000000000000000\n      dup2\n      mstore\n      0x04\n      add\n      tag_350\n      swap1\n      tag_351\n      jump\t// in\n    tag_350:\n      mload(0x40)\n      dup1\n      swap2\n      sub\n      swap1\n      revert\n    tag_349:\n        /* \"@openzeppelin/contracts/security/Pausable.sol\":1767:1873  function _requireNotPaused() internal view virtual {... */\n      jump\t// out\n        /* \"@openzeppelin/contracts/token/ERC20/ERC20.sol\":5912:7019  function _update(address from, address to, uint256 value) internal virtual {... */\n    tag_315:\n        /* \"@openzeppelin/contracts/token/ERC20/ERC20.sol\":6017:6018  0 */\n      0x00\n        /* \"@openzeppelin/contracts/token/ERC20/ERC20.sol\":6001:6019  from == address(0) */\n      0xffffffffffffffffffffffffffffffffffffffff\n      and\n        /* \"@openzeppelin/contracts/token/ERC20/ERC20.sol\":6001:6005  from */\n      dup4\n        /* \"@openzeppelin/contracts/token/ERC20/ERC20.sol\":6001:6019  from == address(0) */\n      0xffffffffffffffffffffffffffffffffffffffff\n      and\n      sub\n        /* \"@openzeppelin/contracts/token/ERC20/ERC20.sol\":5997:6537  if (from == address(0)) {... */\n      tag_353\n      jumpi\n        /* \"@openzeppelin/contracts/token/ERC20/ERC20.sol\":6153:6158  value */\n      dup1\n        /* \"@openzeppelin/contracts/token/ERC20/ERC20.sol\":6137:6149  _totalSupply */\n      0x02\n      0x00\n        /* \"@openzeppelin/contracts/token/ERC20/ERC20.sol\":6137:6158  _totalSupply += value */\n      dup3\n      dup3\n      sload\n      tag_354\n      swap2\n      swap1\n      tag_337\n      jump\t// in\n    tag_354:\n      swap3\n      pop\n      pop\n      dup2\n      swap1\n      sstore\n      pop\n        /* \"@openzeppelin/contracts/token/ERC20/ERC20.sol\":5997:6537  if (from == address(0)) {... */\n      jump(tag_355)\n    tag_353:\n        /* \"@openzeppelin/contracts/token/ERC20/ERC20.sol\":6189:6208  uint256 fromBalance */\n      0x00\n        /* \"@openzeppelin/contracts/token/ERC20/ERC20.sol\":6211:6220  _balances */\n      0x00\n        /* \"@openzeppelin/contracts/token/ERC20/ERC20.sol\":6211:6226  _balances[from] */\n      0x00\n        /* \"@openzeppelin/contracts/token/ERC20/ERC20.sol\":6221:6225  from */\n      dup6\n        /* \"@openzeppelin/contracts/token/ERC20/ERC20.sol\":6211:6226  _balances[from] */\n      0xffffffffffffffffffffffffffffffffffffffff\n      and\n      0xffffffffffffffffffffffffffffffffffffffff\n      and\n      dup2\n      mstore\n      0x20\n      add\n      swap1\n      dup2\n      mstore\n      0x20\n      add\n      0x00\n      keccak256\n      sload\n        /* \"@openzeppelin/contracts/token/ERC20/ERC20.sol\":6189:6226  uint256 fromBalance = _balances[from] */\n      swap1\n      pop\n        /* \"@openzeppelin/contracts/token/ERC20/ERC20.sol\":6258:6263  value */\n      dup2\n        /* \"@openzeppelin/contracts/token/ERC20/ERC20.sol\":6244:6255  fromBalance */\n      dup2\n        /* \"@openzeppelin/contracts/token/ERC20/ERC20.sol\":6244:6263  fromBalance < value */\n      lt\n        /* \"@openzeppelin/contracts/token/ERC20/ERC20.sol\":6240:6355  if (fromBalance < value) {... */\n      iszero\n      tag_356\n      jumpi\n        /* \"@openzeppelin/contracts/token/ERC20/ERC20.sol\":6315:6319  from */\n      dup4\n        /* \"@openzeppelin/contracts/token/ERC20/ERC20.sol\":6321:6332  fromBalance */\n      dup2\n        /* \"@openzeppelin/contracts/token/ERC20/ERC20.sol\":6334:6339  value */\n      dup4\n        /* \"@openzeppelin/contracts/token/ERC20/ERC20.sol\":6290:6340  ERC20InsufficientBalance(from, fromBalance, value) */\n      mload(0x40)\n      0xe450d38c00000000000000000000000000000000000000000000000000000000\n      dup2\n      mstore\n      0x04\n      add\n      tag_357\n      swap4\n      swap3\n      swap2\n      swap1\n      tag_269\n      jump\t// in\n    tag_357:\n      mload(0x40)\n      dup1\n      swap2\n      sub\n      swap1\n      revert\n        /* \"@openzeppelin/contracts/token/ERC20/ERC20.sol\":6240:6355  if (fromBalance < value) {... */\n    tag_356:\n        /* \"@openzeppelin/contracts/token/ERC20/ERC20.sol\":6507:6512  value */\n      dup2\n        /* \"@openzeppelin/contracts/token/ERC20/ERC20.sol\":6493:6504  fromBalance */\n      dup2\n        /* \"@openzeppelin/contracts/token/ERC20/ERC20.sol\":6493:6512  fromBalance - value */\n      sub\n        /* \"@openzeppelin/contracts/token/ERC20/ERC20.sol\":6475:6484  _balances */\n      0x00\n        /* \"@openzeppelin/contracts/token/ERC20/ERC20.sol\":6475:6490  _balances[from] */\n      0x00\n        /* \"@openzeppelin/contracts/token/ERC20/ERC20.sol\":6485:6489  from */\n      dup7\n        /* \"@openzeppelin/contracts/token/ERC20/ERC20.sol\":6475:6490  _balances[from] */\n      0xffffffffffffffffffffffffffffffffffffffff\n      and\n      0xffffffffffffffffffffffffffffffffffffffff\n      and\n      dup2\n      mstore\n      0x20\n      add\n      swap1\n      dup2\n      mstore\n      0x20\n      add\n      0x00\n      keccak256\n        /* \"@openzeppelin/contracts/token/ERC20/ERC20.sol\":6475:6512  _balances[from] = fromBalance - value */\n      dup2\n      swap1\n      sstore\n      pop\n        /* \"@openzeppelin/contracts/token/ERC20/ERC20.sol\":6175:6537  {... */\n      pop\n        /* \"@openzeppelin/contracts/token/ERC20/ERC20.sol\":5997:6537  if (from == address(0)) {... */\n    tag_355:\n        /* \"@openzeppelin/contracts/token/ERC20/ERC20.sol\":6565:6566  0 */\n      0x00\n        /* \"@openzeppelin/contracts/token/ERC20/ERC20.sol\":6551:6567  to == address(0) */\n      0xffffffffffffffffffffffffffffffffffffffff\n      and\n        /* \"@openzeppelin/contracts/token/ERC20/ERC20.sol\":6551:6553  to */\n      dup3\n        /* \"@openzeppelin/contracts/token/ERC20/ERC20.sol\":6551:6567  to == address(0) */\n      0xffffffffffffffffffffffffffffffffffffffff\n      and\n      sub\n        /* \"@openzeppelin/contracts/token/ERC20/ERC20.sol\":6547:6972  if (to == address(0)) {... */\n      tag_358\n      jumpi\n        /* \"@openzeppelin/contracts/token/ERC20/ERC20.sol\":6730:6735  value */\n      dup1\n        /* \"@openzeppelin/contracts/token/ERC20/ERC20.sol\":6714:6726  _totalSupply */\n      0x02\n      0x00\n        /* \"@openzeppelin/contracts/token/ERC20/ERC20.sol\":6714:6735  _totalSupply -= value */\n      dup3\n      dup3\n      sload\n      sub\n      swap3\n      pop\n      pop\n      dup2\n      swap1\n      sstore\n      pop\n        /* \"@openzeppelin/contracts/token/ERC20/ERC20.sol\":6547:6972  if (to == address(0)) {... */\n      jump(tag_359)\n    tag_358:\n        /* \"@openzeppelin/contracts/token/ERC20/ERC20.sol\":6942:6947  value */\n      dup1\n        /* \"@openzeppelin/contracts/token/ERC20/ERC20.sol\":6925:6934  _balances */\n      0x00\n        /* \"@openzeppelin/contracts/token/ERC20/ERC20.sol\":6925:6938  _balances[to] */\n      0x00\n        /* \"@openzeppelin/contracts/token/ERC20/ERC20.sol\":6935:6937  to */\n      dup5\n        /* \"@openzeppelin/contracts/token/ERC20/ERC20.sol\":6925:6938  _balances[to] */\n      0xffffffffffffffffffffffffffffffffffffffff\n      and\n      0xffffffffffffffffffffffffffffffffffffffff\n      and\n      dup2\n      mstore\n      0x20\n      add\n      swap1\n      dup2\n      mstore\n      0x20\n      add\n      0x00\n      keccak256\n      0x00\n        /* \"@openzeppelin/contracts/token/ERC20/ERC20.sol\":6925:6947  _balances[to] += value */\n      dup3\n      dup3\n      sload\n      add\n      swap3\n      pop\n      pop\n      dup2\n      swap1\n      sstore\n      pop\n        /* \"@openzeppelin/contracts/token/ERC20/ERC20.sol\":6547:6972  if (to == address(0)) {... */\n    tag_359:\n        /* \"@openzeppelin/contracts/token/ERC20/ERC20.sol\":7002:7004  to */\n      dup2\n        /* \"@openzeppelin/contracts/token/ERC20/ERC20.sol\":6987:7012  Transfer(from, to, value) */\n      0xffffffffffffffffffffffffffffffffffffffff\n      and\n        /* \"@openzeppelin/contracts/token/ERC20/ERC20.sol\":6996:7000  from */\n      dup4\n        /* \"@openzeppelin/contracts/token/ERC20/ERC20.sol\":6987:7012  Transfer(from, to, value) */\n      0xffffffffffffffffffffffffffffffffffffffff\n      and\n      0xddf252ad1be2c89b69c2b068fc378daa952ba7f163c4a11628f55a4df523b3ef\n        /* \"@openzeppelin/contracts/token/ERC20/ERC20.sol\":7006:7011  value */\n      dup4\n        /* \"@openzeppelin/contracts/token/ERC20/ERC20.sol\":6987:7012  Transfer(from, to, value) */\n      mload(0x40)\n      tag_360\n      swap2\n      swap1\n      tag_61\n      jump\t// in\n    tag_360:\n      mload(0x40)\n      dup1\n      swap2\n      sub\n      swap1\n      log3\n        /* \"@openzeppelin/contracts/token/ERC20/ERC20.sol\":5912:7019  function _update(address from, address to, uint256 value) internal virtual {... */\n      pop\n      pop\n      pop\n      jump\t// out\n        /* \"#utility.yul\":7:106   */\n    tag_361:\n        /* \"#utility.yul\":59:65   */\n      0x00\n        /* \"#utility.yul\":93:98   */\n      dup2\n        /* \"#utility.yul\":87:99   */\n      mload\n        /* \"#utility.yul\":77:99   */\n      swap1\n      pop\n        /* \"#utility.yul\":7:106   */\n      swap2\n      swap1\n      pop\n      jump\t// out\n        /* \"#utility.yul\":112:281   */\n    tag_362:\n        /* \"#utility.yul\":196:207   */\n      0x00\n        /* \"#utility.yul\":230:236   */\n      dup3\n        /* \"#utility.yul\":225:228   */\n      dup3\n        /* \"#utility.yul\":218:237   */\n      mstore\n        /* \"#utility.yul\":270:274   */\n      0x20\n        /* \"#utility.yul\":265:268   */\n      dup3\n        /* \"#utility.yul\":261:275   */\n      add\n        /* \"#utility.yul\":246:275   */\n      swap1\n      pop\n        /* \"#utility.yul\":112:281   */\n      swap3\n      swap2\n      pop\n      pop\n      jump\t// out\n        /* \"#utility.yul\":287:426   */\n    tag_363:\n        /* \"#utility.yul\":376:382   */\n      dup3\n        /* \"#utility.yul\":371:374   */\n      dup2\n        /* \"#utility.yul\":366:369   */\n      dup4\n        /* \"#utility.yul\":360:383   */\n      mcopy\n        /* \"#utility.yul\":417:418   */\n      0x00\n        /* \"#utility.yul\":408:414   */\n      dup4\n        /* \"#utility.yul\":403:406   */\n      dup4\n        /* \"#utility.yul\":399:415   */\n      add\n        /* \"#utility.yul\":392:419   */\n      mstore\n        /* \"#utility.yul\":287:426   */\n      pop\n      pop\n      pop\n      jump\t// out\n        /* \"#utility.yul\":432:534   */\n    tag_364:\n        /* \"#utility.yul\":473:479   */\n      0x00\n        /* \"#utility.yul\":524:526   */\n      0x1f\n        /* \"#utility.yul\":520:527   */\n      not\n        /* \"#utility.yul\":515:517   */\n      0x1f\n        /* \"#utility.yul\":508:513   */\n      dup4\n        /* \"#utility.yul\":504:518   */\n      add\n        /* \"#utility.yul\":500:528   */\n      and\n        /* \"#utility.yul\":490:528   */\n      swap1\n      pop\n        /* \"#utility.yul\":432:534   */\n      swap2\n      swap1\n      pop\n      jump\t// out\n        /* \"#utility.yul\":540:917   */\n    tag_365:\n        /* \"#utility.yul\":628:631   */\n      0x00\n        /* \"#utility.yul\":656:695   */\n      tag_406\n        /* \"#utility.yul\":689:694   */\n      dup3\n        /* \"#utility.yul\":656:695   */\n      tag_361\n      jump\t// in\n    tag_406:\n        /* \"#utility.yul\":711:782   */\n      tag_407\n        /* \"#utility.yul\":775:781   */\n      dup2\n        /* \"#utility.yul\":770:773   */\n      dup6\n        /* \"#utility.yul\":711:782   */\n      tag_362\n      jump\t// in\n    tag_407:\n        /* \"#utility.yul\":704:782   */\n      swap4\n      pop\n        /* \"#utility.yul\":791:856   */\n      tag_408\n        /* \"#utility.yul\":849:855   */\n      dup2\n        /* \"#utility.yul\":844:847   */\n      dup6\n        /* \"#utility.yul\":837:841   */\n      0x20\n        /* \"#utility.yul\":830:835   */\n      dup7\n        /* \"#utility.yul\":826:842   */\n      add\n        /* \"#utility.yul\":791:856   */\n      tag_363\n      jump\t// in\n    tag_408:\n        /* \"#utility.yul\":881:910   */\n      tag_409\n        /* \"#utility.yul\":903:909   */\n      dup2\n        /* \"#utility.yul\":881:910   */\n      tag_364\n      jump\t// in\n    tag_409:\n        /* \"#utility.yul\":876:879   */\n      dup5\n        /* \"#utility.yul\":872:911   */\n      add\n        /* \"#utility.yul\":865:911   */\n      swap2\n      pop\n        /* \"#utility.yul\":632:917   */\n      pop\n        /* \"#utility.yul\":540:917   */\n      swap3\n      swap2\n      pop\n      pop\n      jump\t// out\n        /* \"#utility.yul\":923:1236   */\n    tag_51:\n        /* \"#utility.yul\":1036:1040   */\n      0x00\n        /* \"#utility.yul\":1074:1076   */\n      0x20\n        /* \"#utility.yul\":1063:1072   */\n      dup3\n        /* \"#utility.yul\":1059:1077   */\n      add\n        /* \"#utility.yul\":1051:1077   */\n      swap1\n      pop\n        /* \"#utility.yul\":1123:1132   */\n      dup2\n        /* \"#utility.yul\":1117:1121   */\n      dup2\n        /* \"#utility.yul\":1113:1133   */\n      sub\n        /* \"#utility.yul\":1109:1110   */\n      0x00\n        /* \"#utility.yul\":1098:1107   */\n      dup4\n        /* \"#utility.yul\":1094:1111   */\n      add\n        /* \"#utility.yul\":1087:1134   */\n      mstore\n        /* \"#utility.yul\":1151:1229   */\n      tag_411\n        /* \"#utility.yul\":1224:1228   */\n      dup2\n        /* \"#utility.yul\":1215:1221   */\n      dup5\n        /* \"#utility.yul\":1151:1229   */\n      tag_365\n      jump\t// in\n    tag_411:\n        /* \"#utility.yul\":1143:1229   */\n      swap1\n      pop\n        /* \"#utility.yul\":923:1236   */\n      swap3\n      swap2\n      pop\n      pop\n      jump\t// out\n        /* \"#utility.yul\":1323:1440   */\n    tag_367:\n        /* \"#utility.yul\":1432:1433   */\n      0x00\n        /* \"#utility.yul\":1429:1430   */\n      0x00\n        /* \"#utility.yul\":1422:1434   */\n      revert\n        /* \"#utility.yul\":1569:1695   */\n    tag_369:\n        /* \"#utility.yul\":1606:1613   */\n      0x00\n        /* \"#utility.yul\":1646:1688   */\n      0xffffffffffffffffffffffffffffffffffffffff\n        /* \"#utility.yul\":1639:1644   */\n      dup3\n        /* \"#utility.yul\":1635:1689   */\n      and\n        /* \"#utility.yul\":1624:1689   */\n      swap1\n      pop\n        /* \"#utility.yul\":1569:1695   */\n      swap2\n      swap1\n      pop\n      jump\t// out\n        /* \"#utility.yul\":1701:1797   */\n    tag_370:\n        /* \"#utility.yul\":1738:1745   */\n      0x00\n        /* \"#utility.yul\":1767:1791   */\n      tag_417\n        /* \"#utility.yul\":1785:1790   */\n      dup3\n        /* \"#utility.yul\":1767:1791   */\n      tag_369\n      jump\t// in\n    tag_417:\n        /* \"#utility.yul\":1756:1791   */\n      swap1\n      pop\n        /* \"#utility.yul\":1701:1797   */\n      swap2\n      swap1\n      pop\n      jump\t// out\n        /* \"#utility.yul\":1803:1925   */\n    tag_371:\n        /* \"#utility.yul\":1876:1900   */\n      tag_419\n        /* \"#utility.yul\":1894:1899   */\n      dup2\n        /* \"#utility.yul\":1876:1900   */\n      tag_370\n      jump\t// in\n    tag_419:\n        /* \"#utility.yul\":1869:1874   */\n      dup2\n        /* \"#utility.yul\":1866:1901   */\n      eq\n        /* \"#utility.yul\":1856:1919   */\n      tag_420\n      jumpi\n        /* \"#utility.yul\":1915:1916   */\n      0x00\n        /* \"#utility.yul\":1912:1913   */\n      0x00\n        /* \"#utility.yul\":1905:1917   */\n      revert\n        /* \"#utility.yul\":1856:1919   */\n    tag_420:\n        /* \"#utility.yul\":1803:1925   */\n      pop\n      jump\t// out\n        /* \"#utility.yul\":1931:2070   */\n    tag_372:\n        /* \"#utility.yul\":1977:1982   */\n      0x00\n        /* \"#utility.yul\":2015:2021   */\n      dup2\n        /* \"#utility.yul\":2002:2022   */\n      calldataload\n        /* \"#utility.yul\":1993:2022   */\n      swap1\n      pop\n        /* \"#utility.yul\":2031:2064   */\n      tag_422\n        /* \"#utility.yul\":2058:2063   */\n      dup2\n        /* \"#utility.yul\":2031:2064   */\n      tag_371\n      jump\t// in\n    tag_422:\n        /* \"#utility.yul\":1931:2070   */\n      swap3\n      swap2\n      pop\n      pop\n      jump\t// out\n        /* \"#utility.yul\":2076:2153   */\n    tag_373:\n        /* \"#utility.yul\":2113:2120   */\n      0x00\n        /* \"#utility.yul\":2142:2147   */\n      dup2\n        /* \"#utility.yul\":2131:2147   */\n      swap1\n      pop\n        /* \"#utility.yul\":2076:2153   */\n      swap2\n      swap1\n      pop\n      jump\t// out\n        /* \"#utility.yul\":2159:2281   */\n    tag_374:\n        /* \"#utility.yul\":2232:2256   */\n      tag_425\n        /* \"#utility.yul\":2250:2255   */\n      dup2\n        /* \"#utility.yul\":2232:2256   */\n      tag_373\n      jump\t// in\n    tag_425:\n        /* \"#utility.yul\":2225:2230   */\n      dup2\n        /* \"#utility.yul\":2222:2257   */\n      eq\n        /* \"#utility.yul\":2212:2275   */\n      tag_426\n      jumpi\n        /* \"#utility.yul\":2271:2272   */\n      0x00\n        /* \"#utility.yul\":2268:2269   */\n      0x00\n        /* \"#utility.yul\":2261:2273   */\n      revert\n        /* \"#utility.yul\":2212:2275   */\n    tag_426:\n        /* \"#utility.yul\":2159:2281   */\n      pop\n      jump\t// out\n        /* \"#utility.yul\":2287:2426   */\n    tag_375:\n        /* \"#utility.yul\":2333:2338   */\n      0x00\n        /* \"#utility.yul\":2371:2377   */\n      dup2\n        /* \"#utility.yul\":2358:2378   */\n      calldataload\n        /* \"#utility.yul\":2349:2378   */\n      swap1\n      pop\n        /* \"#utility.yul\":2387:2420   */\n      tag_428\n        /* \"#utility.yul\":2414:2419   */\n      dup2\n        /* \"#utility.yul\":2387:2420   */\n      tag_374\n      jump\t// in\n    tag_428:\n        /* \"#utility.yul\":2287:2426   */\n      swap3\n      swap2\n      pop\n      pop\n      jump\t// out\n        /* \"#utility.yul\":2432:2906   */\n    tag_54:\n        /* \"#utility.yul\":2500:2506   */\n      0x00\n        /* \"#utility.yul\":2508:2514   */\n      0x00\n        /* \"#utility.yul\":2557:2559   */\n      0x40\n        /* \"#utility.yul\":2545:2554   */\n      dup4\n        /* \"#utility.yul\":2536:2543   */\n      dup6\n        /* \"#utility.yul\":2532:2555   */\n      sub\n        /* \"#utility.yul\":2528:2560   */\n      slt\n        /* \"#utility.yul\":2525:2644   */\n      iszero\n      tag_430\n      jumpi\n        /* \"#utility.yul\":2563:2642   */\n      tag_431\n      tag_367\n      jump\t// in\n    tag_431:\n        /* \"#utility.yul\":2525:2644   */\n    tag_430:\n        /* \"#utility.yul\":2683:2684   */\n      0x00\n        /* \"#utility.yul\":2708:2761   */\n      tag_432\n        /* \"#utility.yul\":2753:2760   */\n      dup6\n        /* \"#utility.yul\":2744:2750   */\n      dup3\n        /* \"#utility.yul\":2733:2742   */\n      dup7\n        /* \"#utility.yul\":2729:2751   */\n      add\n        /* \"#utility.yul\":2708:2761   */\n      tag_372\n      jump\t// in\n    tag_432:\n        /* \"#utility.yul\":2698:2761   */\n      swap3\n      pop\n        /* \"#utility.yul\":2654:2771   */\n      pop\n        /* \"#utility.yul\":2810:2812   */\n      0x20\n        /* \"#utility.yul\":2836:2889   */\n      tag_433\n        /* \"#utility.yul\":2881:2888   */\n      dup6\n        /* \"#utility.yul\":2872:2878   */\n      dup3\n        /* \"#utility.yul\":2861:2870   */\n      dup7\n        /* \"#utility.yul\":2857:2879   */\n      add\n        /* \"#utility.yul\":2836:2889   */\n      tag_375\n      jump\t// in\n    tag_433:\n        /* \"#utility.yul\":2826:2889   */\n      swap2\n      pop\n        /* \"#utility.yul\":2781:2899   */\n      pop\n        /* \"#utility.yul\":2432:2906   */\n      swap3\n      pop\n      swap3\n      swap1\n      pop\n      jump\t// out\n        /* \"#utility.yul\":2912:3002   */\n    tag_376:\n        /* \"#utility.yul\":2946:2953   */\n      0x00\n        /* \"#utility.yul\":2989:2994   */\n      dup2\n        /* \"#utility.yul\":2982:2995   */\n      iszero\n        /* \"#utility.yul\":2975:2996   */\n      iszero\n        /* \"#utility.yul\":2964:2996   */\n      swap1\n      pop\n        /* \"#utility.yul\":2912:3002   */\n      swap2\n      swap1\n      pop\n      jump\t// out\n        /* \"#utility.yul\":3008:3117   */\n    tag_377:\n        /* \"#utility.yul\":3089:3110   */\n      tag_436\n        /* \"#utility.yul\":3104:3109   */\n      dup2\n        /* \"#utility.yul\":3089:3110   */\n      tag_376\n      jump\t// in\n    tag_436:\n        /* \"#utility.yul\":3084:3087   */\n      dup3\n        /* \"#utility.yul\":3077:3111   */\n      mstore\n        /* \"#utility.yul\":3008:3117   */\n      pop\n      pop\n      jump\t// out\n        /* \"#utility.yul\":3123:3333   */\n    tag_57:\n        /* \"#utility.yul\":3210:3214   */\n      0x00\n        /* \"#utility.yul\":3248:3250   */\n      0x20\n        /* \"#utility.yul\":3237:3246   */\n      dup3\n        /* \"#utility.yul\":3233:3251   */\n      add\n        /* \"#utility.yul\":3225:3251   */\n      swap1\n      pop\n        /* \"#utility.yul\":3261:3326   */\n      tag_438\n        /* \"#utility.yul\":3323:3324   */\n      0x00\n        /* \"#utility.yul\":3312:3321   */\n      dup4\n        /* \"#utility.yul\":3308:3325   */\n      add\n        /* \"#utility.yul\":3299:3305   */\n      dup5\n        /* \"#utility.yul\":3261:3326   */\n      tag_377\n      jump\t// in\n    tag_438:\n        /* \"#utility.yul\":3123:3333   */\n      swap3\n      swap2\n      pop\n      pop\n      jump\t// out\n        /* \"#utility.yul\":3339:3457   */\n    tag_378:\n        /* \"#utility.yul\":3426:3450   */\n      tag_440\n        /* \"#utility.yul\":3444:3449   */\n      dup2\n        /* \"#utility.yul\":3426:3450   */\n      tag_373\n      jump\t// in\n    tag_440:\n        /* \"#utility.yul\":3421:3424   */\n      dup3\n        /* \"#utility.yul\":3414:3451   */\n      mstore\n        /* \"#utility.yul\":3339:3457   */\n      pop\n      pop\n      jump\t// out\n        /* \"#utility.yul\":3463:3685   */\n    tag_61:\n        /* \"#utility.yul\":3556:3560   */\n      0x00\n        /* \"#utility.yul\":3594:3596   */\n      0x20\n        /* \"#utility.yul\":3583:3592   */\n      dup3\n        /* \"#utility.yul\":3579:3597   */\n      add\n        /* \"#utility.yul\":3571:3597   */\n      swap1\n      pop\n        /* \"#utility.yul\":3607:3678   */\n      tag_442\n        /* \"#utility.yul\":3675:3676   */\n      0x00\n        /* \"#utility.yul\":3664:3673   */\n      dup4\n        /* \"#utility.yul\":3660:3677   */\n      add\n        /* \"#utility.yul\":3651:3657   */\n      dup5\n        /* \"#utility.yul\":3607:3678   */\n      tag_378\n      jump\t// in\n    tag_442:\n        /* \"#utility.yul\":3463:3685   */\n      swap3\n      swap2\n      pop\n      pop\n      jump\t// out\n        /* \"#utility.yul\":3691:4310   */\n    tag_64:\n        /* \"#utility.yul\":3768:3774   */\n      0x00\n        /* \"#utility.yul\":3776:3782   */\n      0x00\n        /* \"#utility.yul\":3784:3790   */\n      0x00\n        /* \"#utility.yul\":3833:3835   */\n      0x60\n        /* \"#utility.yul\":3821:3830   */\n      dup5\n        /* \"#utility.yul\":3812:3819   */\n      dup7\n        /* \"#utility.yul\":3808:3831   */\n      sub\n        /* \"#utility.yul\":3804:3836   */\n      slt\n        /* \"#utility.yul\":3801:3920   */\n      iszero\n      tag_444\n      jumpi\n        /* \"#utility.yul\":3839:3918   */\n      tag_445\n      tag_367\n      jump\t// in\n    tag_445:\n        /* \"#utility.yul\":3801:3920   */\n    tag_444:\n        /* \"#utility.yul\":3959:3960   */\n      0x00\n        /* \"#utility.yul\":3984:4037   */\n      tag_446\n        /* \"#utility.yul\":4029:4036   */\n      dup7\n        /* \"#utility.yul\":4020:4026   */\n      dup3\n        /* \"#utility.yul\":4009:4018   */\n      dup8\n        /* \"#utility.yul\":4005:4027   */\n      add\n        /* \"#utility.yul\":3984:4037   */\n      tag_372\n      jump\t// in\n    tag_446:\n        /* \"#utility.yul\":3974:4037   */\n      swap4\n      pop\n        /* \"#utility.yul\":3930:4047   */\n      pop\n        /* \"#utility.yul\":4086:4088   */\n      0x20\n        /* \"#utility.yul\":4112:4165   */\n      tag_447\n        /* \"#utility.yul\":4157:4164   */\n      dup7\n        /* \"#utility.yul\":4148:4154   */\n      dup3\n        /* \"#utility.yul\":4137:4146   */\n      dup8\n        /* \"#utility.yul\":4133:4155   */\n      add\n        /* \"#utility.yul\":4112:4165   */\n      tag_372\n      jump\t// in\n    tag_447:\n        /* \"#utility.yul\":4102:4165   */\n      swap3\n      pop\n        /* \"#utility.yul\":4057:4175   */\n      pop\n        /* \"#utility.yul\":4214:4216   */\n      0x40\n        /* \"#utility.yul\":4240:4293   */\n      tag_448\n        /* \"#utility.yul\":4285:4292   */\n      dup7\n        /* \"#utility.yul\":4276:4282   */\n      dup3\n        /* \"#utility.yul\":4265:4274   */\n      dup8\n        /* \"#utility.yul\":4261:4283   */\n      add\n        /* \"#utility.yul\":4240:4293   */\n      tag_375\n      jump\t// in\n    tag_448:\n        /* \"#utility.yul\":4230:4293   */\n      swap2\n      pop\n        /* \"#utility.yul\":4185:4303   */\n      pop\n        /* \"#utility.yul\":3691:4310   */\n      swap3\n      pop\n      swap3\n      pop\n      swap3\n      jump\t// out\n        /* \"#utility.yul\":4316:4434   */\n    tag_379:\n        /* \"#utility.yul\":4403:4427   */\n      tag_450\n        /* \"#utility.yul\":4421:4426   */\n      dup2\n        /* \"#utility.yul\":4403:4427   */\n      tag_370\n      jump\t// in\n    tag_450:\n        /* \"#utility.yul\":4398:4401   */\n      dup3\n        /* \"#utility.yul\":4391:4428   */\n      mstore\n        /* \"#utility.yul\":4316:4434   */\n      pop\n      pop\n      jump\t// out\n        /* \"#utility.yul\":4440:4662   */\n    tag_70:\n        /* \"#utility.yul\":4533:4537   */\n      0x00\n        /* \"#utility.yul\":4571:4573   */\n      0x20\n        /* \"#utility.yul\":4560:4569   */\n      dup3\n        /* \"#utility.yul\":4556:4574   */\n      add\n        /* \"#utility.yul\":4548:4574   */\n      swap1\n      pop\n        /* \"#utility.yul\":4584:4655   */\n      tag_452\n        /* \"#utility.yul\":4652:4653   */\n      0x00\n        /* \"#utility.yul\":4641:4650   */\n      dup4\n        /* \"#utility.yul\":4637:4654   */\n      add\n        /* \"#utility.yul\":4628:4634   */\n      dup5\n        /* \"#utility.yul\":4584:4655   */\n      tag_379\n      jump\t// in\n    tag_452:\n        /* \"#utility.yul\":4440:4662   */\n      swap3\n      swap2\n      pop\n      pop\n      jump\t// out\n        /* \"#utility.yul\":4668:4754   */\n    tag_380:\n        /* \"#utility.yul\":4703:4710   */\n      0x00\n        /* \"#utility.yul\":4743:4747   */\n      0xff\n        /* \"#utility.yul\":4736:4741   */\n      dup3\n        /* \"#utility.yul\":4732:4748   */\n      and\n        /* \"#utility.yul\":4721:4748   */\n      swap1\n      pop\n        /* \"#utility.yul\":4668:4754   */\n      swap2\n      swap1\n      pop\n      jump\t// out\n        /* \"#utility.yul\":4760:4872   */\n    tag_381:\n        /* \"#utility.yul\":4843:4865   */\n      tag_455\n        /* \"#utility.yul\":4859:4864   */\n      dup2\n        /* \"#utility.yul\":4843:4865   */\n      tag_380\n      jump\t// in\n    tag_455:\n        /* \"#utility.yul\":4838:4841   */\n      dup3\n        /* \"#utility.yul\":4831:4866   */\n      mstore\n        /* \"#utility.yul\":4760:4872   */\n      pop\n      pop\n      jump\t// out\n        /* \"#utility.yul\":4878:5092   */\n    tag_74:\n        /* \"#utility.yul\":4967:4971   */\n      0x00\n        /* \"#utility.yul\":5005:5007   */\n      0x20\n        /* \"#utility.yul\":4994:5003   */\n      dup3\n        /* \"#utility.yul\":4990:5008   */\n      add\n        /* \"#utility.yul\":4982:5008   */\n      swap1\n      pop\n        /* \"#utility.yul\":5018:5085   */\n      tag_457\n        /* \"#utility.yul\":5082:5083   */\n      0x00\n        /* \"#utility.yul\":5071:5080   */\n      dup4\n        /* \"#utility.yul\":5067:5084   */\n      add\n        /* \"#utility.yul\":5058:5064   */\n      dup5\n        /* \"#utility.yul\":5018:5085   */\n      tag_381\n      jump\t// in\n    tag_457:\n        /* \"#utility.yul\":4878:5092   */\n      swap3\n      swap2\n      pop\n      pop\n      jump\t// out\n        /* \"#utility.yul\":5098:5427   */\n    tag_82:\n        /* \"#utility.yul\":5157:5163   */\n      0x00\n        /* \"#utility.yul\":5206:5208   */\n      0x20\n        /* \"#utility.yul\":5194:5203   */\n      dup3\n        /* \"#utility.yul\":5185:5192   */\n      dup5\n        /* \"#utility.yul\":5181:5204   */\n      sub\n        /* \"#utility.yul\":5177:5209   */\n      slt\n        /* \"#utility.yul\":5174:5293   */\n      iszero\n      tag_459\n      jumpi\n        /* \"#utility.yul\":5212:5291   */\n      tag_460\n      tag_367\n      jump\t// in\n    tag_460:\n        /* \"#utility.yul\":5174:5293   */\n    tag_459:\n        /* \"#utility.yul\":5332:5333   */\n      0x00\n        /* \"#utility.yul\":5357:5410   */\n      tag_461\n        /* \"#utility.yul\":5402:5409   */\n      dup5\n        /* \"#utility.yul\":5393:5399   */\n      dup3\n        /* \"#utility.yul\":5382:5391   */\n      dup6\n        /* \"#utility.yul\":5378:5400   */\n      add\n        /* \"#utility.yul\":5357:5410   */\n      tag_372\n      jump\t// in\n    tag_461:\n        /* \"#utility.yul\":5347:5410   */\n      swap2\n      pop\n        /* \"#utility.yul\":5303:5420   */\n      pop\n        /* \"#utility.yul\":5098:5427   */\n      swap3\n      swap2\n      pop\n      pop\n      jump\t// out\n        /* \"#utility.yul\":5433:5549   */\n    tag_382:\n        /* \"#utility.yul\":5503:5524   */\n      tag_463\n        /* \"#utility.yul\":5518:5523   */\n      dup2\n        /* \"#utility.yul\":5503:5524   */\n      tag_376\n      jump\t// in\n    tag_463:\n        /* \"#utility.yul\":5496:5501   */\n      dup2\n        /* \"#utility.yul\":5493:5525   */\n      eq\n        /* \"#utility.yul\":5483:5543   */\n      tag_464\n      jumpi\n        /* \"#utility.yul\":5539:5540   */\n      0x00\n        /* \"#utility.yul\":5536:5537   */\n      0x00\n        /* \"#utility.yul\":5529:5541   */\n      revert\n        /* \"#utility.yul\":5483:5543   */\n    tag_464:\n        /* \"#utility.yul\":5433:5549   */\n      pop\n      jump\t// out\n        /* \"#utility.yul\":5555:5688   */\n    tag_383:\n        /* \"#utility.yul\":5598:5603   */\n      0x00\n        /* \"#utility.yul\":5636:5642   */\n      dup2\n        /* \"#utility.yul\":5623:5643   */\n      calldataload\n        /* \"#utility.yul\":5614:5643   */\n      swap1\n      pop\n        /* \"#utility.yul\":5652:5682   */\n      tag_466\n        /* \"#utility.yul\":5676:5681   */\n      dup2\n        /* \"#utility.yul\":5652:5682   */\n      tag_382\n      jump\t// in\n    tag_466:\n        /* \"#utility.yul\":5555:5688   */\n      swap3\n      swap2\n      pop\n      pop\n      jump\t// out\n        /* \"#utility.yul\":5694:6162   */\n    tag_87:\n        /* \"#utility.yul\":5759:5765   */\n      0x00\n        /* \"#utility.yul\":5767:5773   */\n      0x00\n        /* \"#utility.yul\":5816:5818   */\n      0x40\n        /* \"#utility.yul\":5804:5813   */\n      dup4\n        /* \"#utility.yul\":5795:5802   */\n      dup6\n        /* \"#utility.yul\":5791:5814   */\n      sub\n        /* \"#utility.yul\":5787:5819   */\n      slt\n        /* \"#utility.yul\":5784:5903   */\n      iszero\n      tag_468\n      jumpi\n        /* \"#utility.yul\":5822:5901   */\n      tag_469\n      tag_367\n      jump\t// in\n    tag_469:\n        /* \"#utility.yul\":5784:5903   */\n    tag_468:\n        /* \"#utility.yul\":5942:5943   */\n      0x00\n        /* \"#utility.yul\":5967:6020   */\n      tag_470\n        /* \"#utility.yul\":6012:6019   */\n      dup6\n        /* \"#utility.yul\":6003:6009   */\n      dup3\n        /* \"#utility.yul\":5992:6001   */\n      dup7\n        /* \"#utility.yul\":5988:6010   */\n      add\n        /* \"#utility.yul\":5967:6020   */\n      tag_372\n      jump\t// in\n    tag_470:\n        /* \"#utility.yul\":5957:6020   */\n      swap3\n      pop\n        /* \"#utility.yul\":5913:6030   */\n      pop\n        /* \"#utility.yul\":6069:6071   */\n      0x20\n        /* \"#utility.yul\":6095:6145   */\n      tag_471\n        /* \"#utility.yul\":6137:6144   */\n      dup6\n        /* \"#utility.yul\":6128:6134   */\n      dup3\n        /* \"#utility.yul\":6117:6126   */\n      dup7\n        /* \"#utility.yul\":6113:6135   */\n      add\n        /* \"#utility.yul\":6095:6145   */\n      tag_383\n      jump\t// in\n    tag_471:\n        /* \"#utility.yul\":6085:6145   */\n      swap2\n      pop\n        /* \"#utility.yul\":6040:6155   */\n      pop\n        /* \"#utility.yul\":5694:6162   */\n      swap3\n      pop\n      swap3\n      swap1\n      pop\n      jump\t// out\n        /* \"#utility.yul\":6168:6497   */\n    tag_91:\n        /* \"#utility.yul\":6227:6233   */\n      0x00\n        /* \"#utility.yul\":6276:6278   */\n      0x20\n        /* \"#utility.yul\":6264:6273   */\n      dup3\n        /* \"#utility.yul\":6255:6262   */\n      dup5\n        /* \"#utility.yul\":6251:6274   */\n      sub\n        /* \"#utility.yul\":6247:6279   */\n      slt\n        /* \"#utility.yul\":6244:6363   */\n      iszero\n      tag_473\n      jumpi\n        /* \"#utility.yul\":6282:6361   */\n      tag_474\n      tag_367\n      jump\t// in\n    tag_474:\n        /* \"#utility.yul\":6244:6363   */\n    tag_473:\n        /* \"#utility.yul\":6402:6403   */\n      0x00\n        /* \"#utility.yul\":6427:6480   */\n      tag_475\n        /* \"#utility.yul\":6472:6479   */\n      dup5\n        /* \"#utility.yul\":6463:6469   */\n      dup3\n        /* \"#utility.yul\":6452:6461   */\n      dup6\n        /* \"#utility.yul\":6448:6470   */\n      add\n        /* \"#utility.yul\":6427:6480   */\n      tag_375\n      jump\t// in\n    tag_475:\n        /* \"#utility.yul\":6417:6480   */\n      swap2\n      pop\n        /* \"#utility.yul\":6373:6490   */\n      pop\n        /* \"#utility.yul\":6168:6497   */\n      swap3\n      swap2\n      pop\n      pop\n      jump\t// out\n        /* \"#utility.yul\":6503:6977   */\n    tag_158:\n        /* \"#utility.yul\":6571:6577   */\n      0x00\n        /* \"#utility.yul\":6579:6585   */\n      0x00\n        /* \"#utility.yul\":6628:6630   */\n      0x40\n        /* \"#utility.yul\":6616:6625   */\n      dup4\n        /* \"#utility.yul\":6607:6614   */\n      dup6\n        /* \"#utility.yul\":6603:6626   */\n      sub\n        /* \"#utility.yul\":6599:6631   */\n      slt\n        /* \"#utility.yul\":6596:6715   */\n      iszero\n      tag_477\n      jumpi\n        /* \"#utility.yul\":6634:6713   */\n      tag_478\n      tag_367\n      jump\t// in\n    tag_478:\n        /* \"#utility.yul\":6596:6715   */\n    tag_477:\n        /* \"#utility.yul\":6754:6755   */\n      0x00\n        /* \"#utility.yul\":6779:6832   */\n      tag_479\n        /* \"#utility.yul\":6824:6831   */\n      dup6\n        /* \"#utility.yul\":6815:6821   */\n      dup3\n        /* \"#utility.yul\":6804:6813   */\n      dup7\n        /* \"#utility.yul\":6800:6822   */\n      add\n        /* \"#utility.yul\":6779:6832   */\n      tag_372\n      jump\t// in\n    tag_479:\n        /* \"#utility.yul\":6769:6832   */\n      swap3\n      pop\n        /* \"#utility.yul\":6725:6842   */\n      pop\n        /* \"#utility.yul\":6881:6883   */\n      0x20\n        /* \"#utility.yul\":6907:6960   */\n      tag_480\n        /* \"#utility.yul\":6952:6959   */\n      dup6\n        /* \"#utility.yul\":6943:6949   */\n      dup3\n        /* \"#utility.yul\":6932:6941   */\n      dup7\n        /* \"#utility.yul\":6928:6950   */\n      add\n        /* \"#utility.yul\":6907:6960   */\n      tag_372\n      jump\t// in\n    tag_480:\n        /* \"#utility.yul\":6897:6960   */\n      swap2\n      pop\n        /* \"#utility.yul\":6852:6970   */\n      pop\n        /* \"#utility.yul\":6503:6977   */\n      swap3\n      pop\n      swap3\n      swap1\n      pop\n      jump\t// out\n        /* \"#utility.yul\":6983:7596   */\n    tag_172:\n        /* \"#utility.yul\":7057:7063   */\n      0x00\n        /* \"#utility.yul\":7065:7071   */\n      0x00\n        /* \"#utility.yul\":7073:7079   */\n      0x00\n        /* \"#utility.yul\":7122:7124   */\n      0x60\n        /* \"#utility.yul\":7110:7119   */\n      dup5\n        /* \"#utility.yul\":7101:7108   */\n      dup7\n        /* \"#utility.yul\":7097:7120   */\n      sub\n        /* \"#utility.yul\":7093:7125   */\n      slt\n        /* \"#utility.yul\":7090:7209   */\n      iszero\n      tag_482\n      jumpi\n        /* \"#utility.yul\":7128:7207   */\n      tag_483\n      tag_367\n      jump\t// in\n    tag_483:\n        /* \"#utility.yul\":7090:7209   */\n    tag_482:\n        /* \"#utility.yul\":7248:7249   */\n      0x00\n        /* \"#utility.yul\":7273:7326   */\n      tag_484\n        /* \"#utility.yul\":7318:7325   */\n      dup7\n        /* \"#utility.yul\":7309:7315   */\n      dup3\n        /* \"#utility.yul\":7298:7307   */\n      dup8\n        /* \"#utility.yul\":7294:7316   */\n      add\n        /* \"#utility.yul\":7273:7326   */\n      tag_375\n      jump\t// in\n    tag_484:\n        /* \"#utility.yul\":7263:7326   */\n      swap4\n      pop\n        /* \"#utility.yul\":7219:7336   */\n      pop\n        /* \"#utility.yul\":7375:7377   */\n      0x20\n        /* \"#utility.yul\":7401:7454   */\n      tag_485\n        /* \"#utility.yul\":7446:7453   */\n      dup7\n        /* \"#utility.yul\":7437:7443   */\n      dup3\n        /* \"#utility.yul\":7426:7435   */\n      dup8\n        /* \"#utility.yul\":7422:7444   */\n      add\n        /* \"#utility.yul\":7401:7454   */\n      tag_375\n      jump\t// in\n    tag_485:\n        /* \"#utility.yul\":7391:7454   */\n      swap3\n      pop\n        /* \"#utility.yul\":7346:7464   */\n      pop\n        /* \"#utility.yul\":7503:7505   */\n      0x40\n        /* \"#utility.yul\":7529:7579   */\n      tag_486\n        /* \"#utility.yul\":7571:7578   */\n      dup7\n        /* \"#utility.yul\":7562:7568   */\n      dup3\n        /* \"#utility.yul\":7551:7560   */\n      dup8\n        /* \"#utility.yul\":7547:7569   */\n      add\n        /* \"#utility.yul\":7529:7579   */\n      tag_383\n      jump\t// in\n    tag_486:\n        /* \"#utility.yul\":7519:7579   */\n      swap2\n      pop\n        /* \"#utility.yul\":7474:7589   */\n      pop\n        /* \"#utility.yul\":6983:7596   */\n      swap3\n      pop\n      swap3\n      pop\n      swap3\n      jump\t// out\n        /* \"#utility.yul\":7602:7782   */\n    tag_384:\n        /* \"#utility.yul\":7650:7727   */\n      0x4e487b7100000000000000000000000000000000000000000000000000000000\n        /* \"#utility.yul\":7647:7648   */\n      0x00\n        /* \"#utility.yul\":7640:7728   */\n      mstore\n        /* \"#utility.yul\":7747:7751   */\n      0x22\n        /* \"#utility.yul\":7744:7745   */\n      0x04\n        /* \"#utility.yul\":7737:7752   */\n      mstore\n        /* \"#utility.yul\":7771:7775   */\n      0x24\n        /* \"#utility.yul\":7768:7769   */\n      0x00\n        /* \"#utility.yul\":7761:7776   */\n      revert\n        /* \"#utility.yul\":7788:8108   */\n    tag_179:\n        /* \"#utility.yul\":7832:7838   */\n      0x00\n        /* \"#utility.yul\":7869:7870   */\n      0x02\n        /* \"#utility.yul\":7863:7867   */\n      dup3\n        /* \"#utility.yul\":7859:7871   */\n      div\n        /* \"#utility.yul\":7849:7871   */\n      swap1\n      pop\n        /* \"#utility.yul\":7916:7917   */\n      0x01\n        /* \"#utility.yul\":7910:7914   */\n      dup3\n        /* \"#utility.yul\":7906:7918   */\n      and\n        /* \"#utility.yul\":7937:7955   */\n      dup1\n        /* \"#utility.yul\":7927:8008   */\n      tag_489\n      jumpi\n        /* \"#utility.yul\":7993:7997   */\n      0x7f\n        /* \"#utility.yul\":7985:7991   */\n      dup3\n        /* \"#utility.yul\":7981:7998   */\n      and\n        /* \"#utility.yul\":7971:7998   */\n      swap2\n      pop\n        /* \"#utility.yul\":7927:8008   */\n    tag_489:\n        /* \"#utility.yul\":8055:8057   */\n      0x20\n        /* \"#utility.yul\":8047:8053   */\n      dup3\n        /* \"#utility.yul\":8044:8058   */\n      lt\n        /* \"#utility.yul\":8024:8042   */\n      dup2\n        /* \"#utility.yul\":8021:8059   */\n      sub\n        /* \"#utility.yul\":8018:8102   */\n      tag_490\n      jumpi\n        /* \"#utility.yul\":8074:8092   */\n      tag_491\n      tag_384\n      jump\t// in\n    tag_491:\n        /* \"#utility.yul\":8018:8102   */\n    tag_490:\n        /* \"#utility.yul\":7839:8108   */\n      pop\n        /* \"#utility.yul\":7788:8108   */\n      swap2\n      swap1\n      pop\n      jump\t// out\n        /* \"#utility.yul\":8114:8276   */\n    tag_385:\n        /* \"#utility.yul\":8254:8268   */\n      0x5a65726f20616464726573730000000000000000000000000000000000000000\n        /* \"#utility.yul\":8250:8251   */\n      0x00\n        /* \"#utility.yul\":8242:8248   */\n      dup3\n        /* \"#utility.yul\":8238:8252   */\n      add\n        /* \"#utility.yul\":8231:8269   */\n      mstore\n        /* \"#utility.yul\":8114:8276   */\n      pop\n      jump\t// out\n        /* \"#utility.yul\":8282:8648   */\n    tag_386:\n        /* \"#utility.yul\":8424:8427   */\n      0x00\n        /* \"#utility.yul\":8445:8512   */\n      tag_494\n        /* \"#utility.yul\":8509:8511   */\n      0x0c\n        /* \"#utility.yul\":8504:8507   */\n      dup4\n        /* \"#utility.yul\":8445:8512   */\n      tag_362\n      jump\t// in\n    tag_494:\n        /* \"#utility.yul\":8438:8512   */\n      swap2\n      pop\n        /* \"#utility.yul\":8521:8614   */\n      tag_495\n        /* \"#utility.yul\":8610:8613   */\n      dup3\n        /* \"#utility.yul\":8521:8614   */\n      tag_385\n      jump\t// in\n    tag_495:\n        /* \"#utility.yul\":8639:8641   */\n      0x20\n        /* \"#utility.yul\":8634:8637   */\n      dup3\n        /* \"#utility.yul\":8630:8642   */\n      add\n        /* \"#utility.yul\":8623:8642   */\n      swap1\n      pop\n        /* \"#utility.yul\":8282:8648   */\n      swap2\n      swap1\n      pop\n      jump\t// out\n        /* \"#utility.yul\":8654:9073   */\n    tag_244:\n        /* \"#utility.yul\":8820:8824   */\n      0x00\n        /* \"#utility.yul\":8858:8860   */\n      0x20\n        /* \"#utility.yul\":8847:8856   */\n      dup3\n        /* \"#utility.yul\":8843:8861   */\n      add\n        /* \"#utility.yul\":8835:8861   */\n      swap1\n      pop\n        /* \"#utility.yul\":8907:8916   */\n      dup2\n        /* \"#utility.yul\":8901:8905   */\n      dup2\n        /* \"#utility.yul\":8897:8917   */\n      sub\n        /* \"#utility.yul\":8893:8894   */\n      0x00\n        /* \"#utility.yul\":8882:8891   */\n      dup4\n        /* \"#utility.yul\":8878:8895   */\n      add\n        /* \"#utility.yul\":8871:8918   */\n      mstore\n        /* \"#utility.yul\":8935:9066   */\n      tag_497\n        /* \"#utility.yul\":9061:9065   */\n      dup2\n        /* \"#utility.yul\":8935:9066   */\n      tag_386\n      jump\t// in\n    tag_497:\n        /* \"#utility.yul\":8927:9066   */\n      swap1\n      pop\n        /* \"#utility.yul\":8654:9073   */\n      swap2\n      swap1\n      pop\n      jump\t// out\n        /* \"#utility.yul\":9079:9509   */\n    tag_259:\n        /* \"#utility.yul\":9222:9226   */\n      0x00\n        /* \"#utility.yul\":9260:9262   */\n      0x60\n        /* \"#utility.yul\":9249:9258   */\n      dup3\n        /* \"#utility.yul\":9245:9263   */\n      add\n        /* \"#utility.yul\":9237:9263   */\n      swap1\n      pop\n        /* \"#utility.yul\":9273:9344   */\n      tag_499\n        /* \"#utility.yul\":9341:9342   */\n      0x00\n        /* \"#utility.yul\":9330:9339   */\n      dup4\n        /* \"#utility.yul\":9326:9343   */\n      add\n        /* \"#utility.yul\":9317:9323   */\n      dup7\n        /* \"#utility.yul\":9273:9344   */\n      tag_378\n      jump\t// in\n    tag_499:\n        /* \"#utility.yul\":9354:9426   */\n      tag_500\n        /* \"#utility.yul\":9422:9424   */\n      0x20\n        /* \"#utility.yul\":9411:9420   */\n      dup4\n        /* \"#utility.yul\":9407:9425   */\n      add\n        /* \"#utility.yul\":9398:9404   */\n      dup6\n        /* \"#utility.yul\":9354:9426   */\n      tag_378\n      jump\t// in\n    tag_500:\n        /* \"#utility.yul\":9436:9502   */\n      tag_501\n        /* \"#utility.yul\":9498:9500   */\n      0x40\n        /* \"#utility.yul\":9487:9496   */\n      dup4\n        /* \"#utility.yul\":9483:9501   */\n      add\n        /* \"#utility.yul\":9474:9480   */\n      dup5\n        /* \"#utility.yul\":9436:9502   */\n      tag_377\n      jump\t// in\n    tag_501:\n        /* \"#utility.yul\":9079:9509   */\n      swap5\n      swap4\n      pop\n      pop\n      pop\n      pop\n      jump\t// out\n        /* \"#utility.yul\":9515:9957   */\n    tag_269:\n        /* \"#utility.yul\":9664:9668   */\n      0x00\n        /* \"#utility.yul\":9702:9704   */\n      0x60\n        /* \"#utility.yul\":9691:9700   */\n      dup3\n        /* \"#utility.yul\":9687:9705   */\n      add\n        /* \"#utility.yul\":9679:9705   */\n      swap1\n      pop\n        /* \"#utility.yul\":9715:9786   */\n      tag_503\n        /* \"#utility.yul\":9783:9784   */\n      0x00\n        /* \"#utility.yul\":9772:9781   */\n      dup4\n        /* \"#utility.yul\":9768:9785   */\n      add\n        /* \"#utility.yul\":9759:9765   */\n      dup7\n        /* \"#utility.yul\":9715:9786   */\n      tag_379\n      jump\t// in\n    tag_503:\n        /* \"#utility.yul\":9796:9868   */\n      tag_504\n        /* \"#utility.yul\":9864:9866   */\n      0x20\n        /* \"#utility.yul\":9853:9862   */\n      dup4\n        /* \"#utility.yul\":9849:9867   */\n      add\n        /* \"#utility.yul\":9840:9846   */\n      dup6\n        /* \"#utility.yul\":9796:9868   */\n      tag_378\n      jump\t// in\n    tag_504:\n        /* \"#utility.yul\":9878:9950   */\n      tag_505\n        /* \"#utility.yul\":9946:9948   */\n      0x40\n        /* \"#utility.yul\":9935:9944   */\n      dup4\n        /* \"#utility.yul\":9931:9949   */\n      add\n        /* \"#utility.yul\":9922:9928   */\n      dup5\n        /* \"#utility.yul\":9878:9950   */\n      tag_378\n      jump\t// in\n    tag_505:\n        /* \"#utility.yul\":9515:9957   */\n      swap5\n      swap4\n      pop\n      pop\n      pop\n      pop\n      jump\t// out\n        /* \"#utility.yul\":9963:10195   */\n    tag_387:\n        /* \"#utility.yul\":10103:10137   */\n      0x43616e6e6f742073656e6420746f6b656e7320746f20746f6b656e20636f6e74\n        /* \"#utility.yul\":10099:10100   */\n      0x00\n        /* \"#utility.yul\":10091:10097   */\n      dup3\n        /* \"#utility.yul\":10087:10101   */\n      add\n        /* \"#utility.yul\":10080:10138   */\n      mstore\n        /* \"#utility.yul\":10172:10187   */\n      0x72616374206469726563746c7900000000000000000000000000000000000000\n        /* \"#utility.yul\":10167:10169   */\n      0x20\n        /* \"#utility.yul\":10159:10165   */\n      dup3\n        /* \"#utility.yul\":10155:10170   */\n      add\n        /* \"#utility.yul\":10148:10188   */\n      mstore\n        /* \"#utility.yul\":9963:10195   */\n      pop\n      jump\t// out\n        /* \"#utility.yul\":10201:10567   */\n    tag_388:\n        /* \"#utility.yul\":10343:10346   */\n      0x00\n        /* \"#utility.yul\":10364:10431   */\n      tag_508\n        /* \"#utility.yul\":10428:10430   */\n      0x2d\n        /* \"#utility.yul\":10423:10426   */\n      dup4\n        /* \"#utility.yul\":10364:10431   */\n      tag_362\n      jump\t// in\n    tag_508:\n        /* \"#utility.yul\":10357:10431   */\n      swap2\n      pop\n        /* \"#utility.yul\":10440:10533   */\n      tag_509\n        /* \"#utility.yul\":10529:10532   */\n      dup3\n        /* \"#utility.yul\":10440:10533   */\n      tag_387\n      jump\t// in\n    tag_509:\n        /* \"#utility.yul\":10558:10560   */\n      0x40\n        /* \"#utility.yul\":10553:10556   */\n      dup3\n        /* \"#utility.yul\":10549:10561   */\n      add\n        /* \"#utility.yul\":10542:10561   */\n      swap1\n      pop\n        /* \"#utility.yul\":10201:10567   */\n      swap2\n      swap1\n      pop\n      jump\t// out\n        /* \"#utility.yul\":10573:10992   */\n    tag_318:\n        /* \"#utility.yul\":10739:10743   */\n      0x00\n        /* \"#utility.yul\":10777:10779   */\n      0x20\n        /* \"#utility.yul\":10766:10775   */\n      dup3\n        /* \"#utility.yul\":10762:10780   */\n      add\n        /* \"#utility.yul\":10754:10780   */\n      swap1\n      pop\n        /* \"#utility.yul\":10826:10835   */\n      dup2\n        /* \"#utility.yul\":10820:10824   */\n      dup2\n        /* \"#utility.yul\":10816:10836   */\n      sub\n        /* \"#utility.yul\":10812:10813   */\n      0x00\n        /* \"#utility.yul\":10801:10810   */\n      dup4\n        /* \"#utility.yul\":10797:10814   */\n      add\n        /* \"#utility.yul\":10790:10837   */\n      mstore\n        /* \"#utility.yul\":10854:10985   */\n      tag_511\n        /* \"#utility.yul\":10980:10984   */\n      dup2\n        /* \"#utility.yul\":10854:10985   */\n      tag_388\n      jump\t// in\n    tag_511:\n        /* \"#utility.yul\":10846:10985   */\n      swap1\n      pop\n        /* \"#utility.yul\":10573:10992   */\n      swap2\n      swap1\n      pop\n      jump\t// out\n        /* \"#utility.yul\":10998:11171   */\n    tag_389:\n        /* \"#utility.yul\":11138:11163   */\n      0x54726164696e67206e6f742079657420656e61626c6564000000000000000000\n        /* \"#utility.yul\":11134:11135   */\n      0x00\n        /* \"#utility.yul\":11126:11132   */\n      dup3\n        /* \"#utility.yul\":11122:11136   */\n      add\n        /* \"#utility.yul\":11115:11164   */\n      mstore\n        /* \"#utility.yul\":10998:11171   */\n      pop\n      jump\t// out\n        /* \"#utility.yul\":11177:11543   */\n    tag_390:\n        /* \"#utility.yul\":11319:11322   */\n      0x00\n        /* \"#utility.yul\":11340:11407   */\n      tag_514\n        /* \"#utility.yul\":11404:11406   */\n      0x17\n        /* \"#utility.yul\":11399:11402   */\n      dup4\n        /* \"#utility.yul\":11340:11407   */\n      tag_362\n      jump\t// in\n    tag_514:\n        /* \"#utility.yul\":11333:11407   */\n      swap2\n      pop\n        /* \"#utility.yul\":11416:11509   */\n      tag_515\n        /* \"#utility.yul\":11505:11508   */\n      dup3\n        /* \"#utility.yul\":11416:11509   */\n      tag_389\n      jump\t// in\n    tag_515:\n        /* \"#utility.yul\":11534:11536   */\n      0x20\n        /* \"#utility.yul\":11529:11532   */\n      dup3\n        /* \"#utility.yul\":11525:11537   */\n      add\n        /* \"#utility.yul\":11518:11537   */\n      swap1\n      pop\n        /* \"#utility.yul\":11177:11543   */\n      swap2\n      swap1\n      pop\n      jump\t// out\n        /* \"#utility.yul\":11549:11968   */\n    tag_325:\n        /* \"#utility.yul\":11715:11719   */\n      0x00\n        /* \"#utility.yul\":11753:11755   */\n      0x20\n        /* \"#utility.yul\":11742:11751   */\n      dup3\n        /* \"#utility.yul\":11738:11756   */\n      add\n        /* \"#utility.yul\":11730:11756   */\n      swap1\n      pop\n        /* \"#utility.yul\":11802:11811   */\n      dup2\n        /* \"#utility.yul\":11796:11800   */\n      dup2\n        /* \"#utility.yul\":11792:11812   */\n      sub\n        /* \"#utility.yul\":11788:11789   */\n      0x00\n        /* \"#utility.yul\":11777:11786   */\n      dup4\n        /* \"#utility.yul\":11773:11790   */\n      add\n        /* \"#utility.yul\":11766:11813   */\n      mstore\n        /* \"#utility.yul\":11830:11961   */\n      tag_517\n        /* \"#utility.yul\":11956:11960   */\n      dup2\n        /* \"#utility.yul\":11830:11961   */\n      tag_390\n      jump\t// in\n    tag_517:\n        /* \"#utility.yul\":11822:11961   */\n      swap1\n      pop\n        /* \"#utility.yul\":11549:11968   */\n      swap2\n      swap1\n      pop\n      jump\t// out\n        /* \"#utility.yul\":11974:12137   */\n    tag_391:\n        /* \"#utility.yul\":12114:12129   */\n      0x45786365656473206d6178547800000000000000000000000000000000000000\n        /* \"#utility.yul\":12110:12111   */\n      0x00\n        /* \"#utility.yul\":12102:12108   */\n      dup3\n        /* \"#utility.yul\":12098:12112   */\n      add\n        /* \"#utility.yul\":12091:12130   */\n      mstore\n        /* \"#utility.yul\":11974:12137   */\n      pop\n      jump\t// out\n        /* \"#utility.yul\":12143:12509   */\n    tag_392:\n        /* \"#utility.yul\":12285:12288   */\n      0x00\n        /* \"#utility.yul\":12306:12373   */\n      tag_520\n        /* \"#utility.yul\":12370:12372   */\n      0x0d\n        /* \"#utility.yul\":12365:12368   */\n      dup4\n        /* \"#utility.yul\":12306:12373   */\n      tag_362\n      jump\t// in\n    tag_520:\n        /* \"#utility.yul\":12299:12373   */\n      swap2\n      pop\n        /* \"#utility.yul\":12382:12475   */\n      tag_521\n        /* \"#utility.yul\":12471:12474   */\n      dup3\n        /* \"#utility.yul\":12382:12475   */\n      tag_391\n      jump\t// in\n    tag_521:\n        /* \"#utility.yul\":12500:12502   */\n      0x20\n        /* \"#utility.yul\":12495:12498   */\n      dup3\n        /* \"#utility.yul\":12491:12503   */\n      add\n        /* \"#utility.yul\":12484:12503   */\n      swap1\n      pop\n        /* \"#utility.yul\":12143:12509   */\n      swap2\n      swap1\n      pop\n      jump\t// out\n        /* \"#utility.yul\":12515:12934   */\n    tag_333:\n        /* \"#utility.yul\":12681:12685   */\n      0x00\n        /* \"#utility.yul\":12719:12721   */\n      0x20\n        /* \"#utility.yul\":12708:12717   */\n      dup3\n        /* \"#utility.yul\":12704:12722   */\n      add\n        /* \"#utility.yul\":12696:12722   */\n      swap1\n      pop\n        /* \"#utility.yul\":12768:12777   */\n      dup2\n        /* \"#utility.yul\":12762:12766   */\n      dup2\n        /* \"#utility.yul\":12758:12778   */\n      sub\n        /* \"#utility.yul\":12754:12755   */\n      0x00\n        /* \"#utility.yul\":12743:12752   */\n      dup4\n        /* \"#utility.yul\":12739:12756   */\n      add\n        /* \"#utility.yul\":12732:12779   */\n      mstore\n        /* \"#utility.yul\":12796:12927   */\n      tag_523\n        /* \"#utility.yul\":12922:12926   */\n      dup2\n        /* \"#utility.yul\":12796:12927   */\n      tag_392\n      jump\t// in\n    tag_523:\n        /* \"#utility.yul\":12788:12927   */\n      swap1\n      pop\n        /* \"#utility.yul\":12515:12934   */\n      swap2\n      swap1\n      pop\n      jump\t// out\n        /* \"#utility.yul\":12940:13120   */\n    tag_393:\n        /* \"#utility.yul\":12988:13065   */\n      0x4e487b7100000000000000000000000000000000000000000000000000000000\n        /* \"#utility.yul\":12985:12986   */\n      0x00\n        /* \"#utility.yul\":12978:13066   */\n      mstore\n        /* \"#utility.yul\":13085:13089   */\n      0x11\n        /* \"#utility.yul\":13082:13083   */\n      0x04\n        /* \"#utility.yul\":13075:13090   */\n      mstore\n        /* \"#utility.yul\":13109:13113   */\n      0x24\n        /* \"#utility.yul\":13106:13107   */\n      0x00\n        /* \"#utility.yul\":13099:13114   */\n      revert\n        /* \"#utility.yul\":13126:13317   */\n    tag_337:\n        /* \"#utility.yul\":13166:13169   */\n      0x00\n        /* \"#utility.yul\":13185:13205   */\n      tag_526\n        /* \"#utility.yul\":13203:13204   */\n      dup3\n        /* \"#utility.yul\":13185:13205   */\n      tag_373\n      jump\t// in\n    tag_526:\n        /* \"#utility.yul\":13180:13205   */\n      swap2\n      pop\n        /* \"#utility.yul\":13219:13239   */\n      tag_527\n        /* \"#utility.yul\":13237:13238   */\n      dup4\n        /* \"#utility.yul\":13219:13239   */\n      tag_373\n      jump\t// in\n    tag_527:\n        /* \"#utility.yul\":13214:13239   */\n      swap3\n      pop\n        /* \"#utility.yul\":13262:13263   */\n      dup3\n        /* \"#utility.yul\":13259:13260   */\n      dup3\n        /* \"#utility.yul\":13255:13264   */\n      add\n        /* \"#utility.yul\":13248:13264   */\n      swap1\n      pop\n        /* \"#utility.yul\":13283:13286   */\n      dup1\n        /* \"#utility.yul\":13280:13281   */\n      dup3\n        /* \"#utility.yul\":13277:13287   */\n      gt\n        /* \"#utility.yul\":13274:13310   */\n      iszero\n      tag_528\n      jumpi\n        /* \"#utility.yul\":13290:13308   */\n      tag_529\n      tag_393\n      jump\t// in\n    tag_529:\n        /* \"#utility.yul\":13274:13310   */\n    tag_528:\n        /* \"#utility.yul\":13126:13317   */\n      swap3\n      swap2\n      pop\n      pop\n      jump\t// out\n        /* \"#utility.yul\":13323:13490   */\n    tag_394:\n        /* \"#utility.yul\":13463:13482   */\n      0x45786365656473206d617857616c6c6574000000000000000000000000000000\n        /* \"#utility.yul\":13459:13460   */\n      0x00\n        /* \"#utility.yul\":13451:13457   */\n      dup3\n        /* \"#utility.yul\":13447:13461   */\n      add\n        /* \"#utility.yul\":13440:13483   */\n      mstore\n        /* \"#utility.yul\":13323:13490   */\n      pop\n      jump\t// out\n        /* \"#utility.yul\":13496:13862   */\n    tag_395:\n        /* \"#utility.yul\":13638:13641   */\n      0x00\n        /* \"#utility.yul\":13659:13726   */\n      tag_532\n        /* \"#utility.yul\":13723:13725   */\n      0x11\n        /* \"#utility.yul\":13718:13721   */\n      dup4\n        /* \"#utility.yul\":13659:13726   */\n      tag_362\n      jump\t// in\n    tag_532:\n        /* \"#utility.yul\":13652:13726   */\n      swap2\n      pop\n        /* \"#utility.yul\":13735:13828   */\n      tag_533\n        /* \"#utility.yul\":13824:13827   */\n      dup3\n        /* \"#utility.yul\":13735:13828   */\n      tag_394\n      jump\t// in\n    tag_533:\n        /* \"#utility.yul\":13853:13855   */\n      0x20\n        /* \"#utility.yul\":13848:13851   */\n      dup3\n        /* \"#utility.yul\":13844:13856   */\n      add\n        /* \"#utility.yul\":13837:13856   */\n      swap1\n      pop\n        /* \"#utility.yul\":13496:13862   */\n      swap2\n      swap1\n      pop\n      jump\t// out\n        /* \"#utility.yul\":13868:14287   */\n    tag_340:\n        /* \"#utility.yul\":14034:14038   */\n      0x00\n        /* \"#utility.yul\":14072:14074   */\n      0x20\n        /* \"#utility.yul\":14061:14070   */\n      dup3\n        /* \"#utility.yul\":14057:14075   */\n      add\n        /* \"#utility.yul\":14049:14075   */\n      swap1\n      pop\n        /* \"#utility.yul\":14121:14130   */\n      dup2\n        /* \"#utility.yul\":14115:14119   */\n      dup2\n        /* \"#utility.yul\":14111:14131   */\n      sub\n        /* \"#utility.yul\":14107:14108   */\n      0x00\n        /* \"#utility.yul\":14096:14105   */\n      dup4\n        /* \"#utility.yul\":14092:14109   */\n      add\n        /* \"#utility.yul\":14085:14132   */\n      mstore\n        /* \"#utility.yul\":14149:14280   */\n      tag_535\n        /* \"#utility.yul\":14275:14279   */\n      dup2\n        /* \"#utility.yul\":14149:14280   */\n      tag_395\n      jump\t// in\n    tag_535:\n        /* \"#utility.yul\":14141:14280   */\n      swap1\n      pop\n        /* \"#utility.yul\":13868:14287   */\n      swap2\n      swap1\n      pop\n      jump\t// out\n        /* \"#utility.yul\":14293:14463   */\n    tag_396:\n        /* \"#utility.yul\":14433:14455   */\n      0x5061757361626c653a206e6f7420706175736564000000000000000000000000\n        /* \"#utility.yul\":14429:14430   */\n      0x00\n        /* \"#utility.yul\":14421:14427   */\n      dup3\n        /* \"#utility.yul\":14417:14431   */\n      add\n        /* \"#utility.yul\":14410:14456   */\n      mstore\n        /* \"#utility.yul\":14293:14463   */\n      pop\n      jump\t// out\n        /* \"#utility.yul\":14469:14835   */\n    tag_397:\n        /* \"#utility.yul\":14611:14614   */\n      0x00\n        /* \"#utility.yul\":14632:14699   */\n      tag_538\n        /* \"#utility.yul\":14696:14698   */\n      0x14\n        /* \"#utility.yul\":14691:14694   */\n      dup4\n        /* \"#utility.yul\":14632:14699   */\n      tag_362\n      jump\t// in\n    tag_538:\n        /* \"#utility.yul\":14625:14699   */\n      swap2\n      pop\n        /* \"#utility.yul\":14708:14801   */\n      tag_539\n        /* \"#utility.yul\":14797:14800   */\n      dup3\n        /* \"#utility.yul\":14708:14801   */\n      tag_396\n      jump\t// in\n    tag_539:\n        /* \"#utility.yul\":14826:14828   */\n      0x20\n        /* \"#utility.yul\":14821:14824   */\n      dup3\n        /* \"#utility.yul\":14817:14829   */\n      add\n        /* \"#utility.yul\":14810:14829   */\n      swap1\n      pop\n        /* \"#utility.yul\":14469:14835   */\n      swap2\n      swap1\n      pop\n      jump\t// out\n        /* \"#utility.yul\":14841:15260   */\n    tag_346:\n        /* \"#utility.yul\":15007:15011   */\n      0x00\n        /* \"#utility.yul\":15045:15047   */\n      0x20\n        /* \"#utility.yul\":15034:15043   */\n      dup3\n        /* \"#utility.yul\":15030:15048   */\n      add\n        /* \"#utility.yul\":15022:15048   */\n      swap1\n      pop\n        /* \"#utility.yul\":15094:15103   */\n      dup2\n        /* \"#utility.yul\":15088:15092   */\n      dup2\n        /* \"#utility.yul\":15084:15104   */\n      sub\n        /* \"#utility.yul\":15080:15081   */\n      0x00\n        /* \"#utility.yul\":15069:15078   */\n      dup4\n        /* \"#utility.yul\":15065:15082   */\n      add\n        /* \"#utility.yul\":15058:15105   */\n      mstore\n        /* \"#utility.yul\":15122:15253   */\n      tag_541\n        /* \"#utility.yul\":15248:15252   */\n      dup2\n        /* \"#utility.yul\":15122:15253   */\n      tag_397\n      jump\t// in\n    tag_541:\n        /* \"#utility.yul\":15114:15253   */\n      swap1\n      pop\n        /* \"#utility.yul\":14841:15260   */\n      swap2\n      swap1\n      pop\n      jump\t// out\n        /* \"#utility.yul\":15266:15432   */\n    tag_398:\n        /* \"#utility.yul\":15406:15424   */\n      0x5061757361626c653a2070617573656400000000000000000000000000000000\n        /* \"#utility.yul\":15402:15403   */\n      0x00\n        /* \"#utility.yul\":15394:15400   */\n      dup3\n        /* \"#utility.yul\":15390:15404   */\n      add\n        /* \"#utility.yul\":15383:15425   */\n      mstore\n        /* \"#utility.yul\":15266:15432   */\n      pop\n      jump\t// out\n        /* \"#utility.yul\":15438:15804   */\n    tag_399:\n        /* \"#utility.yul\":15580:15583   */\n      0x00\n        /* \"#utility.yul\":15601:15668   */\n      tag_544\n        /* \"#utility.yul\":15665:15667   */\n      0x10\n        /* \"#utility.yul\":15660:15663   */\n      dup4\n        /* \"#utility.yul\":15601:15668   */\n      tag_362\n      jump\t// in\n    tag_544:\n        /* \"#utility.yul\":15594:15668   */\n      swap2\n      pop\n        /* \"#utility.yul\":15677:15770   */\n      tag_545\n        /* \"#utility.yul\":15766:15769   */\n      dup3\n        /* \"#utility.yul\":15677:15770   */\n      tag_398\n      jump\t// in\n    tag_545:\n        /* \"#utility.yul\":15795:15797   */\n      0x20\n        /* \"#utility.yul\":15790:15793   */\n      dup3\n        /* \"#utility.yul\":15786:15798   */\n      add\n        /* \"#utility.yul\":15779:15798   */\n      swap1\n      pop\n        /* \"#utility.yul\":15438:15804   */\n      swap2\n      swap1\n      pop\n      jump\t// out\n        /* \"#utility.yul\":15810:16229   */\n    tag_351:\n        /* \"#utility.yul\":15976:15980   */\n      0x00\n        /* \"#utility.yul\":16014:16016   */\n      0x20\n        /* \"#utility.yul\":16003:16012   */\n      dup3\n        /* \"#utility.yul\":15999:16017   */\n      add\n        /* \"#utility.yul\":15991:16017   */\n      swap1\n      pop\n        /* \"#utility.yul\":16063:16072   */\n      dup2\n        /* \"#utility.yul\":16057:16061   */\n      dup2\n        /* \"#utility.yul\":16053:16073   */\n      sub\n        /* \"#utility.yul\":16049:16050   */\n      0x00\n        /* \"#utility.yul\":16038:16047   */\n      dup4\n        /* \"#utility.yul\":16034:16051   */\n      add\n        /* \"#utility.yul\":16027:16074   */\n      mstore\n        /* \"#utility.yul\":16091:16222   */\n      tag_547\n        /* \"#utility.yul\":16217:16221   */\n      dup2\n        /* \"#utility.yul\":16091:16222   */\n      tag_399\n      jump\t// in\n    tag_547:\n        /* \"#utility.yul\":16083:16222   */\n      swap1\n      pop\n        /* \"#utility.yul\":15810:16229   */\n      swap2\n      swap1\n      pop\n      jump\t// out\n\n    auxdata: 0xa2646970667358221220064ab0ab2eb490b04c48dad60411e1244b7f7b997fb49c7b7667425e15372dec64736f6c634300081e0033\n}\n",
				"bytecode": {
					"linkReferences": {},
					"object": "60806040526001600560156101000a81548160ff021916908315150217905550600160085f6101000a81548160ff021916908315150217905550348015610044575f5ffd5b50336040518060400160405280600e81526020017f50696e4f6e4d617020546f6b656e0000000000000000000000000000000000008152506040518060400160405280600381526020017f504f4d000000000000000000000000000000000000000000000000000000000081525081600390816100c19190611129565b5080600490816100d19190611129565b5050505f73ffffffffffffffffffffffffffffffffffffffff168173ffffffffffffffffffffffffffffffffffffffff1603610144575f6040517f1e4fbdf700000000000000000000000000000000000000000000000000000000815260040161013b9190611237565b60405180910390fd5b610153816105b460201b60201c565b505f600560146101000a81548160ff0219169083151502179055505f60085f6101000a81548160ff0219169083151502179055506001600560156101000a81548160ff0219169083151502179055506101e37371133f5d2548cd9b182c2daf68d9d00a56d4343f6101d86b204fce5e3e250261100000006109c461067760201b60201c565b6106de60201b60201c565b61022473ab247964f4b9a1c50e6c01e4a2a808ce07feaf416102196b204fce5e3e25026110000000610bb861067760201b60201c565b6106de60201b60201c565b610265731bec551c40d7f6b3b7b0366765fa769a8ddb4f2561025a6b204fce5e3e250261100000006105dc61067760201b60201c565b6106de60201b60201c565b6102a6739a982f4efa6f344e955d28dba751e17b60e3f21761029b6b204fce5e3e250261100000006103e861067760201b60201c565b6106de60201b60201c565b6102e773f03cb4af13afdb94688607e100bee39e4173b4466102dc6b204fce5e3e250261100000006103e861067760201b60201c565b6106de60201b60201c565b610328738dcdf001b069ef0a027aa8b4daca12577423a90b61031d6b204fce5e3e250261100000006101f461067760201b60201c565b6106de60201b60201c565b61036973ff55e5341142efdfd37d2e51317bbda62db8d8f061035e6b204fce5e3e250261100000006101f461067760201b60201c565b6106de60201b60201c565b5f600560156101000a81548160ff021916908315150217905550600160085f6101000a81548160ff0219169083151502179055506103ba6b204fce5e3e25026110000000601961067760201b60201c565b6006819055506103dd6b204fce5e3e25026110000000603261067760201b60201c565b600781905550600160095f73dfb98530d77ee2d29ea7933c02eff5031020114573ffffffffffffffffffffffffffffffffffffffff1673ffffffffffffffffffffffffffffffffffffffff1681526020019081526020015f205f6101000a81548160ff021916908315150217905550600160095f3073ffffffffffffffffffffffffffffffffffffffff1673ffffffffffffffffffffffffffffffffffffffff1681526020019081526020015f205f6101000a81548160ff021916908315150217905550731bec551c40d7f6b3b7b0366765fa769a8ddb4f2573ffffffffffffffffffffffffffffffffffffffff1673ab247964f4b9a1c50e6c01e4a2a808ce07feaf4173ffffffffffffffffffffffffffffffffffffffff167371133f5d2548cd9b182c2daf68d9d00a56d4343f73ffffffffffffffffffffffffffffffffffffffff167f4c160552e2f29ed39f6d2f1ae54f5b0f9a771f971c1c4a5a5d80a816fe017d70739a982f4efa6f344e955d28dba751e17b60e3f21773f03cb4af13afdb94688607e100bee39e4173b446738dcdf001b069ef0a027aa8b4daca12577423a90b73ff55e5341142efdfd37d2e51317bbda62db8d8f06040516105a79493929190611250565b60405180910390a4611694565b5f60055f9054906101000a900473ffffffffffffffffffffffffffffffffffffffff1690508160055f6101000a81548173ffffffffffffffffffffffffffffffffffffffff021916908373ffffffffffffffffffffffffffffffffffffffff1602179055508173ffffffffffffffffffffffffffffffffffffffff168173ffffffffffffffffffffffffffffffffffffffff167f8be0079c531659141344cd1fd0a4f28419497f9722a3daafe3b4186f6b6457e060405160405180910390a35050565b5f6127108211156106bd576040517f08c379a00000000000000000000000000000000000000000000000000000000081526004016106b4906112ed565b60405180910390fd5b61271082846106cc9190611338565b6106d691906113a6565b905092915050565b5f73ffffffffffffffffffffffffffffffffffffffff168273ffffffffffffffffffffffffffffffffffffffff160361074e575f6040517fec442f050000000000000000000000000000000000000000000000000000000081526004016107459190611237565b60405180910390fd5b61075f5f838361076360201b60201c565b5050565b610771610c2860201b60201c565b5f73ffffffffffffffffffffffffffffffffffffffff168373ffffffffffffffffffffffffffffffffffffffff1614806107d657505f73ffffffffffffffffffffffffffffffffffffffff168273ffffffffffffffffffffffffffffffffffffffff16145b8061080c57503073ffffffffffffffffffffffffffffffffffffffff168373ffffffffffffffffffffffffffffffffffffffff16145b1561082757610822838383610c7860201b60201c565b610c23565b3073ffffffffffffffffffffffffffffffffffffffff168273ffffffffffffffffffffffffffffffffffffffff1603610895576040517f08c379a000000000000000000000000000000000000000000000000000000000815260040161088c90611446565b60405180910390fd5b600560159054906101000a900460ff161580156108de57505f73ffffffffffffffffffffffffffffffffffffffff168373ffffffffffffffffffffffffffffffffffffffff1614155b801561091657505f73ffffffffffffffffffffffffffffffffffffffff168273ffffffffffffffffffffffffffffffffffffffff1614155b156109f65760095f8473ffffffffffffffffffffffffffffffffffffffff1673ffffffffffffffffffffffffffffffffffffffff1681526020019081526020015f205f9054906101000a900460ff16806109b6575060095f8373ffffffffffffffffffffffffffffffffffffffff1673ffffffffffffffffffffffffffffffffffffffff1681526020019081526020015f205f9054906101000a900460ff165b6109f5576040517f08c379a00000000000000000000000000000000000000000000000000000000081526004016109ec906114ae565b60405180910390fd5b5b60085f9054906101000a900460ff168015610a3d57505f73ffffffffffffffffffffffffffffffffffffffff168373ffffffffffffffffffffffffffffffffffffffff1614155b8015610a7557505f73ffffffffffffffffffffffffffffffffffffffff168273ffffffffffffffffffffffffffffffffffffffff1614155b15610c115760095f8473ffffffffffffffffffffffffffffffffffffffff1673ffffffffffffffffffffffffffffffffffffffff1681526020019081526020015f205f9054906101000a900460ff16158015610b18575060095f8373ffffffffffffffffffffffffffffffffffffffff1673ffffffffffffffffffffffffffffffffffffffff1681526020019081526020015f205f9054906101000a900460ff16155b15610c1057600654811115610b62576040517f08c379a0000000000000000000000000000000000000000000000000000000008152600401610b5990611516565b60405180910390fd5b600a5f8373ffffffffffffffffffffffffffffffffffffffff1673ffffffffffffffffffffffffffffffffffffffff1681526020019081526020015f205f9054906101000a900460ff16610c0f5760075481610bc384610e9160201b60201c565b610bcd9190611534565b1115610c0e576040517f08c379a0000000000000000000000000000000000000000000000000000000008152600401610c05906115b1565b60405180910390fd5b5b5b5b610c22838383610c7860201b60201c565b5b505050565b610c36610ed660201b60201c565b15610c76576040517f08c379a0000000000000000000000000000000000000000000000000000000008152600401610c6d90611619565b60405180910390fd5b565b5f73ffffffffffffffffffffffffffffffffffffffff168373ffffffffffffffffffffffffffffffffffffffff1603610cc8578060025f828254610cbc9190611534565b92505081905550610d96565b5f5f5f8573ffffffffffffffffffffffffffffffffffffffff1673ffffffffffffffffffffffffffffffffffffffff1681526020019081526020015f2054905081811015610d51578381836040517fe450d38c000000000000000000000000000000000000000000000000000000008152600401610d4893929190611646565b60405180910390fd5b8181035f5f8673ffffffffffffffffffffffffffffffffffffffff1673ffffffffffffffffffffffffffffffffffffffff1681526020019081526020015f2081905550505b5f73ffffffffffffffffffffffffffffffffffffffff168273ffffffffffffffffffffffffffffffffffffffff1603610ddd578060025f8282540392505081905550610e27565b805f5f8473ffffffffffffffffffffffffffffffffffffffff1673ffffffffffffffffffffffffffffffffffffffff1681526020019081526020015f205f82825401925050819055505b8173ffffffffffffffffffffffffffffffffffffffff168373ffffffffffffffffffffffffffffffffffffffff167fddf252ad1be2c89b69c2b068fc378daa952ba7f163c4a11628f55a4df523b3ef83604051610e84919061167b565b60405180910390a3505050565b5f5f5f8373ffffffffffffffffffffffffffffffffffffffff1673ffffffffffffffffffffffffffffffffffffffff1681526020019081526020015f20549050919050565b5f600560149054906101000a900460ff16905090565b5f81519050919050565b7f4e487b71000000000000000000000000000000000000000000000000000000005f52604160045260245ffd5b7f4e487b71000000000000000000000000000000000000000000000000000000005f52602260045260245ffd5b5f6002820490506001821680610f6757607f821691505b602082108103610f7a57610f79610f23565b5b50919050565b5f819050815f5260205f209050919050565b5f6020601f8301049050919050565b5f82821b905092915050565b5f60088302610fdc7fffffffffffffffffffffffffffffffffffffffffffffffffffffffffffffffff82610fa1565b610fe68683610fa1565b95508019841693508086168417925050509392505050565b5f819050919050565b5f819050919050565b5f61102a61102561102084610ffe565b611007565b610ffe565b9050919050565b5f819050919050565b61104383611010565b61105761104f82611031565b848454610fad565b825550505050565b5f5f905090565b61106e61105f565b61107981848461103a565b505050565b5b8181101561109c576110915f82611066565b60018101905061107f565b5050565b601f8211156110e1576110b281610f80565b6110bb84610f92565b810160208510156110ca578190505b6110de6110d685610f92565b83018261107e565b50505b505050565b5f82821c905092915050565b5f6111015f19846008026110e6565b1980831691505092915050565b5f61111983836110f2565b9150826002028217905092915050565b61113282610eec565b67ffffffffffffffff81111561114b5761114a610ef6565b5b6111558254610f50565b6111608282856110a0565b5f60209050601f831160018114611191575f841561117f578287015190505b611189858261110e565b8655506111f0565b601f19841661119f86610f80565b5f5b828110156111c6578489015182556001820191506020850194506020810190506111a1565b868310156111e357848901516111df601f8916826110f2565b8355505b6001600288020188555050505b505050505050565b5f73ffffffffffffffffffffffffffffffffffffffff82169050919050565b5f611221826111f8565b9050919050565b61123181611217565b82525050565b5f60208201905061124a5f830184611228565b92915050565b5f6080820190506112635f830187611228565b6112706020830186611228565b61127d6040830185611228565b61128a6060830184611228565b95945050505050565b5f82825260208201905092915050565b7f426173697320706f696e747320657863656564203130302500000000000000005f82015250565b5f6112d7601883611293565b91506112e2826112a3565b602082019050919050565b5f6020820190508181035f830152611304816112cb565b9050919050565b7f4e487b71000000000000000000000000000000000000000000000000000000005f52601160045260245ffd5b5f61134282610ffe565b915061134d83610ffe565b925082820261135b81610ffe565b915082820484148315176113725761137161130b565b5b5092915050565b7f4e487b71000000000000000000000000000000000000000000000000000000005f52601260045260245ffd5b5f6113b082610ffe565b91506113bb83610ffe565b9250826113cb576113ca611379565b5b828204905092915050565b7f43616e6e6f742073656e6420746f6b656e7320746f20746f6b656e20636f6e745f8201527f72616374206469726563746c7900000000000000000000000000000000000000602082015250565b5f611430602d83611293565b915061143b826113d6565b604082019050919050565b5f6020820190508181035f83015261145d81611424565b9050919050565b7f54726164696e67206e6f742079657420656e61626c65640000000000000000005f82015250565b5f611498601783611293565b91506114a382611464565b602082019050919050565b5f6020820190508181035f8301526114c58161148c565b9050919050565b7f45786365656473206d61785478000000000000000000000000000000000000005f82015250565b5f611500600d83611293565b915061150b826114cc565b602082019050919050565b5f6020820190508181035f83015261152d816114f4565b9050919050565b5f61153e82610ffe565b915061154983610ffe565b92508282019050808211156115615761156061130b565b5b92915050565b7f45786365656473206d617857616c6c65740000000000000000000000000000005f82015250565b5f61159b601183611293565b91506115a682611567565b602082019050919050565b5f6020820190508181035f8301526115c88161158f565b9050919050565b7f5061757361626c653a20706175736564000000000000000000000000000000005f82015250565b5f611603601083611293565b915061160e826115cf565b602082019050919050565b5f6020820190508181035f830152611630816115f7565b9050919050565b61164081610ffe565b82525050565b5f6060820190506116595f830186611228565b6116666020830185611637565b6116736040830184611637565b949350505050565b5f60208201905061168e5f830184611637565b92915050565b61239a806116a15f395ff3fe608060405234801561000f575f5ffd5b5060043610610230575f3560e01c80638456cb591161012e578063b0c150af116100b6578063e55648f41161007a578063e55648f414610638578063f2fde38b14610654578063f545d07a14610670578063f5736d4b1461068e578063fae36afb146106aa57610230565b8063b0c150af14610580578063c6859d07146105b0578063d08ddc61146105ce578063d1f5c33b146105ec578063dd62ed3e1461060857610230565b80638da5cb5b116100fd5780638da5cb5b146104d8578063902d55a5146104f657806395d89b4114610514578063a9059cbb14610532578063aa4bde281461056257610230565b80638456cb591461048857806386c3b461146104925780638a8c523c146104b05780638c0b5e22146104ba57610230565b806340a24e6c116101bc5780635c975abb116101805780635c975abb146103f65780635daf31461461041457806370a0823114610432578063715018a61461046257806379cc67901461046c57610230565b806340a24e6c1461036457806342966c68146103805780634a62bb651461039c5780634ada218b146103ba578063539ff41a146103d857610230565b80632d04f820116102035780632d04f820146102d0578063313ce567146102ee5780633f2a55401461030c5780633f4ba83a1461032a578063400099271461033457610230565b806306fdde0314610234578063095ea7b31461025257806318160ddd1461028257806323b872dd146102a0575b5f5ffd5b61023c6106c8565b6040516102499190611bfd565b60405180910390f35b61026c60048036038101906102679190611cae565b610758565b6040516102799190611d06565b60405180910390f35b61028a61077a565b6040516102979190611d2e565b60405180910390f35b6102ba60048036038101906102b59190611d47565b610783565b6040516102c79190611d06565b60405180910390f35b6102d86107b1565b6040516102e59190611da6565b60405180910390f35b6102f66107c9565b6040516103039190611dda565b60405180910390f35b6103146107d1565b6040516103219190611da6565b60405180910390f35b6103326107f6565b005b61034e60048036038101906103499190611df3565b610808565b60405161035b9190611d06565b60405180910390f35b61037e60048036038101906103799190611e48565b610825565b005b61039a60048036038101906103959190611e86565b610885565b005b6103a4610899565b6040516103b19190611d06565b60405180910390f35b6103c26108ab565b6040516103cf9190611d06565b60405180910390f35b6103e06108be565b6040516103ed9190611da6565b60405180910390f35b6103fe6108d6565b60405161040b9190611d06565b60405180910390f35b61041c6108ec565b6040516104299190611da6565b60405180910390f35b61044c60048036038101906104479190611df3565b610904565b6040516104599190611d2e565b60405180910390f35b61046a610949565b005b61048660048036038101906104819190611cae565b61095c565b005b61049061097c565b005b61049a61098e565b6040516104a79190611da6565b60405180910390f35b6104b86109a6565b005b6104c26109f7565b6040516104cf9190611d2e565b60405180910390f35b6104e06109fd565b6040516104ed9190611da6565b60405180910390f35b6104fe610a25565b60405161050b9190611d2e565b60405180910390f35b61051c610a35565b6040516105299190611bfd565b60405180910390f35b61054c60048036038101906105479190611cae565b610ac5565b6040516105599190611d06565b60405180910390f35b61056a610ae7565b6040516105779190611d2e565b60405180910390f35b61059a60048036038101906105959190611df3565b610aed565b6040516105a79190611d06565b60405180910390f35b6105b8610b0a565b6040516105c59190611da6565b60405180910390f35b6105d6610b22565b6040516105e39190611da6565b60405180910390f35b61060660048036038101906106019190611df3565b610b3a565b005b610622600480360381019061061d9190611eb1565b610c36565b60405161062f9190611d2e565b60405180910390f35b610652600480360381019061064d9190611e48565b610cb8565b005b61066e60048036038101906106699190611df3565b610d18565b005b610678610d9c565b6040516106859190611da6565b60405180910390f35b6106a860048036038101906106a39190611eef565b610db4565b005b6106b2610e23565b6040516106bf9190611da6565b60405180910390f35b6060600380546106d790611f6c565b80601f016020809104026020016040519081016040528092919081815260200182805461070390611f6c565b801561074e5780601f106107255761010080835404028352916020019161074e565b820191905f5260205f20905b81548152906001019060200180831161073157829003601f168201915b5050505050905090565b5f5f610762610e3b565b905061076f818585610e42565b600191505092915050565b5f600254905090565b5f5f61078d610e3b565b905061079a858285610e54565b6107a5858585610ee7565b60019150509392505050565b731bec551c40d7f6b3b7b0366765fa769a8ddb4f2581565b5f6012905090565b600b5f9054906101000a900473ffffffffffffffffffffffffffffffffffffffff1681565b6107fe610fd7565b61080661105e565b565b600a602052805f5260405f205f915054906101000a900460ff1681565b61082d610fd7565b8060095f8473ffffffffffffffffffffffffffffffffffffffff1673ffffffffffffffffffffffffffffffffffffffff1681526020019081526020015f205f6101000a81548160ff0219169083151502179055505050565b610896610890610e3b565b826110c0565b50565b60085f9054906101000a900460ff1681565b600560159054906101000a900460ff1681565b738dcdf001b069ef0a027aa8b4daca12577423a90b81565b5f600560149054906101000a900460ff16905090565b7371133f5d2548cd9b182c2daf68d9d00a56d4343f81565b5f5f5f8373ffffffffffffffffffffffffffffffffffffffff1673ffffffffffffffffffffffffffffffffffffffff1681526020019081526020015f20549050919050565b610951610fd7565b61095a5f61113f565b565b61096e82610968610e3b565b83610e54565b61097882826110c0565b5050565b610984610fd7565b61098c611202565b565b73ff55e5341142efdfd37d2e51317bbda62db8d8f081565b6109ae610fd7565b6001600560156101000a81548160ff0219169083151502179055507f799663458a5ef2936f7fa0c99b3336c69c25890f82974f04e811e5bb359186c760405160405180910390a1565b60065481565b5f60055f9054906101000a900473ffffffffffffffffffffffffffffffffffffffff16905090565b6b204fce5e3e2502611000000081565b606060048054610a4490611f6c565b80601f0160208091040260200160405190810160405280929190818152602001828054610a7090611f6c565b8015610abb5780601f10610a9257610100808354040283529160200191610abb565b820191905f5260205f20905b815481529060010190602001808311610a9e57829003601f168201915b5050505050905090565b5f5f610acf610e3b565b9050610adc818585610ee7565b600191505092915050565b60075481565b6009602052805f5260405f205f915054906101000a900460ff1681565b739a982f4efa6f344e955d28dba751e17b60e3f21781565b73ab247964f4b9a1c50e6c01e4a2a808ce07feaf4181565b610b42610fd7565b5f73ffffffffffffffffffffffffffffffffffffffff168173ffffffffffffffffffffffffffffffffffffffff1603610bb0576040517f08c379a0000000000000000000000000000000000000000000000000000000008152600401610ba790611fe6565b60405180910390fd5b80600b5f6101000a81548173ffffffffffffffffffffffffffffffffffffffff021916908373ffffffffffffffffffffffffffffffffffffffff1602179055508073ffffffffffffffffffffffffffffffffffffffff167f1cc0d0fcd88df90cde5f20b27b655722f28afe56a6384c3c7a339ec18564c43960405160405180910390a250565b5f60015f8473ffffffffffffffffffffffffffffffffffffffff1673ffffffffffffffffffffffffffffffffffffffff1681526020019081526020015f205f8373ffffffffffffffffffffffffffffffffffffffff1673ffffffffffffffffffffffffffffffffffffffff1681526020019081526020015f2054905092915050565b610cc0610fd7565b80600a5f8473ffffffffffffffffffffffffffffffffffffffff1673ffffffffffffffffffffffffffffffffffffffff1681526020019081526020015f205f6101000a81548160ff0219169083151502179055505050565b610d20610fd7565b5f73ffffffffffffffffffffffffffffffffffffffff168173ffffffffffffffffffffffffffffffffffffffff1603610d90575f6040517f1e4fbdf7000000000000000000000000000000000000000000000000000000008152600401610d879190611da6565b60405180910390fd5b610d998161113f565b50565b73f03cb4af13afdb94688607e100bee39e4173b44681565b610dbc610fd7565b82600681905550816007819055508060085f6101000a81548160ff0219169083151502179055507fc3e35da80dd50e2a487eb09d9fd3dcfb815ed597fedfcbc93588da440b2d45a3838383604051610e1693929190612004565b60405180910390a1505050565b73dfb98530d77ee2d29ea7933c02eff5031020114581565b5f33905090565b610e4f8383836001611265565b505050565b5f610e5f8484610c36565b90507fffffffffffffffffffffffffffffffffffffffffffffffffffffffffffffffff811015610ee15781811015610ed2578281836040517ffb8f41b2000000000000000000000000000000000000000000000000000000008152600401610ec993929190612039565b60405180910390fd5b610ee084848484035f611265565b5b50505050565b5f73ffffffffffffffffffffffffffffffffffffffff168373ffffffffffffffffffffffffffffffffffffffff1603610f57575f6040517f96c6fd1e000000000000000000000000000000000000000000000000000000008152600401610f4e9190611da6565b60405180910390fd5b5f73ffffffffffffffffffffffffffffffffffffffff168273ffffffffffffffffffffffffffffffffffffffff1603610fc7575f6040517fec442f05000000000000000000000000000000000000000000000000000000008152600401610fbe9190611da6565b60405180910390fd5b610fd2838383611434565b505050565b610fdf610e3b565b73ffffffffffffffffffffffffffffffffffffffff16610ffd6109fd565b73ffffffffffffffffffffffffffffffffffffffff161461105c57611020610e3b565b6040517f118cdaa70000000000000000000000000000000000000000000000000000000081526004016110539190611da6565b60405180910390fd5b565b6110666118e1565b5f600560146101000a81548160ff0219169083151502179055507f5db9ee0a495bf2e6ff9c91a7834c1ba4fdd244a5e8aa4e537bd38aeae4b073aa6110a9610e3b565b6040516110b69190611da6565b60405180910390a1565b5f73ffffffffffffffffffffffffffffffffffffffff168273ffffffffffffffffffffffffffffffffffffffff1603611130575f6040517f96c6fd1e0000000000000000000000000000000000000000000000000000000081526004016111279190611da6565b60405180910390fd5b61113b825f83611434565b5050565b5f60055f9054906101000a900473ffffffffffffffffffffffffffffffffffffffff1690508160055f6101000a81548173ffffffffffffffffffffffffffffffffffffffff021916908373ffffffffffffffffffffffffffffffffffffffff1602179055508173ffffffffffffffffffffffffffffffffffffffff168173ffffffffffffffffffffffffffffffffffffffff167f8be0079c531659141344cd1fd0a4f28419497f9722a3daafe3b4186f6b6457e060405160405180910390a35050565b61120a61192a565b6001600560146101000a81548160ff0219169083151502179055507f62e78cea01bee320cd4e420270b5ea74000d11b0c9f74754ebdbfc544b05a25861124e610e3b565b60405161125b9190611da6565b60405180910390a1565b5f73ffffffffffffffffffffffffffffffffffffffff168473ffffffffffffffffffffffffffffffffffffffff16036112d5575f6040517fe602df050000000000000000000000000000000000000000000000000000000081526004016112cc9190611da6565b60405180910390fd5b5f73ffffffffffffffffffffffffffffffffffffffff168373ffffffffffffffffffffffffffffffffffffffff1603611345575f6040517f94280d6200000000000000000000000000000000000000000000000000000000815260040161133c9190611da6565b60405180910390fd5b8160015f8673ffffffffffffffffffffffffffffffffffffffff1673ffffffffffffffffffffffffffffffffffffffff1681526020019081526020015f205f8573ffffffffffffffffffffffffffffffffffffffff1673ffffffffffffffffffffffffffffffffffffffff1681526020019081526020015f2081905550801561142e578273ffffffffffffffffffffffffffffffffffffffff168473ffffffffffffffffffffffffffffffffffffffff167f8c5be1e5ebec7d5bd14f71427d1e84f3dd0314c0f7b2291e5b200ac8c7c3b925846040516114259190611d2e565b60405180910390a35b50505050565b61143c61192a565b5f73ffffffffffffffffffffffffffffffffffffffff168373ffffffffffffffffffffffffffffffffffffffff1614806114a157505f73ffffffffffffffffffffffffffffffffffffffff168273ffffffffffffffffffffffffffffffffffffffff16145b806114d757503073ffffffffffffffffffffffffffffffffffffffff168373ffffffffffffffffffffffffffffffffffffffff16145b156114ec576114e7838383611974565b6118dc565b3073ffffffffffffffffffffffffffffffffffffffff168273ffffffffffffffffffffffffffffffffffffffff160361155a576040517f08c379a0000000000000000000000000000000000000000000000000000000008152600401611551906120de565b60405180910390fd5b600560159054906101000a900460ff161580156115a357505f73ffffffffffffffffffffffffffffffffffffffff168373ffffffffffffffffffffffffffffffffffffffff1614155b80156115db57505f73ffffffffffffffffffffffffffffffffffffffff168273ffffffffffffffffffffffffffffffffffffffff1614155b156116bb5760095f8473ffffffffffffffffffffffffffffffffffffffff1673ffffffffffffffffffffffffffffffffffffffff1681526020019081526020015f205f9054906101000a900460ff168061167b575060095f8373ffffffffffffffffffffffffffffffffffffffff1673ffffffffffffffffffffffffffffffffffffffff1681526020019081526020015f205f9054906101000a900460ff165b6116ba576040517f08c379a00000000000000000000000000000000000000000000000000000000081526004016116b190612146565b60405180910390fd5b5b60085f9054906101000a900460ff16801561170257505f73ffffffffffffffffffffffffffffffffffffffff168373ffffffffffffffffffffffffffffffffffffffff1614155b801561173a57505f73ffffffffffffffffffffffffffffffffffffffff168273ffffffffffffffffffffffffffffffffffffffff1614155b156118d05760095f8473ffffffffffffffffffffffffffffffffffffffff1673ffffffffffffffffffffffffffffffffffffffff1681526020019081526020015f205f9054906101000a900460ff161580156117dd575060095f8373ffffffffffffffffffffffffffffffffffffffff1673ffffffffffffffffffffffffffffffffffffffff1681526020019081526020015f205f9054906101000a900460ff16155b156118cf57600654811115611827576040517f08c379a000000000000000000000000000000000000000000000000000000000815260040161181e906121ae565b60405180910390fd5b600a5f8373ffffffffffffffffffffffffffffffffffffffff1673ffffffffffffffffffffffffffffffffffffffff1681526020019081526020015f205f9054906101000a900460ff166118ce576007548161188284610904565b61188c91906121f9565b11156118cd576040517f08c379a00000000000000000000000000000000000000000000000000000000081526004016118c490612276565b60405180910390fd5b5b5b5b6118db838383611974565b5b505050565b6118e96108d6565b611928576040517f08c379a000000000000000000000000000000000000000000000000000000000815260040161191f906122de565b60405180910390fd5b565b6119326108d6565b15611972576040517f08c379a000000000000000000000000000000000000000000000000000000000815260040161196990612346565b60405180910390fd5b565b5f73ffffffffffffffffffffffffffffffffffffffff168373ffffffffffffffffffffffffffffffffffffffff16036119c4578060025f8282546119b891906121f9565b92505081905550611a92565b5f5f5f8573ffffffffffffffffffffffffffffffffffffffff1673ffffffffffffffffffffffffffffffffffffffff1681526020019081526020015f2054905081811015611a4d578381836040517fe450d38c000000000000000000000000000000000000000000000000000000008152600401611a4493929190612039565b60405180910390fd5b8181035f5f8673ffffffffffffffffffffffffffffffffffffffff1673ffffffffffffffffffffffffffffffffffffffff1681526020019081526020015f2081905550505b5f73ffffffffffffffffffffffffffffffffffffffff168273ffffffffffffffffffffffffffffffffffffffff1603611ad9578060025f8282540392505081905550611b23565b805f5f8473ffffffffffffffffffffffffffffffffffffffff1673ffffffffffffffffffffffffffffffffffffffff1681526020019081526020015f205f82825401925050819055505b8173ffffffffffffffffffffffffffffffffffffffff168373ffffffffffffffffffffffffffffffffffffffff167fddf252ad1be2c89b69c2b068fc378daa952ba7f163c4a11628f55a4df523b3ef83604051611b809190611d2e565b60405180910390a3505050565b5f81519050919050565b5f82825260208201905092915050565b8281835e5f83830152505050565b5f601f19601f8301169050919050565b5f611bcf82611b8d565b611bd98185611b97565b9350611be9818560208601611ba7565b611bf281611bb5565b840191505092915050565b5f6020820190508181035f830152611c158184611bc5565b905092915050565b5f5ffd5b5f73ffffffffffffffffffffffffffffffffffffffff82169050919050565b5f611c4a82611c21565b9050919050565b611c5a81611c40565b8114611c64575f5ffd5b50565b5f81359050611c7581611c51565b92915050565b5f819050919050565b611c8d81611c7b565b8114611c97575f5ffd5b50565b5f81359050611ca881611c84565b92915050565b5f5f60408385031215611cc457611cc3611c1d565b5b5f611cd185828601611c67565b9250506020611ce285828601611c9a565b9150509250929050565b5f8115159050919050565b611d0081611cec565b82525050565b5f602082019050611d195f830184611cf7565b92915050565b611d2881611c7b565b82525050565b5f602082019050611d415f830184611d1f565b92915050565b5f5f5f60608486031215611d5e57611d5d611c1d565b5b5f611d6b86828701611c67565b9350506020611d7c86828701611c67565b9250506040611d8d86828701611c9a565b9150509250925092565b611da081611c40565b82525050565b5f602082019050611db95f830184611d97565b92915050565b5f60ff82169050919050565b611dd481611dbf565b82525050565b5f602082019050611ded5f830184611dcb565b92915050565b5f60208284031215611e0857611e07611c1d565b5b5f611e1584828501611c67565b91505092915050565b611e2781611cec565b8114611e31575f5ffd5b50565b5f81359050611e4281611e1e565b92915050565b5f5f60408385031215611e5e57611e5d611c1d565b5b5f611e6b85828601611c67565b9250506020611e7c85828601611e34565b9150509250929050565b5f60208284031215611e9b57611e9a611c1d565b5b5f611ea884828501611c9a565b91505092915050565b5f5f60408385031215611ec757611ec6611c1d565b5b5f611ed485828601611c67565b9250506020611ee585828601611c67565b9150509250929050565b5f5f5f60608486031215611f0657611f05611c1d565b5b5f611f1386828701611c9a565b9350506020611f2486828701611c9a565b9250506040611f3586828701611e34565b9150509250925092565b7f4e487b71000000000000000000000000000000000000000000000000000000005f52602260045260245ffd5b5f6002820490506001821680611f8357607f821691505b602082108103611f9657611f95611f3f565b5b50919050565b7f5a65726f206164647265737300000000000000000000000000000000000000005f82015250565b5f611fd0600c83611b97565b9150611fdb82611f9c565b602082019050919050565b5f6020820190508181035f830152611ffd81611fc4565b9050919050565b5f6060820190506120175f830186611d1f565b6120246020830185611d1f565b6120316040830184611cf7565b949350505050565b5f60608201905061204c5f830186611d97565b6120596020830185611d1f565b6120666040830184611d1f565b949350505050565b7f43616e6e6f742073656e6420746f6b656e7320746f20746f6b656e20636f6e745f8201527f72616374206469726563746c7900000000000000000000000000000000000000602082015250565b5f6120c8602d83611b97565b91506120d38261206e565b604082019050919050565b5f6020820190508181035f8301526120f5816120bc565b9050919050565b7f54726164696e67206e6f742079657420656e61626c65640000000000000000005f82015250565b5f612130601783611b97565b915061213b826120fc565b602082019050919050565b5f6020820190508181035f83015261215d81612124565b9050919050565b7f45786365656473206d61785478000000000000000000000000000000000000005f82015250565b5f612198600d83611b97565b91506121a382612164565b602082019050919050565b5f6020820190508181035f8301526121c58161218c565b9050919050565b7f4e487b71000000000000000000000000000000000000000000000000000000005f52601160045260245ffd5b5f61220382611c7b565b915061220e83611c7b565b9250828201905080821115612226576122256121cc565b5b92915050565b7f45786365656473206d617857616c6c65740000000000000000000000000000005f82015250565b5f612260601183611b97565b915061226b8261222c565b602082019050919050565b5f6020820190508181035f83015261228d81612254565b9050919050565b7f5061757361626c653a206e6f74207061757365640000000000000000000000005f82015250565b5f6122c8601483611b97565b91506122d382612294565b602082019050919050565b5f6020820190508181035f8301526122f5816122bc565b9050919050565b7f5061757361626c653a20706175736564000000000000000000000000000000005f82015250565b5f612330601083611b97565b915061233b826122fc565b602082019050919050565b5f6020820190508181035f83015261235d81612324565b905091905056fea2646970667358221220064ab0ab2eb490b04c48dad60411e1244b7f7b997fb49c7b7667425e15372dec64736f6c634300081e0033",
					"opcodes": "PUSH1 0x80 PUSH1 0x40 MSTORE PUSH1 0x1 PUSH1 0x5 PUSH1 0x15 PUSH2 0x100 EXP DUP2 SLOAD DUP2 PUSH1 0xFF MUL NOT AND SWAP1 DUP4 ISZERO ISZERO MUL OR SWAP1 SSTORE POP PUSH1 0x1 PUSH1 0x8 PUSH0 PUSH2 0x100 EXP DUP2 SLOAD DUP2 PUSH1 0xFF MUL NOT AND SWAP1 DUP4 ISZERO ISZERO MUL OR SWAP1 SSTORE POP CALLVALUE DUP1 ISZERO PUSH2 0x44 JUMPI PUSH0 PUSH0 REVERT JUMPDEST POP CALLER PUSH1 0x40 MLOAD DUP1 PUSH1 0x40 ADD PUSH1 0x40 MSTORE DUP1 PUSH1 0xE DUP2 MSTORE PUSH1 0x20 ADD PUSH32 0x50696E4F6E4D617020546F6B656E000000000000000000000000000000000000 DUP2 MSTORE POP PUSH1 0x40 MLOAD DUP1 PUSH1 0x40 ADD PUSH1 0x40 MSTORE DUP1 PUSH1 0x3 DUP2 MSTORE PUSH1 0x20 ADD PUSH32 0x504F4D0000000000000000000000000000000000000000000000000000000000 DUP2 MSTORE POP DUP2 PUSH1 0x3 SWAP1 DUP2 PUSH2 0xC1 SWAP2 SWAP1 PUSH2 0x1129 JUMP JUMPDEST POP DUP1 PUSH1 0x4 SWAP1 DUP2 PUSH2 0xD1 SWAP2 SWAP1 PUSH2 0x1129 JUMP JUMPDEST POP POP POP PUSH0 PUSH20 0xFFFFFFFFFFFFFFFFFFFFFFFFFFFFFFFFFFFFFFFF AND DUP2 PUSH20 0xFFFFFFFFFFFFFFFFFFFFFFFFFFFFFFFFFFFFFFFF AND SUB PUSH2 0x144 JUMPI PUSH0 PUSH1 0x40 MLOAD PUSH32 0x1E4FBDF700000000000000000000000000000000000000000000000000000000 DUP2 MSTORE PUSH1 0x4 ADD PUSH2 0x13B SWAP2 SWAP1 PUSH2 0x1237 JUMP JUMPDEST PUSH1 0x40 MLOAD DUP1 SWAP2 SUB SWAP1 REVERT JUMPDEST PUSH2 0x153 DUP2 PUSH2 0x5B4 PUSH1 0x20 SHL PUSH1 0x20 SHR JUMP JUMPDEST POP PUSH0 PUSH1 0x5 PUSH1 0x14 PUSH2 0x100 EXP DUP2 SLOAD DUP2 PUSH1 0xFF MUL NOT AND SWAP1 DUP4 ISZERO ISZERO MUL OR SWAP1 SSTORE POP PUSH0 PUSH1 0x8 PUSH0 PUSH2 0x100 EXP DUP2 SLOAD DUP2 PUSH1 0xFF MUL NOT AND SWAP1 DUP4 ISZERO ISZERO MUL OR SWAP1 SSTORE POP PUSH1 0x1 PUSH1 0x5 PUSH1 0x15 PUSH2 0x100 EXP DUP2 SLOAD DUP2 PUSH1 0xFF MUL NOT AND SWAP1 DUP4 ISZERO ISZERO MUL OR SWAP1 SSTORE POP PUSH2 0x1E3 PUSH20 0x71133F5D2548CD9B182C2DAF68D9D00A56D4343F PUSH2 0x1D8 PUSH12 0x204FCE5E3E25026110000000 PUSH2 0x9C4 PUSH2 0x677 PUSH1 0x20 SHL PUSH1 0x20 SHR JUMP JUMPDEST PUSH2 0x6DE PUSH1 0x20 SHL PUSH1 0x20 SHR JUMP JUMPDEST PUSH2 0x224 PUSH20 0xAB247964F4B9A1C50E6C01E4A2A808CE07FEAF41 PUSH2 0x219 PUSH12 0x204FCE5E3E25026110000000 PUSH2 0xBB8 PUSH2 0x677 PUSH1 0x20 SHL PUSH1 0x20 SHR JUMP JUMPDEST PUSH2 0x6DE PUSH1 0x20 SHL PUSH1 0x20 SHR JUMP JUMPDEST PUSH2 0x265 PUSH20 0x1BEC551C40D7F6B3B7B0366765FA769A8DDB4F25 PUSH2 0x25A PUSH12 0x204FCE5E3E25026110000000 PUSH2 0x5DC PUSH2 0x677 PUSH1 0x20 SHL PUSH1 0x20 SHR JUMP JUMPDEST PUSH2 0x6DE PUSH1 0x20 SHL PUSH1 0x20 SHR JUMP JUMPDEST PUSH2 0x2A6 PUSH20 0x9A982F4EFA6F344E955D28DBA751E17B60E3F217 PUSH2 0x29B PUSH12 0x204FCE5E3E25026110000000 PUSH2 0x3E8 PUSH2 0x677 PUSH1 0x20 SHL PUSH1 0x20 SHR JUMP JUMPDEST PUSH2 0x6DE PUSH1 0x20 SHL PUSH1 0x20 SHR JUMP JUMPDEST PUSH2 0x2E7 PUSH20 0xF03CB4AF13AFDB94688607E100BEE39E4173B446 PUSH2 0x2DC PUSH12 0x204FCE5E3E25026110000000 PUSH2 0x3E8 PUSH2 0x677 PUSH1 0x20 SHL PUSH1 0x20 SHR JUMP JUMPDEST PUSH2 0x6DE PUSH1 0x20 SHL PUSH1 0x20 SHR JUMP JUMPDEST PUSH2 0x328 PUSH20 0x8DCDF001B069EF0A027AA8B4DACA12577423A90B PUSH2 0x31D PUSH12 0x204FCE5E3E25026110000000 PUSH2 0x1F4 PUSH2 0x677 PUSH1 0x20 SHL PUSH1 0x20 SHR JUMP JUMPDEST PUSH2 0x6DE PUSH1 0x20 SHL PUSH1 0x20 SHR JUMP JUMPDEST PUSH2 0x369 PUSH20 0xFF55E5341142EFDFD37D2E51317BBDA62DB8D8F0 PUSH2 0x35E PUSH12 0x204FCE5E3E25026110000000 PUSH2 0x1F4 PUSH2 0x677 PUSH1 0x20 SHL PUSH1 0x20 SHR JUMP JUMPDEST PUSH2 0x6DE PUSH1 0x20 SHL PUSH1 0x20 SHR JUMP JUMPDEST PUSH0 PUSH1 0x5 PUSH1 0x15 PUSH2 0x100 EXP DUP2 SLOAD DUP2 PUSH1 0xFF MUL NOT AND SWAP1 DUP4 ISZERO ISZERO MUL OR SWAP1 SSTORE POP PUSH1 0x1 PUSH1 0x8 PUSH0 PUSH2 0x100 EXP DUP2 SLOAD DUP2 PUSH1 0xFF MUL NOT AND SWAP1 DUP4 ISZERO ISZERO MUL OR SWAP1 SSTORE POP PUSH2 0x3BA PUSH12 0x204FCE5E3E25026110000000 PUSH1 0x19 PUSH2 0x677 PUSH1 0x20 SHL PUSH1 0x20 SHR JUMP JUMPDEST PUSH1 0x6 DUP2 SWAP1 SSTORE POP PUSH2 0x3DD PUSH12 0x204FCE5E3E25026110000000 PUSH1 0x32 PUSH2 0x677 PUSH1 0x20 SHL PUSH1 0x20 SHR JUMP JUMPDEST PUSH1 0x7 DUP2 SWAP1 SSTORE POP PUSH1 0x1 PUSH1 0x9 PUSH0 PUSH20 0xDFB98530D77EE2D29EA7933C02EFF50310201145 PUSH20 0xFFFFFFFFFFFFFFFFFFFFFFFFFFFFFFFFFFFFFFFF AND PUSH20 0xFFFFFFFFFFFFFFFFFFFFFFFFFFFFFFFFFFFFFFFF AND DUP2 MSTORE PUSH1 0x20 ADD SWAP1 DUP2 MSTORE PUSH1 0x20 ADD PUSH0 KECCAK256 PUSH0 PUSH2 0x100 EXP DUP2 SLOAD DUP2 PUSH1 0xFF MUL NOT AND SWAP1 DUP4 ISZERO ISZERO MUL OR SWAP1 SSTORE POP PUSH1 0x1 PUSH1 0x9 PUSH0 ADDRESS PUSH20 0xFFFFFFFFFFFFFFFFFFFFFFFFFFFFFFFFFFFFFFFF AND PUSH20 0xFFFFFFFFFFFFFFFFFFFFFFFFFFFFFFFFFFFFFFFF AND DUP2 MSTORE PUSH1 0x20 ADD SWAP1 DUP2 MSTORE PUSH1 0x20 ADD PUSH0 KECCAK256 PUSH0 PUSH2 0x100 EXP DUP2 SLOAD DUP2 PUSH1 0xFF MUL NOT AND SWAP1 DUP4 ISZERO ISZERO MUL OR SWAP1 SSTORE POP PUSH20 0x1BEC551C40D7F6B3B7B0366765FA769A8DDB4F25 PUSH20 0xFFFFFFFFFFFFFFFFFFFFFFFFFFFFFFFFFFFFFFFF AND PUSH20 0xAB247964F4B9A1C50E6C01E4A2A808CE07FEAF41 PUSH20 0xFFFFFFFFFFFFFFFFFFFFFFFFFFFFFFFFFFFFFFFF AND PUSH20 0x71133F5D2548CD9B182C2DAF68D9D00A56D4343F PUSH20 0xFFFFFFFFFFFFFFFFFFFFFFFFFFFFFFFFFFFFFFFF AND PUSH32 0x4C160552E2F29ED39F6D2F1AE54F5B0F9A771F971C1C4A5A5D80A816FE017D70 PUSH20 0x9A982F4EFA6F344E955D28DBA751E17B60E3F217 PUSH20 0xF03CB4AF13AFDB94688607E100BEE39E4173B446 PUSH20 0x8DCDF001B069EF0A027AA8B4DACA12577423A90B PUSH20 0xFF55E5341142EFDFD37D2E51317BBDA62DB8D8F0 PUSH1 0x40 MLOAD PUSH2 0x5A7 SWAP5 SWAP4 SWAP3 SWAP2 SWAP1 PUSH2 0x1250 JUMP JUMPDEST PUSH1 0x40 MLOAD DUP1 SWAP2 SUB SWAP1 LOG4 PUSH2 0x1694 JUMP JUMPDEST PUSH0 PUSH1 0x5 PUSH0 SWAP1 SLOAD SWAP1 PUSH2 0x100 EXP SWAP1 DIV PUSH20 0xFFFFFFFFFFFFFFFFFFFFFFFFFFFFFFFFFFFFFFFF AND SWAP1 POP DUP2 PUSH1 0x5 PUSH0 PUSH2 0x100 EXP DUP2 SLOAD DUP2 PUSH20 0xFFFFFFFFFFFFFFFFFFFFFFFFFFFFFFFFFFFFFFFF MUL NOT AND SWAP1 DUP4 PUSH20 0xFFFFFFFFFFFFFFFFFFFFFFFFFFFFFFFFFFFFFFFF AND MUL OR SWAP1 SSTORE POP DUP2 PUSH20 0xFFFFFFFFFFFFFFFFFFFFFFFFFFFFFFFFFFFFFFFF AND DUP2 PUSH20 0xFFFFFFFFFFFFFFFFFFFFFFFFFFFFFFFFFFFFFFFF AND PUSH32 0x8BE0079C531659141344CD1FD0A4F28419497F9722A3DAAFE3B4186F6B6457E0 PUSH1 0x40 MLOAD PUSH1 0x40 MLOAD DUP1 SWAP2 SUB SWAP1 LOG3 POP POP JUMP JUMPDEST PUSH0 PUSH2 0x2710 DUP3 GT ISZERO PUSH2 0x6BD JUMPI PUSH1 0x40 MLOAD PUSH32 0x8C379A000000000000000000000000000000000000000000000000000000000 DUP2 MSTORE PUSH1 0x4 ADD PUSH2 0x6B4 SWAP1 PUSH2 0x12ED JUMP JUMPDEST PUSH1 0x40 MLOAD DUP1 SWAP2 SUB SWAP1 REVERT JUMPDEST PUSH2 0x2710 DUP3 DUP5 PUSH2 0x6CC SWAP2 SWAP1 PUSH2 0x1338 JUMP JUMPDEST PUSH2 0x6D6 SWAP2 SWAP1 PUSH2 0x13A6 JUMP JUMPDEST SWAP1 POP SWAP3 SWAP2 POP POP JUMP JUMPDEST PUSH0 PUSH20 0xFFFFFFFFFFFFFFFFFFFFFFFFFFFFFFFFFFFFFFFF AND DUP3 PUSH20 0xFFFFFFFFFFFFFFFFFFFFFFFFFFFFFFFFFFFFFFFF AND SUB PUSH2 0x74E JUMPI PUSH0 PUSH1 0x40 MLOAD PUSH32 0xEC442F0500000000000000000000000000000000000000000000000000000000 DUP2 MSTORE PUSH1 0x4 ADD PUSH2 0x745 SWAP2 SWAP1 PUSH2 0x1237 JUMP JUMPDEST PUSH1 0x40 MLOAD DUP1 SWAP2 SUB SWAP1 REVERT JUMPDEST PUSH2 0x75F PUSH0 DUP4 DUP4 PUSH2 0x763 PUSH1 0x20 SHL PUSH1 0x20 SHR JUMP JUMPDEST POP POP JUMP JUMPDEST PUSH2 0x771 PUSH2 0xC28 PUSH1 0x20 SHL PUSH1 0x20 SHR JUMP JUMPDEST PUSH0 PUSH20 0xFFFFFFFFFFFFFFFFFFFFFFFFFFFFFFFFFFFFFFFF AND DUP4 PUSH20 0xFFFFFFFFFFFFFFFFFFFFFFFFFFFFFFFFFFFFFFFF AND EQ DUP1 PUSH2 0x7D6 JUMPI POP PUSH0 PUSH20 0xFFFFFFFFFFFFFFFFFFFFFFFFFFFFFFFFFFFFFFFF AND DUP3 PUSH20 0xFFFFFFFFFFFFFFFFFFFFFFFFFFFFFFFFFFFFFFFF AND EQ JUMPDEST DUP1 PUSH2 0x80C JUMPI POP ADDRESS PUSH20 0xFFFFFFFFFFFFFFFFFFFFFFFFFFFFFFFFFFFFFFFF AND DUP4 PUSH20 0xFFFFFFFFFFFFFFFFFFFFFFFFFFFFFFFFFFFFFFFF AND EQ JUMPDEST ISZERO PUSH2 0x827 JUMPI PUSH2 0x822 DUP4 DUP4 DUP4 PUSH2 0xC78 PUSH1 0x20 SHL PUSH1 0x20 SHR JUMP JUMPDEST PUSH2 0xC23 JUMP JUMPDEST ADDRESS PUSH20 0xFFFFFFFFFFFFFFFFFFFFFFFFFFFFFFFFFFFFFFFF AND DUP3 PUSH20 0xFFFFFFFFFFFFFFFFFFFFFFFFFFFFFFFFFFFFFFFF AND SUB PUSH2 0x895 JUMPI PUSH1 0x40 MLOAD PUSH32 0x8C379A000000000000000000000000000000000000000000000000000000000 DUP2 MSTORE PUSH1 0x4 ADD PUSH2 0x88C SWAP1 PUSH2 0x1446 JUMP JUMPDEST PUSH1 0x40 MLOAD DUP1 SWAP2 SUB SWAP1 REVERT JUMPDEST PUSH1 0x5 PUSH1 0x15 SWAP1 SLOAD SWAP1 PUSH2 0x100 EXP SWAP1 DIV PUSH1 0xFF AND ISZERO DUP1 ISZERO PUSH2 0x8DE JUMPI POP PUSH0 PUSH20 0xFFFFFFFFFFFFFFFFFFFFFFFFFFFFFFFFFFFFFFFF AND DUP4 PUSH20 0xFFFFFFFFFFFFFFFFFFFFFFFFFFFFFFFFFFFFFFFF AND EQ ISZERO JUMPDEST DUP1 ISZERO PUSH2 0x916 JUMPI POP PUSH0 PUSH20 0xFFFFFFFFFFFFFFFFFFFFFFFFFFFFFFFFFFFFFFFF AND DUP3 PUSH20 0xFFFFFFFFFFFFFFFFFFFFFFFFFFFFFFFFFFFFFFFF AND EQ ISZERO JUMPDEST ISZERO PUSH2 0x9F6 JUMPI PUSH1 0x9 PUSH0 DUP5 PUSH20 0xFFFFFFFFFFFFFFFFFFFFFFFFFFFFFFFFFFFFFFFF AND PUSH20 0xFFFFFFFFFFFFFFFFFFFFFFFFFFFFFFFFFFFFFFFF AND DUP2 MSTORE PUSH1 0x20 ADD SWAP1 DUP2 MSTORE PUSH1 0x20 ADD PUSH0 KECCAK256 PUSH0 SWAP1 SLOAD SWAP1 PUSH2 0x100 EXP SWAP1 DIV PUSH1 0xFF AND DUP1 PUSH2 0x9B6 JUMPI POP PUSH1 0x9 PUSH0 DUP4 PUSH20 0xFFFFFFFFFFFFFFFFFFFFFFFFFFFFFFFFFFFFFFFF AND PUSH20 0xFFFFFFFFFFFFFFFFFFFFFFFFFFFFFFFFFFFFFFFF AND DUP2 MSTORE PUSH1 0x20 ADD SWAP1 DUP2 MSTORE PUSH1 0x20 ADD PUSH0 KECCAK256 PUSH0 SWAP1 SLOAD SWAP1 PUSH2 0x100 EXP SWAP1 DIV PUSH1 0xFF AND JUMPDEST PUSH2 0x9F5 JUMPI PUSH1 0x40 MLOAD PUSH32 0x8C379A000000000000000000000000000000000000000000000000000000000 DUP2 MSTORE PUSH1 0x4 ADD PUSH2 0x9EC SWAP1 PUSH2 0x14AE JUMP JUMPDEST PUSH1 0x40 MLOAD DUP1 SWAP2 SUB SWAP1 REVERT JUMPDEST JUMPDEST PUSH1 0x8 PUSH0 SWAP1 SLOAD SWAP1 PUSH2 0x100 EXP SWAP1 DIV PUSH1 0xFF AND DUP1 ISZERO PUSH2 0xA3D JUMPI POP PUSH0 PUSH20 0xFFFFFFFFFFFFFFFFFFFFFFFFFFFFFFFFFFFFFFFF AND DUP4 PUSH20 0xFFFFFFFFFFFFFFFFFFFFFFFFFFFFFFFFFFFFFFFF AND EQ ISZERO JUMPDEST DUP1 ISZERO PUSH2 0xA75 JUMPI POP PUSH0 PUSH20 0xFFFFFFFFFFFFFFFFFFFFFFFFFFFFFFFFFFFFFFFF AND DUP3 PUSH20 0xFFFFFFFFFFFFFFFFFFFFFFFFFFFFFFFFFFFFFFFF AND EQ ISZERO JUMPDEST ISZERO PUSH2 0xC11 JUMPI PUSH1 0x9 PUSH0 DUP5 PUSH20 0xFFFFFFFFFFFFFFFFFFFFFFFFFFFFFFFFFFFFFFFF AND PUSH20 0xFFFFFFFFFFFFFFFFFFFFFFFFFFFFFFFFFFFFFFFF AND DUP2 MSTORE PUSH1 0x20 ADD SWAP1 DUP2 MSTORE PUSH1 0x20 ADD PUSH0 KECCAK256 PUSH0 SWAP1 SLOAD SWAP1 PUSH2 0x100 EXP SWAP1 DIV PUSH1 0xFF AND ISZERO DUP1 ISZERO PUSH2 0xB18 JUMPI POP PUSH1 0x9 PUSH0 DUP4 PUSH20 0xFFFFFFFFFFFFFFFFFFFFFFFFFFFFFFFFFFFFFFFF AND PUSH20 0xFFFFFFFFFFFFFFFFFFFFFFFFFFFFFFFFFFFFFFFF AND DUP2 MSTORE PUSH1 0x20 ADD SWAP1 DUP2 MSTORE PUSH1 0x20 ADD PUSH0 KECCAK256 PUSH0 SWAP1 SLOAD SWAP1 PUSH2 0x100 EXP SWAP1 DIV PUSH1 0xFF AND ISZERO JUMPDEST ISZERO PUSH2 0xC10 JUMPI PUSH1 0x6 SLOAD DUP2 GT ISZERO PUSH2 0xB62 JUMPI PUSH1 0x40 MLOAD PUSH32 0x8C379A000000000000000000000000000000000000000000000000000000000 DUP2 MSTORE PUSH1 0x4 ADD PUSH2 0xB59 SWAP1 PUSH2 0x1516 JUMP JUMPDEST PUSH1 0x40 MLOAD DUP1 SWAP2 SUB SWAP1 REVERT JUMPDEST PUSH1 0xA PUSH0 DUP4 PUSH20 0xFFFFFFFFFFFFFFFFFFFFFFFFFFFFFFFFFFFFFFFF AND PUSH20 0xFFFFFFFFFFFFFFFFFFFFFFFFFFFFFFFFFFFFFFFF AND DUP2 MSTORE PUSH1 0x20 ADD SWAP1 DUP2 MSTORE PUSH1 0x20 ADD PUSH0 KECCAK256 PUSH0 SWAP1 SLOAD SWAP1 PUSH2 0x100 EXP SWAP1 DIV PUSH1 0xFF AND PUSH2 0xC0F JUMPI PUSH1 0x7 SLOAD DUP2 PUSH2 0xBC3 DUP5 PUSH2 0xE91 PUSH1 0x20 SHL PUSH1 0x20 SHR JUMP JUMPDEST PUSH2 0xBCD SWAP2 SWAP1 PUSH2 0x1534 JUMP JUMPDEST GT ISZERO PUSH2 0xC0E JUMPI PUSH1 0x40 MLOAD PUSH32 0x8C379A000000000000000000000000000000000000000000000000000000000 DUP2 MSTORE PUSH1 0x4 ADD PUSH2 0xC05 SWAP1 PUSH2 0x15B1 JUMP JUMPDEST PUSH1 0x40 MLOAD DUP1 SWAP2 SUB SWAP1 REVERT JUMPDEST JUMPDEST JUMPDEST JUMPDEST PUSH2 0xC22 DUP4 DUP4 DUP4 PUSH2 0xC78 PUSH1 0x20 SHL PUSH1 0x20 SHR JUMP JUMPDEST JUMPDEST POP POP POP JUMP JUMPDEST PUSH2 0xC36 PUSH2 0xED6 PUSH1 0x20 SHL PUSH1 0x20 SHR JUMP JUMPDEST ISZERO PUSH2 0xC76 JUMPI PUSH1 0x40 MLOAD PUSH32 0x8C379A000000000000000000000000000000000000000000000000000000000 DUP2 MSTORE PUSH1 0x4 ADD PUSH2 0xC6D SWAP1 PUSH2 0x1619 JUMP JUMPDEST PUSH1 0x40 MLOAD DUP1 SWAP2 SUB SWAP1 REVERT JUMPDEST JUMP JUMPDEST PUSH0 PUSH20 0xFFFFFFFFFFFFFFFFFFFFFFFFFFFFFFFFFFFFFFFF AND DUP4 PUSH20 0xFFFFFFFFFFFFFFFFFFFFFFFFFFFFFFFFFFFFFFFF AND SUB PUSH2 0xCC8 JUMPI DUP1 PUSH1 0x2 PUSH0 DUP3 DUP3 SLOAD PUSH2 0xCBC SWAP2 SWAP1 PUSH2 0x1534 JUMP JUMPDEST SWAP3 POP POP DUP2 SWAP1 SSTORE POP PUSH2 0xD96 JUMP JUMPDEST PUSH0 PUSH0 PUSH0 DUP6 PUSH20 0xFFFFFFFFFFFFFFFFFFFFFFFFFFFFFFFFFFFFFFFF AND PUSH20 0xFFFFFFFFFFFFFFFFFFFFFFFFFFFFFFFFFFFFFFFF AND DUP2 MSTORE PUSH1 0x20 ADD SWAP1 DUP2 MSTORE PUSH1 0x20 ADD PUSH0 KECCAK256 SLOAD SWAP1 POP DUP2 DUP2 LT ISZERO PUSH2 0xD51 JUMPI DUP4 DUP2 DUP4 PUSH1 0x40 MLOAD PUSH32 0xE450D38C00000000000000000000000000000000000000000000000000000000 DUP2 MSTORE PUSH1 0x4 ADD PUSH2 0xD48 SWAP4 SWAP3 SWAP2 SWAP1 PUSH2 0x1646 JUMP JUMPDEST PUSH1 0x40 MLOAD DUP1 SWAP2 SUB SWAP1 REVERT JUMPDEST DUP2 DUP2 SUB PUSH0 PUSH0 DUP7 PUSH20 0xFFFFFFFFFFFFFFFFFFFFFFFFFFFFFFFFFFFFFFFF AND PUSH20 0xFFFFFFFFFFFFFFFFFFFFFFFFFFFFFFFFFFFFFFFF AND DUP2 MSTORE PUSH1 0x20 ADD SWAP1 DUP2 MSTORE PUSH1 0x20 ADD PUSH0 KECCAK256 DUP2 SWAP1 SSTORE POP POP JUMPDEST PUSH0 PUSH20 0xFFFFFFFFFFFFFFFFFFFFFFFFFFFFFFFFFFFFFFFF AND DUP3 PUSH20 0xFFFFFFFFFFFFFFFFFFFFFFFFFFFFFFFFFFFFFFFF AND SUB PUSH2 0xDDD JUMPI DUP1 PUSH1 0x2 PUSH0 DUP3 DUP3 SLOAD SUB SWAP3 POP POP DUP2 SWAP1 SSTORE POP PUSH2 0xE27 JUMP JUMPDEST DUP1 PUSH0 PUSH0 DUP5 PUSH20 0xFFFFFFFFFFFFFFFFFFFFFFFFFFFFFFFFFFFFFFFF AND PUSH20 0xFFFFFFFFFFFFFFFFFFFFFFFFFFFFFFFFFFFFFFFF AND DUP2 MSTORE PUSH1 0x20 ADD SWAP1 DUP2 MSTORE PUSH1 0x20 ADD PUSH0 KECCAK256 PUSH0 DUP3 DUP3 SLOAD ADD SWAP3 POP POP DUP2 SWAP1 SSTORE POP JUMPDEST DUP2 PUSH20 0xFFFFFFFFFFFFFFFFFFFFFFFFFFFFFFFFFFFFFFFF AND DUP4 PUSH20 0xFFFFFFFFFFFFFFFFFFFFFFFFFFFFFFFFFFFFFFFF AND PUSH32 0xDDF252AD1BE2C89B69C2B068FC378DAA952BA7F163C4A11628F55A4DF523B3EF DUP4 PUSH1 0x40 MLOAD PUSH2 0xE84 SWAP2 SWAP1 PUSH2 0x167B JUMP JUMPDEST PUSH1 0x40 MLOAD DUP1 SWAP2 SUB SWAP1 LOG3 POP POP POP JUMP JUMPDEST PUSH0 PUSH0 PUSH0 DUP4 PUSH20 0xFFFFFFFFFFFFFFFFFFFFFFFFFFFFFFFFFFFFFFFF AND PUSH20 0xFFFFFFFFFFFFFFFFFFFFFFFFFFFFFFFFFFFFFFFF AND DUP2 MSTORE PUSH1 0x20 ADD SWAP1 DUP2 MSTORE PUSH1 0x20 ADD PUSH0 KECCAK256 SLOAD SWAP1 POP SWAP2 SWAP1 POP JUMP JUMPDEST PUSH0 PUSH1 0x5 PUSH1 0x14 SWAP1 SLOAD SWAP1 PUSH2 0x100 EXP SWAP1 DIV PUSH1 0xFF AND SWAP1 POP SWAP1 JUMP JUMPDEST PUSH0 DUP2 MLOAD SWAP1 POP SWAP2 SWAP1 POP JUMP JUMPDEST PUSH32 0x4E487B7100000000000000000000000000000000000000000000000000000000 PUSH0 MSTORE PUSH1 0x41 PUSH1 0x4 MSTORE PUSH1 0x24 PUSH0 REVERT JUMPDEST PUSH32 0x4E487B7100000000000000000000000000000000000000000000000000000000 PUSH0 MSTORE PUSH1 0x22 PUSH1 0x4 MSTORE PUSH1 0x24 PUSH0 REVERT JUMPDEST PUSH0 PUSH1 0x2 DUP3 DIV SWAP1 POP PUSH1 0x1 DUP3 AND DUP1 PUSH2 0xF67 JUMPI PUSH1 0x7F DUP3 AND SWAP2 POP JUMPDEST PUSH1 0x20 DUP3 LT DUP2 SUB PUSH2 0xF7A JUMPI PUSH2 0xF79 PUSH2 0xF23 JUMP JUMPDEST JUMPDEST POP SWAP2 SWAP1 POP JUMP JUMPDEST PUSH0 DUP2 SWAP1 POP DUP2 PUSH0 MSTORE PUSH1 0x20 PUSH0 KECCAK256 SWAP1 POP SWAP2 SWAP1 POP JUMP JUMPDEST PUSH0 PUSH1 0x20 PUSH1 0x1F DUP4 ADD DIV SWAP1 POP SWAP2 SWAP1 POP JUMP JUMPDEST PUSH0 DUP3 DUP3 SHL SWAP1 POP SWAP3 SWAP2 POP POP JUMP JUMPDEST PUSH0 PUSH1 0x8 DUP4 MUL PUSH2 0xFDC PUSH32 0xFFFFFFFFFFFFFFFFFFFFFFFFFFFFFFFFFFFFFFFFFFFFFFFFFFFFFFFFFFFFFFFF DUP3 PUSH2 0xFA1 JUMP JUMPDEST PUSH2 0xFE6 DUP7 DUP4 PUSH2 0xFA1 JUMP JUMPDEST SWAP6 POP DUP1 NOT DUP5 AND SWAP4 POP DUP1 DUP7 AND DUP5 OR SWAP3 POP POP POP SWAP4 SWAP3 POP POP POP JUMP JUMPDEST PUSH0 DUP2 SWAP1 POP SWAP2 SWAP1 POP JUMP JUMPDEST PUSH0 DUP2 SWAP1 POP SWAP2 SWAP1 POP JUMP JUMPDEST PUSH0 PUSH2 0x102A PUSH2 0x1025 PUSH2 0x1020 DUP5 PUSH2 0xFFE JUMP JUMPDEST PUSH2 0x1007 JUMP JUMPDEST PUSH2 0xFFE JUMP JUMPDEST SWAP1 POP SWAP2 SWAP1 POP JUMP JUMPDEST PUSH0 DUP2 SWAP1 POP SWAP2 SWAP1 POP JUMP JUMPDEST PUSH2 0x1043 DUP4 PUSH2 0x1010 JUMP JUMPDEST PUSH2 0x1057 PUSH2 0x104F DUP3 PUSH2 0x1031 JUMP JUMPDEST DUP5 DUP5 SLOAD PUSH2 0xFAD JUMP JUMPDEST DUP3 SSTORE POP POP POP POP JUMP JUMPDEST PUSH0 PUSH0 SWAP1 POP SWAP1 JUMP JUMPDEST PUSH2 0x106E PUSH2 0x105F JUMP JUMPDEST PUSH2 0x1079 DUP2 DUP5 DUP5 PUSH2 0x103A JUMP JUMPDEST POP POP POP JUMP JUMPDEST JUMPDEST DUP2 DUP2 LT ISZERO PUSH2 0x109C JUMPI PUSH2 0x1091 PUSH0 DUP3 PUSH2 0x1066 JUMP JUMPDEST PUSH1 0x1 DUP2 ADD SWAP1 POP PUSH2 0x107F JUMP JUMPDEST POP POP JUMP JUMPDEST PUSH1 0x1F DUP3 GT ISZERO PUSH2 0x10E1 JUMPI PUSH2 0x10B2 DUP2 PUSH2 0xF80 JUMP JUMPDEST PUSH2 0x10BB DUP5 PUSH2 0xF92 JUMP JUMPDEST DUP2 ADD PUSH1 0x20 DUP6 LT ISZERO PUSH2 0x10CA JUMPI DUP2 SWAP1 POP JUMPDEST PUSH2 0x10DE PUSH2 0x10D6 DUP6 PUSH2 0xF92 JUMP JUMPDEST DUP4 ADD DUP3 PUSH2 0x107E JUMP JUMPDEST POP POP JUMPDEST POP POP POP JUMP JUMPDEST PUSH0 DUP3 DUP3 SHR SWAP1 POP SWAP3 SWAP2 POP POP JUMP JUMPDEST PUSH0 PUSH2 0x1101 PUSH0 NOT DUP5 PUSH1 0x8 MUL PUSH2 0x10E6 JUMP JUMPDEST NOT DUP1 DUP4 AND SWAP2 POP POP SWAP3 SWAP2 POP POP JUMP JUMPDEST PUSH0 PUSH2 0x1119 DUP4 DUP4 PUSH2 0x10F2 JUMP JUMPDEST SWAP2 POP DUP3 PUSH1 0x2 MUL DUP3 OR SWAP1 POP SWAP3 SWAP2 POP POP JUMP JUMPDEST PUSH2 0x1132 DUP3 PUSH2 0xEEC JUMP JUMPDEST PUSH8 0xFFFFFFFFFFFFFFFF DUP2 GT ISZERO PUSH2 0x114B JUMPI PUSH2 0x114A PUSH2 0xEF6 JUMP JUMPDEST JUMPDEST PUSH2 0x1155 DUP3 SLOAD PUSH2 0xF50 JUMP JUMPDEST PUSH2 0x1160 DUP3 DUP3 DUP6 PUSH2 0x10A0 JUMP JUMPDEST PUSH0 PUSH1 0x20 SWAP1 POP PUSH1 0x1F DUP4 GT PUSH1 0x1 DUP2 EQ PUSH2 0x1191 JUMPI PUSH0 DUP5 ISZERO PUSH2 0x117F JUMPI DUP3 DUP8 ADD MLOAD SWAP1 POP JUMPDEST PUSH2 0x1189 DUP6 DUP3 PUSH2 0x110E JUMP JUMPDEST DUP7 SSTORE POP PUSH2 0x11F0 JUMP JUMPDEST PUSH1 0x1F NOT DUP5 AND PUSH2 0x119F DUP7 PUSH2 0xF80 JUMP JUMPDEST PUSH0 JUMPDEST DUP3 DUP2 LT ISZERO PUSH2 0x11C6 JUMPI DUP5 DUP10 ADD MLOAD DUP3 SSTORE PUSH1 0x1 DUP3 ADD SWAP2 POP PUSH1 0x20 DUP6 ADD SWAP5 POP PUSH1 0x20 DUP2 ADD SWAP1 POP PUSH2 0x11A1 JUMP JUMPDEST DUP7 DUP4 LT ISZERO PUSH2 0x11E3 JUMPI DUP5 DUP10 ADD MLOAD PUSH2 0x11DF PUSH1 0x1F DUP10 AND DUP3 PUSH2 0x10F2 JUMP JUMPDEST DUP4 SSTORE POP JUMPDEST PUSH1 0x1 PUSH1 0x2 DUP9 MUL ADD DUP9 SSTORE POP POP POP JUMPDEST POP POP POP POP POP POP JUMP JUMPDEST PUSH0 PUSH20 0xFFFFFFFFFFFFFFFFFFFFFFFFFFFFFFFFFFFFFFFF DUP3 AND SWAP1 POP SWAP2 SWAP1 POP JUMP JUMPDEST PUSH0 PUSH2 0x1221 DUP3 PUSH2 0x11F8 JUMP JUMPDEST SWAP1 POP SWAP2 SWAP1 POP JUMP JUMPDEST PUSH2 0x1231 DUP2 PUSH2 0x1217 JUMP JUMPDEST DUP3 MSTORE POP POP JUMP JUMPDEST PUSH0 PUSH1 0x20 DUP3 ADD SWAP1 POP PUSH2 0x124A PUSH0 DUP4 ADD DUP5 PUSH2 0x1228 JUMP JUMPDEST SWAP3 SWAP2 POP POP JUMP JUMPDEST PUSH0 PUSH1 0x80 DUP3 ADD SWAP1 POP PUSH2 0x1263 PUSH0 DUP4 ADD DUP8 PUSH2 0x1228 JUMP JUMPDEST PUSH2 0x1270 PUSH1 0x20 DUP4 ADD DUP7 PUSH2 0x1228 JUMP JUMPDEST PUSH2 0x127D PUSH1 0x40 DUP4 ADD DUP6 PUSH2 0x1228 JUMP JUMPDEST PUSH2 0x128A PUSH1 0x60 DUP4 ADD DUP5 PUSH2 0x1228 JUMP JUMPDEST SWAP6 SWAP5 POP POP POP POP POP JUMP JUMPDEST PUSH0 DUP3 DUP3 MSTORE PUSH1 0x20 DUP3 ADD SWAP1 POP SWAP3 SWAP2 POP POP JUMP JUMPDEST PUSH32 0x426173697320706F696E74732065786365656420313030250000000000000000 PUSH0 DUP3 ADD MSTORE POP JUMP JUMPDEST PUSH0 PUSH2 0x12D7 PUSH1 0x18 DUP4 PUSH2 0x1293 JUMP JUMPDEST SWAP2 POP PUSH2 0x12E2 DUP3 PUSH2 0x12A3 JUMP JUMPDEST PUSH1 0x20 DUP3 ADD SWAP1 POP SWAP2 SWAP1 POP JUMP JUMPDEST PUSH0 PUSH1 0x20 DUP3 ADD SWAP1 POP DUP2 DUP2 SUB PUSH0 DUP4 ADD MSTORE PUSH2 0x1304 DUP2 PUSH2 0x12CB JUMP JUMPDEST SWAP1 POP SWAP2 SWAP1 POP JUMP JUMPDEST PUSH32 0x4E487B7100000000000000000000000000000000000000000000000000000000 PUSH0 MSTORE PUSH1 0x11 PUSH1 0x4 MSTORE PUSH1 0x24 PUSH0 REVERT JUMPDEST PUSH0 PUSH2 0x1342 DUP3 PUSH2 0xFFE JUMP JUMPDEST SWAP2 POP PUSH2 0x134D DUP4 PUSH2 0xFFE JUMP JUMPDEST SWAP3 POP DUP3 DUP3 MUL PUSH2 0x135B DUP2 PUSH2 0xFFE JUMP JUMPDEST SWAP2 POP DUP3 DUP3 DIV DUP5 EQ DUP4 ISZERO OR PUSH2 0x1372 JUMPI PUSH2 0x1371 PUSH2 0x130B JUMP JUMPDEST JUMPDEST POP SWAP3 SWAP2 POP POP JUMP JUMPDEST PUSH32 0x4E487B7100000000000000000000000000000000000000000000000000000000 PUSH0 MSTORE PUSH1 0x12 PUSH1 0x4 MSTORE PUSH1 0x24 PUSH0 REVERT JUMPDEST PUSH0 PUSH2 0x13B0 DUP3 PUSH2 0xFFE JUMP JUMPDEST SWAP2 POP PUSH2 0x13BB DUP4 PUSH2 0xFFE JUMP JUMPDEST SWAP3 POP DUP3 PUSH2 0x13CB JUMPI PUSH2 0x13CA PUSH2 0x1379 JUMP JUMPDEST JUMPDEST DUP3 DUP3 DIV SWAP1 POP SWAP3 SWAP2 POP POP JUMP JUMPDEST PUSH32 0x43616E6E6F742073656E6420746F6B656E7320746F20746F6B656E20636F6E74 PUSH0 DUP3 ADD MSTORE PUSH32 0x72616374206469726563746C7900000000000000000000000000000000000000 PUSH1 0x20 DUP3 ADD MSTORE POP JUMP JUMPDEST PUSH0 PUSH2 0x1430 PUSH1 0x2D DUP4 PUSH2 0x1293 JUMP JUMPDEST SWAP2 POP PUSH2 0x143B DUP3 PUSH2 0x13D6 JUMP JUMPDEST PUSH1 0x40 DUP3 ADD SWAP1 POP SWAP2 SWAP1 POP JUMP JUMPDEST PUSH0 PUSH1 0x20 DUP3 ADD SWAP1 POP DUP2 DUP2 SUB PUSH0 DUP4 ADD MSTORE PUSH2 0x145D DUP2 PUSH2 0x1424 JUMP JUMPDEST SWAP1 POP SWAP2 SWAP1 POP JUMP JUMPDEST PUSH32 0x54726164696E67206E6F742079657420656E61626C6564000000000000000000 PUSH0 DUP3 ADD MSTORE POP JUMP JUMPDEST PUSH0 PUSH2 0x1498 PUSH1 0x17 DUP4 PUSH2 0x1293 JUMP JUMPDEST SWAP2 POP PUSH2 0x14A3 DUP3 PUSH2 0x1464 JUMP JUMPDEST PUSH1 0x20 DUP3 ADD SWAP1 POP SWAP2 SWAP1 POP JUMP JUMPDEST PUSH0 PUSH1 0x20 DUP3 ADD SWAP1 POP DUP2 DUP2 SUB PUSH0 DUP4 ADD MSTORE PUSH2 0x14C5 DUP2 PUSH2 0x148C JUMP JUMPDEST SWAP1 POP SWAP2 SWAP1 POP JUMP JUMPDEST PUSH32 0x45786365656473206D6178547800000000000000000000000000000000000000 PUSH0 DUP3 ADD MSTORE POP JUMP JUMPDEST PUSH0 PUSH2 0x1500 PUSH1 0xD DUP4 PUSH2 0x1293 JUMP JUMPDEST SWAP2 POP PUSH2 0x150B DUP3 PUSH2 0x14CC JUMP JUMPDEST PUSH1 0x20 DUP3 ADD SWAP1 POP SWAP2 SWAP1 POP JUMP JUMPDEST PUSH0 PUSH1 0x20 DUP3 ADD SWAP1 POP DUP2 DUP2 SUB PUSH0 DUP4 ADD MSTORE PUSH2 0x152D DUP2 PUSH2 0x14F4 JUMP JUMPDEST SWAP1 POP SWAP2 SWAP1 POP JUMP JUMPDEST PUSH0 PUSH2 0x153E DUP3 PUSH2 0xFFE JUMP JUMPDEST SWAP2 POP PUSH2 0x1549 DUP4 PUSH2 0xFFE JUMP JUMPDEST SWAP3 POP DUP3 DUP3 ADD SWAP1 POP DUP1 DUP3 GT ISZERO PUSH2 0x1561 JUMPI PUSH2 0x1560 PUSH2 0x130B JUMP JUMPDEST JUMPDEST SWAP3 SWAP2 POP POP JUMP JUMPDEST PUSH32 0x45786365656473206D617857616C6C6574000000000000000000000000000000 PUSH0 DUP3 ADD MSTORE POP JUMP JUMPDEST PUSH0 PUSH2 0x159B PUSH1 0x11 DUP4 PUSH2 0x1293 JUMP JUMPDEST SWAP2 POP PUSH2 0x15A6 DUP3 PUSH2 0x1567 JUMP JUMPDEST PUSH1 0x20 DUP3 ADD SWAP1 POP SWAP2 SWAP1 POP JUMP JUMPDEST PUSH0 PUSH1 0x20 DUP3 ADD SWAP1 POP DUP2 DUP2 SUB PUSH0 DUP4 ADD MSTORE PUSH2 0x15C8 DUP2 PUSH2 0x158F JUMP JUMPDEST SWAP1 POP SWAP2 SWAP1 POP JUMP JUMPDEST PUSH32 0x5061757361626C653A2070617573656400000000000000000000000000000000 PUSH0 DUP3 ADD MSTORE POP JUMP JUMPDEST PUSH0 PUSH2 0x1603 PUSH1 0x10 DUP4 PUSH2 0x1293 JUMP JUMPDEST SWAP2 POP PUSH2 0x160E DUP3 PUSH2 0x15CF JUMP JUMPDEST PUSH1 0x20 DUP3 ADD SWAP1 POP SWAP2 SWAP1 POP JUMP JUMPDEST PUSH0 PUSH1 0x20 DUP3 ADD SWAP1 POP DUP2 DUP2 SUB PUSH0 DUP4 ADD MSTORE PUSH2 0x1630 DUP2 PUSH2 0x15F7 JUMP JUMPDEST SWAP1 POP SWAP2 SWAP1 POP JUMP JUMPDEST PUSH2 0x1640 DUP2 PUSH2 0xFFE JUMP JUMPDEST DUP3 MSTORE POP POP JUMP JUMPDEST PUSH0 PUSH1 0x60 DUP3 ADD SWAP1 POP PUSH2 0x1659 PUSH0 DUP4 ADD DUP7 PUSH2 0x1228 JUMP JUMPDEST PUSH2 0x1666 PUSH1 0x20 DUP4 ADD DUP6 PUSH2 0x1637 JUMP JUMPDEST PUSH2 0x1673 PUSH1 0x40 DUP4 ADD DUP5 PUSH2 0x1637 JUMP JUMPDEST SWAP5 SWAP4 POP POP POP POP JUMP JUMPDEST PUSH0 PUSH1 0x20 DUP3 ADD SWAP1 POP PUSH2 0x168E PUSH0 DUP4 ADD DUP5 PUSH2 0x1637 JUMP JUMPDEST SWAP3 SWAP2 POP POP JUMP JUMPDEST PUSH2 0x239A DUP1 PUSH2 0x16A1 PUSH0 CODECOPY PUSH0 RETURN INVALID PUSH1 0x80 PUSH1 0x40 MSTORE CALLVALUE DUP1 ISZERO PUSH2 0xF JUMPI PUSH0 PUSH0 REVERT JUMPDEST POP PUSH1 0x4 CALLDATASIZE LT PUSH2 0x230 JUMPI PUSH0 CALLDATALOAD PUSH1 0xE0 SHR DUP1 PUSH4 0x8456CB59 GT PUSH2 0x12E JUMPI DUP1 PUSH4 0xB0C150AF GT PUSH2 0xB6 JUMPI DUP1 PUSH4 0xE55648F4 GT PUSH2 0x7A JUMPI DUP1 PUSH4 0xE55648F4 EQ PUSH2 0x638 JUMPI DUP1 PUSH4 0xF2FDE38B EQ PUSH2 0x654 JUMPI DUP1 PUSH4 0xF545D07A EQ PUSH2 0x670 JUMPI DUP1 PUSH4 0xF5736D4B EQ PUSH2 0x68E JUMPI DUP1 PUSH4 0xFAE36AFB EQ PUSH2 0x6AA JUMPI PUSH2 0x230 JUMP JUMPDEST DUP1 PUSH4 0xB0C150AF EQ PUSH2 0x580 JUMPI DUP1 PUSH4 0xC6859D07 EQ PUSH2 0x5B0 JUMPI DUP1 PUSH4 0xD08DDC61 EQ PUSH2 0x5CE JUMPI DUP1 PUSH4 0xD1F5C33B EQ PUSH2 0x5EC JUMPI DUP1 PUSH4 0xDD62ED3E EQ PUSH2 0x608 JUMPI PUSH2 0x230 JUMP JUMPDEST DUP1 PUSH4 0x8DA5CB5B GT PUSH2 0xFD JUMPI DUP1 PUSH4 0x8DA5CB5B EQ PUSH2 0x4D8 JUMPI DUP1 PUSH4 0x902D55A5 EQ PUSH2 0x4F6 JUMPI DUP1 PUSH4 0x95D89B41 EQ PUSH2 0x514 JUMPI DUP1 PUSH4 0xA9059CBB EQ PUSH2 0x532 JUMPI DUP1 PUSH4 0xAA4BDE28 EQ PUSH2 0x562 JUMPI PUSH2 0x230 JUMP JUMPDEST DUP1 PUSH4 0x8456CB59 EQ PUSH2 0x488 JUMPI DUP1 PUSH4 0x86C3B461 EQ PUSH2 0x492 JUMPI DUP1 PUSH4 0x8A8C523C EQ PUSH2 0x4B0 JUMPI DUP1 PUSH4 0x8C0B5E22 EQ PUSH2 0x4BA JUMPI PUSH2 0x230 JUMP JUMPDEST DUP1 PUSH4 0x40A24E6C GT PUSH2 0x1BC JUMPI DUP1 PUSH4 0x5C975ABB GT PUSH2 0x180 JUMPI DUP1 PUSH4 0x5C975ABB EQ PUSH2 0x3F6 JUMPI DUP1 PUSH4 0x5DAF3146 EQ PUSH2 0x414 JUMPI DUP1 PUSH4 0x70A08231 EQ PUSH2 0x432 JUMPI DUP1 PUSH4 0x715018A6 EQ PUSH2 0x462 JUMPI DUP1 PUSH4 0x79CC6790 EQ PUSH2 0x46C JUMPI PUSH2 0x230 JUMP JUMPDEST DUP1 PUSH4 0x40A24E6C EQ PUSH2 0x364 JUMPI DUP1 PUSH4 0x42966C68 EQ PUSH2 0x380 JUMPI DUP1 PUSH4 0x4A62BB65 EQ PUSH2 0x39C JUMPI DUP1 PUSH4 0x4ADA218B EQ PUSH2 0x3BA JUMPI DUP1 PUSH4 0x539FF41A EQ PUSH2 0x3D8 JUMPI PUSH2 0x230 JUMP JUMPDEST DUP1 PUSH4 0x2D04F820 GT PUSH2 0x203 JUMPI DUP1 PUSH4 0x2D04F820 EQ PUSH2 0x2D0 JUMPI DUP1 PUSH4 0x313CE567 EQ PUSH2 0x2EE JUMPI DUP1 PUSH4 0x3F2A5540 EQ PUSH2 0x30C JUMPI DUP1 PUSH4 0x3F4BA83A EQ PUSH2 0x32A JUMPI DUP1 PUSH4 0x40009927 EQ PUSH2 0x334 JUMPI PUSH2 0x230 JUMP JUMPDEST DUP1 PUSH4 0x6FDDE03 EQ PUSH2 0x234 JUMPI DUP1 PUSH4 0x95EA7B3 EQ PUSH2 0x252 JUMPI DUP1 PUSH4 0x18160DDD EQ PUSH2 0x282 JUMPI DUP1 PUSH4 0x23B872DD EQ PUSH2 0x2A0 JUMPI JUMPDEST PUSH0 PUSH0 REVERT JUMPDEST PUSH2 0x23C PUSH2 0x6C8 JUMP JUMPDEST PUSH1 0x40 MLOAD PUSH2 0x249 SWAP2 SWAP1 PUSH2 0x1BFD JUMP JUMPDEST PUSH1 0x40 MLOAD DUP1 SWAP2 SUB SWAP1 RETURN JUMPDEST PUSH2 0x26C PUSH1 0x4 DUP1 CALLDATASIZE SUB DUP2 ADD SWAP1 PUSH2 0x267 SWAP2 SWAP1 PUSH2 0x1CAE JUMP JUMPDEST PUSH2 0x758 JUMP JUMPDEST PUSH1 0x40 MLOAD PUSH2 0x279 SWAP2 SWAP1 PUSH2 0x1D06 JUMP JUMPDEST PUSH1 0x40 MLOAD DUP1 SWAP2 SUB SWAP1 RETURN JUMPDEST PUSH2 0x28A PUSH2 0x77A JUMP JUMPDEST PUSH1 0x40 MLOAD PUSH2 0x297 SWAP2 SWAP1 PUSH2 0x1D2E JUMP JUMPDEST PUSH1 0x40 MLOAD DUP1 SWAP2 SUB SWAP1 RETURN JUMPDEST PUSH2 0x2BA PUSH1 0x4 DUP1 CALLDATASIZE SUB DUP2 ADD SWAP1 PUSH2 0x2B5 SWAP2 SWAP1 PUSH2 0x1D47 JUMP JUMPDEST PUSH2 0x783 JUMP JUMPDEST PUSH1 0x40 MLOAD PUSH2 0x2C7 SWAP2 SWAP1 PUSH2 0x1D06 JUMP JUMPDEST PUSH1 0x40 MLOAD DUP1 SWAP2 SUB SWAP1 RETURN JUMPDEST PUSH2 0x2D8 PUSH2 0x7B1 JUMP JUMPDEST PUSH1 0x40 MLOAD PUSH2 0x2E5 SWAP2 SWAP1 PUSH2 0x1DA6 JUMP JUMPDEST PUSH1 0x40 MLOAD DUP1 SWAP2 SUB SWAP1 RETURN JUMPDEST PUSH2 0x2F6 PUSH2 0x7C9 JUMP JUMPDEST PUSH1 0x40 MLOAD PUSH2 0x303 SWAP2 SWAP1 PUSH2 0x1DDA JUMP JUMPDEST PUSH1 0x40 MLOAD DUP1 SWAP2 SUB SWAP1 RETURN JUMPDEST PUSH2 0x314 PUSH2 0x7D1 JUMP JUMPDEST PUSH1 0x40 MLOAD PUSH2 0x321 SWAP2 SWAP1 PUSH2 0x1DA6 JUMP JUMPDEST PUSH1 0x40 MLOAD DUP1 SWAP2 SUB SWAP1 RETURN JUMPDEST PUSH2 0x332 PUSH2 0x7F6 JUMP JUMPDEST STOP JUMPDEST PUSH2 0x34E PUSH1 0x4 DUP1 CALLDATASIZE SUB DUP2 ADD SWAP1 PUSH2 0x349 SWAP2 SWAP1 PUSH2 0x1DF3 JUMP JUMPDEST PUSH2 0x808 JUMP JUMPDEST PUSH1 0x40 MLOAD PUSH2 0x35B SWAP2 SWAP1 PUSH2 0x1D06 JUMP JUMPDEST PUSH1 0x40 MLOAD DUP1 SWAP2 SUB SWAP1 RETURN JUMPDEST PUSH2 0x37E PUSH1 0x4 DUP1 CALLDATASIZE SUB DUP2 ADD SWAP1 PUSH2 0x379 SWAP2 SWAP1 PUSH2 0x1E48 JUMP JUMPDEST PUSH2 0x825 JUMP JUMPDEST STOP JUMPDEST PUSH2 0x39A PUSH1 0x4 DUP1 CALLDATASIZE SUB DUP2 ADD SWAP1 PUSH2 0x395 SWAP2 SWAP1 PUSH2 0x1E86 JUMP JUMPDEST PUSH2 0x885 JUMP JUMPDEST STOP JUMPDEST PUSH2 0x3A4 PUSH2 0x899 JUMP JUMPDEST PUSH1 0x40 MLOAD PUSH2 0x3B1 SWAP2 SWAP1 PUSH2 0x1D06 JUMP JUMPDEST PUSH1 0x40 MLOAD DUP1 SWAP2 SUB SWAP1 RETURN JUMPDEST PUSH2 0x3C2 PUSH2 0x8AB JUMP JUMPDEST PUSH1 0x40 MLOAD PUSH2 0x3CF SWAP2 SWAP1 PUSH2 0x1D06 JUMP JUMPDEST PUSH1 0x40 MLOAD DUP1 SWAP2 SUB SWAP1 RETURN JUMPDEST PUSH2 0x3E0 PUSH2 0x8BE JUMP JUMPDEST PUSH1 0x40 MLOAD PUSH2 0x3ED SWAP2 SWAP1 PUSH2 0x1DA6 JUMP JUMPDEST PUSH1 0x40 MLOAD DUP1 SWAP2 SUB SWAP1 RETURN JUMPDEST PUSH2 0x3FE PUSH2 0x8D6 JUMP JUMPDEST PUSH1 0x40 MLOAD PUSH2 0x40B SWAP2 SWAP1 PUSH2 0x1D06 JUMP JUMPDEST PUSH1 0x40 MLOAD DUP1 SWAP2 SUB SWAP1 RETURN JUMPDEST PUSH2 0x41C PUSH2 0x8EC JUMP JUMPDEST PUSH1 0x40 MLOAD PUSH2 0x429 SWAP2 SWAP1 PUSH2 0x1DA6 JUMP JUMPDEST PUSH1 0x40 MLOAD DUP1 SWAP2 SUB SWAP1 RETURN JUMPDEST PUSH2 0x44C PUSH1 0x4 DUP1 CALLDATASIZE SUB DUP2 ADD SWAP1 PUSH2 0x447 SWAP2 SWAP1 PUSH2 0x1DF3 JUMP JUMPDEST PUSH2 0x904 JUMP JUMPDEST PUSH1 0x40 MLOAD PUSH2 0x459 SWAP2 SWAP1 PUSH2 0x1D2E JUMP JUMPDEST PUSH1 0x40 MLOAD DUP1 SWAP2 SUB SWAP1 RETURN JUMPDEST PUSH2 0x46A PUSH2 0x949 JUMP JUMPDEST STOP JUMPDEST PUSH2 0x486 PUSH1 0x4 DUP1 CALLDATASIZE SUB DUP2 ADD SWAP1 PUSH2 0x481 SWAP2 SWAP1 PUSH2 0x1CAE JUMP JUMPDEST PUSH2 0x95C JUMP JUMPDEST STOP JUMPDEST PUSH2 0x490 PUSH2 0x97C JUMP JUMPDEST STOP JUMPDEST PUSH2 0x49A PUSH2 0x98E JUMP JUMPDEST PUSH1 0x40 MLOAD PUSH2 0x4A7 SWAP2 SWAP1 PUSH2 0x1DA6 JUMP JUMPDEST PUSH1 0x40 MLOAD DUP1 SWAP2 SUB SWAP1 RETURN JUMPDEST PUSH2 0x4B8 PUSH2 0x9A6 JUMP JUMPDEST STOP JUMPDEST PUSH2 0x4C2 PUSH2 0x9F7 JUMP JUMPDEST PUSH1 0x40 MLOAD PUSH2 0x4CF SWAP2 SWAP1 PUSH2 0x1D2E JUMP JUMPDEST PUSH1 0x40 MLOAD DUP1 SWAP2 SUB SWAP1 RETURN JUMPDEST PUSH2 0x4E0 PUSH2 0x9FD JUMP JUMPDEST PUSH1 0x40 MLOAD PUSH2 0x4ED SWAP2 SWAP1 PUSH2 0x1DA6 JUMP JUMPDEST PUSH1 0x40 MLOAD DUP1 SWAP2 SUB SWAP1 RETURN JUMPDEST PUSH2 0x4FE PUSH2 0xA25 JUMP JUMPDEST PUSH1 0x40 MLOAD PUSH2 0x50B SWAP2 SWAP1 PUSH2 0x1D2E JUMP JUMPDEST PUSH1 0x40 MLOAD DUP1 SWAP2 SUB SWAP1 RETURN JUMPDEST PUSH2 0x51C PUSH2 0xA35 JUMP JUMPDEST PUSH1 0x40 MLOAD PUSH2 0x529 SWAP2 SWAP1 PUSH2 0x1BFD JUMP JUMPDEST PUSH1 0x40 MLOAD DUP1 SWAP2 SUB SWAP1 RETURN JUMPDEST PUSH2 0x54C PUSH1 0x4 DUP1 CALLDATASIZE SUB DUP2 ADD SWAP1 PUSH2 0x547 SWAP2 SWAP1 PUSH2 0x1CAE JUMP JUMPDEST PUSH2 0xAC5 JUMP JUMPDEST PUSH1 0x40 MLOAD PUSH2 0x559 SWAP2 SWAP1 PUSH2 0x1D06 JUMP JUMPDEST PUSH1 0x40 MLOAD DUP1 SWAP2 SUB SWAP1 RETURN JUMPDEST PUSH2 0x56A PUSH2 0xAE7 JUMP JUMPDEST PUSH1 0x40 MLOAD PUSH2 0x577 SWAP2 SWAP1 PUSH2 0x1D2E JUMP JUMPDEST PUSH1 0x40 MLOAD DUP1 SWAP2 SUB SWAP1 RETURN JUMPDEST PUSH2 0x59A PUSH1 0x4 DUP1 CALLDATASIZE SUB DUP2 ADD SWAP1 PUSH2 0x595 SWAP2 SWAP1 PUSH2 0x1DF3 JUMP JUMPDEST PUSH2 0xAED JUMP JUMPDEST PUSH1 0x40 MLOAD PUSH2 0x5A7 SWAP2 SWAP1 PUSH2 0x1D06 JUMP JUMPDEST PUSH1 0x40 MLOAD DUP1 SWAP2 SUB SWAP1 RETURN JUMPDEST PUSH2 0x5B8 PUSH2 0xB0A JUMP JUMPDEST PUSH1 0x40 MLOAD PUSH2 0x5C5 SWAP2 SWAP1 PUSH2 0x1DA6 JUMP JUMPDEST PUSH1 0x40 MLOAD DUP1 SWAP2 SUB SWAP1 RETURN JUMPDEST PUSH2 0x5D6 PUSH2 0xB22 JUMP JUMPDEST PUSH1 0x40 MLOAD PUSH2 0x5E3 SWAP2 SWAP1 PUSH2 0x1DA6 JUMP JUMPDEST PUSH1 0x40 MLOAD DUP1 SWAP2 SUB SWAP1 RETURN JUMPDEST PUSH2 0x606 PUSH1 0x4 DUP1 CALLDATASIZE SUB DUP2 ADD SWAP1 PUSH2 0x601 SWAP2 SWAP1 PUSH2 0x1DF3 JUMP JUMPDEST PUSH2 0xB3A JUMP JUMPDEST STOP JUMPDEST PUSH2 0x622 PUSH1 0x4 DUP1 CALLDATASIZE SUB DUP2 ADD SWAP1 PUSH2 0x61D SWAP2 SWAP1 PUSH2 0x1EB1 JUMP JUMPDEST PUSH2 0xC36 JUMP JUMPDEST PUSH1 0x40 MLOAD PUSH2 0x62F SWAP2 SWAP1 PUSH2 0x1D2E JUMP JUMPDEST PUSH1 0x40 MLOAD DUP1 SWAP2 SUB SWAP1 RETURN JUMPDEST PUSH2 0x652 PUSH1 0x4 DUP1 CALLDATASIZE SUB DUP2 ADD SWAP1 PUSH2 0x64D SWAP2 SWAP1 PUSH2 0x1E48 JUMP JUMPDEST PUSH2 0xCB8 JUMP JUMPDEST STOP JUMPDEST PUSH2 0x66E PUSH1 0x4 DUP1 CALLDATASIZE SUB DUP2 ADD SWAP1 PUSH2 0x669 SWAP2 SWAP1 PUSH2 0x1DF3 JUMP JUMPDEST PUSH2 0xD18 JUMP JUMPDEST STOP JUMPDEST PUSH2 0x678 PUSH2 0xD9C JUMP JUMPDEST PUSH1 0x40 MLOAD PUSH2 0x685 SWAP2 SWAP1 PUSH2 0x1DA6 JUMP JUMPDEST PUSH1 0x40 MLOAD DUP1 SWAP2 SUB SWAP1 RETURN JUMPDEST PUSH2 0x6A8 PUSH1 0x4 DUP1 CALLDATASIZE SUB DUP2 ADD SWAP1 PUSH2 0x6A3 SWAP2 SWAP1 PUSH2 0x1EEF JUMP JUMPDEST PUSH2 0xDB4 JUMP JUMPDEST STOP JUMPDEST PUSH2 0x6B2 PUSH2 0xE23 JUMP JUMPDEST PUSH1 0x40 MLOAD PUSH2 0x6BF SWAP2 SWAP1 PUSH2 0x1DA6 JUMP JUMPDEST PUSH1 0x40 MLOAD DUP1 SWAP2 SUB SWAP1 RETURN JUMPDEST PUSH1 0x60 PUSH1 0x3 DUP1 SLOAD PUSH2 0x6D7 SWAP1 PUSH2 0x1F6C JUMP JUMPDEST DUP1 PUSH1 0x1F ADD PUSH1 0x20 DUP1 SWAP2 DIV MUL PUSH1 0x20 ADD PUSH1 0x40 MLOAD SWAP1 DUP2 ADD PUSH1 0x40 MSTORE DUP1 SWAP3 SWAP2 SWAP1 DUP2 DUP2 MSTORE PUSH1 0x20 ADD DUP3 DUP1 SLOAD PUSH2 0x703 SWAP1 PUSH2 0x1F6C JUMP JUMPDEST DUP1 ISZERO PUSH2 0x74E JUMPI DUP1 PUSH1 0x1F LT PUSH2 0x725 JUMPI PUSH2 0x100 DUP1 DUP4 SLOAD DIV MUL DUP4 MSTORE SWAP2 PUSH1 0x20 ADD SWAP2 PUSH2 0x74E JUMP JUMPDEST DUP3 ADD SWAP2 SWAP1 PUSH0 MSTORE PUSH1 0x20 PUSH0 KECCAK256 SWAP1 JUMPDEST DUP2 SLOAD DUP2 MSTORE SWAP1 PUSH1 0x1 ADD SWAP1 PUSH1 0x20 ADD DUP1 DUP4 GT PUSH2 0x731 JUMPI DUP3 SWAP1 SUB PUSH1 0x1F AND DUP3 ADD SWAP2 JUMPDEST POP POP POP POP POP SWAP1 POP SWAP1 JUMP JUMPDEST PUSH0 PUSH0 PUSH2 0x762 PUSH2 0xE3B JUMP JUMPDEST SWAP1 POP PUSH2 0x76F DUP2 DUP6 DUP6 PUSH2 0xE42 JUMP JUMPDEST PUSH1 0x1 SWAP2 POP POP SWAP3 SWAP2 POP POP JUMP JUMPDEST PUSH0 PUSH1 0x2 SLOAD SWAP1 POP SWAP1 JUMP JUMPDEST PUSH0 PUSH0 PUSH2 0x78D PUSH2 0xE3B JUMP JUMPDEST SWAP1 POP PUSH2 0x79A DUP6 DUP3 DUP6 PUSH2 0xE54 JUMP JUMPDEST PUSH2 0x7A5 DUP6 DUP6 DUP6 PUSH2 0xEE7 JUMP JUMPDEST PUSH1 0x1 SWAP2 POP POP SWAP4 SWAP3 POP POP POP JUMP JUMPDEST PUSH20 0x1BEC551C40D7F6B3B7B0366765FA769A8DDB4F25 DUP2 JUMP JUMPDEST PUSH0 PUSH1 0x12 SWAP1 POP SWAP1 JUMP JUMPDEST PUSH1 0xB PUSH0 SWAP1 SLOAD SWAP1 PUSH2 0x100 EXP SWAP1 DIV PUSH20 0xFFFFFFFFFFFFFFFFFFFFFFFFFFFFFFFFFFFFFFFF AND DUP2 JUMP JUMPDEST PUSH2 0x7FE PUSH2 0xFD7 JUMP JUMPDEST PUSH2 0x806 PUSH2 0x105E JUMP JUMPDEST JUMP JUMPDEST PUSH1 0xA PUSH1 0x20 MSTORE DUP1 PUSH0 MSTORE PUSH1 0x40 PUSH0 KECCAK256 PUSH0 SWAP2 POP SLOAD SWAP1 PUSH2 0x100 EXP SWAP1 DIV PUSH1 0xFF AND DUP2 JUMP JUMPDEST PUSH2 0x82D PUSH2 0xFD7 JUMP JUMPDEST DUP1 PUSH1 0x9 PUSH0 DUP5 PUSH20 0xFFFFFFFFFFFFFFFFFFFFFFFFFFFFFFFFFFFFFFFF AND PUSH20 0xFFFFFFFFFFFFFFFFFFFFFFFFFFFFFFFFFFFFFFFF AND DUP2 MSTORE PUSH1 0x20 ADD SWAP1 DUP2 MSTORE PUSH1 0x20 ADD PUSH0 KECCAK256 PUSH0 PUSH2 0x100 EXP DUP2 SLOAD DUP2 PUSH1 0xFF MUL NOT AND SWAP1 DUP4 ISZERO ISZERO MUL OR SWAP1 SSTORE POP POP POP JUMP JUMPDEST PUSH2 0x896 PUSH2 0x890 PUSH2 0xE3B JUMP JUMPDEST DUP3 PUSH2 0x10C0 JUMP JUMPDEST POP JUMP JUMPDEST PUSH1 0x8 PUSH0 SWAP1 SLOAD SWAP1 PUSH2 0x100 EXP SWAP1 DIV PUSH1 0xFF AND DUP2 JUMP JUMPDEST PUSH1 0x5 PUSH1 0x15 SWAP1 SLOAD SWAP1 PUSH2 0x100 EXP SWAP1 DIV PUSH1 0xFF AND DUP2 JUMP JUMPDEST PUSH20 0x8DCDF001B069EF0A027AA8B4DACA12577423A90B DUP2 JUMP JUMPDEST PUSH0 PUSH1 0x5 PUSH1 0x14 SWAP1 SLOAD SWAP1 PUSH2 0x100 EXP SWAP1 DIV PUSH1 0xFF AND SWAP1 POP SWAP1 JUMP JUMPDEST PUSH20 0x71133F5D2548CD9B182C2DAF68D9D00A56D4343F DUP2 JUMP JUMPDEST PUSH0 PUSH0 PUSH0 DUP4 PUSH20 0xFFFFFFFFFFFFFFFFFFFFFFFFFFFFFFFFFFFFFFFF AND PUSH20 0xFFFFFFFFFFFFFFFFFFFFFFFFFFFFFFFFFFFFFFFF AND DUP2 MSTORE PUSH1 0x20 ADD SWAP1 DUP2 MSTORE PUSH1 0x20 ADD PUSH0 KECCAK256 SLOAD SWAP1 POP SWAP2 SWAP1 POP JUMP JUMPDEST PUSH2 0x951 PUSH2 0xFD7 JUMP JUMPDEST PUSH2 0x95A PUSH0 PUSH2 0x113F JUMP JUMPDEST JUMP JUMPDEST PUSH2 0x96E DUP3 PUSH2 0x968 PUSH2 0xE3B JUMP JUMPDEST DUP4 PUSH2 0xE54 JUMP JUMPDEST PUSH2 0x978 DUP3 DUP3 PUSH2 0x10C0 JUMP JUMPDEST POP POP JUMP JUMPDEST PUSH2 0x984 PUSH2 0xFD7 JUMP JUMPDEST PUSH2 0x98C PUSH2 0x1202 JUMP JUMPDEST JUMP JUMPDEST PUSH20 0xFF55E5341142EFDFD37D2E51317BBDA62DB8D8F0 DUP2 JUMP JUMPDEST PUSH2 0x9AE PUSH2 0xFD7 JUMP JUMPDEST PUSH1 0x1 PUSH1 0x5 PUSH1 0x15 PUSH2 0x100 EXP DUP2 SLOAD DUP2 PUSH1 0xFF MUL NOT AND SWAP1 DUP4 ISZERO ISZERO MUL OR SWAP1 SSTORE POP PUSH32 0x799663458A5EF2936F7FA0C99B3336C69C25890F82974F04E811E5BB359186C7 PUSH1 0x40 MLOAD PUSH1 0x40 MLOAD DUP1 SWAP2 SUB SWAP1 LOG1 JUMP JUMPDEST PUSH1 0x6 SLOAD DUP2 JUMP JUMPDEST PUSH0 PUSH1 0x5 PUSH0 SWAP1 SLOAD SWAP1 PUSH2 0x100 EXP SWAP1 DIV PUSH20 0xFFFFFFFFFFFFFFFFFFFFFFFFFFFFFFFFFFFFFFFF AND SWAP1 POP SWAP1 JUMP JUMPDEST PUSH12 0x204FCE5E3E25026110000000 DUP2 JUMP JUMPDEST PUSH1 0x60 PUSH1 0x4 DUP1 SLOAD PUSH2 0xA44 SWAP1 PUSH2 0x1F6C JUMP JUMPDEST DUP1 PUSH1 0x1F ADD PUSH1 0x20 DUP1 SWAP2 DIV MUL PUSH1 0x20 ADD PUSH1 0x40 MLOAD SWAP1 DUP2 ADD PUSH1 0x40 MSTORE DUP1 SWAP3 SWAP2 SWAP1 DUP2 DUP2 MSTORE PUSH1 0x20 ADD DUP3 DUP1 SLOAD PUSH2 0xA70 SWAP1 PUSH2 0x1F6C JUMP JUMPDEST DUP1 ISZERO PUSH2 0xABB JUMPI DUP1 PUSH1 0x1F LT PUSH2 0xA92 JUMPI PUSH2 0x100 DUP1 DUP4 SLOAD DIV MUL DUP4 MSTORE SWAP2 PUSH1 0x20 ADD SWAP2 PUSH2 0xABB JUMP JUMPDEST DUP3 ADD SWAP2 SWAP1 PUSH0 MSTORE PUSH1 0x20 PUSH0 KECCAK256 SWAP1 JUMPDEST DUP2 SLOAD DUP2 MSTORE SWAP1 PUSH1 0x1 ADD SWAP1 PUSH1 0x20 ADD DUP1 DUP4 GT PUSH2 0xA9E JUMPI DUP3 SWAP1 SUB PUSH1 0x1F AND DUP3 ADD SWAP2 JUMPDEST POP POP POP POP POP SWAP1 POP SWAP1 JUMP JUMPDEST PUSH0 PUSH0 PUSH2 0xACF PUSH2 0xE3B JUMP JUMPDEST SWAP1 POP PUSH2 0xADC DUP2 DUP6 DUP6 PUSH2 0xEE7 JUMP JUMPDEST PUSH1 0x1 SWAP2 POP POP SWAP3 SWAP2 POP POP JUMP JUMPDEST PUSH1 0x7 SLOAD DUP2 JUMP JUMPDEST PUSH1 0x9 PUSH1 0x20 MSTORE DUP1 PUSH0 MSTORE PUSH1 0x40 PUSH0 KECCAK256 PUSH0 SWAP2 POP SLOAD SWAP1 PUSH2 0x100 EXP SWAP1 DIV PUSH1 0xFF AND DUP2 JUMP JUMPDEST PUSH20 0x9A982F4EFA6F344E955D28DBA751E17B60E3F217 DUP2 JUMP JUMPDEST PUSH20 0xAB247964F4B9A1C50E6C01E4A2A808CE07FEAF41 DUP2 JUMP JUMPDEST PUSH2 0xB42 PUSH2 0xFD7 JUMP JUMPDEST PUSH0 PUSH20 0xFFFFFFFFFFFFFFFFFFFFFFFFFFFFFFFFFFFFFFFF AND DUP2 PUSH20 0xFFFFFFFFFFFFFFFFFFFFFFFFFFFFFFFFFFFFFFFF AND SUB PUSH2 0xBB0 JUMPI PUSH1 0x40 MLOAD PUSH32 0x8C379A000000000000000000000000000000000000000000000000000000000 DUP2 MSTORE PUSH1 0x4 ADD PUSH2 0xBA7 SWAP1 PUSH2 0x1FE6 JUMP JUMPDEST PUSH1 0x40 MLOAD DUP1 SWAP2 SUB SWAP1 REVERT JUMPDEST DUP1 PUSH1 0xB PUSH0 PUSH2 0x100 EXP DUP2 SLOAD DUP2 PUSH20 0xFFFFFFFFFFFFFFFFFFFFFFFFFFFFFFFFFFFFFFFF MUL NOT AND SWAP1 DUP4 PUSH20 0xFFFFFFFFFFFFFFFFFFFFFFFFFFFFFFFFFFFFFFFF AND MUL OR SWAP1 SSTORE POP DUP1 PUSH20 0xFFFFFFFFFFFFFFFFFFFFFFFFFFFFFFFFFFFFFFFF AND PUSH32 0x1CC0D0FCD88DF90CDE5F20B27B655722F28AFE56A6384C3C7A339EC18564C439 PUSH1 0x40 MLOAD PUSH1 0x40 MLOAD DUP1 SWAP2 SUB SWAP1 LOG2 POP JUMP JUMPDEST PUSH0 PUSH1 0x1 PUSH0 DUP5 PUSH20 0xFFFFFFFFFFFFFFFFFFFFFFFFFFFFFFFFFFFFFFFF AND PUSH20 0xFFFFFFFFFFFFFFFFFFFFFFFFFFFFFFFFFFFFFFFF AND DUP2 MSTORE PUSH1 0x20 ADD SWAP1 DUP2 MSTORE PUSH1 0x20 ADD PUSH0 KECCAK256 PUSH0 DUP4 PUSH20 0xFFFFFFFFFFFFFFFFFFFFFFFFFFFFFFFFFFFFFFFF AND PUSH20 0xFFFFFFFFFFFFFFFFFFFFFFFFFFFFFFFFFFFFFFFF AND DUP2 MSTORE PUSH1 0x20 ADD SWAP1 DUP2 MSTORE PUSH1 0x20 ADD PUSH0 KECCAK256 SLOAD SWAP1 POP SWAP3 SWAP2 POP POP JUMP JUMPDEST PUSH2 0xCC0 PUSH2 0xFD7 JUMP JUMPDEST DUP1 PUSH1 0xA PUSH0 DUP5 PUSH20 0xFFFFFFFFFFFFFFFFFFFFFFFFFFFFFFFFFFFFFFFF AND PUSH20 0xFFFFFFFFFFFFFFFFFFFFFFFFFFFFFFFFFFFFFFFF AND DUP2 MSTORE PUSH1 0x20 ADD SWAP1 DUP2 MSTORE PUSH1 0x20 ADD PUSH0 KECCAK256 PUSH0 PUSH2 0x100 EXP DUP2 SLOAD DUP2 PUSH1 0xFF MUL NOT AND SWAP1 DUP4 ISZERO ISZERO MUL OR SWAP1 SSTORE POP POP POP JUMP JUMPDEST PUSH2 0xD20 PUSH2 0xFD7 JUMP JUMPDEST PUSH0 PUSH20 0xFFFFFFFFFFFFFFFFFFFFFFFFFFFFFFFFFFFFFFFF AND DUP2 PUSH20 0xFFFFFFFFFFFFFFFFFFFFFFFFFFFFFFFFFFFFFFFF AND SUB PUSH2 0xD90 JUMPI PUSH0 PUSH1 0x40 MLOAD PUSH32 0x1E4FBDF700000000000000000000000000000000000000000000000000000000 DUP2 MSTORE PUSH1 0x4 ADD PUSH2 0xD87 SWAP2 SWAP1 PUSH2 0x1DA6 JUMP JUMPDEST PUSH1 0x40 MLOAD DUP1 SWAP2 SUB SWAP1 REVERT JUMPDEST PUSH2 0xD99 DUP2 PUSH2 0x113F JUMP JUMPDEST POP JUMP JUMPDEST PUSH20 0xF03CB4AF13AFDB94688607E100BEE39E4173B446 DUP2 JUMP JUMPDEST PUSH2 0xDBC PUSH2 0xFD7 JUMP JUMPDEST DUP3 PUSH1 0x6 DUP2 SWAP1 SSTORE POP DUP2 PUSH1 0x7 DUP2 SWAP1 SSTORE POP DUP1 PUSH1 0x8 PUSH0 PUSH2 0x100 EXP DUP2 SLOAD DUP2 PUSH1 0xFF MUL NOT AND SWAP1 DUP4 ISZERO ISZERO MUL OR SWAP1 SSTORE POP PUSH32 0xC3E35DA80DD50E2A487EB09D9FD3DCFB815ED597FEDFCBC93588DA440B2D45A3 DUP4 DUP4 DUP4 PUSH1 0x40 MLOAD PUSH2 0xE16 SWAP4 SWAP3 SWAP2 SWAP1 PUSH2 0x2004 JUMP JUMPDEST PUSH1 0x40 MLOAD DUP1 SWAP2 SUB SWAP1 LOG1 POP POP POP JUMP JUMPDEST PUSH20 0xDFB98530D77EE2D29EA7933C02EFF50310201145 DUP2 JUMP JUMPDEST PUSH0 CALLER SWAP1 POP SWAP1 JUMP JUMPDEST PUSH2 0xE4F DUP4 DUP4 DUP4 PUSH1 0x1 PUSH2 0x1265 JUMP JUMPDEST POP POP POP JUMP JUMPDEST PUSH0 PUSH2 0xE5F DUP5 DUP5 PUSH2 0xC36 JUMP JUMPDEST SWAP1 POP PUSH32 0xFFFFFFFFFFFFFFFFFFFFFFFFFFFFFFFFFFFFFFFFFFFFFFFFFFFFFFFFFFFFFFFF DUP2 LT ISZERO PUSH2 0xEE1 JUMPI DUP2 DUP2 LT ISZERO PUSH2 0xED2 JUMPI DUP3 DUP2 DUP4 PUSH1 0x40 MLOAD PUSH32 0xFB8F41B200000000000000000000000000000000000000000000000000000000 DUP2 MSTORE PUSH1 0x4 ADD PUSH2 0xEC9 SWAP4 SWAP3 SWAP2 SWAP1 PUSH2 0x2039 JUMP JUMPDEST PUSH1 0x40 MLOAD DUP1 SWAP2 SUB SWAP1 REVERT JUMPDEST PUSH2 0xEE0 DUP5 DUP5 DUP5 DUP5 SUB PUSH0 PUSH2 0x1265 JUMP JUMPDEST JUMPDEST POP POP POP POP JUMP JUMPDEST PUSH0 PUSH20 0xFFFFFFFFFFFFFFFFFFFFFFFFFFFFFFFFFFFFFFFF AND DUP4 PUSH20 0xFFFFFFFFFFFFFFFFFFFFFFFFFFFFFFFFFFFFFFFF AND SUB PUSH2 0xF57 JUMPI PUSH0 PUSH1 0x40 MLOAD PUSH32 0x96C6FD1E00000000000000000000000000000000000000000000000000000000 DUP2 MSTORE PUSH1 0x4 ADD PUSH2 0xF4E SWAP2 SWAP1 PUSH2 0x1DA6 JUMP JUMPDEST PUSH1 0x40 MLOAD DUP1 SWAP2 SUB SWAP1 REVERT JUMPDEST PUSH0 PUSH20 0xFFFFFFFFFFFFFFFFFFFFFFFFFFFFFFFFFFFFFFFF AND DUP3 PUSH20 0xFFFFFFFFFFFFFFFFFFFFFFFFFFFFFFFFFFFFFFFF AND SUB PUSH2 0xFC7 JUMPI PUSH0 PUSH1 0x40 MLOAD PUSH32 0xEC442F0500000000000000000000000000000000000000000000000000000000 DUP2 MSTORE PUSH1 0x4 ADD PUSH2 0xFBE SWAP2 SWAP1 PUSH2 0x1DA6 JUMP JUMPDEST PUSH1 0x40 MLOAD DUP1 SWAP2 SUB SWAP1 REVERT JUMPDEST PUSH2 0xFD2 DUP4 DUP4 DUP4 PUSH2 0x1434 JUMP JUMPDEST POP POP POP JUMP JUMPDEST PUSH2 0xFDF PUSH2 0xE3B JUMP JUMPDEST PUSH20 0xFFFFFFFFFFFFFFFFFFFFFFFFFFFFFFFFFFFFFFFF AND PUSH2 0xFFD PUSH2 0x9FD JUMP JUMPDEST PUSH20 0xFFFFFFFFFFFFFFFFFFFFFFFFFFFFFFFFFFFFFFFF AND EQ PUSH2 0x105C JUMPI PUSH2 0x1020 PUSH2 0xE3B JUMP JUMPDEST PUSH1 0x40 MLOAD PUSH32 0x118CDAA700000000000000000000000000000000000000000000000000000000 DUP2 MSTORE PUSH1 0x4 ADD PUSH2 0x1053 SWAP2 SWAP1 PUSH2 0x1DA6 JUMP JUMPDEST PUSH1 0x40 MLOAD DUP1 SWAP2 SUB SWAP1 REVERT JUMPDEST JUMP JUMPDEST PUSH2 0x1066 PUSH2 0x18E1 JUMP JUMPDEST PUSH0 PUSH1 0x5 PUSH1 0x14 PUSH2 0x100 EXP DUP2 SLOAD DUP2 PUSH1 0xFF MUL NOT AND SWAP1 DUP4 ISZERO ISZERO MUL OR SWAP1 SSTORE POP PUSH32 0x5DB9EE0A495BF2E6FF9C91A7834C1BA4FDD244A5E8AA4E537BD38AEAE4B073AA PUSH2 0x10A9 PUSH2 0xE3B JUMP JUMPDEST PUSH1 0x40 MLOAD PUSH2 0x10B6 SWAP2 SWAP1 PUSH2 0x1DA6 JUMP JUMPDEST PUSH1 0x40 MLOAD DUP1 SWAP2 SUB SWAP1 LOG1 JUMP JUMPDEST PUSH0 PUSH20 0xFFFFFFFFFFFFFFFFFFFFFFFFFFFFFFFFFFFFFFFF AND DUP3 PUSH20 0xFFFFFFFFFFFFFFFFFFFFFFFFFFFFFFFFFFFFFFFF AND SUB PUSH2 0x1130 JUMPI PUSH0 PUSH1 0x40 MLOAD PUSH32 0x96C6FD1E00000000000000000000000000000000000000000000000000000000 DUP2 MSTORE PUSH1 0x4 ADD PUSH2 0x1127 SWAP2 SWAP1 PUSH2 0x1DA6 JUMP JUMPDEST PUSH1 0x40 MLOAD DUP1 SWAP2 SUB SWAP1 REVERT JUMPDEST PUSH2 0x113B DUP3 PUSH0 DUP4 PUSH2 0x1434 JUMP JUMPDEST POP POP JUMP JUMPDEST PUSH0 PUSH1 0x5 PUSH0 SWAP1 SLOAD SWAP1 PUSH2 0x100 EXP SWAP1 DIV PUSH20 0xFFFFFFFFFFFFFFFFFFFFFFFFFFFFFFFFFFFFFFFF AND SWAP1 POP DUP2 PUSH1 0x5 PUSH0 PUSH2 0x100 EXP DUP2 SLOAD DUP2 PUSH20 0xFFFFFFFFFFFFFFFFFFFFFFFFFFFFFFFFFFFFFFFF MUL NOT AND SWAP1 DUP4 PUSH20 0xFFFFFFFFFFFFFFFFFFFFFFFFFFFFFFFFFFFFFFFF AND MUL OR SWAP1 SSTORE POP DUP2 PUSH20 0xFFFFFFFFFFFFFFFFFFFFFFFFFFFFFFFFFFFFFFFF AND DUP2 PUSH20 0xFFFFFFFFFFFFFFFFFFFFFFFFFFFFFFFFFFFFFFFF AND PUSH32 0x8BE0079C531659141344CD1FD0A4F28419497F9722A3DAAFE3B4186F6B6457E0 PUSH1 0x40 MLOAD PUSH1 0x40 MLOAD DUP1 SWAP2 SUB SWAP1 LOG3 POP POP JUMP JUMPDEST PUSH2 0x120A PUSH2 0x192A JUMP JUMPDEST PUSH1 0x1 PUSH1 0x5 PUSH1 0x14 PUSH2 0x100 EXP DUP2 SLOAD DUP2 PUSH1 0xFF MUL NOT AND SWAP1 DUP4 ISZERO ISZERO MUL OR SWAP1 SSTORE POP PUSH32 0x62E78CEA01BEE320CD4E420270B5EA74000D11B0C9F74754EBDBFC544B05A258 PUSH2 0x124E PUSH2 0xE3B JUMP JUMPDEST PUSH1 0x40 MLOAD PUSH2 0x125B SWAP2 SWAP1 PUSH2 0x1DA6 JUMP JUMPDEST PUSH1 0x40 MLOAD DUP1 SWAP2 SUB SWAP1 LOG1 JUMP JUMPDEST PUSH0 PUSH20 0xFFFFFFFFFFFFFFFFFFFFFFFFFFFFFFFFFFFFFFFF AND DUP5 PUSH20 0xFFFFFFFFFFFFFFFFFFFFFFFFFFFFFFFFFFFFFFFF AND SUB PUSH2 0x12D5 JUMPI PUSH0 PUSH1 0x40 MLOAD PUSH32 0xE602DF0500000000000000000000000000000000000000000000000000000000 DUP2 MSTORE PUSH1 0x4 ADD PUSH2 0x12CC SWAP2 SWAP1 PUSH2 0x1DA6 JUMP JUMPDEST PUSH1 0x40 MLOAD DUP1 SWAP2 SUB SWAP1 REVERT JUMPDEST PUSH0 PUSH20 0xFFFFFFFFFFFFFFFFFFFFFFFFFFFFFFFFFFFFFFFF AND DUP4 PUSH20 0xFFFFFFFFFFFFFFFFFFFFFFFFFFFFFFFFFFFFFFFF AND SUB PUSH2 0x1345 JUMPI PUSH0 PUSH1 0x40 MLOAD PUSH32 0x94280D6200000000000000000000000000000000000000000000000000000000 DUP2 MSTORE PUSH1 0x4 ADD PUSH2 0x133C SWAP2 SWAP1 PUSH2 0x1DA6 JUMP JUMPDEST PUSH1 0x40 MLOAD DUP1 SWAP2 SUB SWAP1 REVERT JUMPDEST DUP2 PUSH1 0x1 PUSH0 DUP7 PUSH20 0xFFFFFFFFFFFFFFFFFFFFFFFFFFFFFFFFFFFFFFFF AND PUSH20 0xFFFFFFFFFFFFFFFFFFFFFFFFFFFFFFFFFFFFFFFF AND DUP2 MSTORE PUSH1 0x20 ADD SWAP1 DUP2 MSTORE PUSH1 0x20 ADD PUSH0 KECCAK256 PUSH0 DUP6 PUSH20 0xFFFFFFFFFFFFFFFFFFFFFFFFFFFFFFFFFFFFFFFF AND PUSH20 0xFFFFFFFFFFFFFFFFFFFFFFFFFFFFFFFFFFFFFFFF AND DUP2 MSTORE PUSH1 0x20 ADD SWAP1 DUP2 MSTORE PUSH1 0x20 ADD PUSH0 KECCAK256 DUP2 SWAP1 SSTORE POP DUP1 ISZERO PUSH2 0x142E JUMPI DUP3 PUSH20 0xFFFFFFFFFFFFFFFFFFFFFFFFFFFFFFFFFFFFFFFF AND DUP5 PUSH20 0xFFFFFFFFFFFFFFFFFFFFFFFFFFFFFFFFFFFFFFFF AND PUSH32 0x8C5BE1E5EBEC7D5BD14F71427D1E84F3DD0314C0F7B2291E5B200AC8C7C3B925 DUP5 PUSH1 0x40 MLOAD PUSH2 0x1425 SWAP2 SWAP1 PUSH2 0x1D2E JUMP JUMPDEST PUSH1 0x40 MLOAD DUP1 SWAP2 SUB SWAP1 LOG3 JUMPDEST POP POP POP POP JUMP JUMPDEST PUSH2 0x143C PUSH2 0x192A JUMP JUMPDEST PUSH0 PUSH20 0xFFFFFFFFFFFFFFFFFFFFFFFFFFFFFFFFFFFFFFFF AND DUP4 PUSH20 0xFFFFFFFFFFFFFFFFFFFFFFFFFFFFFFFFFFFFFFFF AND EQ DUP1 PUSH2 0x14A1 JUMPI POP PUSH0 PUSH20 0xFFFFFFFFFFFFFFFFFFFFFFFFFFFFFFFFFFFFFFFF AND DUP3 PUSH20 0xFFFFFFFFFFFFFFFFFFFFFFFFFFFFFFFFFFFFFFFF AND EQ JUMPDEST DUP1 PUSH2 0x14D7 JUMPI POP ADDRESS PUSH20 0xFFFFFFFFFFFFFFFFFFFFFFFFFFFFFFFFFFFFFFFF AND DUP4 PUSH20 0xFFFFFFFFFFFFFFFFFFFFFFFFFFFFFFFFFFFFFFFF AND EQ JUMPDEST ISZERO PUSH2 0x14EC JUMPI PUSH2 0x14E7 DUP4 DUP4 DUP4 PUSH2 0x1974 JUMP JUMPDEST PUSH2 0x18DC JUMP JUMPDEST ADDRESS PUSH20 0xFFFFFFFFFFFFFFFFFFFFFFFFFFFFFFFFFFFFFFFF AND DUP3 PUSH20 0xFFFFFFFFFFFFFFFFFFFFFFFFFFFFFFFFFFFFFFFF AND SUB PUSH2 0x155A JUMPI PUSH1 0x40 MLOAD PUSH32 0x8C379A000000000000000000000000000000000000000000000000000000000 DUP2 MSTORE PUSH1 0x4 ADD PUSH2 0x1551 SWAP1 PUSH2 0x20DE JUMP JUMPDEST PUSH1 0x40 MLOAD DUP1 SWAP2 SUB SWAP1 REVERT JUMPDEST PUSH1 0x5 PUSH1 0x15 SWAP1 SLOAD SWAP1 PUSH2 0x100 EXP SWAP1 DIV PUSH1 0xFF AND ISZERO DUP1 ISZERO PUSH2 0x15A3 JUMPI POP PUSH0 PUSH20 0xFFFFFFFFFFFFFFFFFFFFFFFFFFFFFFFFFFFFFFFF AND DUP4 PUSH20 0xFFFFFFFFFFFFFFFFFFFFFFFFFFFFFFFFFFFFFFFF AND EQ ISZERO JUMPDEST DUP1 ISZERO PUSH2 0x15DB JUMPI POP PUSH0 PUSH20 0xFFFFFFFFFFFFFFFFFFFFFFFFFFFFFFFFFFFFFFFF AND DUP3 PUSH20 0xFFFFFFFFFFFFFFFFFFFFFFFFFFFFFFFFFFFFFFFF AND EQ ISZERO JUMPDEST ISZERO PUSH2 0x16BB JUMPI PUSH1 0x9 PUSH0 DUP5 PUSH20 0xFFFFFFFFFFFFFFFFFFFFFFFFFFFFFFFFFFFFFFFF AND PUSH20 0xFFFFFFFFFFFFFFFFFFFFFFFFFFFFFFFFFFFFFFFF AND DUP2 MSTORE PUSH1 0x20 ADD SWAP1 DUP2 MSTORE PUSH1 0x20 ADD PUSH0 KECCAK256 PUSH0 SWAP1 SLOAD SWAP1 PUSH2 0x100 EXP SWAP1 DIV PUSH1 0xFF AND DUP1 PUSH2 0x167B JUMPI POP PUSH1 0x9 PUSH0 DUP4 PUSH20 0xFFFFFFFFFFFFFFFFFFFFFFFFFFFFFFFFFFFFFFFF AND PUSH20 0xFFFFFFFFFFFFFFFFFFFFFFFFFFFFFFFFFFFFFFFF AND DUP2 MSTORE PUSH1 0x20 ADD SWAP1 DUP2 MSTORE PUSH1 0x20 ADD PUSH0 KECCAK256 PUSH0 SWAP1 SLOAD SWAP1 PUSH2 0x100 EXP SWAP1 DIV PUSH1 0xFF AND JUMPDEST PUSH2 0x16BA JUMPI PUSH1 0x40 MLOAD PUSH32 0x8C379A000000000000000000000000000000000000000000000000000000000 DUP2 MSTORE PUSH1 0x4 ADD PUSH2 0x16B1 SWAP1 PUSH2 0x2146 JUMP JUMPDEST PUSH1 0x40 MLOAD DUP1 SWAP2 SUB SWAP1 REVERT JUMPDEST JUMPDEST PUSH1 0x8 PUSH0 SWAP1 SLOAD SWAP1 PUSH2 0x100 EXP SWAP1 DIV PUSH1 0xFF AND DUP1 ISZERO PUSH2 0x1702 JUMPI POP PUSH0 PUSH20 0xFFFFFFFFFFFFFFFFFFFFFFFFFFFFFFFFFFFFFFFF AND DUP4 PUSH20 0xFFFFFFFFFFFFFFFFFFFFFFFFFFFFFFFFFFFFFFFF AND EQ ISZERO JUMPDEST DUP1 ISZERO PUSH2 0x173A JUMPI POP PUSH0 PUSH20 0xFFFFFFFFFFFFFFFFFFFFFFFFFFFFFFFFFFFFFFFF AND DUP3 PUSH20 0xFFFFFFFFFFFFFFFFFFFFFFFFFFFFFFFFFFFFFFFF AND EQ ISZERO JUMPDEST ISZERO PUSH2 0x18D0 JUMPI PUSH1 0x9 PUSH0 DUP5 PUSH20 0xFFFFFFFFFFFFFFFFFFFFFFFFFFFFFFFFFFFFFFFF AND PUSH20 0xFFFFFFFFFFFFFFFFFFFFFFFFFFFFFFFFFFFFFFFF AND DUP2 MSTORE PUSH1 0x20 ADD SWAP1 DUP2 MSTORE PUSH1 0x20 ADD PUSH0 KECCAK256 PUSH0 SWAP1 SLOAD SWAP1 PUSH2 0x100 EXP SWAP1 DIV PUSH1 0xFF AND ISZERO DUP1 ISZERO PUSH2 0x17DD JUMPI POP PUSH1 0x9 PUSH0 DUP4 PUSH20 0xFFFFFFFFFFFFFFFFFFFFFFFFFFFFFFFFFFFFFFFF AND PUSH20 0xFFFFFFFFFFFFFFFFFFFFFFFFFFFFFFFFFFFFFFFF AND DUP2 MSTORE PUSH1 0x20 ADD SWAP1 DUP2 MSTORE PUSH1 0x20 ADD PUSH0 KECCAK256 PUSH0 SWAP1 SLOAD SWAP1 PUSH2 0x100 EXP SWAP1 DIV PUSH1 0xFF AND ISZERO JUMPDEST ISZERO PUSH2 0x18CF JUMPI PUSH1 0x6 SLOAD DUP2 GT ISZERO PUSH2 0x1827 JUMPI PUSH1 0x40 MLOAD PUSH32 0x8C379A000000000000000000000000000000000000000000000000000000000 DUP2 MSTORE PUSH1 0x4 ADD PUSH2 0x181E SWAP1 PUSH2 0x21AE JUMP JUMPDEST PUSH1 0x40 MLOAD DUP1 SWAP2 SUB SWAP1 REVERT JUMPDEST PUSH1 0xA PUSH0 DUP4 PUSH20 0xFFFFFFFFFFFFFFFFFFFFFFFFFFFFFFFFFFFFFFFF AND PUSH20 0xFFFFFFFFFFFFFFFFFFFFFFFFFFFFFFFFFFFFFFFF AND DUP2 MSTORE PUSH1 0x20 ADD SWAP1 DUP2 MSTORE PUSH1 0x20 ADD PUSH0 KECCAK256 PUSH0 SWAP1 SLOAD SWAP1 PUSH2 0x100 EXP SWAP1 DIV PUSH1 0xFF AND PUSH2 0x18CE JUMPI PUSH1 0x7 SLOAD DUP2 PUSH2 0x1882 DUP5 PUSH2 0x904 JUMP JUMPDEST PUSH2 0x188C SWAP2 SWAP1 PUSH2 0x21F9 JUMP JUMPDEST GT ISZERO PUSH2 0x18CD JUMPI PUSH1 0x40 MLOAD PUSH32 0x8C379A000000000000000000000000000000000000000000000000000000000 DUP2 MSTORE PUSH1 0x4 ADD PUSH2 0x18C4 SWAP1 PUSH2 0x2276 JUMP JUMPDEST PUSH1 0x40 MLOAD DUP1 SWAP2 SUB SWAP1 REVERT JUMPDEST JUMPDEST JUMPDEST JUMPDEST PUSH2 0x18DB DUP4 DUP4 DUP4 PUSH2 0x1974 JUMP JUMPDEST JUMPDEST POP POP POP JUMP JUMPDEST PUSH2 0x18E9 PUSH2 0x8D6 JUMP JUMPDEST PUSH2 0x1928 JUMPI PUSH1 0x40 MLOAD PUSH32 0x8C379A000000000000000000000000000000000000000000000000000000000 DUP2 MSTORE PUSH1 0x4 ADD PUSH2 0x191F SWAP1 PUSH2 0x22DE JUMP JUMPDEST PUSH1 0x40 MLOAD DUP1 SWAP2 SUB SWAP1 REVERT JUMPDEST JUMP JUMPDEST PUSH2 0x1932 PUSH2 0x8D6 JUMP JUMPDEST ISZERO PUSH2 0x1972 JUMPI PUSH1 0x40 MLOAD PUSH32 0x8C379A000000000000000000000000000000000000000000000000000000000 DUP2 MSTORE PUSH1 0x4 ADD PUSH2 0x1969 SWAP1 PUSH2 0x2346 JUMP JUMPDEST PUSH1 0x40 MLOAD DUP1 SWAP2 SUB SWAP1 REVERT JUMPDEST JUMP JUMPDEST PUSH0 PUSH20 0xFFFFFFFFFFFFFFFFFFFFFFFFFFFFFFFFFFFFFFFF AND DUP4 PUSH20 0xFFFFFFFFFFFFFFFFFFFFFFFFFFFFFFFFFFFFFFFF AND SUB PUSH2 0x19C4 JUMPI DUP1 PUSH1 0x2 PUSH0 DUP3 DUP3 SLOAD PUSH2 0x19B8 SWAP2 SWAP1 PUSH2 0x21F9 JUMP JUMPDEST SWAP3 POP POP DUP2 SWAP1 SSTORE POP PUSH2 0x1A92 JUMP JUMPDEST PUSH0 PUSH0 PUSH0 DUP6 PUSH20 0xFFFFFFFFFFFFFFFFFFFFFFFFFFFFFFFFFFFFFFFF AND PUSH20 0xFFFFFFFFFFFFFFFFFFFFFFFFFFFFFFFFFFFFFFFF AND DUP2 MSTORE PUSH1 0x20 ADD SWAP1 DUP2 MSTORE PUSH1 0x20 ADD PUSH0 KECCAK256 SLOAD SWAP1 POP DUP2 DUP2 LT ISZERO PUSH2 0x1A4D JUMPI DUP4 DUP2 DUP4 PUSH1 0x40 MLOAD PUSH32 0xE450D38C00000000000000000000000000000000000000000000000000000000 DUP2 MSTORE PUSH1 0x4 ADD PUSH2 0x1A44 SWAP4 SWAP3 SWAP2 SWAP1 PUSH2 0x2039 JUMP JUMPDEST PUSH1 0x40 MLOAD DUP1 SWAP2 SUB SWAP1 REVERT JUMPDEST DUP2 DUP2 SUB PUSH0 PUSH0 DUP7 PUSH20 0xFFFFFFFFFFFFFFFFFFFFFFFFFFFFFFFFFFFFFFFF AND PUSH20 0xFFFFFFFFFFFFFFFFFFFFFFFFFFFFFFFFFFFFFFFF AND DUP2 MSTORE PUSH1 0x20 ADD SWAP1 DUP2 MSTORE PUSH1 0x20 ADD PUSH0 KECCAK256 DUP2 SWAP1 SSTORE POP POP JUMPDEST PUSH0 PUSH20 0xFFFFFFFFFFFFFFFFFFFFFFFFFFFFFFFFFFFFFFFF AND DUP3 PUSH20 0xFFFFFFFFFFFFFFFFFFFFFFFFFFFFFFFFFFFFFFFF AND SUB PUSH2 0x1AD9 JUMPI DUP1 PUSH1 0x2 PUSH0 DUP3 DUP3 SLOAD SUB SWAP3 POP POP DUP2 SWAP1 SSTORE POP PUSH2 0x1B23 JUMP JUMPDEST DUP1 PUSH0 PUSH0 DUP5 PUSH20 0xFFFFFFFFFFFFFFFFFFFFFFFFFFFFFFFFFFFFFFFF AND PUSH20 0xFFFFFFFFFFFFFFFFFFFFFFFFFFFFFFFFFFFFFFFF AND DUP2 MSTORE PUSH1 0x20 ADD SWAP1 DUP2 MSTORE PUSH1 0x20 ADD PUSH0 KECCAK256 PUSH0 DUP3 DUP3 SLOAD ADD SWAP3 POP POP DUP2 SWAP1 SSTORE POP JUMPDEST DUP2 PUSH20 0xFFFFFFFFFFFFFFFFFFFFFFFFFFFFFFFFFFFFFFFF AND DUP4 PUSH20 0xFFFFFFFFFFFFFFFFFFFFFFFFFFFFFFFFFFFFFFFF AND PUSH32 0xDDF252AD1BE2C89B69C2B068FC378DAA952BA7F163C4A11628F55A4DF523B3EF DUP4 PUSH1 0x40 MLOAD PUSH2 0x1B80 SWAP2 SWAP1 PUSH2 0x1D2E JUMP JUMPDEST PUSH1 0x40 MLOAD DUP1 SWAP2 SUB SWAP1 LOG3 POP POP POP JUMP JUMPDEST PUSH0 DUP2 MLOAD SWAP1 POP SWAP2 SWAP1 POP JUMP JUMPDEST PUSH0 DUP3 DUP3 MSTORE PUSH1 0x20 DUP3 ADD SWAP1 POP SWAP3 SWAP2 POP POP JUMP JUMPDEST DUP3 DUP2 DUP4 MCOPY PUSH0 DUP4 DUP4 ADD MSTORE POP POP POP JUMP JUMPDEST PUSH0 PUSH1 0x1F NOT PUSH1 0x1F DUP4 ADD AND SWAP1 POP SWAP2 SWAP1 POP JUMP JUMPDEST PUSH0 PUSH2 0x1BCF DUP3 PUSH2 0x1B8D JUMP JUMPDEST PUSH2 0x1BD9 DUP2 DUP6 PUSH2 0x1B97 JUMP JUMPDEST SWAP4 POP PUSH2 0x1BE9 DUP2 DUP6 PUSH1 0x20 DUP7 ADD PUSH2 0x1BA7 JUMP JUMPDEST PUSH2 0x1BF2 DUP2 PUSH2 0x1BB5 JUMP JUMPDEST DUP5 ADD SWAP2 POP POP SWAP3 SWAP2 POP POP JUMP JUMPDEST PUSH0 PUSH1 0x20 DUP3 ADD SWAP1 POP DUP2 DUP2 SUB PUSH0 DUP4 ADD MSTORE PUSH2 0x1C15 DUP2 DUP5 PUSH2 0x1BC5 JUMP JUMPDEST SWAP1 POP SWAP3 SWAP2 POP POP JUMP JUMPDEST PUSH0 PUSH0 REVERT JUMPDEST PUSH0 PUSH20 0xFFFFFFFFFFFFFFFFFFFFFFFFFFFFFFFFFFFFFFFF DUP3 AND SWAP1 POP SWAP2 SWAP1 POP JUMP JUMPDEST PUSH0 PUSH2 0x1C4A DUP3 PUSH2 0x1C21 JUMP JUMPDEST SWAP1 POP SWAP2 SWAP1 POP JUMP JUMPDEST PUSH2 0x1C5A DUP2 PUSH2 0x1C40 JUMP JUMPDEST DUP2 EQ PUSH2 0x1C64 JUMPI PUSH0 PUSH0 REVERT JUMPDEST POP JUMP JUMPDEST PUSH0 DUP2 CALLDATALOAD SWAP1 POP PUSH2 0x1C75 DUP2 PUSH2 0x1C51 JUMP JUMPDEST SWAP3 SWAP2 POP POP JUMP JUMPDEST PUSH0 DUP2 SWAP1 POP SWAP2 SWAP1 POP JUMP JUMPDEST PUSH2 0x1C8D DUP2 PUSH2 0x1C7B JUMP JUMPDEST DUP2 EQ PUSH2 0x1C97 JUMPI PUSH0 PUSH0 REVERT JUMPDEST POP JUMP JUMPDEST PUSH0 DUP2 CALLDATALOAD SWAP1 POP PUSH2 0x1CA8 DUP2 PUSH2 0x1C84 JUMP JUMPDEST SWAP3 SWAP2 POP POP JUMP JUMPDEST PUSH0 PUSH0 PUSH1 0x40 DUP4 DUP6 SUB SLT ISZERO PUSH2 0x1CC4 JUMPI PUSH2 0x1CC3 PUSH2 0x1C1D JUMP JUMPDEST JUMPDEST PUSH0 PUSH2 0x1CD1 DUP6 DUP3 DUP7 ADD PUSH2 0x1C67 JUMP JUMPDEST SWAP3 POP POP PUSH1 0x20 PUSH2 0x1CE2 DUP6 DUP3 DUP7 ADD PUSH2 0x1C9A JUMP JUMPDEST SWAP2 POP POP SWAP3 POP SWAP3 SWAP1 POP JUMP JUMPDEST PUSH0 DUP2 ISZERO ISZERO SWAP1 POP SWAP2 SWAP1 POP JUMP JUMPDEST PUSH2 0x1D00 DUP2 PUSH2 0x1CEC JUMP JUMPDEST DUP3 MSTORE POP POP JUMP JUMPDEST PUSH0 PUSH1 0x20 DUP3 ADD SWAP1 POP PUSH2 0x1D19 PUSH0 DUP4 ADD DUP5 PUSH2 0x1CF7 JUMP JUMPDEST SWAP3 SWAP2 POP POP JUMP JUMPDEST PUSH2 0x1D28 DUP2 PUSH2 0x1C7B JUMP JUMPDEST DUP3 MSTORE POP POP JUMP JUMPDEST PUSH0 PUSH1 0x20 DUP3 ADD SWAP1 POP PUSH2 0x1D41 PUSH0 DUP4 ADD DUP5 PUSH2 0x1D1F JUMP JUMPDEST SWAP3 SWAP2 POP POP JUMP JUMPDEST PUSH0 PUSH0 PUSH0 PUSH1 0x60 DUP5 DUP7 SUB SLT ISZERO PUSH2 0x1D5E JUMPI PUSH2 0x1D5D PUSH2 0x1C1D JUMP JUMPDEST JUMPDEST PUSH0 PUSH2 0x1D6B DUP7 DUP3 DUP8 ADD PUSH2 0x1C67 JUMP JUMPDEST SWAP4 POP POP PUSH1 0x20 PUSH2 0x1D7C DUP7 DUP3 DUP8 ADD PUSH2 0x1C67 JUMP JUMPDEST SWAP3 POP POP PUSH1 0x40 PUSH2 0x1D8D DUP7 DUP3 DUP8 ADD PUSH2 0x1C9A JUMP JUMPDEST SWAP2 POP POP SWAP3 POP SWAP3 POP SWAP3 JUMP JUMPDEST PUSH2 0x1DA0 DUP2 PUSH2 0x1C40 JUMP JUMPDEST DUP3 MSTORE POP POP JUMP JUMPDEST PUSH0 PUSH1 0x20 DUP3 ADD SWAP1 POP PUSH2 0x1DB9 PUSH0 DUP4 ADD DUP5 PUSH2 0x1D97 JUMP JUMPDEST SWAP3 SWAP2 POP POP JUMP JUMPDEST PUSH0 PUSH1 0xFF DUP3 AND SWAP1 POP SWAP2 SWAP1 POP JUMP JUMPDEST PUSH2 0x1DD4 DUP2 PUSH2 0x1DBF JUMP JUMPDEST DUP3 MSTORE POP POP JUMP JUMPDEST PUSH0 PUSH1 0x20 DUP3 ADD SWAP1 POP PUSH2 0x1DED PUSH0 DUP4 ADD DUP5 PUSH2 0x1DCB JUMP JUMPDEST SWAP3 SWAP2 POP POP JUMP JUMPDEST PUSH0 PUSH1 0x20 DUP3 DUP5 SUB SLT ISZERO PUSH2 0x1E08 JUMPI PUSH2 0x1E07 PUSH2 0x1C1D JUMP JUMPDEST JUMPDEST PUSH0 PUSH2 0x1E15 DUP5 DUP3 DUP6 ADD PUSH2 0x1C67 JUMP JUMPDEST SWAP2 POP POP SWAP3 SWAP2 POP POP JUMP JUMPDEST PUSH2 0x1E27 DUP2 PUSH2 0x1CEC JUMP JUMPDEST DUP2 EQ PUSH2 0x1E31 JUMPI PUSH0 PUSH0 REVERT JUMPDEST POP JUMP JUMPDEST PUSH0 DUP2 CALLDATALOAD SWAP1 POP PUSH2 0x1E42 DUP2 PUSH2 0x1E1E JUMP JUMPDEST SWAP3 SWAP2 POP POP JUMP JUMPDEST PUSH0 PUSH0 PUSH1 0x40 DUP4 DUP6 SUB SLT ISZERO PUSH2 0x1E5E JUMPI PUSH2 0x1E5D PUSH2 0x1C1D JUMP JUMPDEST JUMPDEST PUSH0 PUSH2 0x1E6B DUP6 DUP3 DUP7 ADD PUSH2 0x1C67 JUMP JUMPDEST SWAP3 POP POP PUSH1 0x20 PUSH2 0x1E7C DUP6 DUP3 DUP7 ADD PUSH2 0x1E34 JUMP JUMPDEST SWAP2 POP POP SWAP3 POP SWAP3 SWAP1 POP JUMP JUMPDEST PUSH0 PUSH1 0x20 DUP3 DUP5 SUB SLT ISZERO PUSH2 0x1E9B JUMPI PUSH2 0x1E9A PUSH2 0x1C1D JUMP JUMPDEST JUMPDEST PUSH0 PUSH2 0x1EA8 DUP5 DUP3 DUP6 ADD PUSH2 0x1C9A JUMP JUMPDEST SWAP2 POP POP SWAP3 SWAP2 POP POP JUMP JUMPDEST PUSH0 PUSH0 PUSH1 0x40 DUP4 DUP6 SUB SLT ISZERO PUSH2 0x1EC7 JUMPI PUSH2 0x1EC6 PUSH2 0x1C1D JUMP JUMPDEST JUMPDEST PUSH0 PUSH2 0x1ED4 DUP6 DUP3 DUP7 ADD PUSH2 0x1C67 JUMP JUMPDEST SWAP3 POP POP PUSH1 0x20 PUSH2 0x1EE5 DUP6 DUP3 DUP7 ADD PUSH2 0x1C67 JUMP JUMPDEST SWAP2 POP POP SWAP3 POP SWAP3 SWAP1 POP JUMP JUMPDEST PUSH0 PUSH0 PUSH0 PUSH1 0x60 DUP5 DUP7 SUB SLT ISZERO PUSH2 0x1F06 JUMPI PUSH2 0x1F05 PUSH2 0x1C1D JUMP JUMPDEST JUMPDEST PUSH0 PUSH2 0x1F13 DUP7 DUP3 DUP8 ADD PUSH2 0x1C9A JUMP JUMPDEST SWAP4 POP POP PUSH1 0x20 PUSH2 0x1F24 DUP7 DUP3 DUP8 ADD PUSH2 0x1C9A JUMP JUMPDEST SWAP3 POP POP PUSH1 0x40 PUSH2 0x1F35 DUP7 DUP3 DUP8 ADD PUSH2 0x1E34 JUMP JUMPDEST SWAP2 POP POP SWAP3 POP SWAP3 POP SWAP3 JUMP JUMPDEST PUSH32 0x4E487B7100000000000000000000000000000000000000000000000000000000 PUSH0 MSTORE PUSH1 0x22 PUSH1 0x4 MSTORE PUSH1 0x24 PUSH0 REVERT JUMPDEST PUSH0 PUSH1 0x2 DUP3 DIV SWAP1 POP PUSH1 0x1 DUP3 AND DUP1 PUSH2 0x1F83 JUMPI PUSH1 0x7F DUP3 AND SWAP2 POP JUMPDEST PUSH1 0x20 DUP3 LT DUP2 SUB PUSH2 0x1F96 JUMPI PUSH2 0x1F95 PUSH2 0x1F3F JUMP JUMPDEST JUMPDEST POP SWAP2 SWAP1 POP JUMP JUMPDEST PUSH32 0x5A65726F20616464726573730000000000000000000000000000000000000000 PUSH0 DUP3 ADD MSTORE POP JUMP JUMPDEST PUSH0 PUSH2 0x1FD0 PUSH1 0xC DUP4 PUSH2 0x1B97 JUMP JUMPDEST SWAP2 POP PUSH2 0x1FDB DUP3 PUSH2 0x1F9C JUMP JUMPDEST PUSH1 0x20 DUP3 ADD SWAP1 POP SWAP2 SWAP1 POP JUMP JUMPDEST PUSH0 PUSH1 0x20 DUP3 ADD SWAP1 POP DUP2 DUP2 SUB PUSH0 DUP4 ADD MSTORE PUSH2 0x1FFD DUP2 PUSH2 0x1FC4 JUMP JUMPDEST SWAP1 POP SWAP2 SWAP1 POP JUMP JUMPDEST PUSH0 PUSH1 0x60 DUP3 ADD SWAP1 POP PUSH2 0x2017 PUSH0 DUP4 ADD DUP7 PUSH2 0x1D1F JUMP JUMPDEST PUSH2 0x2024 PUSH1 0x20 DUP4 ADD DUP6 PUSH2 0x1D1F JUMP JUMPDEST PUSH2 0x2031 PUSH1 0x40 DUP4 ADD DUP5 PUSH2 0x1CF7 JUMP JUMPDEST SWAP5 SWAP4 POP POP POP POP JUMP JUMPDEST PUSH0 PUSH1 0x60 DUP3 ADD SWAP1 POP PUSH2 0x204C PUSH0 DUP4 ADD DUP7 PUSH2 0x1D97 JUMP JUMPDEST PUSH2 0x2059 PUSH1 0x20 DUP4 ADD DUP6 PUSH2 0x1D1F JUMP JUMPDEST PUSH2 0x2066 PUSH1 0x40 DUP4 ADD DUP5 PUSH2 0x1D1F JUMP JUMPDEST SWAP5 SWAP4 POP POP POP POP JUMP JUMPDEST PUSH32 0x43616E6E6F742073656E6420746F6B656E7320746F20746F6B656E20636F6E74 PUSH0 DUP3 ADD MSTORE PUSH32 0x72616374206469726563746C7900000000000000000000000000000000000000 PUSH1 0x20 DUP3 ADD MSTORE POP JUMP JUMPDEST PUSH0 PUSH2 0x20C8 PUSH1 0x2D DUP4 PUSH2 0x1B97 JUMP JUMPDEST SWAP2 POP PUSH2 0x20D3 DUP3 PUSH2 0x206E JUMP JUMPDEST PUSH1 0x40 DUP3 ADD SWAP1 POP SWAP2 SWAP1 POP JUMP JUMPDEST PUSH0 PUSH1 0x20 DUP3 ADD SWAP1 POP DUP2 DUP2 SUB PUSH0 DUP4 ADD MSTORE PUSH2 0x20F5 DUP2 PUSH2 0x20BC JUMP JUMPDEST SWAP1 POP SWAP2 SWAP1 POP JUMP JUMPDEST PUSH32 0x54726164696E67206E6F742079657420656E61626C6564000000000000000000 PUSH0 DUP3 ADD MSTORE POP JUMP JUMPDEST PUSH0 PUSH2 0x2130 PUSH1 0x17 DUP4 PUSH2 0x1B97 JUMP JUMPDEST SWAP2 POP PUSH2 0x213B DUP3 PUSH2 0x20FC JUMP JUMPDEST PUSH1 0x20 DUP3 ADD SWAP1 POP SWAP2 SWAP1 POP JUMP JUMPDEST PUSH0 PUSH1 0x20 DUP3 ADD SWAP1 POP DUP2 DUP2 SUB PUSH0 DUP4 ADD MSTORE PUSH2 0x215D DUP2 PUSH2 0x2124 JUMP JUMPDEST SWAP1 POP SWAP2 SWAP1 POP JUMP JUMPDEST PUSH32 0x45786365656473206D6178547800000000000000000000000000000000000000 PUSH0 DUP3 ADD MSTORE POP JUMP JUMPDEST PUSH0 PUSH2 0x2198 PUSH1 0xD DUP4 PUSH2 0x1B97 JUMP JUMPDEST SWAP2 POP PUSH2 0x21A3 DUP3 PUSH2 0x2164 JUMP JUMPDEST PUSH1 0x20 DUP3 ADD SWAP1 POP SWAP2 SWAP1 POP JUMP JUMPDEST PUSH0 PUSH1 0x20 DUP3 ADD SWAP1 POP DUP2 DUP2 SUB PUSH0 DUP4 ADD MSTORE PUSH2 0x21C5 DUP2 PUSH2 0x218C JUMP JUMPDEST SWAP1 POP SWAP2 SWAP1 POP JUMP JUMPDEST PUSH32 0x4E487B7100000000000000000000000000000000000000000000000000000000 PUSH0 MSTORE PUSH1 0x11 PUSH1 0x4 MSTORE PUSH1 0x24 PUSH0 REVERT JUMPDEST PUSH0 PUSH2 0x2203 DUP3 PUSH2 0x1C7B JUMP JUMPDEST SWAP2 POP PUSH2 0x220E DUP4 PUSH2 0x1C7B JUMP JUMPDEST SWAP3 POP DUP3 DUP3 ADD SWAP1 POP DUP1 DUP3 GT ISZERO PUSH2 0x2226 JUMPI PUSH2 0x2225 PUSH2 0x21CC JUMP JUMPDEST JUMPDEST SWAP3 SWAP2 POP POP JUMP JUMPDEST PUSH32 0x45786365656473206D617857616C6C6574000000000000000000000000000000 PUSH0 DUP3 ADD MSTORE POP JUMP JUMPDEST PUSH0 PUSH2 0x2260 PUSH1 0x11 DUP4 PUSH2 0x1B97 JUMP JUMPDEST SWAP2 POP PUSH2 0x226B DUP3 PUSH2 0x222C JUMP JUMPDEST PUSH1 0x20 DUP3 ADD SWAP1 POP SWAP2 SWAP1 POP JUMP JUMPDEST PUSH0 PUSH1 0x20 DUP3 ADD SWAP1 POP DUP2 DUP2 SUB PUSH0 DUP4 ADD MSTORE PUSH2 0x228D DUP2 PUSH2 0x2254 JUMP JUMPDEST SWAP1 POP SWAP2 SWAP1 POP JUMP JUMPDEST PUSH32 0x5061757361626C653A206E6F7420706175736564000000000000000000000000 PUSH0 DUP3 ADD MSTORE POP JUMP JUMPDEST PUSH0 PUSH2 0x22C8 PUSH1 0x14 DUP4 PUSH2 0x1B97 JUMP JUMPDEST SWAP2 POP PUSH2 0x22D3 DUP3 PUSH2 0x2294 JUMP JUMPDEST PUSH1 0x20 DUP3 ADD SWAP1 POP SWAP2 SWAP1 POP JUMP JUMPDEST PUSH0 PUSH1 0x20 DUP3 ADD SWAP1 POP DUP2 DUP2 SUB PUSH0 DUP4 ADD MSTORE PUSH2 0x22F5 DUP2 PUSH2 0x22BC JUMP JUMPDEST SWAP1 POP SWAP2 SWAP1 POP JUMP JUMPDEST PUSH32 0x5061757361626C653A2070617573656400000000000000000000000000000000 PUSH0 DUP3 ADD MSTORE POP JUMP JUMPDEST PUSH0 PUSH2 0x2330 PUSH1 0x10 DUP4 PUSH2 0x1B97 JUMP JUMPDEST SWAP2 POP PUSH2 0x233B DUP3 PUSH2 0x22FC JUMP JUMPDEST PUSH1 0x20 DUP3 ADD SWAP1 POP SWAP2 SWAP1 POP JUMP JUMPDEST PUSH0 PUSH1 0x20 DUP3 ADD SWAP1 POP DUP2 DUP2 SUB PUSH0 DUP4 ADD MSTORE PUSH2 0x235D DUP2 PUSH2 0x2324 JUMP JUMPDEST SWAP1 POP SWAP2 SWAP1 POP JUMP INVALID LOG2 PUSH5 0x6970667358 0x22 SLT KECCAK256 MOD BLOBBASEFEE 0xB0 0xAB 0x2E 0xB4 SWAP1 0xB0 0x4C BASEFEE 0xDA 0xD6 DIV GT RJUMPI 0x244B PUSH32 0x7B997FB49C7B7667425E15372DEC64736F6C634300081E003300000000000000 "
				},
				"gasEstimates": {
					"creation": {
						"codeDepositCost": "1822800",
						"executionCost": "infinite",
						"totalCost": "infinite"
					},
					"external": {
						"ADVISORS_WALLET()": "507",
						"DAO_WALLET()": "441",
						"DEV_WALLET()": "419",
						"LIQUIDITY_WALLET()": "461",
						"MARKETING_WALLET()": "440",
						"OWNER_WALLET()": "505",
						"REWARDS_WALLET()": "462",
						"TOTAL_SUPPLY()": "392",
						"TREASURY_WALLET()": "440",
						"allowance(address,address)": "infinite",
						"approve(address,uint256)": "infinite",
						"balanceOf(address)": "2917",
						"burn(uint256)": "infinite",
						"burnFrom(address,uint256)": "infinite",
						"decimals()": "406",
						"enableTrading()": "infinite",
						"isDexPair(address)": "2967",
						"isLimitExempt(address)": "2878",
						"limitsInEffect()": "2556",
						"maxTxAmount()": "2537",
						"maxWalletAmount()": "2558",
						"name()": "infinite",
						"owner()": "2560",
						"pause()": "infinite",
						"paused()": "2569",
						"renounceOwnership()": "infinite",
						"rewardsDistributor()": "2598",
						"setDexPair(address,bool)": "infinite",
						"setLimitExempt(address,bool)": "infinite",
						"setLimits(uint256,uint256,bool)": "infinite",
						"setRewardsDistributor(address)": "infinite",
						"symbol()": "infinite",
						"totalSupply()": "2523",
						"tradingEnabled()": "2629",
						"transfer(address,uint256)": "infinite",
						"transferFrom(address,address,uint256)": "infinite",
						"transferOwnership(address)": "infinite",
						"unpause()": "infinite"
					},
					"internal": {
						"_update(address,address,uint256)": "infinite",
						"percentOf(uint256,uint256)": "infinite"
					}
				},
				"methodIdentifiers": {
					"ADVISORS_WALLET()": "539ff41a",
					"DAO_WALLET()": "86c3b461",
					"DEV_WALLET()": "2d04f820",
					"LIQUIDITY_WALLET()": "f545d07a",
					"MARKETING_WALLET()": "c6859d07",
					"OWNER_WALLET()": "fae36afb",
					"REWARDS_WALLET()": "d08ddc61",
					"TOTAL_SUPPLY()": "902d55a5",
					"TREASURY_WALLET()": "5daf3146",
					"allowance(address,address)": "dd62ed3e",
					"approve(address,uint256)": "095ea7b3",
					"balanceOf(address)": "70a08231",
					"burn(uint256)": "42966c68",
					"burnFrom(address,uint256)": "79cc6790",
					"decimals()": "313ce567",
					"enableTrading()": "8a8c523c",
					"isDexPair(address)": "40009927",
					"isLimitExempt(address)": "b0c150af",
					"limitsInEffect()": "4a62bb65",
					"maxTxAmount()": "8c0b5e22",
					"maxWalletAmount()": "aa4bde28",
					"name()": "06fdde03",
					"owner()": "8da5cb5b",
					"pause()": "8456cb59",
					"paused()": "5c975abb",
					"renounceOwnership()": "715018a6",
					"rewardsDistributor()": "3f2a5540",
					"setDexPair(address,bool)": "e55648f4",
					"setLimitExempt(address,bool)": "40a24e6c",
					"setLimits(uint256,uint256,bool)": "f5736d4b",
					"setRewardsDistributor(address)": "d1f5c33b",
					"symbol()": "95d89b41",
					"totalSupply()": "18160ddd",
					"tradingEnabled()": "4ada218b",
					"transfer(address,uint256)": "a9059cbb",
					"transferFrom(address,address,uint256)": "23b872dd",
					"transferOwnership(address)": "f2fde38b",
					"unpause()": "3f4ba83a"
				}
			},
			"storageLayout": {
				"storage": [
					{
						"astId": 415,
						"contract": "contracts/POMToken.sol:POMToken",
						"label": "_balances",
						"offset": 0,
						"slot": "0",
						"type": "t_mapping(t_address,t_uint256)"
					},
					{
						"astId": 421,
						"contract": "contracts/POMToken.sol:POMToken",
						"label": "_allowances",
						"offset": 0,
						"slot": "1",
						"type": "t_mapping(t_address,t_mapping(t_address,t_uint256))"
					},
					{
						"astId": 423,
						"contract": "contracts/POMToken.sol:POMToken",
						"label": "_totalSupply",
						"offset": 0,
						"slot": "2",
						"type": "t_uint256"
					},
					{
						"astId": 425,
						"contract": "contracts/POMToken.sol:POMToken",
						"label": "_name",
						"offset": 0,
						"slot": "3",
						"type": "t_string_storage"
					},
					{
						"astId": 427,
						"contract": "contracts/POMToken.sol:POMToken",
						"label": "_symbol",
						"offset": 0,
						"slot": "4",
						"type": "t_string_storage"
					},
					{
						"astId": 8,
						"contract": "contracts/POMToken.sol:POMToken",
						"label": "_owner",
						"offset": 0,
						"slot": "5",
						"type": "t_address"
					},
					{
						"astId": 302,
						"contract": "contracts/POMToken.sol:POMToken",
						"label": "_paused",
						"offset": 20,
						"slot": "5",
						"type": "t_bool"
					},
					{
						"astId": 1109,
						"contract": "contracts/POMToken.sol:POMToken",
						"label": "tradingEnabled",
						"offset": 21,
						"slot": "5",
						"type": "t_bool"
					},
					{
						"astId": 1111,
						"contract": "contracts/POMToken.sol:POMToken",
						"label": "maxTxAmount",
						"offset": 0,
						"slot": "6",
						"type": "t_uint256"
					},
					{
						"astId": 1113,
						"contract": "contracts/POMToken.sol:POMToken",
						"label": "maxWalletAmount",
						"offset": 0,
						"slot": "7",
						"type": "t_uint256"
					},
					{
						"astId": 1116,
						"contract": "contracts/POMToken.sol:POMToken",
						"label": "limitsInEffect",
						"offset": 0,
						"slot": "8",
						"type": "t_bool"
					},
					{
						"astId": 1120,
						"contract": "contracts/POMToken.sol:POMToken",
						"label": "isLimitExempt",
						"offset": 0,
						"slot": "9",
						"type": "t_mapping(t_address,t_bool)"
					},
					{
						"astId": 1124,
						"contract": "contracts/POMToken.sol:POMToken",
						"label": "isDexPair",
						"offset": 0,
						"slot": "10",
						"type": "t_mapping(t_address,t_bool)"
					},
					{
						"astId": 1180,
						"contract": "contracts/POMToken.sol:POMToken",
						"label": "rewardsDistributor",
						"offset": 0,
						"slot": "11",
						"type": "t_address"
					}
				],
				"types": {
					"t_address": {
						"encoding": "inplace",
						"label": "address",
						"numberOfBytes": "20"
					},
					"t_bool": {
						"encoding": "inplace",
						"label": "bool",
						"numberOfBytes": "1"
					},
					"t_mapping(t_address,t_bool)": {
						"encoding": "mapping",
						"key": "t_address",
						"label": "mapping(address => bool)",
						"numberOfBytes": "32",
						"value": "t_bool"
					},
					"t_mapping(t_address,t_mapping(t_address,t_uint256))": {
						"encoding": "mapping",
						"key": "t_address",
						"label": "mapping(address => mapping(address => uint256))",
						"numberOfBytes": "32",
						"value": "t_mapping(t_address,t_uint256)"
					},
					"t_mapping(t_address,t_uint256)": {
						"encoding": "mapping",
						"key": "t_address",
						"label": "mapping(address => uint256)",
						"numberOfBytes": "32",
						"value": "t_uint256"
					},
					"t_string_storage": {
						"encoding": "bytes",
						"label": "string",
						"numberOfBytes": "32"
					},
					"t_uint256": {
						"encoding": "inplace",
						"label": "uint256",
						"numberOfBytes": "32"
					}
				}
			},
			"userdoc": {
				"kind": "user",
				"methods": {},
				"version": 1
			}
		}
	}
}